{
  "contractName": "ArraysImpl",
  "abi": [
    {
      "inputs": [
        {
          "internalType": "uint256[]",
          "name": "array",
          "type": "uint256[]"
        }
      ],
      "stateMutability": "nonpayable",
      "type": "constructor"
    },
    {
      "inputs": [
        {
          "internalType": "uint256",
          "name": "element",
          "type": "uint256"
        }
      ],
      "name": "findUpperBound",
      "outputs": [
        {
          "internalType": "uint256",
          "name": "",
          "type": "uint256"
        }
      ],
      "stateMutability": "view",
      "type": "function"
    }
  ],
  "bytecode": "0x608060405234801561001057600080fd5b506040516103a73803806103a783398101604081905261002f916100a9565b8051610042906000906020840190610049565b505061017d565b828054828255906000526020600020908101928215610084579160200282015b82811115610084578251825591602001919060010190610069565b50610090929150610094565b5090565b5b808211156100905760008155600101610095565b600060208083850312156100bb578182fd5b82516001600160401b03808211156100d1578384fd5b818501915085601f8301126100e4578384fd5b8151818111156100f6576100f6610167565b838102604051601f19603f8301168101818110858211171561011a5761011a610167565b604052828152858101935084860182860187018a1015610138578788fd5b8795505b8386101561015a57805185526001959095019493860193860161013c565b5098975050505050505050565b634e487b7160e01b600052604160045260246000fd5b61021b8061018c6000396000f3fe608060405234801561001057600080fd5b506004361061002b5760003560e01c806333e3a58a14610030575b600080fd5b61004361003e366004610168565b610055565b60405190815260200160405180910390f35b60006100618183610067565b92915050565b815460009061007857506000610061565b82546000905b808210156100e25760006100928383610146565b9050848682815481106100b557634e487b7160e01b600052603260045260246000fd5b906000526020600020015411156100ce578091506100dc565b6100d9816001610180565b92505b5061007e565b600082118015610125575083856100fa6001856101b8565b8154811061011857634e487b7160e01b600052603260045260246000fd5b9060005260206000200154145b1561013e576101356001836101b8565b92505050610061565b509392505050565b60006101556002848418610198565b61016190848416610180565b9392505050565b600060208284031215610179578081fd5b5035919050565b60008219821115610193576101936101cf565b500190565b6000826101b357634e487b7160e01b81526012600452602481fd5b500490565b6000828210156101ca576101ca6101cf565b500390565b634e487b7160e01b600052601160045260246000fdfea264697066735822122027bec8b1aaaf33cf59639631c15983f61229ce4f9476ae5a73f21d1c77a8c2a564736f6c63430008020033",
  "immutableReferences": {},
  "source": "// SPDX-License-Identifier: MIT\n\npragma solidity ^0.8.0;\n\nimport \"../utils/Arrays.sol\";\n\ncontract ArraysImpl {\n    using Arrays for uint256[];\n\n    uint256[] private _array;\n\n    constructor(uint256[] memory array) {\n        _array = array;\n    }\n\n    function findUpperBound(uint256 element) external view returns (uint256) {\n        return _array.findUpperBound(element);\n    }\n}\n",
  "sourcePath": "/Users/shangyihuang/Documents/SocialFi/client/contracts/contracts/mocks/ArraysImpl.sol",
  "compiler": {
    "name": "solc",
    "version": "0.8.2+commit.661d1103.Emscripten.clang"
  },
  "schemaVersion": "3.4.7",
  "updatedAt": "2022-05-05T11:49:18.196Z",
  "devdoc": {
    "kind": "dev",
    "methods": {},
    "version": 1
  },
  "userdoc": {
    "kind": "user",
    "methods": {},
    "version": 1
  }
}