{
  "contractName": "BitMapMock",
  "abi": [
    {
      "inputs": [
        {
          "internalType": "uint256",
          "name": "index",
          "type": "uint256"
        }
      ],
      "name": "get",
      "outputs": [
        {
          "internalType": "bool",
          "name": "",
          "type": "bool"
        }
      ],
      "stateMutability": "view",
      "type": "function"
    },
    {
      "inputs": [
        {
          "internalType": "uint256",
          "name": "index",
          "type": "uint256"
        },
        {
          "internalType": "bool",
          "name": "value",
          "type": "bool"
        }
      ],
      "name": "setTo",
      "outputs": [],
      "stateMutability": "nonpayable",
      "type": "function"
    },
    {
      "inputs": [
        {
          "internalType": "uint256",
          "name": "index",
          "type": "uint256"
        }
      ],
      "name": "set",
      "outputs": [],
      "stateMutability": "nonpayable",
      "type": "function"
    },
    {
      "inputs": [
        {
          "internalType": "uint256",
          "name": "index",
          "type": "uint256"
        }
      ],
      "name": "unset",
      "outputs": [],
      "stateMutability": "nonpayable",
      "type": "function"
    }
  ],
  "bytecode": "0x608060405234801561001057600080fd5b506101fb806100206000396000f3fe608060405234801561001057600080fd5b506004361061004c5760003560e01c8063088d22551461005157806360fe47b1146100665780639507d39a14610079578063dcc9d43c146100bf575b600080fd5b61006461005f36600461017a565b6100d2565b005b61006461007436600461017a565b6100f6565b6100ab61008736600461017a565b600881901c600090815260208190526040812054600160ff84161b16151592915050565b604051901515815260200160405180910390f35b6100646100cd366004610192565b61011a565b600881901c60009081526020819052604090208054600160ff84161b191690555b50565b600881901c60009081526020819052604090208054600160ff84161b1790556100f3565b6101266000838361012a565b5050565b801561015457600882901c60009081526020849052604090208054600160ff85161b179055610175565b600882901c60009081526020849052604090208054600160ff85161b191690555b505050565b60006020828403121561018b578081fd5b5035919050565b600080604083850312156101a4578081fd5b82359150602083013580151581146101ba578182fd5b80915050925092905056fea264697066735822122098d7665f35fe2fa6a48d557ed262a2a0f15dd1f9564c79d8fef6e662273418b964736f6c63430008020033",
  "immutableReferences": {},
  "source": "// SPDX-License-Identifier: MIT\n\npragma solidity ^0.8.0;\n\nimport \"../utils/structs/BitMaps.sol\";\n\ncontract BitMapMock {\n    using BitMaps for BitMaps.BitMap;\n\n    BitMaps.BitMap private _bitmap;\n\n    function get(uint256 index) public view returns (bool) {\n        return _bitmap.get(index);\n    }\n\n    function setTo(uint256 index, bool value) public {\n        _bitmap.setTo(index, value);\n    }\n\n    function set(uint256 index) public {\n        _bitmap.set(index);\n    }\n\n    function unset(uint256 index) public {\n        _bitmap.unset(index);\n    }\n}\n",
  "sourcePath": "/Users/shangyihuang/Documents/SocialFi/client/contracts/contracts/mocks/BitmapMock.sol",
  "compiler": {
    "name": "solc",
    "version": "0.8.2+commit.661d1103.Emscripten.clang"
  },
  "schemaVersion": "3.4.7",
  "updatedAt": "2022-05-05T11:49:18.198Z",
  "devdoc": {
    "kind": "dev",
    "methods": {},
    "version": 1
  },
  "userdoc": {
    "kind": "user",
    "methods": {},
    "version": 1
  }
}