{
  "contractName": "ClonesMock",
  "abi": [
    {
      "anonymous": false,
      "inputs": [
        {
          "indexed": false,
          "internalType": "address",
          "name": "instance",
          "type": "address"
        }
      ],
      "name": "NewInstance",
      "type": "event"
    },
    {
      "inputs": [
        {
          "internalType": "address",
          "name": "implementation",
          "type": "address"
        },
        {
          "internalType": "bytes",
          "name": "initdata",
          "type": "bytes"
        }
      ],
      "name": "clone",
      "outputs": [],
      "stateMutability": "payable",
      "type": "function"
    },
    {
      "inputs": [
        {
          "internalType": "address",
          "name": "implementation",
          "type": "address"
        },
        {
          "internalType": "bytes32",
          "name": "salt",
          "type": "bytes32"
        },
        {
          "internalType": "bytes",
          "name": "initdata",
          "type": "bytes"
        }
      ],
      "name": "cloneDeterministic",
      "outputs": [],
      "stateMutability": "payable",
      "type": "function"
    },
    {
      "inputs": [
        {
          "internalType": "address",
          "name": "implementation",
          "type": "address"
        },
        {
          "internalType": "bytes32",
          "name": "salt",
          "type": "bytes32"
        }
      ],
      "name": "predictDeterministicAddress",
      "outputs": [
        {
          "internalType": "address",
          "name": "predicted",
          "type": "address"
        }
      ],
      "stateMutability": "view",
      "type": "function"
    }
  ],
  "bytecode": "0x608060405234801561001057600080fd5b506106cd806100206000396000f3fe6080604052600436106100345760003560e01c80630fbe133c14610039578063360d0fad1461004e5780636e9ebc811461008a575b600080fd5b61004c6100473660046105a2565b61009d565b005b34801561005a57600080fd5b5061006e610069366004610521565b6100f3565b6040516001600160a01b03909116815260200160405180910390f35b61004c61009836600461054a565b610111565b6100ee6100b2846001600160a01b031661012d565b83838080601f0160208091040260200160405190810160405280939291908181526020018383808284376000920191909152506101cf92505050565b505050565b60006101086001600160a01b0384168361022c565b90505b92915050565b6101276100b26001600160a01b03861685610292565b50505050565b6000604051733d602d80600a3d3981f3363d3d373d3d3d363d7360601b81528260601b60148201526e5af43d82803e903d91602b57fd5bf360881b60288201526037816000f09150506001600160a01b0381166101ca5760405162461bcd60e51b8152602060048201526016602482015275115490cc4c4d8dce8818dc99585d194819985a5b195960521b60448201526064015b60405180910390fd5b919050565b8051156101ec576101ea6001600160a01b0383168234610332565b505b6040516001600160a01b03831681527f39a773f10839d86923d91d5ce7d6642f2f63a95d850495abb1f162e38aa04ea59060200160405180910390a15050565b6000610108838330604051733d602d80600a3d3981f3363d3d373d3d3d363d7360601b8152606093841b60148201526f5af43d82803e903d91602b57fd5bf3ff60801b6028820152921b6038830152604c8201526037808220606c830152605591012090565b6000604051733d602d80600a3d3981f3363d3d373d3d3d363d7360601b81528360601b60148201526e5af43d82803e903d91602b57fd5bf360881b6028820152826037826000f59150506001600160a01b03811661010b5760405162461bcd60e51b815260206004820152601760248201527f455243313136373a2063726561746532206661696c656400000000000000000060448201526064016101c1565b606061035884848460405180606001604052806029815260200161066f60299139610362565b90505b9392505050565b6060824710156103c35760405162461bcd60e51b815260206004820152602660248201527f416464726573733a20696e73756666696369656e742062616c616e636520666f6044820152651c8818d85b1b60d21b60648201526084016101c1565b843b6104115760405162461bcd60e51b815260206004820152601d60248201527f416464726573733a2063616c6c20746f206e6f6e2d636f6e747261637400000060448201526064016101c1565b600080866001600160a01b0316858760405161042d91906105f3565b60006040518083038185875af1925050503d806000811461046a576040519150601f19603f3d011682016040523d82523d6000602084013e61046f565b606091505b509150915061047f82828661048a565b979650505050505050565b6060831561049957508161035b565b8251156104a95782518084602001fd5b8160405162461bcd60e51b81526004016101c1919061060f565b80356001600160a01b03811681146101ca57600080fd5b60008083601f8401126104eb578182fd5b50813567ffffffffffffffff811115610502578182fd5b60208301915083602082850101111561051a57600080fd5b9250929050565b60008060408385031215610533578182fd5b61053c836104c3565b946020939093013593505050565b6000806000806060858703121561055f578182fd5b610568856104c3565b935060208501359250604085013567ffffffffffffffff81111561058a578283fd5b610596878288016104da565b95989497509550505050565b6000806000604084860312156105b6578283fd5b6105bf846104c3565b9250602084013567ffffffffffffffff8111156105da578283fd5b6105e6868287016104da565b9497909650939450505050565b60008251610605818460208701610642565b9190910192915050565b600060208252825180602084015261062e816040850160208701610642565b601f01601f19169190910160400192915050565b60005b8381101561065d578181015183820152602001610645565b83811115610127575050600091015256fe416464726573733a206c6f772d6c6576656c2063616c6c20776974682076616c7565206661696c6564a2646970667358221220a2bdbe16c27c7953521bd5e884cd53fb77e5ef1c5b6d39a84a3f9be7b46fa6f064736f6c63430008020033",
  "immutableReferences": {},
  "source": "// SPDX-License-Identifier: MIT\n\npragma solidity ^0.8.0;\n\nimport \"../proxy/Clones.sol\";\nimport \"../utils/Address.sol\";\n\ncontract ClonesMock {\n    using Address for address;\n    using Clones for address;\n\n    event NewInstance(address instance);\n\n    function clone(address implementation, bytes calldata initdata) public payable {\n        _initAndEmit(implementation.clone(), initdata);\n    }\n\n    function cloneDeterministic(\n        address implementation,\n        bytes32 salt,\n        bytes calldata initdata\n    ) public payable {\n        _initAndEmit(implementation.cloneDeterministic(salt), initdata);\n    }\n\n    function predictDeterministicAddress(address implementation, bytes32 salt) public view returns (address predicted) {\n        return implementation.predictDeterministicAddress(salt);\n    }\n\n    function _initAndEmit(address instance, bytes memory initdata) private {\n        if (initdata.length > 0) {\n            instance.functionCallWithValue(initdata, msg.value);\n        }\n        emit NewInstance(instance);\n    }\n}\n",
  "sourcePath": "/Users/shangyihuang/Documents/SocialFi/client/contracts/contracts/mocks/ClonesMock.sol",
  "compiler": {
    "name": "solc",
    "version": "0.8.2+commit.661d1103.Emscripten.clang"
  },
  "schemaVersion": "3.4.7",
  "updatedAt": "2022-05-05T11:49:18.201Z",
  "devdoc": {
    "kind": "dev",
    "methods": {},
    "version": 1
  },
  "userdoc": {
    "kind": "user",
    "methods": {},
    "version": 1
  }
}