{
  "contractName": "EIP712External",
  "abi": [
    {
      "inputs": [
        {
          "internalType": "string",
          "name": "name",
          "type": "string"
        },
        {
          "internalType": "string",
          "name": "version",
          "type": "string"
        }
      ],
      "stateMutability": "nonpayable",
      "type": "constructor"
    },
    {
      "inputs": [],
      "name": "domainSeparator",
      "outputs": [
        {
          "internalType": "bytes32",
          "name": "",
          "type": "bytes32"
        }
      ],
      "stateMutability": "view",
      "type": "function"
    },
    {
      "inputs": [
        {
          "internalType": "bytes",
          "name": "signature",
          "type": "bytes"
        },
        {
          "internalType": "address",
          "name": "signer",
          "type": "address"
        },
        {
          "internalType": "address",
          "name": "mailTo",
          "type": "address"
        },
        {
          "internalType": "string",
          "name": "mailContents",
          "type": "string"
        }
      ],
      "name": "verify",
      "outputs": [],
      "stateMutability": "view",
      "type": "function"
    },
    {
      "inputs": [],
      "name": "getChainId",
      "outputs": [
        {
          "internalType": "uint256",
          "name": "",
          "type": "uint256"
        }
      ],
      "stateMutability": "view",
      "type": "function"
    }
  ],
  "bytecode": "0x61012060405234801561001157600080fd5b506040516109e93803806109e983398101604081905261003091610166565b815160209283012081519183019190912060c082815260e08290524660a0818152604080517f8b73c3c69bb8fe3d512ecc4cf759cc79239f7b179b0ffacaa9a75d522b39400f818901819052818301979097526060810195909552608080860193909352308583015280518086039092018252939092019092528051930192909220909152610100526101dc565b600082601f8301126100ce578081fd5b81516001600160401b03808211156100e8576100e86101c6565b604051601f8301601f19908116603f01168101908282118183101715610110576101106101c6565b8160405283815260209250868385880101111561012b578485fd5b8491505b8382101561014c578582018301518183018401529082019061012f565b8382111561015c57848385830101525b9695505050505050565b60008060408385031215610178578182fd5b82516001600160401b038082111561018e578384fd5b61019a868387016100be565b935060208501519150808211156101af578283fd5b506101bc858286016100be565b9150509250929050565b634e487b7160e01b600052604160045260246000fd5b60805160a05160c05160e051610100516107c9610220600039600061020f0152600061025e01526000610239015260006101bb015260006101e401526107c96000f3fe608060405234801561001057600080fd5b50600436106100415760003560e01c806308c6e079146100465780633408e4701461005b578063f698da2514610075575b600080fd5b6100596100543660046106d2565b61007d565b005b610063610129565b60405190815260200160405180910390f35b61006361012e565b60006100f37f847fc9da8ec3c72cae85ca691245eaeb0a4a1e74f77c3a919c43afda231d39ba8484805190602001206040516020016100d8939291909283526001600160a01b03919091166020830152604082015260600190565b6040516020818303038152906040528051906020012061013d565b905060006101018287610193565b9050846001600160a01b0316816001600160a01b03161461012157600080fd5b505050505050565b465b90565b60006101386101b7565b905090565b600061018b61014a6101b7565b8360405161190160f01b6020820152602281018390526042810182905260009060620160405160208183030381529060405280519060200120905092915050565b90505b919050565b60008060006101a285856102ae565b915091506101af8161031e565b509392505050565b60007f000000000000000000000000000000000000000000000000000000000000000046141561020857507f000000000000000000000000000000000000000000000000000000000000000061012b565b50604080517f00000000000000000000000000000000000000000000000000000000000000006020808301919091527f0000000000000000000000000000000000000000000000000000000000000000828401527f000000000000000000000000000000000000000000000000000000000000000060608301524660808301523060a0808401919091528351808403909101815260c0909201909252805191012061012b565b6000808251604114156102e55760208301516040840151606085015160001a6102d987828585610529565b94509450505050610317565b82516040141561030f5760208301516040840151610304868383610616565b935093505050610317565b506000905060025b9250929050565b600081600481111561034057634e487b7160e01b600052602160045260246000fd5b141561034b57610526565b600181600481111561036d57634e487b7160e01b600052602160045260246000fd5b14156103c05760405162461bcd60e51b815260206004820152601860248201527f45434453413a20696e76616c6964207369676e6174757265000000000000000060448201526064015b60405180910390fd5b60028160048111156103e257634e487b7160e01b600052602160045260246000fd5b14156104305760405162461bcd60e51b815260206004820152601f60248201527f45434453413a20696e76616c6964207369676e6174757265206c656e6774680060448201526064016103b7565b600381600481111561045257634e487b7160e01b600052602160045260246000fd5b14156104ab5760405162461bcd60e51b815260206004820152602260248201527f45434453413a20696e76616c6964207369676e6174757265202773272076616c604482015261756560f01b60648201526084016103b7565b60048160048111156104cd57634e487b7160e01b600052602160045260246000fd5b14156105265760405162461bcd60e51b815260206004820152602260248201527f45434453413a20696e76616c6964207369676e6174757265202776272076616c604482015261756560f01b60648201526084016103b7565b50565b6000807f7fffffffffffffffffffffffffffffff5d576e7357a4501ddfe92f46681b20a0831115610560575060009050600361060d565b8460ff16601b1415801561057857508460ff16601c14155b15610589575060009050600461060d565b6040805160008082526020820180845289905260ff881692820192909252606081018690526080810185905260019060a0016020604051602081039080840390855afa1580156105dd573d6000803e3d6000fd5b5050604051601f1901519150506001600160a01b0381166106065760006001925092505061060d565b9150600090505b94509492505050565b6000806001600160ff1b03831660ff84901c601b0161063787828885610529565b935093505050935093915050565b600067ffffffffffffffff808411156106605761066061077d565b604051601f8501601f19908116603f011681019082821181831017156106885761068861077d565b816040528093508581528686860111156106a157600080fd5b858560208301376000602087830101525050509392505050565b80356001600160a01b038116811461018e57600080fd5b600080600080608085870312156106e7578384fd5b843567ffffffffffffffff808211156106fe578586fd5b818701915087601f830112610711578586fd5b61072088833560208501610645565b955061072e602088016106bb565b945061073c604088016106bb565b93506060870135915080821115610751578283fd5b508501601f81018713610762578182fd5b61077187823560208401610645565b91505092959194509250565b634e487b7160e01b600052604160045260246000fdfea26469706673582212209479a30ddf0ac9abbd3106357f642ba50b1faa72e37a182039db0e0ae0b7c4f764736f6c63430008020033",
  "immutableReferences": {
    "24808": [
      {
        "length": 32,
        "start": 484
      }
    ],
    "24810": [
      {
        "length": 32,
        "start": 443
      }
    ],
    "24812": [
      {
        "length": 32,
        "start": 569
      }
    ],
    "24814": [
      {
        "length": 32,
        "start": 606
      }
    ],
    "24816": [
      {
        "length": 32,
        "start": 527
      }
    ]
  },
  "source": "// SPDX-License-Identifier: MIT\n\npragma solidity ^0.8.0;\n\nimport \"../utils/cryptography/draft-EIP712.sol\";\nimport \"../utils/cryptography/ECDSA.sol\";\n\ncontract EIP712External is EIP712 {\n    constructor(string memory name, string memory version) EIP712(name, version) {}\n\n    function domainSeparator() external view returns (bytes32) {\n        return _domainSeparatorV4();\n    }\n\n    function verify(\n        bytes memory signature,\n        address signer,\n        address mailTo,\n        string memory mailContents\n    ) external view {\n        bytes32 digest = _hashTypedDataV4(\n            keccak256(abi.encode(keccak256(\"Mail(address to,string contents)\"), mailTo, keccak256(bytes(mailContents))))\n        );\n        address recoveredSigner = ECDSA.recover(digest, signature);\n        require(recoveredSigner == signer);\n    }\n\n    function getChainId() external view returns (uint256) {\n        return block.chainid;\n    }\n}\n",
  "sourcePath": "/Users/shangyihuang/Documents/SocialFi/client/contracts/contracts/mocks/EIP712External.sol",
  "compiler": {
    "name": "solc",
    "version": "0.8.2+commit.661d1103.Emscripten.clang"
  },
  "schemaVersion": "3.4.7",
  "updatedAt": "2022-05-05T11:49:18.226Z",
  "devdoc": {
    "kind": "dev",
    "methods": {},
    "version": 1
  },
  "userdoc": {
    "kind": "user",
    "methods": {},
    "version": 1
  }
}