{
  "contractName": "ERC165CheckerMock",
  "abi": [
    {
      "inputs": [
        {
          "internalType": "address",
          "name": "account",
          "type": "address"
        }
      ],
      "name": "supportsERC165",
      "outputs": [
        {
          "internalType": "bool",
          "name": "",
          "type": "bool"
        }
      ],
      "stateMutability": "view",
      "type": "function"
    },
    {
      "inputs": [
        {
          "internalType": "address",
          "name": "account",
          "type": "address"
        },
        {
          "internalType": "bytes4",
          "name": "interfaceId",
          "type": "bytes4"
        }
      ],
      "name": "supportsInterface",
      "outputs": [
        {
          "internalType": "bool",
          "name": "",
          "type": "bool"
        }
      ],
      "stateMutability": "view",
      "type": "function"
    },
    {
      "inputs": [
        {
          "internalType": "address",
          "name": "account",
          "type": "address"
        },
        {
          "internalType": "bytes4[]",
          "name": "interfaceIds",
          "type": "bytes4[]"
        }
      ],
      "name": "supportsAllInterfaces",
      "outputs": [
        {
          "internalType": "bool",
          "name": "",
          "type": "bool"
        }
      ],
      "stateMutability": "view",
      "type": "function"
    },
    {
      "inputs": [
        {
          "internalType": "address",
          "name": "account",
          "type": "address"
        },
        {
          "internalType": "bytes4[]",
          "name": "interfaceIds",
          "type": "bytes4[]"
        }
      ],
      "name": "getSupportedInterfaces",
      "outputs": [
        {
          "internalType": "bool[]",
          "name": "",
          "type": "bool[]"
        }
      ],
      "stateMutability": "view",
      "type": "function"
    }
  ],
  "bytecode": "0x608060405234801561001057600080fd5b5061061b806100206000396000f3fe608060405234801561001057600080fd5b506004361061004c5760003560e01c80634b9dd9041461005157806377e6b4cc14610079578063c398a92514610099578063d9057007146100ac575b600080fd5b61006461005f3660046103fe565b6100bf565b60405190151581526020015b60405180910390f35b61008c6100873660046103fe565b6100dd565b6040516100709190610562565b6100646100a73660046103e4565b6100f2565b6100646100ba3660046104d7565b61010e565b60006100d46001600160a01b03841683610123565b90505b92915050565b60606100d46001600160a01b038416836101a1565b6000610106826001600160a01b0316610281565b90505b919050565b60006100d46001600160a01b038416836102b4565b600061012e83610281565b61013a575060006100d7565b60005b8251811015610197576101778484838151811061016a57634e487b7160e01b600052603260045260246000fd5b60200260200101516102cc565b6101855760009150506100d7565b8061018f816105a8565b91505061013d565b5060019392505050565b60606000825167ffffffffffffffff8111156101cd57634e487b7160e01b600052604160045260246000fd5b6040519080825280602002602001820160405280156101f6578160200160208202803683370190505b50905061020284610281565b156100d45760005b8351811015610279576102378585838151811061016a57634e487b7160e01b600052603260045260246000fd5b82828151811061025757634e487b7160e01b600052603260045260246000fd5b9115156020928302919091019091015280610271816105a8565b91505061020a565b509392505050565b6000610294826301ffc9a760e01b6102cc565b801561010657506102ad826001600160e01b03196102cc565b1592915050565b60006102bf83610281565b80156100d457506100d483835b604080516001600160e01b0319831660248083019190915282518083039091018152604490910182526020810180516001600160e01b03166301ffc9a760e01b179052905160009190829081906001600160a01b0387169061753090610333908690610529565b6000604051808303818686fa925050503d806000811461036f576040519150601f19603f3d011682016040523d82523d6000602084013e610374565b606091505b509150915060208151101561038f57600093505050506100d7565b8180156103ab5750808060200190518101906103ab9190610509565b9695505050505050565b80356001600160a01b038116811461010957600080fd5b80356001600160e01b03198116811461010957600080fd5b6000602082840312156103f5578081fd5b6100d4826103b5565b60008060408385031215610410578081fd5b610419836103b5565b915060208084013567ffffffffffffffff80821115610436578384fd5b818601915086601f830112610449578384fd5b81358181111561045b5761045b6105cf565b838102604051601f19603f8301168101818110858211171561047f5761047f6105cf565b604052828152858101935084860182860187018b101561049d578788fd5b8795505b838610156104c6576104b2816103cc565b8552600195909501949386019386016104a1565b508096505050505050509250929050565b600080604083850312156104e9578182fd5b6104f2836103b5565b9150610500602084016103cc565b90509250929050565b60006020828403121561051a578081fd5b815180151581146100d4578182fd5b60008251815b81811015610549576020818601810151858301520161052f565b818111156105575782828501525b509190910192915050565b6020808252825182820181905260009190848201906040850190845b8181101561059c57835115158352928401929184019160010161057e565b50909695505050505050565b60006000198214156105c857634e487b7160e01b81526011600452602481fd5b5060010190565b634e487b7160e01b600052604160045260246000fdfea2646970667358221220abc39135943c4f81d32a5daaf7c36a1317922a70fec45d595e73c1bd0a48988764736f6c63430008020033",
  "immutableReferences": {},
  "source": "// SPDX-License-Identifier: MIT\n\npragma solidity ^0.8.0;\n\nimport \"../utils/introspection/ERC165Checker.sol\";\n\ncontract ERC165CheckerMock {\n    using ERC165Checker for address;\n\n    function supportsERC165(address account) public view returns (bool) {\n        return account.supportsERC165();\n    }\n\n    function supportsInterface(address account, bytes4 interfaceId) public view returns (bool) {\n        return account.supportsInterface(interfaceId);\n    }\n\n    function supportsAllInterfaces(address account, bytes4[] memory interfaceIds) public view returns (bool) {\n        return account.supportsAllInterfaces(interfaceIds);\n    }\n\n    function getSupportedInterfaces(address account, bytes4[] memory interfaceIds) public view returns (bool[] memory) {\n        return account.getSupportedInterfaces(interfaceIds);\n    }\n}\n",
  "sourcePath": "/Users/shangyihuang/Documents/SocialFi/client/contracts/contracts/mocks/ERC165CheckerMock.sol",
  "compiler": {
    "name": "solc",
    "version": "0.8.2+commit.661d1103.Emscripten.clang"
  },
  "schemaVersion": "3.4.7",
  "updatedAt": "2022-05-05T11:49:18.293Z",
  "devdoc": {
    "kind": "dev",
    "methods": {},
    "version": 1
  },
  "userdoc": {
    "kind": "user",
    "methods": {},
    "version": 1
  }
}