{
  "contractName": "GovernorMock",
  "abi": [
    {
      "inputs": [
        {
          "internalType": "string",
          "name": "name_",
          "type": "string"
        },
        {
          "internalType": "contract ERC20Votes",
          "name": "token_",
          "type": "address"
        },
        {
          "internalType": "uint256",
          "name": "votingDelay_",
          "type": "uint256"
        },
        {
          "internalType": "uint256",
          "name": "votingPeriod_",
          "type": "uint256"
        },
        {
          "internalType": "uint256",
          "name": "quorumNumerator_",
          "type": "uint256"
        }
      ],
      "stateMutability": "nonpayable",
      "type": "constructor"
    },
    {
      "anonymous": false,
      "inputs": [
        {
          "indexed": false,
          "internalType": "uint256",
          "name": "proposalId",
          "type": "uint256"
        }
      ],
      "name": "ProposalCanceled",
      "type": "event"
    },
    {
      "anonymous": false,
      "inputs": [
        {
          "indexed": false,
          "internalType": "uint256",
          "name": "proposalId",
          "type": "uint256"
        },
        {
          "indexed": false,
          "internalType": "address",
          "name": "proposer",
          "type": "address"
        },
        {
          "indexed": false,
          "internalType": "address[]",
          "name": "targets",
          "type": "address[]"
        },
        {
          "indexed": false,
          "internalType": "uint256[]",
          "name": "values",
          "type": "uint256[]"
        },
        {
          "indexed": false,
          "internalType": "string[]",
          "name": "signatures",
          "type": "string[]"
        },
        {
          "indexed": false,
          "internalType": "bytes[]",
          "name": "calldatas",
          "type": "bytes[]"
        },
        {
          "indexed": false,
          "internalType": "uint256",
          "name": "startBlock",
          "type": "uint256"
        },
        {
          "indexed": false,
          "internalType": "uint256",
          "name": "endBlock",
          "type": "uint256"
        },
        {
          "indexed": false,
          "internalType": "string",
          "name": "description",
          "type": "string"
        }
      ],
      "name": "ProposalCreated",
      "type": "event"
    },
    {
      "anonymous": false,
      "inputs": [
        {
          "indexed": false,
          "internalType": "uint256",
          "name": "proposalId",
          "type": "uint256"
        }
      ],
      "name": "ProposalExecuted",
      "type": "event"
    },
    {
      "anonymous": false,
      "inputs": [
        {
          "indexed": false,
          "internalType": "uint256",
          "name": "oldQuorumNumerator",
          "type": "uint256"
        },
        {
          "indexed": false,
          "internalType": "uint256",
          "name": "newQuorumNumerator",
          "type": "uint256"
        }
      ],
      "name": "QuorumNumeratorUpdated",
      "type": "event"
    },
    {
      "anonymous": false,
      "inputs": [
        {
          "indexed": true,
          "internalType": "address",
          "name": "voter",
          "type": "address"
        },
        {
          "indexed": false,
          "internalType": "uint256",
          "name": "proposalId",
          "type": "uint256"
        },
        {
          "indexed": false,
          "internalType": "uint8",
          "name": "support",
          "type": "uint8"
        },
        {
          "indexed": false,
          "internalType": "uint256",
          "name": "weight",
          "type": "uint256"
        },
        {
          "indexed": false,
          "internalType": "string",
          "name": "reason",
          "type": "string"
        }
      ],
      "name": "VoteCast",
      "type": "event"
    },
    {
      "inputs": [],
      "name": "BALLOT_TYPEHASH",
      "outputs": [
        {
          "internalType": "bytes32",
          "name": "",
          "type": "bytes32"
        }
      ],
      "stateMutability": "view",
      "type": "function"
    },
    {
      "inputs": [],
      "name": "COUNTING_MODE",
      "outputs": [
        {
          "internalType": "string",
          "name": "",
          "type": "string"
        }
      ],
      "stateMutability": "pure",
      "type": "function"
    },
    {
      "inputs": [
        {
          "internalType": "uint256",
          "name": "proposalId",
          "type": "uint256"
        },
        {
          "internalType": "uint8",
          "name": "support",
          "type": "uint8"
        }
      ],
      "name": "castVote",
      "outputs": [
        {
          "internalType": "uint256",
          "name": "",
          "type": "uint256"
        }
      ],
      "stateMutability": "nonpayable",
      "type": "function"
    },
    {
      "inputs": [
        {
          "internalType": "uint256",
          "name": "proposalId",
          "type": "uint256"
        },
        {
          "internalType": "uint8",
          "name": "support",
          "type": "uint8"
        },
        {
          "internalType": "uint8",
          "name": "v",
          "type": "uint8"
        },
        {
          "internalType": "bytes32",
          "name": "r",
          "type": "bytes32"
        },
        {
          "internalType": "bytes32",
          "name": "s",
          "type": "bytes32"
        }
      ],
      "name": "castVoteBySig",
      "outputs": [
        {
          "internalType": "uint256",
          "name": "",
          "type": "uint256"
        }
      ],
      "stateMutability": "nonpayable",
      "type": "function"
    },
    {
      "inputs": [
        {
          "internalType": "uint256",
          "name": "proposalId",
          "type": "uint256"
        },
        {
          "internalType": "uint8",
          "name": "support",
          "type": "uint8"
        },
        {
          "internalType": "string",
          "name": "reason",
          "type": "string"
        }
      ],
      "name": "castVoteWithReason",
      "outputs": [
        {
          "internalType": "uint256",
          "name": "",
          "type": "uint256"
        }
      ],
      "stateMutability": "nonpayable",
      "type": "function"
    },
    {
      "inputs": [
        {
          "internalType": "address[]",
          "name": "targets",
          "type": "address[]"
        },
        {
          "internalType": "uint256[]",
          "name": "values",
          "type": "uint256[]"
        },
        {
          "internalType": "bytes[]",
          "name": "calldatas",
          "type": "bytes[]"
        },
        {
          "internalType": "bytes32",
          "name": "descriptionHash",
          "type": "bytes32"
        }
      ],
      "name": "execute",
      "outputs": [
        {
          "internalType": "uint256",
          "name": "",
          "type": "uint256"
        }
      ],
      "stateMutability": "payable",
      "type": "function"
    },
    {
      "inputs": [
        {
          "internalType": "uint256",
          "name": "proposalId",
          "type": "uint256"
        },
        {
          "internalType": "address",
          "name": "account",
          "type": "address"
        }
      ],
      "name": "hasVoted",
      "outputs": [
        {
          "internalType": "bool",
          "name": "",
          "type": "bool"
        }
      ],
      "stateMutability": "view",
      "type": "function"
    },
    {
      "inputs": [
        {
          "internalType": "address[]",
          "name": "targets",
          "type": "address[]"
        },
        {
          "internalType": "uint256[]",
          "name": "values",
          "type": "uint256[]"
        },
        {
          "internalType": "bytes[]",
          "name": "calldatas",
          "type": "bytes[]"
        },
        {
          "internalType": "bytes32",
          "name": "descriptionHash",
          "type": "bytes32"
        }
      ],
      "name": "hashProposal",
      "outputs": [
        {
          "internalType": "uint256",
          "name": "",
          "type": "uint256"
        }
      ],
      "stateMutability": "pure",
      "type": "function"
    },
    {
      "inputs": [],
      "name": "name",
      "outputs": [
        {
          "internalType": "string",
          "name": "",
          "type": "string"
        }
      ],
      "stateMutability": "view",
      "type": "function"
    },
    {
      "inputs": [
        {
          "internalType": "uint256",
          "name": "proposalId",
          "type": "uint256"
        }
      ],
      "name": "proposalDeadline",
      "outputs": [
        {
          "internalType": "uint256",
          "name": "",
          "type": "uint256"
        }
      ],
      "stateMutability": "view",
      "type": "function"
    },
    {
      "inputs": [
        {
          "internalType": "uint256",
          "name": "proposalId",
          "type": "uint256"
        }
      ],
      "name": "proposalSnapshot",
      "outputs": [
        {
          "internalType": "uint256",
          "name": "",
          "type": "uint256"
        }
      ],
      "stateMutability": "view",
      "type": "function"
    },
    {
      "inputs": [
        {
          "internalType": "uint256",
          "name": "proposalId",
          "type": "uint256"
        }
      ],
      "name": "proposalVotes",
      "outputs": [
        {
          "internalType": "uint256",
          "name": "againstVotes",
          "type": "uint256"
        },
        {
          "internalType": "uint256",
          "name": "forVotes",
          "type": "uint256"
        },
        {
          "internalType": "uint256",
          "name": "abstainVotes",
          "type": "uint256"
        }
      ],
      "stateMutability": "view",
      "type": "function"
    },
    {
      "inputs": [
        {
          "internalType": "address[]",
          "name": "targets",
          "type": "address[]"
        },
        {
          "internalType": "uint256[]",
          "name": "values",
          "type": "uint256[]"
        },
        {
          "internalType": "bytes[]",
          "name": "calldatas",
          "type": "bytes[]"
        },
        {
          "internalType": "string",
          "name": "description",
          "type": "string"
        }
      ],
      "name": "propose",
      "outputs": [
        {
          "internalType": "uint256",
          "name": "",
          "type": "uint256"
        }
      ],
      "stateMutability": "nonpayable",
      "type": "function"
    },
    {
      "inputs": [
        {
          "internalType": "uint256",
          "name": "blockNumber",
          "type": "uint256"
        }
      ],
      "name": "quorum",
      "outputs": [
        {
          "internalType": "uint256",
          "name": "",
          "type": "uint256"
        }
      ],
      "stateMutability": "view",
      "type": "function"
    },
    {
      "inputs": [],
      "name": "quorumDenominator",
      "outputs": [
        {
          "internalType": "uint256",
          "name": "",
          "type": "uint256"
        }
      ],
      "stateMutability": "view",
      "type": "function"
    },
    {
      "inputs": [],
      "name": "quorumNumerator",
      "outputs": [
        {
          "internalType": "uint256",
          "name": "",
          "type": "uint256"
        }
      ],
      "stateMutability": "view",
      "type": "function"
    },
    {
      "inputs": [
        {
          "internalType": "uint256",
          "name": "proposalId",
          "type": "uint256"
        }
      ],
      "name": "state",
      "outputs": [
        {
          "internalType": "enum IGovernor.ProposalState",
          "name": "",
          "type": "uint8"
        }
      ],
      "stateMutability": "view",
      "type": "function"
    },
    {
      "inputs": [
        {
          "internalType": "bytes4",
          "name": "interfaceId",
          "type": "bytes4"
        }
      ],
      "name": "supportsInterface",
      "outputs": [
        {
          "internalType": "bool",
          "name": "",
          "type": "bool"
        }
      ],
      "stateMutability": "view",
      "type": "function"
    },
    {
      "inputs": [],
      "name": "token",
      "outputs": [
        {
          "internalType": "contract ERC20Votes",
          "name": "",
          "type": "address"
        }
      ],
      "stateMutability": "view",
      "type": "function"
    },
    {
      "inputs": [
        {
          "internalType": "uint256",
          "name": "newQuorumNumerator",
          "type": "uint256"
        }
      ],
      "name": "updateQuorumNumerator",
      "outputs": [],
      "stateMutability": "nonpayable",
      "type": "function"
    },
    {
      "inputs": [],
      "name": "version",
      "outputs": [
        {
          "internalType": "string",
          "name": "",
          "type": "string"
        }
      ],
      "stateMutability": "view",
      "type": "function"
    },
    {
      "stateMutability": "payable",
      "type": "receive"
    },
    {
      "inputs": [],
      "name": "votingDelay",
      "outputs": [
        {
          "internalType": "uint256",
          "name": "",
          "type": "uint256"
        }
      ],
      "stateMutability": "view",
      "type": "function"
    },
    {
      "inputs": [],
      "name": "votingPeriod",
      "outputs": [
        {
          "internalType": "uint256",
          "name": "",
          "type": "uint256"
        }
      ],
      "stateMutability": "view",
      "type": "function"
    },
    {
      "inputs": [
        {
          "internalType": "address[]",
          "name": "targets",
          "type": "address[]"
        },
        {
          "internalType": "uint256[]",
          "name": "values",
          "type": "uint256[]"
        },
        {
          "internalType": "bytes[]",
          "name": "calldatas",
          "type": "bytes[]"
        },
        {
          "internalType": "bytes32",
          "name": "salt",
          "type": "bytes32"
        }
      ],
      "name": "cancel",
      "outputs": [
        {
          "internalType": "uint256",
          "name": "proposalId",
          "type": "uint256"
        }
      ],
      "stateMutability": "nonpayable",
      "type": "function"
    },
    {
      "inputs": [
        {
          "internalType": "address",
          "name": "account",
          "type": "address"
        },
        {
          "internalType": "uint256",
          "name": "blockNumber",
          "type": "uint256"
        }
      ],
      "name": "getVotes",
      "outputs": [
        {
          "internalType": "uint256",
          "name": "",
          "type": "uint256"
        }
      ],
      "stateMutability": "view",
      "type": "function"
    }
  ],
  "bytecode": "0x6101806040523480156200001257600080fd5b506040516200286b3803806200286b8339810160408190526200003591620002b6565b80848680620000586040805180820190915260018152603160f81b602082015290565b815160209283012081519183019190912060c082815260e08290524660a0818152604080517f8b73c3c69bb8fe3d512ecc4cf759cc79239f7b179b0ffacaa9a75d522b39400f818901819052818301979097526060810195909552608080860193909352308583015280518086039092018252939092019092528051908401209052610100528151620000f29160009190840190620001f3565b505060601b6001600160601b03191661012052620001108162000126565b50506101409190915261016052506200040f9050565b6064811115620001ae5760405162461bcd60e51b815260206004820152604360248201527f476f7665726e6f72566f74657351756f72756d4672616374696f6e3a2071756f60448201527f72756d4e756d657261746f72206f7665722071756f72756d44656e6f6d696e616064820152623a37b960e91b608482015260a40160405180910390fd5b600280549082905560408051828152602081018490527f0553476bf02ef2726e8ce5ced78d63e26e602e4a2257b1f559418e24b4633997910160405180910390a15050565b8280546200020190620003bc565b90600052602060002090601f01602090048101928262000225576000855562000270565b82601f106200024057805160ff191683800117855562000270565b8280016001018555821562000270579182015b828111156200027057825182559160200191906001019062000253565b506200027e92915062000282565b5090565b5b808211156200027e576000815560010162000283565b80516001600160a01b0381168114620002b157600080fd5b919050565b600080600080600060a08688031215620002ce578081fd5b85516001600160401b0380821115620002e5578283fd5b818801915088601f830112620002f9578283fd5b8151818111156200030e576200030e620003f9565b604051601f8201601f19908116603f01168101908382118183101715620003395762000339620003f9565b81604052828152602093508b8484870101111562000355578586fd5b8591505b8282101562000378578482018401518183018501529083019062000359565b828211156200038957858484830101525b98506200039b91505088820162000299565b604089015160608a01516080909a0151989b919a5098979650945050505050565b600281046001821680620003d157607f821691505b60208210811415620003f357634e487b7160e01b600052602260045260246000fd5b50919050565b634e487b7160e01b600052604160045260246000fd5b60805160a05160c05160e051610100516101205160601c61014051610160516123d762000494600039600081816101d60152610c5b0152600081816102880152610c1a01526000818161057601528181610e0a015261145901526000611566015260006115b501526000611590015260006115120152600061153b01526123d76000f3fe60806040526004361061016a5760003560e01c806354fd4d50116100d1578063c01f9e371161008a578063deaaa7cc11610064578063deaaa7cc146104f0578063eb9019d414610524578063f8ce560a14610544578063fc0c546a146105645761018d565b8063c01f9e371461046a578063c59057e41461048a578063dd4e2ba5146104aa5761018d565b806354fd4d50146103b757806356781388146103e15780637b3c71d3146104015780637d5e81e21461042157806397c3d33414610441578063a7713a70146104555761018d565b80633932abb1116101235780633932abb1146102795780633bccf4fd146102ac5780633e4f49e6146102cc57806343859632146102f9578063452115d614610342578063544ffc9c146103625761018d565b806301ffc9a71461019257806302a251a3146101c757806306f3f9e61461020457806306fdde03146102245780632656227d146102465780632d63f693146102595761018d565b3661018d57306101786105b0565b6001600160a01b03161461018b57600080fd5b005b600080fd5b34801561019e57600080fd5b506101b26101ad366004611d9e565b6105b5565b60405190151581526020015b60405180910390f35b3480156101d357600080fd5b507f00000000000000000000000000000000000000000000000000000000000000005b6040519081526020016101be565b34801561021057600080fd5b5061018b61021f366004611dc6565b6105ee565b34801561023057600080fd5b50610239610667565b6040516101be9190612091565b6101f6610254366004611c59565b6106f9565b34801561026557600080fd5b506101f6610274366004611dc6565b610822565b34801561028557600080fd5b507f00000000000000000000000000000000000000000000000000000000000000006101f6565b3480156102b857600080fd5b506101f66102c7366004611ec4565b610859565b3480156102d857600080fd5b506102ec6102e7366004611dc6565b6108ed565b6040516101be9190612069565b34801561030557600080fd5b506101b2610314366004611df6565b60008281526003602081815260408084206001600160a01b0386168552909201905290205460ff1692915050565b34801561034e57600080fd5b506101f661035d366004611c59565b610a56565b34801561036e57600080fd5b5061039c61037d366004611dc6565b6000908152600360205260409020805460018201546002909201549092565b604080519384526020840192909252908201526060016101be565b3480156103c357600080fd5b506040805180820190915260018152603160f81b6020820152610239565b3480156103ed57600080fd5b506101f66103fc366004611e21565b610a6d565b34801561040d57600080fd5b506101f661041c366004611e43565b610a96565b34801561042d57600080fd5b506101f661043c366004611ce4565b610ae8565b34801561044d57600080fd5b5060646101f6565b34801561046157600080fd5b506002546101f6565b34801561047657600080fd5b506101f6610485366004611dc6565b610d71565b34801561049657600080fd5b506101f66104a5366004611c59565b610da0565b3480156104b657600080fd5b506040805180820190915260208082527f737570706f72743d627261766f2671756f72756d3d666f722c6162737461696e90820152610239565b3480156104fc57600080fd5b506101f67f150214d74d59b7d1e90c73fc22ef3d991dd0a76b046543d4d80ab92d2a50328f81565b34801561053057600080fd5b506101f661053f366004611c30565b610dda565b34801561055057600080fd5b506101f661055f366004611dc6565b610ded565b34801561057057600080fd5b506105987f000000000000000000000000000000000000000000000000000000000000000081565b6040516001600160a01b0390911681526020016101be565b305b90565b60006001600160e01b0319821663bf26d89760e01b14806105e657506301ffc9a760e01b6001600160e01b03198316145b90505b919050565b6105f66105b0565b6001600160a01b0316336001600160a01b03161461065b5760405162461bcd60e51b815260206004820152601860248201527f476f7665726e6f723a206f6e6c79476f7665726e616e6365000000000000000060448201526064015b60405180910390fd5b61066481610ea0565b50565b606060008054610676906122fe565b80601f01602080910402602001604051908101604052809291908181526020018280546106a2906122fe565b80156106ef5780601f106106c4576101008083540402835291602001916106ef565b820191906000526020600020905b8154815290600101906020018083116106d257829003601f168201915b5050505050905090565b60008061070886868686610da0565b90506000610715826108ed565b9050600481600781111561073957634e487b7160e01b600052602160045260246000fd5b14806107645750600581600781111561076257634e487b7160e01b600052602160045260246000fd5b145b6107ba5760405162461bcd60e51b815260206004820152602160248201527f476f7665726e6f723a2070726f706f73616c206e6f74207375636365737366756044820152601b60fa1b6064820152608401610652565b600082815260016020818152604092839020600201805460ff191690921790915590518381527f712ae1383f79ac853f8d882153778e0260ef8f03b504e2866e0593e04d2b291f910160405180910390a16108188288888888610f68565b5095945050505050565b60008181526001602090815260408083208151928301909152546001600160401b0316908190525b6001600160401b031692915050565b604080517f150214d74d59b7d1e90c73fc22ef3d991dd0a76b046543d4d80ab92d2a50328f602082015290810186905260ff8516606082015260009081906108c5906108bd9060800160405160208183030381529060405280519060200120611091565b8686866110df565b90506108e2878288604051806020016040528060008152506110fd565b979650505050505050565b6000818152600160208181526040808420815160a08101835281546001600160401b0390811660808301908152825283518086018552958301541685529283019390935260029092015460ff808216158015948401949094526101009091041615156060820152906109635760079150506105e9565b8060600151156109775760029150506105e9565b805151436001600160401b0390911611156109965760009150506105e9565b602081015151436001600160401b0390911611156109b85760019150506105e9565b6109c58160200151611216565b15610a08576109d383611245565b80156109f2575060008381526003602052604090208054600190910154115b6109fd576003610a00565b60045b9150506105e9565b60405162461bcd60e51b815260206004820152601d60248201527f476f7665726e6f723a20756e6b6e6f776e2070726f706f73616c2069640000006044820152606401610652565b50919050565b6000610a648585858561127c565b95945050505050565b600080339050610a8e848285604051806020016040528060008152506110fd565b949350505050565b600080339050610ade86828787878080601f0160208091040260200160405190810160405280939291908181526020018383808284376000920191909152506110fd92505050565b9695505050505050565b600080610afe8686868680519060200120610da0565b90508451865114610b215760405162461bcd60e51b8152600401610652906120a4565b8351865114610b425760405162461bcd60e51b8152600401610652906120a4565b6000865111610b935760405162461bcd60e51b815260206004820152601860248201527f476f7665726e6f723a20656d7074792070726f706f73616c00000000000000006044820152606401610652565b600081815260016020908152604091829020825191820190925281546001600160401b03169081905215610c135760405162461bcd60e51b815260206004820152602160248201527f476f7665726e6f723a2070726f706f73616c20616c72656164792065786973746044820152607360f81b6064820152608401610652565b6000610c3f7f00000000000000000000000000000000000000000000000000000000000000005b6113c4565b610c48436113c4565b610c529190612264565b90506000610c7f7f0000000000000000000000000000000000000000000000000000000000000000610c3a565b610c899083612264565b835467ffffffffffffffff19166001600160401b038416178455905060018301805467ffffffffffffffff19166001600160401b0383161790557f7d84a6263ae0d98d3329bd7b46bb4e8d6f98cd35a7adb45c274c8b7fd5ebd5e084338b8b8d516001600160401b03811115610d0f57634e487b7160e01b600052604160045260246000fd5b604051908082528060200260200182016040528015610d4257816020015b6060815260200190600190039081610d2d5790505b508c88888e604051610d5c999897969594939291906120e5565b60405180910390a15091979650505050505050565b60008181526001602081815260408084208151928301909152909101546001600160401b03169081905261084a565b600084848484604051602001610db9949392919061201e565b60408051601f19818403018152919052805160209091012095945050505050565b6000610de68383611430565b9392505050565b60006064600254604051632394e7a360e21b8152600481018590527f00000000000000000000000000000000000000000000000000000000000000006001600160a01b031690638e539e8c9060240160206040518083038186803b158015610e5457600080fd5b505afa158015610e68573d6000803e3d6000fd5b505050506040513d601f19601f82011682018060405250810190610e8c9190611dde565b610e9691906122af565b6105e6919061228f565b6064811115610f235760405162461bcd60e51b815260206004820152604360248201527f476f7665726e6f72566f74657351756f72756d4672616374696f6e3a2071756f60448201527f72756d4e756d657261746f72206f7665722071756f72756d44656e6f6d696e616064820152623a37b960e91b608482015260a401610652565b600280549082905560408051828152602081018490527f0553476bf02ef2726e8ce5ced78d63e26e602e4a2257b1f559418e24b4633997910160405180910390a15050565b600060405180606001604052806027815260200161237b60279139905060005b855181101561108857600080878381518110610fb457634e487b7160e01b600052603260045260246000fd5b60200260200101516001600160a01b0316878481518110610fe557634e487b7160e01b600052603260045260246000fd5b602002602001015187858151811061100d57634e487b7160e01b600052603260045260246000fd5b60200260200101516040516110229190612002565b60006040518083038185875af1925050503d806000811461105f576040519150601f19603f3d011682016040523d82523d6000602084013e611064565b606091505b50915091506110748282866114d5565b5050508061108190612333565b9050610f88565b50505050505050565b60006105e661109e61150e565b8360405161190160f01b6020820152602281018390526042810182905260009060620160405160208183030381529060405280519060200120905092915050565b60008060006110f087878787611605565b91509150610818816116f2565b6000848152600160208190526040822090611117876108ed565b600781111561113657634e487b7160e01b600052602160045260246000fd5b1461118f5760405162461bcd60e51b815260206004820152602360248201527f476f7665726e6f723a20766f7465206e6f742063757272656e746c792061637460448201526269766560e81b6064820152608401610652565b604080516020810190915281546001600160401b0316908190526000906111b7908790610dda565b90506111c5878787846118f5565b856001600160a01b03167fb8e138887d0aa13bab447e82de9d5c1777041ecd21ca36ba824ff1e6c07ddda48887848860405161120494939291906121d1565b60405180910390a29695505050505050565b600061122b82516001600160401b0316151590565b80156105e657505051436001600160401b03909116111590565b600081815260036020526040812060028101546001820154611267919061224c565b61127361055f85610822565b11159392505050565b60008061128b86868686610da0565b90506000611298826108ed565b905060028160078111156112bc57634e487b7160e01b600052602160045260246000fd5b141580156112ea575060068160078111156112e757634e487b7160e01b600052602160045260246000fd5b14155b80156113165750600781600781111561131357634e487b7160e01b600052602160045260246000fd5b14155b6113625760405162461bcd60e51b815260206004820152601d60248201527f476f7665726e6f723a2070726f706f73616c206e6f74206163746976650000006044820152606401610652565b60008281526001602052604090819020600201805461ff001916610100179055517f789cf55be980739dad1d0699b93b58e806b51c9d96619bfa8fe0a28abaa7b30c906113b29084815260200190565b60405180910390a15095945050505050565b60006001600160401b0382111561142c5760405162461bcd60e51b815260206004820152602660248201527f53616665436173743a2076616c756520646f65736e27742066697420696e203660448201526534206269747360d01b6064820152608401610652565b5090565b604051630748d63560e31b81526001600160a01b038381166004830152602482018390526000917f000000000000000000000000000000000000000000000000000000000000000090911690633a46b1a89060440160206040518083038186803b15801561149d57600080fd5b505afa1580156114b1573d6000803e3d6000fd5b505050506040513d601f19601f82011682018060405250810190610de69190611dde565b606083156114e4575081610de6565b8251156114f45782518084602001fd5b8160405162461bcd60e51b81526004016106529190612091565b60007f000000000000000000000000000000000000000000000000000000000000000046141561155f57507f00000000000000000000000000000000000000000000000000000000000000006105b2565b50604080517f00000000000000000000000000000000000000000000000000000000000000006020808301919091527f0000000000000000000000000000000000000000000000000000000000000000828401527f000000000000000000000000000000000000000000000000000000000000000060608301524660808301523060a0808401919091528351808403909101815260c090920190925280519101206105b2565b6000807f7fffffffffffffffffffffffffffffff5d576e7357a4501ddfe92f46681b20a083111561163c57506000905060036116e9565b8460ff16601b1415801561165457508460ff16601c14155b1561166557506000905060046116e9565b6040805160008082526020820180845289905260ff881692820192909252606081018690526080810185905260019060a0016020604051602081039080840390855afa1580156116b9573d6000803e3d6000fd5b5050604051601f1901519150506001600160a01b0381166116e2576000600192509250506116e9565b9150600090505b94509492505050565b600081600481111561171457634e487b7160e01b600052602160045260246000fd5b141561171f57610664565b600181600481111561174157634e487b7160e01b600052602160045260246000fd5b141561178f5760405162461bcd60e51b815260206004820152601860248201527f45434453413a20696e76616c6964207369676e617475726500000000000000006044820152606401610652565b60028160048111156117b157634e487b7160e01b600052602160045260246000fd5b14156117ff5760405162461bcd60e51b815260206004820152601f60248201527f45434453413a20696e76616c6964207369676e6174757265206c656e677468006044820152606401610652565b600381600481111561182157634e487b7160e01b600052602160045260246000fd5b141561187a5760405162461bcd60e51b815260206004820152602260248201527f45434453413a20696e76616c6964207369676e6174757265202773272076616c604482015261756560f01b6064820152608401610652565b600481600481111561189c57634e487b7160e01b600052602160045260246000fd5b14156106645760405162461bcd60e51b815260206004820152602260248201527f45434453413a20696e76616c6964207369676e6174757265202776272076616c604482015261756560f01b6064820152608401610652565b60008481526003602081815260408084206001600160a01b03881685529283019091529091205460ff161561197c5760405162461bcd60e51b815260206004820152602760248201527f476f7665726e6f72566f74696e6753696d706c653a20766f746520616c726561604482015266191e4818d85cdd60ca1b6064820152608401610652565b6001600160a01b03841660009081526003820160205260408120805460ff1916600117905560ff168360ff1614156119cd57818160000160008282546119c2919061224c565b90915550611a739050565b60ff8316600114156119ed57818160010160008282546119c2919061224c565b60ff831660021415611a0d57818160020160008282546119c2919061224c565b60405162461bcd60e51b815260206004820152603560248201527f476f7665726e6f72566f74696e6753696d706c653a20696e76616c69642076616044820152746c756520666f7220656e756d20566f74655479706560581b6064820152608401610652565b5050505050565b60006001600160401b03831115611a9357611a93612364565b611aa6601f8401601f19166020016121f9565b9050828152838383011115611aba57600080fd5b828260208301376000602084830101529392505050565b80356001600160a01b03811681146105e957600080fd5b600082601f830112611af8578081fd5b81356020611b0d611b0883612229565b6121f9565b8281528181019085830183850287018401881015611b29578586fd5b855b85811015611b4e57611b3c82611ad1565b84529284019290840190600101611b2b565b5090979650505050505050565b600082601f830112611b6b578081fd5b81356020611b7b611b0883612229565b82815281810190858301855b85811015611b4e578135880189603f820112611ba1578788fd5b611bb28a8783013560408401611a7a565b8552509284019290840190600101611b87565b600082601f830112611bd5578081fd5b81356020611be5611b0883612229565b8281528181019085830183850287018401881015611c01578586fd5b855b85811015611b4e57813584529284019290840190600101611c03565b803560ff811681146105e957600080fd5b60008060408385031215611c42578182fd5b611c4b83611ad1565b946020939093013593505050565b60008060008060808587031215611c6e578182fd5b84356001600160401b0380821115611c84578384fd5b611c9088838901611ae8565b95506020870135915080821115611ca5578384fd5b611cb188838901611bc5565b94506040870135915080821115611cc6578384fd5b50611cd387828801611b5b565b949793965093946060013593505050565b60008060008060808587031215611cf9578384fd5b84356001600160401b0380821115611d0f578586fd5b611d1b88838901611ae8565b95506020870135915080821115611d30578485fd5b611d3c88838901611bc5565b94506040870135915080821115611d51578384fd5b611d5d88838901611b5b565b93506060870135915080821115611d72578283fd5b508501601f81018713611d83578182fd5b611d9287823560208401611a7a565b91505092959194509250565b600060208284031215611daf578081fd5b81356001600160e01b031981168114610de6578182fd5b600060208284031215611dd7578081fd5b5035919050565b600060208284031215611def578081fd5b5051919050565b60008060408385031215611e08578182fd5b82359150611e1860208401611ad1565b90509250929050565b60008060408385031215611e33578182fd5b82359150611e1860208401611c1f565b60008060008060608587031215611e58578182fd5b84359350611e6860208601611c1f565b925060408501356001600160401b0380821115611e83578384fd5b818701915087601f830112611e96578384fd5b813581811115611ea4578485fd5b886020828501011115611eb5578485fd5b95989497505060200194505050565b600080600080600060a08688031215611edb578283fd5b85359450611eeb60208701611c1f565b9350611ef960408701611c1f565b94979396509394606081013594506080013592915050565b6000815180845260208085019450808401835b83811015611f495781516001600160a01b031687529582019590820190600101611f24565b509495945050505050565b6000815180845260208085018081965082840281019150828601855b85811015611f9a578284038952611f88848351611fd6565b98850198935090840190600101611f70565b5091979650505050505050565b6000815180845260208085019450808401835b83811015611f4957815187529582019590820190600101611fba565b60008151808452611fee8160208601602086016122ce565b601f01601f19169290920160200192915050565b600082516120148184602087016122ce565b9190910192915050565b6000608082526120316080830187611f11565b82810360208401526120438187611fa7565b905082810360408401526120578186611f54565b91505082606083015295945050505050565b602081016008831061208b57634e487b7160e01b600052602160045260246000fd5b91905290565b600060208252610de66020830184611fd6565b60208082526021908201527f476f7665726e6f723a20696e76616c69642070726f706f73616c206c656e67746040820152600d60fb1b606082015260800190565b60006101208b8352602060018060a01b038c168185015281604085015261210e8285018c611f11565b91508382036060850152612122828b611fa7565b848103608086015289518082529092508183019082810284018301838c01865b8381101561217057601f1987840301855261215e838351611fd6565b94860194925090850190600101612142565b505086810360a0880152612184818c611f54565b94505050505061219f60c08401876001600160401b03169052565b6001600160401b03851660e08401528281036101008401526121c18185611fd6565b9c9b505050505050505050505050565b600085825260ff8516602083015283604083015260806060830152610ade6080830184611fd6565b604051601f8201601f191681016001600160401b038111828210171561222157612221612364565b604052919050565b60006001600160401b0382111561224257612242612364565b5060209081020190565b6000821982111561225f5761225f61234e565b500190565b60006001600160401b038083168185168083038211156122865761228661234e565b01949350505050565b6000826122aa57634e487b7160e01b81526012600452602481fd5b500490565b60008160001904831182151516156122c9576122c961234e565b500290565b60005b838110156122e95781810151838201526020016122d1565b838111156122f8576000848401525b50505050565b60028104600182168061231257607f821691505b60208210811415610a5057634e487b7160e01b600052602260045260246000fd5b60006000198214156123475761234761234e565b5060010190565b634e487b7160e01b600052601160045260246000fd5b634e487b7160e01b600052604160045260246000fdfe476f7665726e6f723a2063616c6c20726576657274656420776974686f7574206d657373616765a264697066735822122035b3a8b5c34c50cb3303130e05f3527805bfb07eeca11b3017be58d317c9e04f64736f6c63430008020033",
  "immutableReferences": {
    "5559": [
      {
        "length": 32,
        "start": 1398
      },
      {
        "length": 32,
        "start": 3594
      },
      {
        "length": 32,
        "start": 5209
      }
    ],
    "10729": [
      {
        "length": 32,
        "start": 648
      },
      {
        "length": 32,
        "start": 3098
      }
    ],
    "10731": [
      {
        "length": 32,
        "start": 470
      },
      {
        "length": 32,
        "start": 3163
      }
    ],
    "24808": [
      {
        "length": 32,
        "start": 5435
      }
    ],
    "24810": [
      {
        "length": 32,
        "start": 5394
      }
    ],
    "24812": [
      {
        "length": 32,
        "start": 5520
      }
    ],
    "24814": [
      {
        "length": 32,
        "start": 5557
      }
    ],
    "24816": [
      {
        "length": 32,
        "start": 5478
      }
    ]
  },
  "source": "// SPDX-License-Identifier: MIT\n\npragma solidity ^0.8.0;\n\nimport \"../governance/Governor.sol\";\nimport \"../governance/extensions/GovernorCountingSimple.sol\";\nimport \"../governance/extensions/GovernorVotesQuorumFraction.sol\";\n\ncontract GovernorMock is Governor, GovernorVotesQuorumFraction, GovernorCountingSimple {\n    uint256 immutable _votingDelay;\n    uint256 immutable _votingPeriod;\n\n    constructor(\n        string memory name_,\n        ERC20Votes token_,\n        uint256 votingDelay_,\n        uint256 votingPeriod_,\n        uint256 quorumNumerator_\n    ) Governor(name_) GovernorVotes(token_) GovernorVotesQuorumFraction(quorumNumerator_) {\n        _votingDelay = votingDelay_;\n        _votingPeriod = votingPeriod_;\n    }\n\n    function votingDelay() public view override returns (uint256) {\n        return _votingDelay;\n    }\n\n    function votingPeriod() public view override returns (uint256) {\n        return _votingPeriod;\n    }\n\n    function cancel(\n        address[] memory targets,\n        uint256[] memory values,\n        bytes[] memory calldatas,\n        bytes32 salt\n    ) public returns (uint256 proposalId) {\n        return _cancel(targets, values, calldatas, salt);\n    }\n\n    function getVotes(address account, uint256 blockNumber)\n        public\n        view\n        virtual\n        override(IGovernor, GovernorVotes)\n        returns (uint256)\n    {\n        return super.getVotes(account, blockNumber);\n    }\n}\n",
  "sourcePath": "/Users/shangyihuang/Documents/SocialFi/client/contracts/contracts/mocks/GovernorMock.sol",
  "compiler": {
    "name": "solc",
    "version": "0.8.2+commit.661d1103.Emscripten.clang"
  },
  "schemaVersion": "3.4.7",
  "updatedAt": "2022-05-05T11:49:18.574Z",
  "devdoc": {
    "kind": "dev",
    "methods": {
      "COUNTING_MODE()": {
        "details": "See {IGovernor-COUNTING_MODE}."
      },
      "castVote(uint256,uint8)": {
        "details": "See {IGovernor-castVote}."
      },
      "castVoteBySig(uint256,uint8,uint8,bytes32,bytes32)": {
        "details": "See {IGovernor-castVoteBySig}."
      },
      "castVoteWithReason(uint256,uint8,string)": {
        "details": "See {IGovernor-castVoteWithReason}."
      },
      "execute(address[],uint256[],bytes[],bytes32)": {
        "details": "See {IGovernor-execute}."
      },
      "hasVoted(uint256,address)": {
        "details": "See {IGovernor-hasVoted}."
      },
      "hashProposal(address[],uint256[],bytes[],bytes32)": {
        "details": "See {IGovernor-hashProposal}. The proposal id is produced by hashing the RLC encoded `targets` array, the `values` array, the `calldatas` array and the descriptionHash (bytes32 which itself is the keccak256 hash of the description string). This proposal id can be produced from the proposal data which is part of the {ProposalCreated} event. It can even be computed in advance, before the proposal is submitted. Note that the chainId and the governor address are not part of the proposal id computation. Consequently, the same proposal (with same operation and same description) will have the same id if submitted on multiple governors accross multiple networks. This also means that in order to execute the same operation twice (on the same governor) the proposer will have to change the description in order to avoid proposal id conflicts."
      },
      "name()": {
        "details": "See {IGovernor-name}."
      },
      "proposalDeadline(uint256)": {
        "details": "See {IGovernor-proposalDeadline}."
      },
      "proposalSnapshot(uint256)": {
        "details": "See {IGovernor-proposalSnapshot}."
      },
      "proposalVotes(uint256)": {
        "details": "Accessor to the internal vote counts."
      },
      "propose(address[],uint256[],bytes[],string)": {
        "details": "See {IGovernor-propose}."
      },
      "quorum(uint256)": {
        "details": "Minimum number of cast voted required for a proposal to be successful. Note: The `blockNumber` parameter corresponds to the snaphot used for counting vote. This allows to scale the quroum depending on values such as the totalSupply of a token at this block (see {ERC20Votes})."
      },
      "state(uint256)": {
        "details": "See {IGovernor-state}."
      },
      "supportsInterface(bytes4)": {
        "details": "See {IERC165-supportsInterface}."
      },
      "version()": {
        "details": "See {IGovernor-version}."
      },
      "votingDelay()": {
        "details": "delay, in number of block, between the proposal is created and the vote starts. This can be increassed to leave time for users to buy voting power, of delegate it, before the voting of a proposal starts."
      },
      "votingPeriod()": {
        "details": "delay, in number of blocks, between the vote start and vote ends. Note: the {votingDelay} can delay the start of the vote. This must be considered when setting the voting duration compared to the voting delay."
      }
    },
    "version": 1
  },
  "userdoc": {
    "kind": "user",
    "methods": {
      "quorum(uint256)": {
        "notice": "module:user-config"
      },
      "votingDelay()": {
        "notice": "module:user-config"
      },
      "votingPeriod()": {
        "notice": "module:user-config"
      }
    },
    "version": 1
  }
}