{
  "contractName": "GovernorTimelockCompoundMock",
  "abi": [
    {
      "inputs": [
        {
          "internalType": "string",
          "name": "name_",
          "type": "string"
        },
        {
          "internalType": "contract ERC20Votes",
          "name": "token_",
          "type": "address"
        },
        {
          "internalType": "uint256",
          "name": "votingDelay_",
          "type": "uint256"
        },
        {
          "internalType": "uint256",
          "name": "votingPeriod_",
          "type": "uint256"
        },
        {
          "internalType": "contract ICompoundTimelock",
          "name": "timelock_",
          "type": "address"
        },
        {
          "internalType": "uint256",
          "name": "quorumNumerator_",
          "type": "uint256"
        }
      ],
      "stateMutability": "nonpayable",
      "type": "constructor"
    },
    {
      "anonymous": false,
      "inputs": [
        {
          "indexed": false,
          "internalType": "uint256",
          "name": "proposalId",
          "type": "uint256"
        }
      ],
      "name": "ProposalCanceled",
      "type": "event"
    },
    {
      "anonymous": false,
      "inputs": [
        {
          "indexed": false,
          "internalType": "uint256",
          "name": "proposalId",
          "type": "uint256"
        },
        {
          "indexed": false,
          "internalType": "address",
          "name": "proposer",
          "type": "address"
        },
        {
          "indexed": false,
          "internalType": "address[]",
          "name": "targets",
          "type": "address[]"
        },
        {
          "indexed": false,
          "internalType": "uint256[]",
          "name": "values",
          "type": "uint256[]"
        },
        {
          "indexed": false,
          "internalType": "string[]",
          "name": "signatures",
          "type": "string[]"
        },
        {
          "indexed": false,
          "internalType": "bytes[]",
          "name": "calldatas",
          "type": "bytes[]"
        },
        {
          "indexed": false,
          "internalType": "uint256",
          "name": "startBlock",
          "type": "uint256"
        },
        {
          "indexed": false,
          "internalType": "uint256",
          "name": "endBlock",
          "type": "uint256"
        },
        {
          "indexed": false,
          "internalType": "string",
          "name": "description",
          "type": "string"
        }
      ],
      "name": "ProposalCreated",
      "type": "event"
    },
    {
      "anonymous": false,
      "inputs": [
        {
          "indexed": false,
          "internalType": "uint256",
          "name": "proposalId",
          "type": "uint256"
        }
      ],
      "name": "ProposalExecuted",
      "type": "event"
    },
    {
      "anonymous": false,
      "inputs": [
        {
          "indexed": false,
          "internalType": "uint256",
          "name": "proposalId",
          "type": "uint256"
        },
        {
          "indexed": false,
          "internalType": "uint256",
          "name": "eta",
          "type": "uint256"
        }
      ],
      "name": "ProposalQueued",
      "type": "event"
    },
    {
      "anonymous": false,
      "inputs": [
        {
          "indexed": false,
          "internalType": "uint256",
          "name": "oldQuorumNumerator",
          "type": "uint256"
        },
        {
          "indexed": false,
          "internalType": "uint256",
          "name": "newQuorumNumerator",
          "type": "uint256"
        }
      ],
      "name": "QuorumNumeratorUpdated",
      "type": "event"
    },
    {
      "anonymous": false,
      "inputs": [
        {
          "indexed": false,
          "internalType": "address",
          "name": "oldTimelock",
          "type": "address"
        },
        {
          "indexed": false,
          "internalType": "address",
          "name": "newTimelock",
          "type": "address"
        }
      ],
      "name": "TimelockChange",
      "type": "event"
    },
    {
      "anonymous": false,
      "inputs": [
        {
          "indexed": true,
          "internalType": "address",
          "name": "voter",
          "type": "address"
        },
        {
          "indexed": false,
          "internalType": "uint256",
          "name": "proposalId",
          "type": "uint256"
        },
        {
          "indexed": false,
          "internalType": "uint8",
          "name": "support",
          "type": "uint8"
        },
        {
          "indexed": false,
          "internalType": "uint256",
          "name": "weight",
          "type": "uint256"
        },
        {
          "indexed": false,
          "internalType": "string",
          "name": "reason",
          "type": "string"
        }
      ],
      "name": "VoteCast",
      "type": "event"
    },
    {
      "inputs": [],
      "name": "BALLOT_TYPEHASH",
      "outputs": [
        {
          "internalType": "bytes32",
          "name": "",
          "type": "bytes32"
        }
      ],
      "stateMutability": "view",
      "type": "function"
    },
    {
      "inputs": [],
      "name": "COUNTING_MODE",
      "outputs": [
        {
          "internalType": "string",
          "name": "",
          "type": "string"
        }
      ],
      "stateMutability": "pure",
      "type": "function"
    },
    {
      "inputs": [],
      "name": "__acceptAdmin",
      "outputs": [],
      "stateMutability": "nonpayable",
      "type": "function"
    },
    {
      "inputs": [
        {
          "internalType": "uint256",
          "name": "proposalId",
          "type": "uint256"
        },
        {
          "internalType": "uint8",
          "name": "support",
          "type": "uint8"
        }
      ],
      "name": "castVote",
      "outputs": [
        {
          "internalType": "uint256",
          "name": "",
          "type": "uint256"
        }
      ],
      "stateMutability": "nonpayable",
      "type": "function"
    },
    {
      "inputs": [
        {
          "internalType": "uint256",
          "name": "proposalId",
          "type": "uint256"
        },
        {
          "internalType": "uint8",
          "name": "support",
          "type": "uint8"
        },
        {
          "internalType": "uint8",
          "name": "v",
          "type": "uint8"
        },
        {
          "internalType": "bytes32",
          "name": "r",
          "type": "bytes32"
        },
        {
          "internalType": "bytes32",
          "name": "s",
          "type": "bytes32"
        }
      ],
      "name": "castVoteBySig",
      "outputs": [
        {
          "internalType": "uint256",
          "name": "",
          "type": "uint256"
        }
      ],
      "stateMutability": "nonpayable",
      "type": "function"
    },
    {
      "inputs": [
        {
          "internalType": "uint256",
          "name": "proposalId",
          "type": "uint256"
        },
        {
          "internalType": "uint8",
          "name": "support",
          "type": "uint8"
        },
        {
          "internalType": "string",
          "name": "reason",
          "type": "string"
        }
      ],
      "name": "castVoteWithReason",
      "outputs": [
        {
          "internalType": "uint256",
          "name": "",
          "type": "uint256"
        }
      ],
      "stateMutability": "nonpayable",
      "type": "function"
    },
    {
      "inputs": [
        {
          "internalType": "address[]",
          "name": "targets",
          "type": "address[]"
        },
        {
          "internalType": "uint256[]",
          "name": "values",
          "type": "uint256[]"
        },
        {
          "internalType": "bytes[]",
          "name": "calldatas",
          "type": "bytes[]"
        },
        {
          "internalType": "bytes32",
          "name": "descriptionHash",
          "type": "bytes32"
        }
      ],
      "name": "execute",
      "outputs": [
        {
          "internalType": "uint256",
          "name": "",
          "type": "uint256"
        }
      ],
      "stateMutability": "payable",
      "type": "function"
    },
    {
      "inputs": [
        {
          "internalType": "uint256",
          "name": "proposalId",
          "type": "uint256"
        },
        {
          "internalType": "address",
          "name": "account",
          "type": "address"
        }
      ],
      "name": "hasVoted",
      "outputs": [
        {
          "internalType": "bool",
          "name": "",
          "type": "bool"
        }
      ],
      "stateMutability": "view",
      "type": "function"
    },
    {
      "inputs": [
        {
          "internalType": "address[]",
          "name": "targets",
          "type": "address[]"
        },
        {
          "internalType": "uint256[]",
          "name": "values",
          "type": "uint256[]"
        },
        {
          "internalType": "bytes[]",
          "name": "calldatas",
          "type": "bytes[]"
        },
        {
          "internalType": "bytes32",
          "name": "descriptionHash",
          "type": "bytes32"
        }
      ],
      "name": "hashProposal",
      "outputs": [
        {
          "internalType": "uint256",
          "name": "",
          "type": "uint256"
        }
      ],
      "stateMutability": "pure",
      "type": "function"
    },
    {
      "inputs": [],
      "name": "name",
      "outputs": [
        {
          "internalType": "string",
          "name": "",
          "type": "string"
        }
      ],
      "stateMutability": "view",
      "type": "function"
    },
    {
      "inputs": [
        {
          "internalType": "uint256",
          "name": "proposalId",
          "type": "uint256"
        }
      ],
      "name": "proposalDeadline",
      "outputs": [
        {
          "internalType": "uint256",
          "name": "",
          "type": "uint256"
        }
      ],
      "stateMutability": "view",
      "type": "function"
    },
    {
      "inputs": [
        {
          "internalType": "uint256",
          "name": "proposalId",
          "type": "uint256"
        }
      ],
      "name": "proposalEta",
      "outputs": [
        {
          "internalType": "uint256",
          "name": "",
          "type": "uint256"
        }
      ],
      "stateMutability": "view",
      "type": "function"
    },
    {
      "inputs": [
        {
          "internalType": "uint256",
          "name": "proposalId",
          "type": "uint256"
        }
      ],
      "name": "proposalSnapshot",
      "outputs": [
        {
          "internalType": "uint256",
          "name": "",
          "type": "uint256"
        }
      ],
      "stateMutability": "view",
      "type": "function"
    },
    {
      "inputs": [
        {
          "internalType": "uint256",
          "name": "proposalId",
          "type": "uint256"
        }
      ],
      "name": "proposalVotes",
      "outputs": [
        {
          "internalType": "uint256",
          "name": "againstVotes",
          "type": "uint256"
        },
        {
          "internalType": "uint256",
          "name": "forVotes",
          "type": "uint256"
        },
        {
          "internalType": "uint256",
          "name": "abstainVotes",
          "type": "uint256"
        }
      ],
      "stateMutability": "view",
      "type": "function"
    },
    {
      "inputs": [
        {
          "internalType": "address[]",
          "name": "targets",
          "type": "address[]"
        },
        {
          "internalType": "uint256[]",
          "name": "values",
          "type": "uint256[]"
        },
        {
          "internalType": "bytes[]",
          "name": "calldatas",
          "type": "bytes[]"
        },
        {
          "internalType": "string",
          "name": "description",
          "type": "string"
        }
      ],
      "name": "propose",
      "outputs": [
        {
          "internalType": "uint256",
          "name": "",
          "type": "uint256"
        }
      ],
      "stateMutability": "nonpayable",
      "type": "function"
    },
    {
      "inputs": [
        {
          "internalType": "address[]",
          "name": "targets",
          "type": "address[]"
        },
        {
          "internalType": "uint256[]",
          "name": "values",
          "type": "uint256[]"
        },
        {
          "internalType": "bytes[]",
          "name": "calldatas",
          "type": "bytes[]"
        },
        {
          "internalType": "bytes32",
          "name": "descriptionHash",
          "type": "bytes32"
        }
      ],
      "name": "queue",
      "outputs": [
        {
          "internalType": "uint256",
          "name": "",
          "type": "uint256"
        }
      ],
      "stateMutability": "nonpayable",
      "type": "function"
    },
    {
      "inputs": [],
      "name": "quorumDenominator",
      "outputs": [
        {
          "internalType": "uint256",
          "name": "",
          "type": "uint256"
        }
      ],
      "stateMutability": "view",
      "type": "function"
    },
    {
      "inputs": [],
      "name": "quorumNumerator",
      "outputs": [
        {
          "internalType": "uint256",
          "name": "",
          "type": "uint256"
        }
      ],
      "stateMutability": "view",
      "type": "function"
    },
    {
      "inputs": [],
      "name": "timelock",
      "outputs": [
        {
          "internalType": "address",
          "name": "",
          "type": "address"
        }
      ],
      "stateMutability": "view",
      "type": "function"
    },
    {
      "inputs": [],
      "name": "token",
      "outputs": [
        {
          "internalType": "contract ERC20Votes",
          "name": "",
          "type": "address"
        }
      ],
      "stateMutability": "view",
      "type": "function"
    },
    {
      "inputs": [
        {
          "internalType": "uint256",
          "name": "newQuorumNumerator",
          "type": "uint256"
        }
      ],
      "name": "updateQuorumNumerator",
      "outputs": [],
      "stateMutability": "nonpayable",
      "type": "function"
    },
    {
      "inputs": [
        {
          "internalType": "contract ICompoundTimelock",
          "name": "newTimelock",
          "type": "address"
        }
      ],
      "name": "updateTimelock",
      "outputs": [],
      "stateMutability": "nonpayable",
      "type": "function"
    },
    {
      "inputs": [],
      "name": "version",
      "outputs": [
        {
          "internalType": "string",
          "name": "",
          "type": "string"
        }
      ],
      "stateMutability": "view",
      "type": "function"
    },
    {
      "stateMutability": "payable",
      "type": "receive"
    },
    {
      "inputs": [
        {
          "internalType": "bytes4",
          "name": "interfaceId",
          "type": "bytes4"
        }
      ],
      "name": "supportsInterface",
      "outputs": [
        {
          "internalType": "bool",
          "name": "",
          "type": "bool"
        }
      ],
      "stateMutability": "view",
      "type": "function"
    },
    {
      "inputs": [],
      "name": "votingDelay",
      "outputs": [
        {
          "internalType": "uint256",
          "name": "",
          "type": "uint256"
        }
      ],
      "stateMutability": "view",
      "type": "function"
    },
    {
      "inputs": [],
      "name": "votingPeriod",
      "outputs": [
        {
          "internalType": "uint256",
          "name": "",
          "type": "uint256"
        }
      ],
      "stateMutability": "view",
      "type": "function"
    },
    {
      "inputs": [
        {
          "internalType": "uint256",
          "name": "blockNumber",
          "type": "uint256"
        }
      ],
      "name": "quorum",
      "outputs": [
        {
          "internalType": "uint256",
          "name": "",
          "type": "uint256"
        }
      ],
      "stateMutability": "view",
      "type": "function"
    },
    {
      "inputs": [
        {
          "internalType": "address[]",
          "name": "targets",
          "type": "address[]"
        },
        {
          "internalType": "uint256[]",
          "name": "values",
          "type": "uint256[]"
        },
        {
          "internalType": "bytes[]",
          "name": "calldatas",
          "type": "bytes[]"
        },
        {
          "internalType": "bytes32",
          "name": "salt",
          "type": "bytes32"
        }
      ],
      "name": "cancel",
      "outputs": [
        {
          "internalType": "uint256",
          "name": "proposalId",
          "type": "uint256"
        }
      ],
      "stateMutability": "nonpayable",
      "type": "function"
    },
    {
      "inputs": [
        {
          "internalType": "uint256",
          "name": "proposalId",
          "type": "uint256"
        }
      ],
      "name": "state",
      "outputs": [
        {
          "internalType": "enum IGovernor.ProposalState",
          "name": "",
          "type": "uint8"
        }
      ],
      "stateMutability": "view",
      "type": "function"
    },
    {
      "inputs": [
        {
          "internalType": "address",
          "name": "account",
          "type": "address"
        },
        {
          "internalType": "uint256",
          "name": "blockNumber",
          "type": "uint256"
        }
      ],
      "name": "getVotes",
      "outputs": [
        {
          "internalType": "uint256",
          "name": "",
          "type": "uint256"
        }
      ],
      "stateMutability": "view",
      "type": "function"
    }
  ],
  "bytecode": "0x6101806040523480156200001257600080fd5b506040516200343f3803806200343f83398101604081905262000035916200032e565b8085838880620000596040805180820190915260018152603160f81b602082015290565b815160209283012081519183019190912060c082815260e08290524660a0818152604080517f8b73c3c69bb8fe3d512ecc4cf759cc79239f7b179b0ffacaa9a75d522b39400f818901819052818301979097526060810195909552608080860193909352308583015280518086039092018252939092019092528051908401209052610100528151620000f391600091908401906200026b565b506200010190508162000135565b5060601b6001600160601b031916610120526200011e816200019e565b5050506101409190915261016052506200049a9050565b600254604080516001600160a01b03928316815291831660208301527f08f74ea46ef7894f65eabfb5e6e695de773a000b47c529ab559178069b226401910160405180910390a1600280546001600160a01b0319166001600160a01b0392909216919091179055565b6064811115620002265760405162461bcd60e51b815260206004820152604360248201527f476f7665726e6f72566f74657351756f72756d4672616374696f6e3a2071756f60448201527f72756d4e756d657261746f72206f7665722071756f72756d44656e6f6d696e616064820152623a37b960e91b608482015260a40160405180910390fd5b600480549082905560408051828152602081018490527f0553476bf02ef2726e8ce5ced78d63e26e602e4a2257b1f559418e24b4633997910160405180910390a15050565b828054620002799062000447565b90600052602060002090601f0160209004810192826200029d5760008555620002e8565b82601f10620002b857805160ff1916838001178555620002e8565b82800160010185558215620002e8579182015b82811115620002e8578251825591602001919060010190620002cb565b50620002f6929150620002fa565b5090565b5b80821115620002f65760008155600101620002fb565b80516001600160a01b03811681146200032957600080fd5b919050565b60008060008060008060c0878903121562000347578182fd5b86516001600160401b03808211156200035e578384fd5b818901915089601f83011262000372578384fd5b81518181111562000387576200038762000484565b604051601f8201601f19908116603f01168101908382118183101715620003b257620003b262000484565b81604052828152602093508c84848701011115620003ce578687fd5b8691505b82821015620003f15784820184015181830185015290830190620003d2565b828211156200040257868484830101525b99506200041491505089820162000311565b965050506040870151935060608701519250620004346080880162000311565b915060a087015190509295509295509295565b6002810460018216806200045c57607f821691505b602082108114156200047e57634e487b7160e01b600052602260045260246000fd5b50919050565b634e487b7160e01b600052604160045260246000fd5b60805160a05160c05160e051610100516101205160601c6101405161016051612f206200051f6000396000818161023d0152610fad01526000818161030f0152610f6c015260008181610685015281816116dd015261177601526000611a5101526000611aa001526000611a7b015260006119fd01526000611a260152612f206000f3fe6080604052600436106101d15760003560e01c80637b3c71d3116100f7578063c01f9e3711610095578063deaaa7cc11610064578063deaaa7cc146105ff578063eb9019d414610633578063f8ce560a14610653578063fc0c546a14610673576101f4565b8063c01f9e3714610547578063c59057e414610567578063d33219b414610587578063dd4e2ba5146105b9576101f4565b8063a7713a70116100d1578063a7713a70146104dd578063a890c910146104f2578063ab58fb8e14610512578063b9a6196114610532576101f4565b80637b3c71d3146104895780637d5e81e2146104a957806397c3d334146104c9576101f4565b80633932abb11161016f578063452115d61161013e578063452115d6146103ca578063544ffc9c146103ea57806354fd4d501461043f5780635678138814610469576101f4565b80633932abb1146103005780633bccf4fd146103335780633e4f49e6146103535780634385963214610380576101f4565b806306fdde03116101ab57806306fdde031461028b578063160cbed7146102ad5780632656227d146102cd5780632d63f693146102e0576101f4565b806301ffc9a7146101f957806302a251a31461022e57806306f3f9e61461026b576101f4565b366101f457306101df6106a7565b6001600160a01b0316146101f257600080fd5b005b600080fd5b34801561020557600080fd5b506102196102143660046127f2565b6106c1565b60405190151581526020015b60405180910390f35b34801561023a57600080fd5b507f00000000000000000000000000000000000000000000000000000000000000005b604051908152602001610225565b34801561027757600080fd5b506101f261028636600461289f565b6106d4565b34801561029757600080fd5b506102a0610748565b6040516102259190612b88565b3480156102b957600080fd5b5061025d6102c8366004612675565b6107da565b61025d6102db366004612675565b610be3565b3480156102ec57600080fd5b5061025d6102fb36600461289f565b610cd2565b34801561030c57600080fd5b507f000000000000000000000000000000000000000000000000000000000000000061025d565b34801561033f57600080fd5b5061025d61034e366004612992565b610d09565b34801561035f57600080fd5b5061037361036e36600461289f565b610d9d565b6040516102259190612b60565b34801561038c57600080fd5b5061021961039b3660046128b7565b60008281526005602090815260408083206001600160a01b038516845260030190915290205460ff1692915050565b3480156103d657600080fd5b5061025d6103e5366004612675565b610da8565b3480156103f657600080fd5b5061042461040536600461289f565b6000908152600560205260409020805460018201546002909201549092565b60408051938452602084019290925290820152606001610225565b34801561044b57600080fd5b506040805180820190915260018152603160f81b60208201526102a0565b34801561047557600080fd5b5061025d6104843660046128e6565b610dbf565b34801561049557600080fd5b5061025d6104a4366004612911565b610de8565b3480156104b557600080fd5b5061025d6104c4366004612700565b610e3a565b3480156104d557600080fd5b50606461025d565b3480156104e957600080fd5b5060045461025d565b3480156104fe57600080fd5b506101f261050d366004612883565b6110a2565b34801561051e57600080fd5b5061025d61052d36600461289f565b61110e565b34801561053e57600080fd5b506101f261113a565b34801561055357600080fd5b5061025d61056236600461289f565b6111a4565b34801561057357600080fd5b5061025d610582366004612675565b6111d3565b34801561059357600080fd5b506002546001600160a01b03165b6040516001600160a01b039091168152602001610225565b3480156105c557600080fd5b506040805180820190915260208082527f737570706f72743d627261766f2671756f72756d3d666f722c6162737461696e908201526102a0565b34801561060b57600080fd5b5061025d7f150214d74d59b7d1e90c73fc22ef3d991dd0a76b046543d4d80ab92d2a50328f81565b34801561063f57600080fd5b5061025d61064e36600461264a565b61120d565b34801561065f57600080fd5b5061025d61066e36600461289f565b611220565b34801561067f57600080fd5b506105a17f000000000000000000000000000000000000000000000000000000000000000081565b60006106bb6002546001600160a01b031690565b90505b90565b60006106cc8261122b565b90505b919050565b6106dc6106a7565b6001600160a01b0316336001600160a01b03161461073c5760405162461bcd60e51b8152602060048201526018602482015277476f7665726e6f723a206f6e6c79476f7665726e616e636560401b60448201526064015b60405180910390fd5b61074581611250565b50565b60606000805461075790612e59565b80601f016020809104026020016040519081016040528092919081815260200182805461078390612e59565b80156107d05780601f106107a5576101008083540402835291602001916107d0565b820191906000526020600020905b8154815290600101906020018083116107b357829003601f168201915b5050505050905090565b6000806107e9868686866111d3565b905060046107f682610d9d565b600781111561081557634e487b7160e01b600052602160045260246000fd5b146108325760405162461bcd60e51b815260040161073390612bdc565b60025460408051630d48571f60e31b815290516000926001600160a01b031691636a42b8f8916004808301926020929190829003018186803b15801561087757600080fd5b505afa15801561088b573d6000803e3d6000fd5b505050506040513d601f19601f820116820180604052508101906108af91906127da565b6108b99042612dab565b90506108db6108c782611318565b600084815260036020526040902090611384565b60005b8751811015610b9e5760025488516001600160a01b039091169063f2b06537908a908490811061091e57634e487b7160e01b600052603260045260246000fd5b602002602001015189848151811061094657634e487b7160e01b600052603260045260246000fd5b602002602001015189858151811061096e57634e487b7160e01b600052603260045260246000fd5b60200260200101518660405160200161098a9493929190612ad0565b604051602081830303815290604052805190602001206040518263ffffffff1660e01b81526004016109be91815260200190565b60206040518083038186803b1580156109d657600080fd5b505afa1580156109ea573d6000803e3d6000fd5b505050506040513d601f19601f82011682018060405250810190610a0e91906127ba565b15610a8c5760405162461bcd60e51b815260206004820152604260248201527f476f7665726e6f7254696d656c6f636b436f6d706f756e643a206964656e746960448201527f63616c2070726f706f73616c20616374696f6e20616c72656164792071756575606482015261195960f21b608482015260a401610733565b60025488516001600160a01b0390911690633a66f901908a9084908110610ac357634e487b7160e01b600052603260045260246000fd5b6020026020010151898481518110610aeb57634e487b7160e01b600052603260045260246000fd5b6020026020010151898581518110610b1357634e487b7160e01b600052603260045260246000fd5b6020026020010151866040518563ffffffff1660e01b8152600401610b3b9493929190612ad0565b602060405180830381600087803b158015610b5557600080fd5b505af1158015610b69573d6000803e3d6000fd5b505050506040513d601f19601f82011682018060405250810190610b8d91906127da565b50610b9781612e8e565b90506108de565b5060408051838152602081018390527f9a2e42fd6722813d69113e7d0079d3d940171428df7373df9c7f7617cfda289291015b60405180910390a15095945050505050565b600080610bf2868686866111d3565b90506000610bff82610d9d565b90506004816007811115610c2357634e487b7160e01b600052602160045260246000fd5b1480610c4e57506005816007811115610c4c57634e487b7160e01b600052602160045260246000fd5b145b610c6a5760405162461bcd60e51b815260040161073390612bdc565b600082815260016020818152604092839020600201805460ff191690921790915590518381527f712ae1383f79ac853f8d882153778e0260ef8f03b504e2866e0593e04d2b291f910160405180910390a1610cc882888888886113a2565b5095945050505050565b60008181526001602090815260408083208151928301909152546001600160401b0316908190525b6001600160401b031692915050565b604080517f150214d74d59b7d1e90c73fc22ef3d991dd0a76b046543d4d80ab92d2a50328f602082015290810186905260ff851660608201526000908190610d7590610d6d90608001604051602081830303815290604052805190602001206113b6565b868686611404565b9050610d9287828860405180602001604052806000815250611422565b979650505050505050565b60006106cc8261153b565b6000610db68585858561163d565b95945050505050565b600080339050610de084828560405180602001604052806000815250611422565b949350505050565b600080339050610e3086828787878080601f01602080910402602001604051908101604052809392919081815260200183838082843760009201919091525061142292505050565b9695505050505050565b600080610e5086868686805190602001206111d3565b90508451865114610e735760405162461bcd60e51b815260040161073390612b9b565b8351865114610e945760405162461bcd60e51b815260040161073390612b9b565b6000865111610ee55760405162461bcd60e51b815260206004820152601860248201527f476f7665726e6f723a20656d7074792070726f706f73616c00000000000000006044820152606401610733565b600081815260016020908152604091829020825191820190925281546001600160401b03169081905215610f655760405162461bcd60e51b815260206004820152602160248201527f476f7665726e6f723a2070726f706f73616c20616c72656164792065786973746044820152607360f81b6064820152608401610733565b6000610f917f00000000000000000000000000000000000000000000000000000000000000005b611318565b610f9a43611318565b610fa49190612dc3565b90506000610fd17f0000000000000000000000000000000000000000000000000000000000000000610f8c565b610fdb9083612dc3565b9050610fe78383611384565b610ff46001840182611384565b7f7d84a6263ae0d98d3329bd7b46bb4e8d6f98cd35a7adb45c274c8b7fd5ebd5e084338b8b8d516001600160401b0381111561104057634e487b7160e01b600052604160045260246000fd5b60405190808252806020026020018201604052801561107357816020015b606081526020019060019003908161105e5790505b508c88888e60405161108d99989796959493929190612c1d565b60405180910390a15091979650505050505050565b6110aa6106a7565b6001600160a01b0316336001600160a01b0316146111055760405162461bcd60e51b8152602060048201526018602482015277476f7665726e6f723a206f6e6c79476f7665726e616e636560401b6044820152606401610733565b6107458161164b565b60008181526003602090815260408083208151928301909152546001600160401b031690819052610cfa565b600260009054906101000a90046001600160a01b03166001600160a01b0316630e18b6816040518163ffffffff1660e01b8152600401600060405180830381600087803b15801561118a57600080fd5b505af115801561119e573d6000803e3d6000fd5b50505050565b60008181526001602081815260408084208151928301909152909101546001600160401b031690819052610cfa565b6000848484846040516020016111ec9493929190612b15565b60408051601f19818403018152919052805160209091012095945050505050565b600061121983836116b4565b9392505050565b60006106cc82611759565b60006001600160e01b03198216636e665ced60e01b14806106cc57506106cc8261180c565b60648111156112d35760405162461bcd60e51b815260206004820152604360248201527f476f7665726e6f72566f74657351756f72756d4672616374696f6e3a2071756f60448201527f72756d4e756d657261746f72206f7665722071756f72756d44656e6f6d696e616064820152623a37b960e91b608482015260a401610733565b600480549082905560408051828152602081018490527f0553476bf02ef2726e8ce5ced78d63e26e602e4a2257b1f559418e24b4633997910160405180910390a15050565b60006001600160401b038211156113805760405162461bcd60e51b815260206004820152602660248201527f53616665436173743a2076616c756520646f65736e27742066697420696e203660448201526534206269747360d01b6064820152608401610733565b5090565b815467ffffffffffffffff19166001600160401b0391909116179055565b6113af8585858585611841565b5050505050565b60006106cc6113c36119f9565b8360405161190160f01b6020820152602281018390526042810182905260009060620160405160208183030381529060405280519060200120905092915050565b600080600061141587878787611af0565b91509150610cc881611bdd565b600084815260016020819052604082209061143c87610d9d565b600781111561145b57634e487b7160e01b600052602160045260246000fd5b146114b45760405162461bcd60e51b815260206004820152602360248201527f476f7665726e6f723a20766f7465206e6f742063757272656e746c792061637460448201526269766560e81b6064820152608401610733565b604080516020810190915281546001600160401b0316908190526000906114dc90879061120d565b90506114ea87878784611de0565b856001600160a01b03167fb8e138887d0aa13bab447e82de9d5c1777041ecd21ca36ba824ff1e6c07ddda4888784886040516115299493929190612d09565b60405180910390a29695505050505050565b60008061154783611f5f565b9050600481600781111561156b57634e487b7160e01b600052602160045260246000fd5b146115775790506106cf565b60006115828461110e565b905080611591575090506106cf565b600260009054906101000a90046001600160a01b03166001600160a01b031663c1a287e26040518163ffffffff1660e01b815260040160206040518083038186803b1580156115df57600080fd5b505afa1580156115f3573d6000803e3d6000fd5b505050506040513d601f19601f8201168201806040525081019061161791906127da565b6116219082612dab565b4210611632576006925050506106cf565b6005925050506106cf565b6000610db6858585856120c8565b600254604080516001600160a01b03928316815291831660208301527f08f74ea46ef7894f65eabfb5e6e695de773a000b47c529ab559178069b226401910160405180910390a1600280546001600160a01b0319166001600160a01b0392909216919091179055565b604051630748d63560e31b81526001600160a01b038381166004830152602482018390526000917f000000000000000000000000000000000000000000000000000000000000000090911690633a46b1a89060440160206040518083038186803b15801561172157600080fd5b505afa158015611735573d6000803e3d6000fd5b505050506040513d601f19601f8201168201806040525081019061121991906127da565b60006064600454604051632394e7a360e21b8152600481018590527f00000000000000000000000000000000000000000000000000000000000000006001600160a01b031690638e539e8c9060240160206040518083038186803b1580156117c057600080fd5b505afa1580156117d4573d6000803e3d6000fd5b505050506040513d601f19601f820116820180604052508101906117f891906127da565b6118029190612e0e565b6106cc9190612dee565b60006001600160e01b0319821663bf26d89760e01b14806106cc57506301ffc9a760e01b6001600160e01b03198316146106cc565b600061184c8661110e565b9050600081116118b85760405162461bcd60e51b815260206004820152603160248201527f476f7665726e6f7254696d656c6f636b436f6d706f756e643a2070726f706f73604482015270185b081b9bdd081e595d081c5d595d5959607a1b6064820152608401610733565b6002546118ce906001600160a01b03163461220d565b60005b85518110156119f05760025486516001600160a01b0390911690630825f38f9088908490811061191157634e487b7160e01b600052603260045260246000fd5b602002602001015187848151811061193957634e487b7160e01b600052603260045260246000fd5b602002602001015187858151811061196157634e487b7160e01b600052603260045260246000fd5b6020026020010151866040518563ffffffff1660e01b81526004016119899493929190612ad0565b600060405180830381600087803b1580156119a357600080fd5b505af11580156119b7573d6000803e3d6000fd5b505050506040513d6000823e601f3d908101601f191682016040526119df919081019061281a565b506119e981612e8e565b90506118d1565b50505050505050565b60007f0000000000000000000000000000000000000000000000000000000000000000461415611a4a57507f00000000000000000000000000000000000000000000000000000000000000006106be565b50604080517f00000000000000000000000000000000000000000000000000000000000000006020808301919091527f0000000000000000000000000000000000000000000000000000000000000000828401527f000000000000000000000000000000000000000000000000000000000000000060608301524660808301523060a0808401919091528351808403909101815260c090920190925280519101206106be565b6000807f7fffffffffffffffffffffffffffffff5d576e7357a4501ddfe92f46681b20a0831115611b275750600090506003611bd4565b8460ff16601b14158015611b3f57508460ff16601c14155b15611b505750600090506004611bd4565b6040805160008082526020820180845289905260ff881692820192909252606081018690526080810185905260019060a0016020604051602081039080840390855afa158015611ba4573d6000803e3d6000fd5b5050604051601f1901519150506001600160a01b038116611bcd57600060019250925050611bd4565b9150600090505b94509492505050565b6000816004811115611bff57634e487b7160e01b600052602160045260246000fd5b1415611c0a57610745565b6001816004811115611c2c57634e487b7160e01b600052602160045260246000fd5b1415611c7a5760405162461bcd60e51b815260206004820152601860248201527f45434453413a20696e76616c6964207369676e617475726500000000000000006044820152606401610733565b6002816004811115611c9c57634e487b7160e01b600052602160045260246000fd5b1415611cea5760405162461bcd60e51b815260206004820152601f60248201527f45434453413a20696e76616c6964207369676e6174757265206c656e677468006044820152606401610733565b6003816004811115611d0c57634e487b7160e01b600052602160045260246000fd5b1415611d655760405162461bcd60e51b815260206004820152602260248201527f45434453413a20696e76616c6964207369676e6174757265202773272076616c604482015261756560f01b6064820152608401610733565b6004816004811115611d8757634e487b7160e01b600052602160045260246000fd5b14156107455760405162461bcd60e51b815260206004820152602260248201527f45434453413a20696e76616c6964207369676e6174757265202776272076616c604482015261756560f01b6064820152608401610733565b60008481526005602090815260408083206001600160a01b0387168452600381019092529091205460ff1615611e685760405162461bcd60e51b815260206004820152602760248201527f476f7665726e6f72566f74696e6753696d706c653a20766f746520616c726561604482015266191e4818d85cdd60ca1b6064820152608401610733565b6001600160a01b03841660009081526003820160205260408120805460ff1916600117905560ff168360ff161415611eb95781816000016000828254611eae9190612dab565b909155506113af9050565b60ff831660011415611ed95781816001016000828254611eae9190612dab565b60ff831660021415611ef95781816002016000828254611eae9190612dab565b60405162461bcd60e51b815260206004820152603560248201527f476f7665726e6f72566f74696e6753696d706c653a20696e76616c69642076616044820152746c756520666f7220656e756d20566f74655479706560581b6064820152608401610733565b6000818152600160208181526040808420815160a08101835281546001600160401b0390811660808301908152825283518086018552958301541685529283019390935260029092015460ff80821615801594840194909452610100909104161515606082015290611fd55760079150506106cf565b806060015115611fe95760029150506106cf565b805151436001600160401b0390911611156120085760009150506106cf565b602081015151436001600160401b03909116111561202a5760019150506106cf565b612037816020015161232b565b1561207a576120458361235a565b8015612064575060008381526005602052604090208054600190910154115b61206f576003612072565b60045b9150506106cf565b60405162461bcd60e51b815260206004820152601d60248201527f476f7665726e6f723a20756e6b6e6f776e2070726f706f73616c2069640000006044820152606401610733565b50919050565b6000806120d786868686612391565b905060006120e48261110e565b90508015610cc85760005b87518110156121ea5760025488516001600160a01b039091169063591fcdfe908a908490811061212f57634e487b7160e01b600052603260045260246000fd5b602002602001015189848151811061215757634e487b7160e01b600052603260045260246000fd5b602002602001015189858151811061217f57634e487b7160e01b600052603260045260246000fd5b6020026020010151866040518563ffffffff1660e01b81526004016121a79493929190612ad0565b600060405180830381600087803b1580156121c157600080fd5b505af11580156121d5573d6000803e3d6000fd5b50505050806121e390612e8e565b90506120ef565b506000828152600360205260409020805467ffffffffffffffff19169055610cc8565b8047101561225d5760405162461bcd60e51b815260206004820152601d60248201527f416464726573733a20696e73756666696369656e742062616c616e63650000006044820152606401610733565b6000826001600160a01b03168260405160006040518083038185875af1925050503d80600081146122aa576040519150601f19603f3d011682016040523d82523d6000602084013e6122af565b606091505b50509050806123265760405162461bcd60e51b815260206004820152603a60248201527f416464726573733a20756e61626c6520746f2073656e642076616c75652c207260448201527f6563697069656e74206d617920686176652072657665727465640000000000006064820152608401610733565b505050565b600061234082516001600160401b0316151590565b80156106cc57505051436001600160401b03909116111590565b60008181526005602052604081206002810154600182015461237c9190612dab565b61238861066e85610cd2565b11159392505050565b6000806123a0868686866111d3565b905060006123ad82610d9d565b905060028160078111156123d157634e487b7160e01b600052602160045260246000fd5b141580156123ff575060068160078111156123fc57634e487b7160e01b600052602160045260246000fd5b14155b801561242b5750600781600781111561242857634e487b7160e01b600052602160045260246000fd5b14155b6124775760405162461bcd60e51b815260206004820152601d60248201527f476f7665726e6f723a2070726f706f73616c206e6f74206163746976650000006044820152606401610733565b60008281526001602052604090819020600201805461ff001916610100179055517f789cf55be980739dad1d0699b93b58e806b51c9d96619bfa8fe0a28abaa7b30c90610bd19084815260200190565b60006124da6124d584612d84565b612d31565b90508281528383830111156124ee57600080fd5b828260208301376000602084830101529392505050565b600082601f830112612515578081fd5b813560206125256124d583612d61565b8281528181019085830183850287018401881015612541578586fd5b855b8581101561256857813561255681612ed5565b84529284019290840190600101612543565b5090979650505050505050565b600082601f830112612585578081fd5b813560206125956124d583612d61565b82815281810190858301855b85811015612568578135880189603f8201126125bb578788fd5b6125cc8a87830135604084016124c7565b85525092840192908401906001016125a1565b600082601f8301126125ef578081fd5b813560206125ff6124d583612d61565b828152818101908583018385028701840188101561261b578586fd5b855b858110156125685781358452928401929084019060010161261d565b803560ff811681146106cf57600080fd5b6000806040838503121561265c578182fd5b823561266781612ed5565b946020939093013593505050565b6000806000806080858703121561268a578182fd5b84356001600160401b03808211156126a0578384fd5b6126ac88838901612505565b955060208701359150808211156126c1578384fd5b6126cd888389016125df565b945060408701359150808211156126e2578384fd5b506126ef87828801612575565b949793965093946060013593505050565b60008060008060808587031215612715578081fd5b84356001600160401b038082111561272b578283fd5b61273788838901612505565b9550602087013591508082111561274c578283fd5b612758888389016125df565b9450604087013591508082111561276d578283fd5b61277988838901612575565b9350606087013591508082111561278e578283fd5b508501601f8101871361279f578182fd5b6127ae878235602084016124c7565b91505092959194509250565b6000602082840312156127cb578081fd5b81518015158114611219578182fd5b6000602082840312156127eb578081fd5b5051919050565b600060208284031215612803578081fd5b81356001600160e01b031981168114611219578182fd5b60006020828403121561282b578081fd5b81516001600160401b03811115612840578182fd5b8201601f81018413612850578182fd5b805161285e6124d582612d84565b818152856020838501011115612872578384fd5b610db6826020830160208601612e2d565b600060208284031215612894578081fd5b813561121981612ed5565b6000602082840312156128b0578081fd5b5035919050565b600080604083850312156128c9578182fd5b8235915060208301356128db81612ed5565b809150509250929050565b600080604083850312156128f8578182fd5b8235915061290860208401612639565b90509250929050565b60008060008060608587031215612926578182fd5b8435935061293660208601612639565b925060408501356001600160401b0380821115612951578384fd5b818701915087601f830112612964578384fd5b813581811115612972578485fd5b886020828501011115612983578485fd5b95989497505060200194505050565b600080600080600060a086880312156129a9578283fd5b853594506129b960208701612639565b93506129c760408701612639565b94979396509394606081013594506080013592915050565b6000815180845260208085019450808401835b83811015612a175781516001600160a01b0316875295820195908201906001016129f2565b509495945050505050565b6000815180845260208085018081965082840281019150828601855b85811015612a68578284038952612a56848351612aa4565b98850198935090840190600101612a3e565b5091979650505050505050565b6000815180845260208085019450808401835b83811015612a1757815187529582019590820190600101612a88565b60008151808452612abc816020860160208601612e2d565b601f01601f19169290920160200192915050565b600060018060a01b038616825284602083015260a060408301528060a083015260c06060830152612b0460c0830185612aa4565b905082608083015295945050505050565b600060808252612b2860808301876129df565b8281036020840152612b3a8187612a75565b90508281036040840152612b4e8186612a22565b91505082606083015295945050505050565b6020810160088310612b8257634e487b7160e01b600052602160045260246000fd5b91905290565b6000602082526112196020830184612aa4565b60208082526021908201527f476f7665726e6f723a20696e76616c69642070726f706f73616c206c656e67746040820152600d60fb1b606082015260800190565b60208082526021908201527f476f7665726e6f723a2070726f706f73616c206e6f74207375636365737366756040820152601b60fa1b606082015260800190565b60006101208b8352602060018060a01b038c1681850152816040850152612c468285018c6129df565b91508382036060850152612c5a828b612a75565b848103608086015289518082529092508183019082810284018301838c01865b83811015612ca857601f19878403018552612c96838351612aa4565b94860194925090850190600101612c7a565b505086810360a0880152612cbc818c612a22565b945050505050612cd760c08401876001600160401b03169052565b6001600160401b03851660e0840152828103610100840152612cf98185612aa4565b9c9b505050505050505050505050565b600085825260ff8516602083015283604083015260806060830152610e306080830184612aa4565b604051601f8201601f191681016001600160401b0381118282101715612d5957612d59612ebf565b604052919050565b60006001600160401b03821115612d7a57612d7a612ebf565b5060209081020190565b60006001600160401b03821115612d9d57612d9d612ebf565b50601f01601f191660200190565b60008219821115612dbe57612dbe612ea9565b500190565b60006001600160401b03808316818516808303821115612de557612de5612ea9565b01949350505050565b600082612e0957634e487b7160e01b81526012600452602481fd5b500490565b6000816000190483118215151615612e2857612e28612ea9565b500290565b60005b83811015612e48578181015183820152602001612e30565b8381111561119e5750506000910152565b600281046001821680612e6d57607f821691505b602082108114156120c257634e487b7160e01b600052602260045260246000fd5b6000600019821415612ea257612ea2612ea9565b5060010190565b634e487b7160e01b600052601160045260246000fd5b634e487b7160e01b600052604160045260246000fd5b6001600160a01b038116811461074557600080fdfea26469706673582212200e244b4e1fd351cd5c425315de47c5dbf690929ec2cc8d7e5e7b9a4ae60e9d6664736f6c63430008020033",
  "immutableReferences": {
    "5559": [
      {
        "length": 32,
        "start": 1669
      },
      {
        "length": 32,
        "start": 5853
      },
      {
        "length": 32,
        "start": 6006
      }
    ],
    "10838": [
      {
        "length": 32,
        "start": 783
      },
      {
        "length": 32,
        "start": 3948
      }
    ],
    "10840": [
      {
        "length": 32,
        "start": 573
      },
      {
        "length": 32,
        "start": 4013
      }
    ],
    "24808": [
      {
        "length": 32,
        "start": 6694
      }
    ],
    "24810": [
      {
        "length": 32,
        "start": 6653
      }
    ],
    "24812": [
      {
        "length": 32,
        "start": 6779
      }
    ],
    "24814": [
      {
        "length": 32,
        "start": 6816
      }
    ],
    "24816": [
      {
        "length": 32,
        "start": 6737
      }
    ]
  },
  "source": "// SPDX-License-Identifier: MIT\n\npragma solidity ^0.8.0;\n\nimport \"../governance/extensions/GovernorTimelockCompound.sol\";\nimport \"../governance/extensions/GovernorCountingSimple.sol\";\nimport \"../governance/extensions/GovernorVotesQuorumFraction.sol\";\n\ncontract GovernorTimelockCompoundMock is GovernorTimelockCompound, GovernorVotesQuorumFraction, GovernorCountingSimple {\n    uint256 immutable _votingDelay;\n    uint256 immutable _votingPeriod;\n\n    constructor(\n        string memory name_,\n        ERC20Votes token_,\n        uint256 votingDelay_,\n        uint256 votingPeriod_,\n        ICompoundTimelock timelock_,\n        uint256 quorumNumerator_\n    )\n        Governor(name_)\n        GovernorTimelockCompound(timelock_)\n        GovernorVotes(token_)\n        GovernorVotesQuorumFraction(quorumNumerator_)\n    {\n        _votingDelay = votingDelay_;\n        _votingPeriod = votingPeriod_;\n    }\n\n    function supportsInterface(bytes4 interfaceId)\n        public\n        view\n        virtual\n        override(Governor, GovernorTimelockCompound)\n        returns (bool)\n    {\n        return super.supportsInterface(interfaceId);\n    }\n\n    function votingDelay() public view override returns (uint256) {\n        return _votingDelay;\n    }\n\n    function votingPeriod() public view override returns (uint256) {\n        return _votingPeriod;\n    }\n\n    function quorum(uint256 blockNumber)\n        public\n        view\n        override(IGovernor, GovernorVotesQuorumFraction)\n        returns (uint256)\n    {\n        return super.quorum(blockNumber);\n    }\n\n    function cancel(\n        address[] memory targets,\n        uint256[] memory values,\n        bytes[] memory calldatas,\n        bytes32 salt\n    ) public returns (uint256 proposalId) {\n        return _cancel(targets, values, calldatas, salt);\n    }\n\n    /**\n     * Overriding nightmare\n     */\n    function state(uint256 proposalId)\n        public\n        view\n        virtual\n        override(Governor, GovernorTimelockCompound)\n        returns (ProposalState)\n    {\n        return super.state(proposalId);\n    }\n\n    function _execute(\n        uint256 proposalId,\n        address[] memory targets,\n        uint256[] memory values,\n        bytes[] memory calldatas,\n        bytes32 descriptionHash\n    ) internal virtual override(Governor, GovernorTimelockCompound) {\n        super._execute(proposalId, targets, values, calldatas, descriptionHash);\n    }\n\n    function _cancel(\n        address[] memory targets,\n        uint256[] memory values,\n        bytes[] memory calldatas,\n        bytes32 salt\n    ) internal virtual override(Governor, GovernorTimelockCompound) returns (uint256 proposalId) {\n        return super._cancel(targets, values, calldatas, salt);\n    }\n\n    function getVotes(address account, uint256 blockNumber)\n        public\n        view\n        virtual\n        override(IGovernor, GovernorVotes)\n        returns (uint256)\n    {\n        return super.getVotes(account, blockNumber);\n    }\n\n    function _executor() internal view virtual override(Governor, GovernorTimelockCompound) returns (address) {\n        return super._executor();\n    }\n}\n",
  "sourcePath": "/Users/shangyihuang/Documents/SocialFi/client/contracts/contracts/mocks/GovernorTimelockCompoundMock.sol",
  "compiler": {
    "name": "solc",
    "version": "0.8.2+commit.661d1103.Emscripten.clang"
  },
  "schemaVersion": "3.4.7",
  "updatedAt": "2022-05-05T11:49:18.580Z",
  "devdoc": {
    "kind": "dev",
    "methods": {
      "COUNTING_MODE()": {
        "details": "See {IGovernor-COUNTING_MODE}."
      },
      "__acceptAdmin()": {
        "details": "Accept admin right over the timelock."
      },
      "castVote(uint256,uint8)": {
        "details": "See {IGovernor-castVote}."
      },
      "castVoteBySig(uint256,uint8,uint8,bytes32,bytes32)": {
        "details": "See {IGovernor-castVoteBySig}."
      },
      "castVoteWithReason(uint256,uint8,string)": {
        "details": "See {IGovernor-castVoteWithReason}."
      },
      "execute(address[],uint256[],bytes[],bytes32)": {
        "details": "See {IGovernor-execute}."
      },
      "hasVoted(uint256,address)": {
        "details": "See {IGovernor-hasVoted}."
      },
      "hashProposal(address[],uint256[],bytes[],bytes32)": {
        "details": "See {IGovernor-hashProposal}. The proposal id is produced by hashing the RLC encoded `targets` array, the `values` array, the `calldatas` array and the descriptionHash (bytes32 which itself is the keccak256 hash of the description string). This proposal id can be produced from the proposal data which is part of the {ProposalCreated} event. It can even be computed in advance, before the proposal is submitted. Note that the chainId and the governor address are not part of the proposal id computation. Consequently, the same proposal (with same operation and same description) will have the same id if submitted on multiple governors accross multiple networks. This also means that in order to execute the same operation twice (on the same governor) the proposer will have to change the description in order to avoid proposal id conflicts."
      },
      "name()": {
        "details": "See {IGovernor-name}."
      },
      "proposalDeadline(uint256)": {
        "details": "See {IGovernor-proposalDeadline}."
      },
      "proposalEta(uint256)": {
        "details": "Public accessor to check the eta of a queued proposal"
      },
      "proposalSnapshot(uint256)": {
        "details": "See {IGovernor-proposalSnapshot}."
      },
      "proposalVotes(uint256)": {
        "details": "Accessor to the internal vote counts."
      },
      "propose(address[],uint256[],bytes[],string)": {
        "details": "See {IGovernor-propose}."
      },
      "queue(address[],uint256[],bytes[],bytes32)": {
        "details": "Function to queue a proposal to the timelock."
      },
      "timelock()": {
        "details": "Public accessor to check the address of the timelock"
      },
      "updateTimelock(address)": {
        "details": "Public endpoint to update the underlying timelock instance. Restricted to the timelock itself, so updates must be proposed, scheduled and executed using the {Governor} workflow. For security reason, the timelock must be handed over to another admin before setting up a new one. The two operations (hand over the timelock) and do the update can be batched in a single proposal. Note that if the timelock admin has been handed over in a previous operation, we refuse updates made through the timelock if admin of the timelock has already been accepted and the operation is executed outside the scope of governance."
      },
      "version()": {
        "details": "See {IGovernor-version}."
      },
      "votingDelay()": {
        "details": "delay, in number of block, between the proposal is created and the vote starts. This can be increassed to leave time for users to buy voting power, of delegate it, before the voting of a proposal starts."
      },
      "votingPeriod()": {
        "details": "delay, in number of blocks, between the vote start and vote ends. Note: the {votingDelay} can delay the start of the vote. This must be considered when setting the voting duration compared to the voting delay."
      }
    },
    "version": 1
  },
  "userdoc": {
    "kind": "user",
    "methods": {
      "state(uint256)": {
        "notice": "Overriding nightmare"
      },
      "votingDelay()": {
        "notice": "module:user-config"
      },
      "votingPeriod()": {
        "notice": "module:user-config"
      }
    },
    "version": 1
  }
}