{
  "contractName": "GovernorTimelockControlMock",
  "abi": [
    {
      "inputs": [
        {
          "internalType": "string",
          "name": "name_",
          "type": "string"
        },
        {
          "internalType": "contract ERC20Votes",
          "name": "token_",
          "type": "address"
        },
        {
          "internalType": "uint256",
          "name": "votingDelay_",
          "type": "uint256"
        },
        {
          "internalType": "uint256",
          "name": "votingPeriod_",
          "type": "uint256"
        },
        {
          "internalType": "contract TimelockController",
          "name": "timelock_",
          "type": "address"
        },
        {
          "internalType": "uint256",
          "name": "quorumNumerator_",
          "type": "uint256"
        }
      ],
      "stateMutability": "nonpayable",
      "type": "constructor"
    },
    {
      "anonymous": false,
      "inputs": [
        {
          "indexed": false,
          "internalType": "uint256",
          "name": "proposalId",
          "type": "uint256"
        }
      ],
      "name": "ProposalCanceled",
      "type": "event"
    },
    {
      "anonymous": false,
      "inputs": [
        {
          "indexed": false,
          "internalType": "uint256",
          "name": "proposalId",
          "type": "uint256"
        },
        {
          "indexed": false,
          "internalType": "address",
          "name": "proposer",
          "type": "address"
        },
        {
          "indexed": false,
          "internalType": "address[]",
          "name": "targets",
          "type": "address[]"
        },
        {
          "indexed": false,
          "internalType": "uint256[]",
          "name": "values",
          "type": "uint256[]"
        },
        {
          "indexed": false,
          "internalType": "string[]",
          "name": "signatures",
          "type": "string[]"
        },
        {
          "indexed": false,
          "internalType": "bytes[]",
          "name": "calldatas",
          "type": "bytes[]"
        },
        {
          "indexed": false,
          "internalType": "uint256",
          "name": "startBlock",
          "type": "uint256"
        },
        {
          "indexed": false,
          "internalType": "uint256",
          "name": "endBlock",
          "type": "uint256"
        },
        {
          "indexed": false,
          "internalType": "string",
          "name": "description",
          "type": "string"
        }
      ],
      "name": "ProposalCreated",
      "type": "event"
    },
    {
      "anonymous": false,
      "inputs": [
        {
          "indexed": false,
          "internalType": "uint256",
          "name": "proposalId",
          "type": "uint256"
        }
      ],
      "name": "ProposalExecuted",
      "type": "event"
    },
    {
      "anonymous": false,
      "inputs": [
        {
          "indexed": false,
          "internalType": "uint256",
          "name": "proposalId",
          "type": "uint256"
        },
        {
          "indexed": false,
          "internalType": "uint256",
          "name": "eta",
          "type": "uint256"
        }
      ],
      "name": "ProposalQueued",
      "type": "event"
    },
    {
      "anonymous": false,
      "inputs": [
        {
          "indexed": false,
          "internalType": "uint256",
          "name": "oldQuorumNumerator",
          "type": "uint256"
        },
        {
          "indexed": false,
          "internalType": "uint256",
          "name": "newQuorumNumerator",
          "type": "uint256"
        }
      ],
      "name": "QuorumNumeratorUpdated",
      "type": "event"
    },
    {
      "anonymous": false,
      "inputs": [
        {
          "indexed": false,
          "internalType": "address",
          "name": "oldTimelock",
          "type": "address"
        },
        {
          "indexed": false,
          "internalType": "address",
          "name": "newTimelock",
          "type": "address"
        }
      ],
      "name": "TimelockChange",
      "type": "event"
    },
    {
      "anonymous": false,
      "inputs": [
        {
          "indexed": true,
          "internalType": "address",
          "name": "voter",
          "type": "address"
        },
        {
          "indexed": false,
          "internalType": "uint256",
          "name": "proposalId",
          "type": "uint256"
        },
        {
          "indexed": false,
          "internalType": "uint8",
          "name": "support",
          "type": "uint8"
        },
        {
          "indexed": false,
          "internalType": "uint256",
          "name": "weight",
          "type": "uint256"
        },
        {
          "indexed": false,
          "internalType": "string",
          "name": "reason",
          "type": "string"
        }
      ],
      "name": "VoteCast",
      "type": "event"
    },
    {
      "inputs": [],
      "name": "BALLOT_TYPEHASH",
      "outputs": [
        {
          "internalType": "bytes32",
          "name": "",
          "type": "bytes32"
        }
      ],
      "stateMutability": "view",
      "type": "function"
    },
    {
      "inputs": [],
      "name": "COUNTING_MODE",
      "outputs": [
        {
          "internalType": "string",
          "name": "",
          "type": "string"
        }
      ],
      "stateMutability": "pure",
      "type": "function"
    },
    {
      "inputs": [
        {
          "internalType": "uint256",
          "name": "proposalId",
          "type": "uint256"
        },
        {
          "internalType": "uint8",
          "name": "support",
          "type": "uint8"
        }
      ],
      "name": "castVote",
      "outputs": [
        {
          "internalType": "uint256",
          "name": "",
          "type": "uint256"
        }
      ],
      "stateMutability": "nonpayable",
      "type": "function"
    },
    {
      "inputs": [
        {
          "internalType": "uint256",
          "name": "proposalId",
          "type": "uint256"
        },
        {
          "internalType": "uint8",
          "name": "support",
          "type": "uint8"
        },
        {
          "internalType": "uint8",
          "name": "v",
          "type": "uint8"
        },
        {
          "internalType": "bytes32",
          "name": "r",
          "type": "bytes32"
        },
        {
          "internalType": "bytes32",
          "name": "s",
          "type": "bytes32"
        }
      ],
      "name": "castVoteBySig",
      "outputs": [
        {
          "internalType": "uint256",
          "name": "",
          "type": "uint256"
        }
      ],
      "stateMutability": "nonpayable",
      "type": "function"
    },
    {
      "inputs": [
        {
          "internalType": "uint256",
          "name": "proposalId",
          "type": "uint256"
        },
        {
          "internalType": "uint8",
          "name": "support",
          "type": "uint8"
        },
        {
          "internalType": "string",
          "name": "reason",
          "type": "string"
        }
      ],
      "name": "castVoteWithReason",
      "outputs": [
        {
          "internalType": "uint256",
          "name": "",
          "type": "uint256"
        }
      ],
      "stateMutability": "nonpayable",
      "type": "function"
    },
    {
      "inputs": [
        {
          "internalType": "address[]",
          "name": "targets",
          "type": "address[]"
        },
        {
          "internalType": "uint256[]",
          "name": "values",
          "type": "uint256[]"
        },
        {
          "internalType": "bytes[]",
          "name": "calldatas",
          "type": "bytes[]"
        },
        {
          "internalType": "bytes32",
          "name": "descriptionHash",
          "type": "bytes32"
        }
      ],
      "name": "execute",
      "outputs": [
        {
          "internalType": "uint256",
          "name": "",
          "type": "uint256"
        }
      ],
      "stateMutability": "payable",
      "type": "function"
    },
    {
      "inputs": [
        {
          "internalType": "uint256",
          "name": "proposalId",
          "type": "uint256"
        },
        {
          "internalType": "address",
          "name": "account",
          "type": "address"
        }
      ],
      "name": "hasVoted",
      "outputs": [
        {
          "internalType": "bool",
          "name": "",
          "type": "bool"
        }
      ],
      "stateMutability": "view",
      "type": "function"
    },
    {
      "inputs": [
        {
          "internalType": "address[]",
          "name": "targets",
          "type": "address[]"
        },
        {
          "internalType": "uint256[]",
          "name": "values",
          "type": "uint256[]"
        },
        {
          "internalType": "bytes[]",
          "name": "calldatas",
          "type": "bytes[]"
        },
        {
          "internalType": "bytes32",
          "name": "descriptionHash",
          "type": "bytes32"
        }
      ],
      "name": "hashProposal",
      "outputs": [
        {
          "internalType": "uint256",
          "name": "",
          "type": "uint256"
        }
      ],
      "stateMutability": "pure",
      "type": "function"
    },
    {
      "inputs": [],
      "name": "name",
      "outputs": [
        {
          "internalType": "string",
          "name": "",
          "type": "string"
        }
      ],
      "stateMutability": "view",
      "type": "function"
    },
    {
      "inputs": [
        {
          "internalType": "uint256",
          "name": "proposalId",
          "type": "uint256"
        }
      ],
      "name": "proposalDeadline",
      "outputs": [
        {
          "internalType": "uint256",
          "name": "",
          "type": "uint256"
        }
      ],
      "stateMutability": "view",
      "type": "function"
    },
    {
      "inputs": [
        {
          "internalType": "uint256",
          "name": "proposalId",
          "type": "uint256"
        }
      ],
      "name": "proposalEta",
      "outputs": [
        {
          "internalType": "uint256",
          "name": "",
          "type": "uint256"
        }
      ],
      "stateMutability": "view",
      "type": "function"
    },
    {
      "inputs": [
        {
          "internalType": "uint256",
          "name": "proposalId",
          "type": "uint256"
        }
      ],
      "name": "proposalSnapshot",
      "outputs": [
        {
          "internalType": "uint256",
          "name": "",
          "type": "uint256"
        }
      ],
      "stateMutability": "view",
      "type": "function"
    },
    {
      "inputs": [
        {
          "internalType": "uint256",
          "name": "proposalId",
          "type": "uint256"
        }
      ],
      "name": "proposalVotes",
      "outputs": [
        {
          "internalType": "uint256",
          "name": "againstVotes",
          "type": "uint256"
        },
        {
          "internalType": "uint256",
          "name": "forVotes",
          "type": "uint256"
        },
        {
          "internalType": "uint256",
          "name": "abstainVotes",
          "type": "uint256"
        }
      ],
      "stateMutability": "view",
      "type": "function"
    },
    {
      "inputs": [
        {
          "internalType": "address[]",
          "name": "targets",
          "type": "address[]"
        },
        {
          "internalType": "uint256[]",
          "name": "values",
          "type": "uint256[]"
        },
        {
          "internalType": "bytes[]",
          "name": "calldatas",
          "type": "bytes[]"
        },
        {
          "internalType": "string",
          "name": "description",
          "type": "string"
        }
      ],
      "name": "propose",
      "outputs": [
        {
          "internalType": "uint256",
          "name": "",
          "type": "uint256"
        }
      ],
      "stateMutability": "nonpayable",
      "type": "function"
    },
    {
      "inputs": [
        {
          "internalType": "address[]",
          "name": "targets",
          "type": "address[]"
        },
        {
          "internalType": "uint256[]",
          "name": "values",
          "type": "uint256[]"
        },
        {
          "internalType": "bytes[]",
          "name": "calldatas",
          "type": "bytes[]"
        },
        {
          "internalType": "bytes32",
          "name": "descriptionHash",
          "type": "bytes32"
        }
      ],
      "name": "queue",
      "outputs": [
        {
          "internalType": "uint256",
          "name": "",
          "type": "uint256"
        }
      ],
      "stateMutability": "nonpayable",
      "type": "function"
    },
    {
      "inputs": [],
      "name": "quorumDenominator",
      "outputs": [
        {
          "internalType": "uint256",
          "name": "",
          "type": "uint256"
        }
      ],
      "stateMutability": "view",
      "type": "function"
    },
    {
      "inputs": [],
      "name": "quorumNumerator",
      "outputs": [
        {
          "internalType": "uint256",
          "name": "",
          "type": "uint256"
        }
      ],
      "stateMutability": "view",
      "type": "function"
    },
    {
      "inputs": [],
      "name": "timelock",
      "outputs": [
        {
          "internalType": "address",
          "name": "",
          "type": "address"
        }
      ],
      "stateMutability": "view",
      "type": "function"
    },
    {
      "inputs": [],
      "name": "token",
      "outputs": [
        {
          "internalType": "contract ERC20Votes",
          "name": "",
          "type": "address"
        }
      ],
      "stateMutability": "view",
      "type": "function"
    },
    {
      "inputs": [
        {
          "internalType": "uint256",
          "name": "newQuorumNumerator",
          "type": "uint256"
        }
      ],
      "name": "updateQuorumNumerator",
      "outputs": [],
      "stateMutability": "nonpayable",
      "type": "function"
    },
    {
      "inputs": [
        {
          "internalType": "contract TimelockController",
          "name": "newTimelock",
          "type": "address"
        }
      ],
      "name": "updateTimelock",
      "outputs": [],
      "stateMutability": "nonpayable",
      "type": "function"
    },
    {
      "inputs": [],
      "name": "version",
      "outputs": [
        {
          "internalType": "string",
          "name": "",
          "type": "string"
        }
      ],
      "stateMutability": "view",
      "type": "function"
    },
    {
      "stateMutability": "payable",
      "type": "receive"
    },
    {
      "inputs": [
        {
          "internalType": "bytes4",
          "name": "interfaceId",
          "type": "bytes4"
        }
      ],
      "name": "supportsInterface",
      "outputs": [
        {
          "internalType": "bool",
          "name": "",
          "type": "bool"
        }
      ],
      "stateMutability": "view",
      "type": "function"
    },
    {
      "inputs": [],
      "name": "votingDelay",
      "outputs": [
        {
          "internalType": "uint256",
          "name": "",
          "type": "uint256"
        }
      ],
      "stateMutability": "view",
      "type": "function"
    },
    {
      "inputs": [],
      "name": "votingPeriod",
      "outputs": [
        {
          "internalType": "uint256",
          "name": "",
          "type": "uint256"
        }
      ],
      "stateMutability": "view",
      "type": "function"
    },
    {
      "inputs": [
        {
          "internalType": "uint256",
          "name": "blockNumber",
          "type": "uint256"
        }
      ],
      "name": "quorum",
      "outputs": [
        {
          "internalType": "uint256",
          "name": "",
          "type": "uint256"
        }
      ],
      "stateMutability": "view",
      "type": "function"
    },
    {
      "inputs": [
        {
          "internalType": "address[]",
          "name": "targets",
          "type": "address[]"
        },
        {
          "internalType": "uint256[]",
          "name": "values",
          "type": "uint256[]"
        },
        {
          "internalType": "bytes[]",
          "name": "calldatas",
          "type": "bytes[]"
        },
        {
          "internalType": "bytes32",
          "name": "descriptionHash",
          "type": "bytes32"
        }
      ],
      "name": "cancel",
      "outputs": [
        {
          "internalType": "uint256",
          "name": "proposalId",
          "type": "uint256"
        }
      ],
      "stateMutability": "nonpayable",
      "type": "function"
    },
    {
      "inputs": [
        {
          "internalType": "uint256",
          "name": "proposalId",
          "type": "uint256"
        }
      ],
      "name": "state",
      "outputs": [
        {
          "internalType": "enum IGovernor.ProposalState",
          "name": "",
          "type": "uint8"
        }
      ],
      "stateMutability": "view",
      "type": "function"
    },
    {
      "inputs": [
        {
          "internalType": "address",
          "name": "account",
          "type": "address"
        },
        {
          "internalType": "uint256",
          "name": "blockNumber",
          "type": "uint256"
        }
      ],
      "name": "getVotes",
      "outputs": [
        {
          "internalType": "uint256",
          "name": "",
          "type": "uint256"
        }
      ],
      "stateMutability": "view",
      "type": "function"
    }
  ],
  "bytecode": "0x6101806040523480156200001257600080fd5b5060405162002f1238038062002f1283398101604081905262000035916200032e565b8085838880620000596040805180820190915260018152603160f81b602082015290565b815160209283012081519183019190912060c082815260e08290524660a0818152604080517f8b73c3c69bb8fe3d512ecc4cf759cc79239f7b179b0ffacaa9a75d522b39400f818901819052818301979097526060810195909552608080860193909352308583015280518086039092018252939092019092528051908401209052610100528151620000f391600091908401906200026b565b506200010190508162000135565b5060601b6001600160601b031916610120526200011e816200019e565b5050506101409190915261016052506200049a9050565b600254604080516001600160a01b03928316815291831660208301527f08f74ea46ef7894f65eabfb5e6e695de773a000b47c529ab559178069b226401910160405180910390a1600280546001600160a01b0319166001600160a01b0392909216919091179055565b6064811115620002265760405162461bcd60e51b815260206004820152604360248201527f476f7665726e6f72566f74657351756f72756d4672616374696f6e3a2071756f60448201527f72756d4e756d657261746f72206f7665722071756f72756d44656e6f6d696e616064820152623a37b960e91b608482015260a40160405180910390fd5b600480549082905560408051828152602081018490527f0553476bf02ef2726e8ce5ced78d63e26e602e4a2257b1f559418e24b4633997910160405180910390a15050565b828054620002799062000447565b90600052602060002090601f0160209004810192826200029d5760008555620002e8565b82601f10620002b857805160ff1916838001178555620002e8565b82800160010185558215620002e8579182015b82811115620002e8578251825591602001919060010190620002cb565b50620002f6929150620002fa565b5090565b5b80821115620002f65760008155600101620002fb565b80516001600160a01b03811681146200032957600080fd5b919050565b60008060008060008060c0878903121562000347578182fd5b86516001600160401b03808211156200035e578384fd5b818901915089601f83011262000372578384fd5b81518181111562000387576200038762000484565b604051601f8201601f19908116603f01168101908382118183101715620003b257620003b262000484565b81604052828152602093508c84848701011115620003ce578687fd5b8691505b82821015620003f15784820184015181830185015290830190620003d2565b828211156200040257868484830101525b99506200041491505089820162000311565b965050506040870151935060608701519250620004346080880162000311565b915060a087015190509295509295509295565b6002810460018216806200045c57607f821691505b602082108114156200047e57634e487b7160e01b600052602260045260246000fd5b50919050565b634e487b7160e01b600052604160045260246000fd5b60805160a05160c05160e051610100516101205160601c61014051610160516129f36200051f600039600081816102320152610db10152600081816103040152610d70015260008181610665015281816114de01526115770152600061170e0152600061175d01526000611738015260006116ba015260006116e301526129f36000f3fe6080604052600436106101c65760003560e01c806356781388116100f7578063c01f9e3711610095578063deaaa7cc11610064578063deaaa7cc146105df578063eb9019d414610613578063f8ce560a14610633578063fc0c546a14610653576101e9565b8063c01f9e3714610527578063c59057e414610547578063d33219b414610567578063dd4e2ba514610599576101e9565b806397c3d334116100d157806397c3d334146104be578063a7713a70146104d2578063a890c910146104e7578063ab58fb8e14610507576101e9565b8063567813881461045e5780637b3c71d31461047e5780637d5e81e21461049e576101e9565b80633932abb111610164578063438596321161013e5780634385963214610375578063452115d6146103bf578063544ffc9c146103df57806354fd4d5014610434576101e9565b80633932abb1146102f55780633bccf4fd146103285780633e4f49e614610348576101e9565b806306fdde03116101a057806306fdde0314610280578063160cbed7146102a25780632656227d146102c25780632d63f693146102d5576101e9565b806301ffc9a7146101ee57806302a251a31461022357806306f3f9e614610260576101e9565b366101e957306101d4610687565b6001600160a01b0316146101e757600080fd5b005b600080fd5b3480156101fa57600080fd5b5061020e61020936600461231c565b6106a1565b60405190151581526020015b60405180910390f35b34801561022f57600080fd5b507f00000000000000000000000000000000000000000000000000000000000000005b60405190815260200161021a565b34801561026c57600080fd5b506101e761027b366004612360565b6106b4565b34801561028c57600080fd5b50610295610728565b60405161021a91906126c9565b3480156102ae57600080fd5b506102526102bd36600461219f565b6107ba565b6102526102d036600461219f565b6109e7565b3480156102e157600080fd5b506102526102f0366004612360565b610ad6565b34801561030157600080fd5b507f0000000000000000000000000000000000000000000000000000000000000000610252565b34801561033457600080fd5b50610252610343366004612453565b610b0d565b34801561035457600080fd5b50610368610363366004612360565b610ba1565b60405161021a91906126a1565b34801561038157600080fd5b5061020e610390366004612378565b60008281526005602090815260408083206001600160a01b038516845260030190915290205460ff1692915050565b3480156103cb57600080fd5b506102526103da36600461219f565b610bac565b3480156103eb57600080fd5b506104196103fa366004612360565b6000908152600560205260409020805460018201546002909201549092565b6040805193845260208401929092529082015260600161021a565b34801561044057600080fd5b506040805180820190915260018152603160f81b6020820152610295565b34801561046a57600080fd5b506102526104793660046123a7565b610bc3565b34801561048a57600080fd5b506102526104993660046123d2565b610bec565b3480156104aa57600080fd5b506102526104b936600461222a565b610c3e565b3480156104ca57600080fd5b506064610252565b3480156104de57600080fd5b50600454610252565b3480156104f357600080fd5b506101e7610502366004612344565b610ec7565b34801561051357600080fd5b50610252610522366004612360565b610f33565b34801561053357600080fd5b50610252610542366004612360565b610fdd565b34801561055357600080fd5b5061025261056236600461219f565b61100c565b34801561057357600080fd5b506002546001600160a01b03165b6040516001600160a01b03909116815260200161021a565b3480156105a557600080fd5b506040805180820190915260208082527f737570706f72743d627261766f2671756f72756d3d666f722c6162737461696e90820152610295565b3480156105eb57600080fd5b506102527f150214d74d59b7d1e90c73fc22ef3d991dd0a76b046543d4d80ab92d2a50328f81565b34801561061f57600080fd5b5061025261062e366004612174565b611046565b34801561063f57600080fd5b5061025261064e366004612360565b611052565b34801561065f57600080fd5b506105817f000000000000000000000000000000000000000000000000000000000000000081565b600061069b6002546001600160a01b031690565b90505b90565b60006106ac8261105d565b90505b919050565b6106bc610687565b6001600160a01b0316336001600160a01b03161461071c5760405162461bcd60e51b8152602060048201526018602482015277476f7665726e6f723a206f6e6c79476f7665726e616e636560401b60448201526064015b60405180910390fd5b61072581611082565b50565b60606000805461073790612947565b80601f016020809104026020016040519081016040528092919081815260200182805461076390612947565b80156107b05780601f10610785576101008083540402835291602001916107b0565b820191906000526020600020905b81548152906001019060200180831161079357829003601f168201915b5050505050905090565b6000806107c98686868661100c565b905060046107d682610ba1565b60078111156107f557634e487b7160e01b600052602160045260246000fd5b146108125760405162461bcd60e51b81526004016107139061271d565b6002546040805163793d064960e11b815290516000926001600160a01b03169163f27a0c92916004808301926020929190829003018186803b15801561085757600080fd5b505afa15801561086b573d6000803e3d6000fd5b505050506040513d601f19601f8201168201806040525081019061088f9190612304565b60025460405163b1c5f42760e01b81529192506001600160a01b03169063b1c5f427906108c9908a908a908a906000908b906004016125fb565b60206040518083038186803b1580156108e157600080fd5b505afa1580156108f5573d6000803e3d6000fd5b505050506040513d601f19601f820116820180604052508101906109199190612304565b6000838152600360205260408082209290925560025491516308f2a0bb60e41b81526001600160a01b0390921691638f2a0bb091610964918b918b918b91908b908990600401612649565b600060405180830381600087803b15801561097e57600080fd5b505af1158015610992573d6000803e3d6000fd5b505050507f9a2e42fd6722813d69113e7d0079d3d940171428df7373df9c7f7617cfda28928282426109c491906128c5565b604080519283526020830191909152015b60405180910390a15095945050505050565b6000806109f68686868661100c565b90506000610a0382610ba1565b90506004816007811115610a2757634e487b7160e01b600052602160045260246000fd5b1480610a5257506005816007811115610a5057634e487b7160e01b600052602160045260246000fd5b145b610a6e5760405162461bcd60e51b81526004016107139061271d565b600082815260016020818152604092839020600201805460ff191690921790915590518381527f712ae1383f79ac853f8d882153778e0260ef8f03b504e2866e0593e04d2b291f910160405180910390a1610acc828888888861114a565b5095945050505050565b60008181526001602090815260408083208151928301909152546001600160401b0316908190525b6001600160401b031692915050565b604080517f150214d74d59b7d1e90c73fc22ef3d991dd0a76b046543d4d80ab92d2a50328f602082015290810186905260ff851660608201526000908190610b7990610b71906080016040516020818303038152906040528051906020012061115e565b8686866111ac565b9050610b96878288604051806020016040528060008152506111ca565b979650505050505050565b60006106ac826112e3565b6000610bba858585856113d2565b95945050505050565b600080339050610be4848285604051806020016040528060008152506111ca565b949350505050565b600080339050610c3486828787878080601f0160208091040260200160405190810160405280939291908181526020018383808284376000920191909152506111ca92505050565b9695505050505050565b600080610c54868686868051906020012061100c565b90508451865114610c775760405162461bcd60e51b8152600401610713906126dc565b8351865114610c985760405162461bcd60e51b8152600401610713906126dc565b6000865111610ce95760405162461bcd60e51b815260206004820152601860248201527f476f7665726e6f723a20656d7074792070726f706f73616c00000000000000006044820152606401610713565b600081815260016020908152604091829020825191820190925281546001600160401b03169081905215610d695760405162461bcd60e51b815260206004820152602160248201527f476f7665726e6f723a2070726f706f73616c20616c72656164792065786973746044820152607360f81b6064820152608401610713565b6000610d957f00000000000000000000000000000000000000000000000000000000000000005b6113e0565b610d9e436113e0565b610da891906128dd565b90506000610dd57f0000000000000000000000000000000000000000000000000000000000000000610d90565b610ddf90836128dd565b835467ffffffffffffffff19166001600160401b038416178455905060018301805467ffffffffffffffff19166001600160401b0383161790557f7d84a6263ae0d98d3329bd7b46bb4e8d6f98cd35a7adb45c274c8b7fd5ebd5e084338b8b8d516001600160401b03811115610e6557634e487b7160e01b600052604160045260246000fd5b604051908082528060200260200182016040528015610e9857816020015b6060815260200190600190039081610e835790505b508c88888e604051610eb29998979695949392919061275e565b60405180910390a15091979650505050505050565b610ecf610687565b6001600160a01b0316336001600160a01b031614610f2a5760405162461bcd60e51b8152602060048201526018602482015277476f7665726e6f723a206f6e6c79476f7665726e616e636560401b6044820152606401610713565b6107258161144c565b60025460008281526003602052604080822054905163d45c443560e01b81526004810191909152909182916001600160a01b039091169063d45c44359060240160206040518083038186803b158015610f8b57600080fd5b505afa158015610f9f573d6000803e3d6000fd5b505050506040513d601f19601f82011682018060405250810190610fc39190612304565b905080600114610fd35780610fd6565b60005b9392505050565b60008181526001602081815260408084208151928301909152909101546001600160401b031690819052610afe565b60008484848460405160200161102594939291906125b0565b60408051601f19818403018152919052805160209091012095945050505050565b6000610fd683836114b5565b60006106ac8261155a565b60006001600160e01b03198216636e665ced60e01b14806106ac57506106ac8261160d565b60648111156111055760405162461bcd60e51b815260206004820152604360248201527f476f7665726e6f72566f74657351756f72756d4672616374696f6e3a2071756f60448201527f72756d4e756d657261746f72206f7665722071756f72756d44656e6f6d696e616064820152623a37b960e91b608482015260a401610713565b600480549082905560408051828152602081018490527f0553476bf02ef2726e8ce5ced78d63e26e602e4a2257b1f559418e24b4633997910160405180910390a15050565b6111578585858585611642565b5050505050565b60006106ac61116b6116b6565b8360405161190160f01b6020820152602281018390526042810182905260009060620160405160208183030381529060405280519060200120905092915050565b60008060006111bd878787876117ad565b91509150610acc8161189a565b60008481526001602081905260408220906111e487610ba1565b600781111561120357634e487b7160e01b600052602160045260246000fd5b1461125c5760405162461bcd60e51b815260206004820152602360248201527f476f7665726e6f723a20766f7465206e6f742063757272656e746c792061637460448201526269766560e81b6064820152608401610713565b604080516020810190915281546001600160401b031690819052600090611284908790611046565b905061129287878784611a9d565b856001600160a01b03167fb8e138887d0aa13bab447e82de9d5c1777041ecd21ca36ba824ff1e6c07ddda4888784886040516112d1949392919061284a565b60405180910390a29695505050505050565b6000806112ef83611c1c565b9050600481600781111561131357634e487b7160e01b600052602160045260246000fd5b1461131f5790506106af565b6000838152600360205260409020548061133b575090506106af565b600254604051632ab0f52960e01b8152600481018390526001600160a01b0390911690632ab0f5299060240160206040518083038186803b15801561137f57600080fd5b505afa158015611393573d6000803e3d6000fd5b505050506040513d601f19601f820116820180604052508101906113b791906122e4565b156113c7576007925050506106af565b6005925050506106af565b6000610bba85858585611d85565b60006001600160401b038211156114485760405162461bcd60e51b815260206004820152602660248201527f53616665436173743a2076616c756520646f65736e27742066697420696e203660448201526534206269747360d01b6064820152608401610713565b5090565b600254604080516001600160a01b03928316815291831660208301527f08f74ea46ef7894f65eabfb5e6e695de773a000b47c529ab559178069b226401910160405180910390a1600280546001600160a01b0319166001600160a01b0392909216919091179055565b604051630748d63560e31b81526001600160a01b038381166004830152602482018390526000917f000000000000000000000000000000000000000000000000000000000000000090911690633a46b1a89060440160206040518083038186803b15801561152257600080fd5b505afa158015611536573d6000803e3d6000fd5b505050506040513d601f19601f82011682018060405250810190610fd69190612304565b60006064600454604051632394e7a360e21b8152600481018590527f00000000000000000000000000000000000000000000000000000000000000006001600160a01b031690638e539e8c9060240160206040518083038186803b1580156115c157600080fd5b505afa1580156115d5573d6000803e3d6000fd5b505050506040513d601f19601f820116820180604052508101906115f99190612304565b6116039190612928565b6106ac9190612908565b60006001600160e01b0319821663bf26d89760e01b14806106ac57506301ffc9a760e01b6001600160e01b03198316146106ac565b60025460405163e38335e560e01b81526001600160a01b039091169063e38335e590349061167d9088908890889060009089906004016125fb565b6000604051808303818588803b15801561169657600080fd5b505af11580156116aa573d6000803e3d6000fd5b50505050505050505050565b60007f000000000000000000000000000000000000000000000000000000000000000046141561170757507f000000000000000000000000000000000000000000000000000000000000000061069e565b50604080517f00000000000000000000000000000000000000000000000000000000000000006020808301919091527f0000000000000000000000000000000000000000000000000000000000000000828401527f000000000000000000000000000000000000000000000000000000000000000060608301524660808301523060a0808401919091528351808403909101815260c0909201909252805191012061069e565b6000807f7fffffffffffffffffffffffffffffff5d576e7357a4501ddfe92f46681b20a08311156117e45750600090506003611891565b8460ff16601b141580156117fc57508460ff16601c14155b1561180d5750600090506004611891565b6040805160008082526020820180845289905260ff881692820192909252606081018690526080810185905260019060a0016020604051602081039080840390855afa158015611861573d6000803e3d6000fd5b5050604051601f1901519150506001600160a01b03811661188a57600060019250925050611891565b9150600090505b94509492505050565b60008160048111156118bc57634e487b7160e01b600052602160045260246000fd5b14156118c757610725565b60018160048111156118e957634e487b7160e01b600052602160045260246000fd5b14156119375760405162461bcd60e51b815260206004820152601860248201527f45434453413a20696e76616c6964207369676e617475726500000000000000006044820152606401610713565b600281600481111561195957634e487b7160e01b600052602160045260246000fd5b14156119a75760405162461bcd60e51b815260206004820152601f60248201527f45434453413a20696e76616c6964207369676e6174757265206c656e677468006044820152606401610713565b60038160048111156119c957634e487b7160e01b600052602160045260246000fd5b1415611a225760405162461bcd60e51b815260206004820152602260248201527f45434453413a20696e76616c6964207369676e6174757265202773272076616c604482015261756560f01b6064820152608401610713565b6004816004811115611a4457634e487b7160e01b600052602160045260246000fd5b14156107255760405162461bcd60e51b815260206004820152602260248201527f45434453413a20696e76616c6964207369676e6174757265202776272076616c604482015261756560f01b6064820152608401610713565b60008481526005602090815260408083206001600160a01b0387168452600381019092529091205460ff1615611b255760405162461bcd60e51b815260206004820152602760248201527f476f7665726e6f72566f74696e6753696d706c653a20766f746520616c726561604482015266191e4818d85cdd60ca1b6064820152608401610713565b6001600160a01b03841660009081526003820160205260408120805460ff1916600117905560ff168360ff161415611b765781816000016000828254611b6b91906128c5565b909155506111579050565b60ff831660011415611b965781816001016000828254611b6b91906128c5565b60ff831660021415611bb65781816002016000828254611b6b91906128c5565b60405162461bcd60e51b815260206004820152603560248201527f476f7665726e6f72566f74696e6753696d706c653a20696e76616c69642076616044820152746c756520666f7220656e756d20566f74655479706560581b6064820152608401610713565b6000818152600160208181526040808420815160a08101835281546001600160401b0390811660808301908152825283518086018552958301541685529283019390935260029092015460ff80821615801594840194909452610100909104161515606082015290611c925760079150506106af565b806060015115611ca65760029150506106af565b805151436001600160401b039091161115611cc55760009150506106af565b602081015151436001600160401b039091161115611ce75760019150506106af565b611cf48160200151611e37565b15611d3757611d0283611e66565b8015611d21575060008381526005602052604090208054600190910154115b611d2c576003611d2f565b60045b9150506106af565b60405162461bcd60e51b815260206004820152601d60248201527f476f7665726e6f723a20756e6b6e6f776e2070726f706f73616c2069640000006044820152606401610713565b50919050565b600080611d9486868686611e9d565b60008181526003602052604090205490915015610bba576002546000828152600360205260409081902054905163c4d252f560e01b81526001600160a01b039092169163c4d252f591611ded9160040190815260200190565b600060405180830381600087803b158015611e0757600080fd5b505af1158015611e1b573d6000803e3d6000fd5b5050506000828152600360205260408120555095945050505050565b6000611e4c82516001600160401b0316151590565b80156106ac57505051436001600160401b03909116111590565b600081815260056020526040812060028101546001820154611e8891906128c5565b611e9461064e85610ad6565b11159392505050565b600080611eac8686868661100c565b90506000611eb982610ba1565b90506002816007811115611edd57634e487b7160e01b600052602160045260246000fd5b14158015611f0b57506006816007811115611f0857634e487b7160e01b600052602160045260246000fd5b14155b8015611f3757506007816007811115611f3457634e487b7160e01b600052602160045260246000fd5b14155b611f835760405162461bcd60e51b815260206004820152601d60248201527f476f7665726e6f723a2070726f706f73616c206e6f74206163746976650000006044820152606401610713565b60008281526001602052604090819020600201805461ff001916610100179055517f789cf55be980739dad1d0699b93b58e806b51c9d96619bfa8fe0a28abaa7b30c906109d59084815260200190565b60006001600160401b03831115611fec57611fec612992565b611fff601f8401601f1916602001612872565b905082815283838301111561201357600080fd5b828260208301376000602084830101529392505050565b600082601f83011261203a578081fd5b8135602061204f61204a836128a2565b612872565b828152818101908583018385028701840188101561206b578586fd5b855b85811015612092578135612080816129a8565b8452928401929084019060010161206d565b5090979650505050505050565b600082601f8301126120af578081fd5b813560206120bf61204a836128a2565b82815281810190858301855b85811015612092578135880189603f8201126120e5578788fd5b6120f68a8783013560408401611fd3565b85525092840192908401906001016120cb565b600082601f830112612119578081fd5b8135602061212961204a836128a2565b8281528181019085830183850287018401881015612145578586fd5b855b8581101561209257813584529284019290840190600101612147565b803560ff811681146106af57600080fd5b60008060408385031215612186578182fd5b8235612191816129a8565b946020939093013593505050565b600080600080608085870312156121b4578182fd5b84356001600160401b03808211156121ca578384fd5b6121d68883890161202a565b955060208701359150808211156121eb578384fd5b6121f788838901612109565b9450604087013591508082111561220c578384fd5b506122198782880161209f565b949793965093946060013593505050565b6000806000806080858703121561223f578384fd5b84356001600160401b0380821115612255578586fd5b6122618883890161202a565b95506020870135915080821115612276578485fd5b61228288838901612109565b94506040870135915080821115612297578384fd5b6122a38883890161209f565b935060608701359150808211156122b8578283fd5b508501601f810187136122c9578182fd5b6122d887823560208401611fd3565b91505092959194509250565b6000602082840312156122f5578081fd5b81518015158114610fd6578182fd5b600060208284031215612315578081fd5b5051919050565b60006020828403121561232d578081fd5b81356001600160e01b031981168114610fd6578182fd5b600060208284031215612355578081fd5b8135610fd6816129a8565b600060208284031215612371578081fd5b5035919050565b6000806040838503121561238a578182fd5b82359150602083013561239c816129a8565b809150509250929050565b600080604083850312156123b9578182fd5b823591506123c960208401612163565b90509250929050565b600080600080606085870312156123e7578182fd5b843593506123f760208601612163565b925060408501356001600160401b0380821115612412578384fd5b818701915087601f830112612425578384fd5b813581811115612433578485fd5b886020828501011115612444578485fd5b95989497505060200194505050565b600080600080600060a0868803121561246a578283fd5b8535945061247a60208701612163565b935061248860408701612163565b94979396509394606081013594506080013592915050565b6000815180845260208085019450808401835b838110156124d85781516001600160a01b0316875295820195908201906001016124b3565b509495945050505050565b6000815180845260208085018081965082840281019150828601855b85811015612529578284038952612517848351612565565b988501989350908401906001016124ff565b5091979650505050505050565b6000815180845260208085019450808401835b838110156124d857815187529582019590820190600101612549565b60008151808452815b8181101561258a5760208185018101518683018201520161256e565b8181111561259b5782602083870101525b50601f01601f19169290920160200192915050565b6000608082526125c360808301876124a0565b82810360208401526125d58187612536565b905082810360408401526125e981866124e3565b91505082606083015295945050505050565b600060a0825261260e60a08301886124a0565b82810360208401526126208188612536565b9050828103604084015261263481876124e3565b60608401959095525050608001529392505050565b600060c0825261265c60c08301896124a0565b828103602084015261266e8189612536565b9050828103604084015261268281886124e3565b60608401969096525050608081019290925260a0909101529392505050565b60208101600883106126c357634e487b7160e01b600052602160045260246000fd5b91905290565b600060208252610fd66020830184612565565b60208082526021908201527f476f7665726e6f723a20696e76616c69642070726f706f73616c206c656e67746040820152600d60fb1b606082015260800190565b60208082526021908201527f476f7665726e6f723a2070726f706f73616c206e6f74207375636365737366756040820152601b60fa1b606082015260800190565b60006101208b8352602060018060a01b038c16818501528160408501526127878285018c6124a0565b9150838203606085015261279b828b612536565b848103608086015289518082529092508183019082810284018301838c01865b838110156127e957601f198784030185526127d7838351612565565b948601949250908501906001016127bb565b505086810360a08801526127fd818c6124e3565b94505050505061281860c08401876001600160401b03169052565b6001600160401b03851660e084015282810361010084015261283a8185612565565b9c9b505050505050505050505050565b600085825260ff8516602083015283604083015260806060830152610c346080830184612565565b604051601f8201601f191681016001600160401b038111828210171561289a5761289a612992565b604052919050565b60006001600160401b038211156128bb576128bb612992565b5060209081020190565b600082198211156128d8576128d861297c565b500190565b60006001600160401b038083168185168083038211156128ff576128ff61297c565b01949350505050565b60008261292357634e487b7160e01b81526012600452602481fd5b500490565b60008160001904831182151516156129425761294261297c565b500290565b60028104600182168061295b57607f821691505b60208210811415611d7f57634e487b7160e01b600052602260045260246000fd5b634e487b7160e01b600052601160045260246000fd5b634e487b7160e01b600052604160045260246000fd5b6001600160a01b038116811461072557600080fdfea2646970667358221220d64f2ab47a627d48e14cd84fa422f0a7fe27441873cc71a7ecc5ddd48f8080a564736f6c63430008020033",
  "immutableReferences": {
    "5559": [
      {
        "length": 32,
        "start": 1637
      },
      {
        "length": 32,
        "start": 5342
      },
      {
        "length": 32,
        "start": 5495
      }
    ],
    "11074": [
      {
        "length": 32,
        "start": 772
      },
      {
        "length": 32,
        "start": 3440
      }
    ],
    "11076": [
      {
        "length": 32,
        "start": 562
      },
      {
        "length": 32,
        "start": 3505
      }
    ],
    "24808": [
      {
        "length": 32,
        "start": 5859
      }
    ],
    "24810": [
      {
        "length": 32,
        "start": 5818
      }
    ],
    "24812": [
      {
        "length": 32,
        "start": 5944
      }
    ],
    "24814": [
      {
        "length": 32,
        "start": 5981
      }
    ],
    "24816": [
      {
        "length": 32,
        "start": 5902
      }
    ]
  },
  "source": "// SPDX-License-Identifier: MIT\n\npragma solidity ^0.8.0;\n\nimport \"../governance/extensions/GovernorTimelockControl.sol\";\nimport \"../governance/extensions/GovernorCountingSimple.sol\";\nimport \"../governance/extensions/GovernorVotesQuorumFraction.sol\";\n\ncontract GovernorTimelockControlMock is GovernorTimelockControl, GovernorVotesQuorumFraction, GovernorCountingSimple {\n    uint256 immutable _votingDelay;\n    uint256 immutable _votingPeriod;\n\n    constructor(\n        string memory name_,\n        ERC20Votes token_,\n        uint256 votingDelay_,\n        uint256 votingPeriod_,\n        TimelockController timelock_,\n        uint256 quorumNumerator_\n    )\n        Governor(name_)\n        GovernorTimelockControl(timelock_)\n        GovernorVotes(token_)\n        GovernorVotesQuorumFraction(quorumNumerator_)\n    {\n        _votingDelay = votingDelay_;\n        _votingPeriod = votingPeriod_;\n    }\n\n    function supportsInterface(bytes4 interfaceId)\n        public\n        view\n        virtual\n        override(Governor, GovernorTimelockControl)\n        returns (bool)\n    {\n        return super.supportsInterface(interfaceId);\n    }\n\n    function votingDelay() public view override returns (uint256) {\n        return _votingDelay;\n    }\n\n    function votingPeriod() public view override returns (uint256) {\n        return _votingPeriod;\n    }\n\n    function quorum(uint256 blockNumber)\n        public\n        view\n        override(IGovernor, GovernorVotesQuorumFraction)\n        returns (uint256)\n    {\n        return super.quorum(blockNumber);\n    }\n\n    function cancel(\n        address[] memory targets,\n        uint256[] memory values,\n        bytes[] memory calldatas,\n        bytes32 descriptionHash\n    ) public returns (uint256 proposalId) {\n        return _cancel(targets, values, calldatas, descriptionHash);\n    }\n\n    /**\n     * Overriding nightmare\n     */\n    function state(uint256 proposalId)\n        public\n        view\n        virtual\n        override(Governor, GovernorTimelockControl)\n        returns (ProposalState)\n    {\n        return super.state(proposalId);\n    }\n\n    function _execute(\n        uint256 proposalId,\n        address[] memory targets,\n        uint256[] memory values,\n        bytes[] memory calldatas,\n        bytes32 descriptionHash\n    ) internal virtual override(Governor, GovernorTimelockControl) {\n        super._execute(proposalId, targets, values, calldatas, descriptionHash);\n    }\n\n    function _cancel(\n        address[] memory targets,\n        uint256[] memory values,\n        bytes[] memory calldatas,\n        bytes32 descriptionHash\n    ) internal virtual override(Governor, GovernorTimelockControl) returns (uint256 proposalId) {\n        return super._cancel(targets, values, calldatas, descriptionHash);\n    }\n\n    function getVotes(address account, uint256 blockNumber)\n        public\n        view\n        virtual\n        override(IGovernor, GovernorVotes)\n        returns (uint256)\n    {\n        return super.getVotes(account, blockNumber);\n    }\n\n    function _executor() internal view virtual override(Governor, GovernorTimelockControl) returns (address) {\n        return super._executor();\n    }\n}\n",
  "sourcePath": "/Users/shangyihuang/Documents/SocialFi/client/contracts/contracts/mocks/GovernorTimelockControlMock.sol",
  "compiler": {
    "name": "solc",
    "version": "0.8.2+commit.661d1103.Emscripten.clang"
  },
  "schemaVersion": "3.4.7",
  "updatedAt": "2022-05-05T11:49:18.587Z",
  "devdoc": {
    "kind": "dev",
    "methods": {
      "COUNTING_MODE()": {
        "details": "See {IGovernor-COUNTING_MODE}."
      },
      "castVote(uint256,uint8)": {
        "details": "See {IGovernor-castVote}."
      },
      "castVoteBySig(uint256,uint8,uint8,bytes32,bytes32)": {
        "details": "See {IGovernor-castVoteBySig}."
      },
      "castVoteWithReason(uint256,uint8,string)": {
        "details": "See {IGovernor-castVoteWithReason}."
      },
      "execute(address[],uint256[],bytes[],bytes32)": {
        "details": "See {IGovernor-execute}."
      },
      "hasVoted(uint256,address)": {
        "details": "See {IGovernor-hasVoted}."
      },
      "hashProposal(address[],uint256[],bytes[],bytes32)": {
        "details": "See {IGovernor-hashProposal}. The proposal id is produced by hashing the RLC encoded `targets` array, the `values` array, the `calldatas` array and the descriptionHash (bytes32 which itself is the keccak256 hash of the description string). This proposal id can be produced from the proposal data which is part of the {ProposalCreated} event. It can even be computed in advance, before the proposal is submitted. Note that the chainId and the governor address are not part of the proposal id computation. Consequently, the same proposal (with same operation and same description) will have the same id if submitted on multiple governors accross multiple networks. This also means that in order to execute the same operation twice (on the same governor) the proposer will have to change the description in order to avoid proposal id conflicts."
      },
      "name()": {
        "details": "See {IGovernor-name}."
      },
      "proposalDeadline(uint256)": {
        "details": "See {IGovernor-proposalDeadline}."
      },
      "proposalEta(uint256)": {
        "details": "Public accessor to check the eta of a queued proposal"
      },
      "proposalSnapshot(uint256)": {
        "details": "See {IGovernor-proposalSnapshot}."
      },
      "proposalVotes(uint256)": {
        "details": "Accessor to the internal vote counts."
      },
      "propose(address[],uint256[],bytes[],string)": {
        "details": "See {IGovernor-propose}."
      },
      "queue(address[],uint256[],bytes[],bytes32)": {
        "details": "Function to queue a proposal to the timelock."
      },
      "timelock()": {
        "details": "Public accessor to check the address of the timelock"
      },
      "updateTimelock(address)": {
        "details": "Public endpoint to update the underlying timelock instance. Restricted to the timelock itself, so updates must be proposed, scheduled and executed using the {Governor} workflow."
      },
      "version()": {
        "details": "See {IGovernor-version}."
      },
      "votingDelay()": {
        "details": "delay, in number of block, between the proposal is created and the vote starts. This can be increassed to leave time for users to buy voting power, of delegate it, before the voting of a proposal starts."
      },
      "votingPeriod()": {
        "details": "delay, in number of blocks, between the vote start and vote ends. Note: the {votingDelay} can delay the start of the vote. This must be considered when setting the voting duration compared to the voting delay."
      }
    },
    "version": 1
  },
  "userdoc": {
    "kind": "user",
    "methods": {
      "state(uint256)": {
        "notice": "Overriding nightmare"
      },
      "votingDelay()": {
        "notice": "module:user-config"
      },
      "votingPeriod()": {
        "notice": "module:user-config"
      }
    },
    "version": 1
  }
}