{
  "contractName": "MerkleProofWrapper",
  "abi": [
    {
      "inputs": [
        {
          "internalType": "bytes32[]",
          "name": "proof",
          "type": "bytes32[]"
        },
        {
          "internalType": "bytes32",
          "name": "root",
          "type": "bytes32"
        },
        {
          "internalType": "bytes32",
          "name": "leaf",
          "type": "bytes32"
        }
      ],
      "name": "verify",
      "outputs": [
        {
          "internalType": "bool",
          "name": "",
          "type": "bool"
        }
      ],
      "stateMutability": "pure",
      "type": "function"
    }
  ],
  "bytecode": "0x608060405234801561001057600080fd5b5061026b806100206000396000f3fe608060405234801561001057600080fd5b506004361061002b5760003560e01c80635a9a49c714610030575b600080fd5b61004361003e366004610129565b610057565b604051901515815260200160405180910390f35b600061006484848461006c565b949350505050565b600081815b855181101561011e57600086828151811061009c57634e487b7160e01b600052603260045260246000fd5b602002602001015190508083116100de57604080516020810185905290810182905260600160405160208183030381529060405280519060200120925061010b565b60408051602081018390529081018490526060016040516020818303038152906040528051906020012092505b5080610116816101f8565b915050610071565b509092149392505050565b60008060006060848603121561013d578283fd5b833567ffffffffffffffff80821115610154578485fd5b818601915086601f830112610167578485fd5b813560208282111561017b5761017b61021f565b808202604051601f19603f8301168101818110868211171561019f5761019f61021f565b604052838152828101945085830182870184018c10156101bd57898afd5b8996505b848710156101df5780358652600196909601959483019483016101c1565b509a918901359950506040909701359695505050505050565b600060001982141561021857634e487b7160e01b81526011600452602481fd5b5060010190565b634e487b7160e01b600052604160045260246000fdfea26469706673582212209718d8762c8baaf5cde510eafd486cda5e65ecb567a6a29ce35540b4b894f0b064736f6c63430008020033",
  "immutableReferences": {},
  "source": "// SPDX-License-Identifier: MIT\n\npragma solidity ^0.8.0;\n\nimport \"../utils/cryptography/MerkleProof.sol\";\n\ncontract MerkleProofWrapper {\n    function verify(\n        bytes32[] memory proof,\n        bytes32 root,\n        bytes32 leaf\n    ) public pure returns (bool) {\n        return MerkleProof.verify(proof, root, leaf);\n    }\n}\n",
  "sourcePath": "/Users/shangyihuang/Documents/SocialFi/client/contracts/contracts/mocks/MerkleProofWrapper.sol",
  "compiler": {
    "name": "solc",
    "version": "0.8.2+commit.661d1103.Emscripten.clang"
  },
  "schemaVersion": "3.4.7",
  "updatedAt": "2022-05-05T11:49:18.596Z",
  "devdoc": {
    "kind": "dev",
    "methods": {},
    "version": 1
  },
  "userdoc": {
    "kind": "user",
    "methods": {},
    "version": 1
  }
}