{
  "contractName": "SampleFather",
  "abi": [
    {
      "inputs": [],
      "name": "father",
      "outputs": [
        {
          "internalType": "uint256",
          "name": "",
          "type": "uint256"
        }
      ],
      "stateMutability": "view",
      "type": "function"
    },
    {
      "inputs": [],
      "name": "gramps",
      "outputs": [
        {
          "internalType": "string",
          "name": "",
          "type": "string"
        }
      ],
      "stateMutability": "view",
      "type": "function"
    },
    {
      "inputs": [],
      "name": "isHuman",
      "outputs": [
        {
          "internalType": "bool",
          "name": "",
          "type": "bool"
        }
      ],
      "stateMutability": "view",
      "type": "function"
    },
    {
      "inputs": [],
      "name": "initialize",
      "outputs": [],
      "stateMutability": "nonpayable",
      "type": "function"
    },
    {
      "inputs": [
        {
          "internalType": "string",
          "name": "_gramps",
          "type": "string"
        },
        {
          "internalType": "uint256",
          "name": "_father",
          "type": "uint256"
        }
      ],
      "name": "initialize",
      "outputs": [],
      "stateMutability": "nonpayable",
      "type": "function"
    },
    {
      "inputs": [
        {
          "internalType": "string",
          "name": "value",
          "type": "string"
        }
      ],
      "name": "initialize",
      "outputs": [],
      "stateMutability": "nonpayable",
      "type": "function"
    }
  ],
  "bytecode": "0x608060405234801561001057600080fd5b506105e5806100206000396000f3fe608060405234801561001057600080fd5b50600436106100625760003560e01c80631c8aca3b146100675780634a6c9db6146100835780638129fc1c146100a65780638beaf7d7146100b0578063f62d1888146100c3578063fa39851f146100d6575b600080fd5b61007060025481565b6040519081526020015b60405180910390f35b6000546100969062010000900460ff1681565b604051901515815260200161007a565b6100ae6100eb565b005b6100ae6100be36600461047a565b61017a565b6100ae6100d136600461043f565b6101ff565b6100de610291565b60405161007a91906104bd565b600054610100900460ff1680610104575060005460ff16155b6101295760405162461bcd60e51b815260040161012090610510565b60405180910390fd5b600054610100900460ff16158015610154576000805460ff1961ff0019909116610100171660011790555b6000805462ff00001916620100001790558015610177576000805461ff00191690555b50565b600054610100900460ff1680610193575060005460ff16155b6101af5760405162461bcd60e51b815260040161012090610510565b600054610100900460ff161580156101da576000805460ff1961ff0019909116610100171660011790555b6101e3836101ff565b600282905580156101fa576000805461ff00191690555b505050565b600054610100900460ff1680610218575060005460ff16155b6102345760405162461bcd60e51b815260040161012090610510565b600054610100900460ff1615801561025f576000805460ff1961ff0019909116610100171660011790555b6102676100eb565b815161027a90600190602085019061031f565b50801561028d576000805461ff00191690555b5050565b6001805461029e9061055e565b80601f01602080910402602001604051908101604052809291908181526020018280546102ca9061055e565b80156103175780601f106102ec57610100808354040283529160200191610317565b820191906000526020600020905b8154815290600101906020018083116102fa57829003601f168201915b505050505081565b82805461032b9061055e565b90600052602060002090601f01602090048101928261034d5760008555610393565b82601f1061036657805160ff1916838001178555610393565b82800160010185558215610393579182015b82811115610393578251825591602001919060010190610378565b5061039f9291506103a3565b5090565b5b8082111561039f57600081556001016103a4565b600082601f8301126103c8578081fd5b813567ffffffffffffffff808211156103e3576103e3610599565b604051601f8301601f19908116603f0116810190828211818310171561040b5761040b610599565b81604052838152866020858801011115610423578485fd5b8360208701602083013792830160200193909352509392505050565b600060208284031215610450578081fd5b813567ffffffffffffffff811115610466578182fd5b610472848285016103b8565b949350505050565b6000806040838503121561048c578081fd5b823567ffffffffffffffff8111156104a2578182fd5b6104ae858286016103b8565b95602094909401359450505050565b6000602080835283518082850152825b818110156104e9578581018301518582016040015282016104cd565b818111156104fa5783604083870101525b50601f01601f1916929092016040019392505050565b6020808252602e908201527f496e697469616c697a61626c653a20636f6e747261637420697320616c72656160408201526d191e481a5b9a5d1a585b1a5e995960921b606082015260800190565b60028104600182168061057257607f821691505b6020821081141561059357634e487b7160e01b600052602260045260246000fd5b50919050565b634e487b7160e01b600052604160045260246000fdfea264697066735822122037c69ab38d5ae3074d4a07ff08ccae5b86ebf312a9e4077964aceba195d0a52a64736f6c63430008020033",
  "immutableReferences": {},
  "source": "// SPDX-License-Identifier: MIT\n\npragma solidity ^0.8.0;\n\nimport \"../proxy/utils/Initializable.sol\";\n\n// Sample contracts showing upgradeability with multiple inheritance.\n// Child contract inherits from Father and Mother contracts, and Father extends from Gramps.\n//\n//         Human\n//       /       \\\n//      |       Gramps\n//      |         |\n//    Mother    Father\n//      |         |\n//      -- Child --\n\n/**\n * Sample base intializable contract that is a human\n */\ncontract SampleHuman is Initializable {\n    bool public isHuman;\n\n    function initialize() public initializer {\n        isHuman = true;\n    }\n}\n\n/**\n * Sample base intializable contract that defines a field mother\n */\ncontract SampleMother is Initializable, SampleHuman {\n    uint256 public mother;\n\n    function initialize(uint256 value) public virtual initializer {\n        SampleHuman.initialize();\n        mother = value;\n    }\n}\n\n/**\n * Sample base intializable contract that defines a field gramps\n */\ncontract SampleGramps is Initializable, SampleHuman {\n    string public gramps;\n\n    function initialize(string memory value) public virtual initializer {\n        SampleHuman.initialize();\n        gramps = value;\n    }\n}\n\n/**\n * Sample base intializable contract that defines a field father and extends from gramps\n */\ncontract SampleFather is Initializable, SampleGramps {\n    uint256 public father;\n\n    function initialize(string memory _gramps, uint256 _father) public initializer {\n        SampleGramps.initialize(_gramps);\n        father = _father;\n    }\n}\n\n/**\n * Child extends from mother, father (gramps)\n */\ncontract SampleChild is Initializable, SampleMother, SampleFather {\n    uint256 public child;\n\n    function initialize(\n        uint256 _mother,\n        string memory _gramps,\n        uint256 _father,\n        uint256 _child\n    ) public initializer {\n        SampleMother.initialize(_mother);\n        SampleFather.initialize(_gramps, _father);\n        child = _child;\n    }\n}\n",
  "sourcePath": "/Users/shangyihuang/Documents/SocialFi/client/contracts/contracts/mocks/MultipleInheritanceInitializableMocks.sol",
  "compiler": {
    "name": "solc",
    "version": "0.8.2+commit.661d1103.Emscripten.clang"
  },
  "schemaVersion": "3.4.7",
  "updatedAt": "2022-05-05T11:49:18.602Z",
  "devdoc": {
    "kind": "dev",
    "methods": {},
    "version": 1
  },
  "userdoc": {
    "kind": "user",
    "methods": {},
    "notice": "Sample base intializable contract that defines a field father and extends from gramps",
    "version": 1
  }
}