{
  "contractName": "SimpleStorage",
  "abi": [
    {
      "inputs": [
        {
          "internalType": "string",
          "name": "name",
          "type": "string"
        },
        {
          "internalType": "string",
          "name": "symbol",
          "type": "string"
        }
      ],
      "stateMutability": "nonpayable",
      "type": "constructor"
    },
    {
      "anonymous": false,
      "inputs": [
        {
          "indexed": true,
          "internalType": "address",
          "name": "owner",
          "type": "address"
        },
        {
          "indexed": true,
          "internalType": "address",
          "name": "spender",
          "type": "address"
        },
        {
          "indexed": false,
          "internalType": "uint256",
          "name": "value",
          "type": "uint256"
        }
      ],
      "name": "Approval",
      "type": "event"
    },
    {
      "anonymous": false,
      "inputs": [
        {
          "indexed": true,
          "internalType": "address",
          "name": "from",
          "type": "address"
        },
        {
          "indexed": true,
          "internalType": "address",
          "name": "to",
          "type": "address"
        },
        {
          "indexed": false,
          "internalType": "uint256",
          "name": "value",
          "type": "uint256"
        }
      ],
      "name": "Transfer",
      "type": "event"
    },
    {
      "anonymous": false,
      "inputs": [],
      "name": "UpdateValue",
      "type": "event"
    },
    {
      "inputs": [
        {
          "internalType": "address",
          "name": "owner",
          "type": "address"
        },
        {
          "internalType": "address",
          "name": "spender",
          "type": "address"
        }
      ],
      "name": "allowance",
      "outputs": [
        {
          "internalType": "uint256",
          "name": "",
          "type": "uint256"
        }
      ],
      "stateMutability": "view",
      "type": "function"
    },
    {
      "inputs": [
        {
          "internalType": "address",
          "name": "spender",
          "type": "address"
        },
        {
          "internalType": "uint256",
          "name": "amount",
          "type": "uint256"
        }
      ],
      "name": "approve",
      "outputs": [
        {
          "internalType": "bool",
          "name": "",
          "type": "bool"
        }
      ],
      "stateMutability": "nonpayable",
      "type": "function"
    },
    {
      "inputs": [
        {
          "internalType": "address",
          "name": "account",
          "type": "address"
        }
      ],
      "name": "balanceOf",
      "outputs": [
        {
          "internalType": "uint256",
          "name": "",
          "type": "uint256"
        }
      ],
      "stateMutability": "view",
      "type": "function"
    },
    {
      "inputs": [],
      "name": "decimals",
      "outputs": [
        {
          "internalType": "uint8",
          "name": "",
          "type": "uint8"
        }
      ],
      "stateMutability": "view",
      "type": "function"
    },
    {
      "inputs": [
        {
          "internalType": "address",
          "name": "spender",
          "type": "address"
        },
        {
          "internalType": "uint256",
          "name": "subtractedValue",
          "type": "uint256"
        }
      ],
      "name": "decreaseAllowance",
      "outputs": [
        {
          "internalType": "bool",
          "name": "",
          "type": "bool"
        }
      ],
      "stateMutability": "nonpayable",
      "type": "function"
    },
    {
      "inputs": [
        {
          "internalType": "address",
          "name": "spender",
          "type": "address"
        },
        {
          "internalType": "uint256",
          "name": "addedValue",
          "type": "uint256"
        }
      ],
      "name": "increaseAllowance",
      "outputs": [
        {
          "internalType": "bool",
          "name": "",
          "type": "bool"
        }
      ],
      "stateMutability": "nonpayable",
      "type": "function"
    },
    {
      "inputs": [],
      "name": "name",
      "outputs": [
        {
          "internalType": "string",
          "name": "",
          "type": "string"
        }
      ],
      "stateMutability": "view",
      "type": "function"
    },
    {
      "inputs": [],
      "name": "symbol",
      "outputs": [
        {
          "internalType": "string",
          "name": "",
          "type": "string"
        }
      ],
      "stateMutability": "view",
      "type": "function"
    },
    {
      "inputs": [],
      "name": "totalSupply",
      "outputs": [
        {
          "internalType": "uint256",
          "name": "",
          "type": "uint256"
        }
      ],
      "stateMutability": "view",
      "type": "function"
    },
    {
      "inputs": [
        {
          "internalType": "address",
          "name": "recipient",
          "type": "address"
        },
        {
          "internalType": "uint256",
          "name": "amount",
          "type": "uint256"
        }
      ],
      "name": "transfer",
      "outputs": [
        {
          "internalType": "bool",
          "name": "",
          "type": "bool"
        }
      ],
      "stateMutability": "nonpayable",
      "type": "function"
    },
    {
      "inputs": [
        {
          "internalType": "address",
          "name": "sender",
          "type": "address"
        },
        {
          "internalType": "address",
          "name": "recipient",
          "type": "address"
        },
        {
          "internalType": "uint256",
          "name": "amount",
          "type": "uint256"
        }
      ],
      "name": "transferFrom",
      "outputs": [
        {
          "internalType": "bool",
          "name": "",
          "type": "bool"
        }
      ],
      "stateMutability": "nonpayable",
      "type": "function"
    },
    {
      "inputs": [
        {
          "internalType": "uint256",
          "name": "x",
          "type": "uint256"
        }
      ],
      "name": "set",
      "outputs": [],
      "stateMutability": "nonpayable",
      "type": "function"
    },
    {
      "inputs": [],
      "name": "get",
      "outputs": [
        {
          "internalType": "uint256",
          "name": "",
          "type": "uint256"
        }
      ],
      "stateMutability": "view",
      "type": "function"
    }
  ],
  "bytecode": "0x60806040523480156200001157600080fd5b5060405162000e9738038062000e978339810160408190526200003491620002ec565b8151829082906200004d90600390602085019062000193565b5080516200006390600490602084019062000193565b5050506200009e336200007b620000a660201b60201c565b6200008b9060ff16600a620003bb565b62000098906064620004b0565b620000ab565b50506200053b565b601290565b6001600160a01b038216620001065760405162461bcd60e51b815260206004820152601f60248201527f45524332303a206d696e7420746f20746865207a65726f206164647265737300604482015260640160405180910390fd5b80600260008282546200011a919062000353565b90915550506001600160a01b038216600090815260208190526040812080548392906200014990849062000353565b90915550506040518181526001600160a01b038316906000907fddf252ad1be2c89b69c2b068fc378daa952ba7f163c4a11628f55a4df523b3ef9060200160405180910390a35050565b828054620001a190620004d2565b90600052602060002090601f016020900481019282620001c5576000855562000210565b82601f10620001e057805160ff191683800117855562000210565b8280016001018555821562000210579182015b8281111562000210578251825591602001919060010190620001f3565b506200021e92915062000222565b5090565b5b808211156200021e576000815560010162000223565b600082601f8301126200024a578081fd5b81516001600160401b038082111562000267576200026762000525565b604051601f8301601f19908116603f0116810190828211818310171562000292576200029262000525565b81604052838152602092508683858801011115620002ae578485fd5b8491505b83821015620002d15785820183015181830184015290820190620002b2565b83821115620002e257848385830101525b9695505050505050565b60008060408385031215620002ff578182fd5b82516001600160401b038082111562000316578384fd5b620003248683870162000239565b935060208501519150808211156200033a578283fd5b50620003498582860162000239565b9150509250929050565b600082198211156200036957620003696200050f565b500190565b80825b6001808611620003825750620003b2565b8187048211156200039757620003976200050f565b80861615620003a557918102915b9490941c93800262000371565b94509492505050565b6000620003cc6000198484620003d3565b9392505050565b600082620003e457506001620003cc565b81620003f357506000620003cc565b81600181146200040c576002811462000417576200044b565b6001915050620003cc565b60ff8411156200042b576200042b6200050f565b6001841b9150848211156200044457620004446200050f565b50620003cc565b5060208310610133831016604e8410600b841016171562000483575081810a838111156200047d576200047d6200050f565b620003cc565b6200049284848460016200036e565b808604821115620004a757620004a76200050f565b02949350505050565b6000816000190483118215151615620004cd57620004cd6200050f565b500290565b600281046001821680620004e757607f821691505b602082108114156200050957634e487b7160e01b600052602260045260246000fd5b50919050565b634e487b7160e01b600052601160045260246000fd5b634e487b7160e01b600052604160045260246000fd5b61094c806200054b6000396000f3fe608060405234801561001057600080fd5b50600436106100cf5760003560e01c806360fe47b11161008c57806395d89b411161006657806395d89b411461018c578063a457c2d714610194578063a9059cbb146101a7578063dd62ed3e146101ba576100cf565b806360fe47b11461015c5780636d4ce63c1461017157806370a0823114610179576100cf565b806306fdde03146100d4578063095ea7b3146100f257806318160ddd1461011557806323b872dd14610127578063313ce5671461013a5780633950935114610149575b600080fd5b6100dc6101f3565b6040516100e99190610864565b60405180910390f35b610105610100366004610823565b610285565b60405190151581526020016100e9565b6002545b6040519081526020016100e9565b6101056101353660046107e8565b61029b565b604051601281526020016100e9565b610105610157366004610823565b61034a565b61016f61016a36600461084c565b610386565b005b600554610119565b610119610187366004610795565b6103b7565b6100dc6103d6565b6101056101a2366004610823565b6103e5565b6101056101b5366004610823565b61047e565b6101196101c83660046107b6565b6001600160a01b03918216600090815260016020908152604080832093909416825291909152205490565b606060038054610202906108db565b80601f016020809104026020016040519081016040528092919081815260200182805461022e906108db565b801561027b5780601f106102505761010080835404028352916020019161027b565b820191906000526020600020905b81548152906001019060200180831161025e57829003601f168201915b5050505050905090565b600061029233848461048b565b50600192915050565b60006102a88484846105af565b6001600160a01b0384166000908152600160209081526040808320338452909152902054828110156103325760405162461bcd60e51b815260206004820152602860248201527f45524332303a207472616e7366657220616d6f756e74206578636565647320616044820152676c6c6f77616e636560c01b60648201526084015b60405180910390fd5b61033f853385840361048b565b506001949350505050565b3360008181526001602090815260408083206001600160a01b038716845290915281205490916102929185906103819086906108b7565b61048b565b60058190556040517fa43f08a1749f2c16a4ba69416510980de3dd22b9c496c5adedd3e305dcb094f090600090a150565b6001600160a01b0381166000908152602081905260409020545b919050565b606060048054610202906108db565b3360009081526001602090815260408083206001600160a01b0386168452909152812054828110156104675760405162461bcd60e51b815260206004820152602560248201527f45524332303a2064656372656173656420616c6c6f77616e63652062656c6f77604482015264207a65726f60d81b6064820152608401610329565b610474338585840361048b565b5060019392505050565b60006102923384846105af565b6001600160a01b0383166104ed5760405162461bcd60e51b8152602060048201526024808201527f45524332303a20617070726f76652066726f6d20746865207a65726f206164646044820152637265737360e01b6064820152608401610329565b6001600160a01b03821661054e5760405162461bcd60e51b815260206004820152602260248201527f45524332303a20617070726f766520746f20746865207a65726f206164647265604482015261737360f01b6064820152608401610329565b6001600160a01b0383811660008181526001602090815260408083209487168084529482529182902085905590518481527f8c5be1e5ebec7d5bd14f71427d1e84f3dd0314c0f7b2291e5b200ac8c7c3b925910160405180910390a3505050565b6001600160a01b0383166106135760405162461bcd60e51b815260206004820152602560248201527f45524332303a207472616e736665722066726f6d20746865207a65726f206164604482015264647265737360d81b6064820152608401610329565b6001600160a01b0382166106755760405162461bcd60e51b815260206004820152602360248201527f45524332303a207472616e7366657220746f20746865207a65726f206164647260448201526265737360e81b6064820152608401610329565b6001600160a01b038316600090815260208190526040902054818110156106ed5760405162461bcd60e51b815260206004820152602660248201527f45524332303a207472616e7366657220616d6f756e7420657863656564732062604482015265616c616e636560d01b6064820152608401610329565b6001600160a01b038085166000908152602081905260408082208585039055918516815290812080548492906107249084906108b7565b92505081905550826001600160a01b0316846001600160a01b03167fddf252ad1be2c89b69c2b068fc378daa952ba7f163c4a11628f55a4df523b3ef8460405161077091815260200190565b60405180910390a350505050565b80356001600160a01b03811681146103d157600080fd5b6000602082840312156107a6578081fd5b6107af8261077e565b9392505050565b600080604083850312156107c8578081fd5b6107d18361077e565b91506107df6020840161077e565b90509250929050565b6000806000606084860312156107fc578081fd5b6108058461077e565b92506108136020850161077e565b9150604084013590509250925092565b60008060408385031215610835578182fd5b61083e8361077e565b946020939093013593505050565b60006020828403121561085d578081fd5b5035919050565b6000602080835283518082850152825b8181101561089057858101830151858201604001528201610874565b818111156108a15783604083870101525b50601f01601f1916929092016040019392505050565b600082198211156108d657634e487b7160e01b81526011600452602481fd5b500190565b6002810460018216806108ef57607f821691505b6020821081141561091057634e487b7160e01b600052602260045260246000fd5b5091905056fea2646970667358221220dff1daec7e89130322f0ef9a0fb6511e246675d63a1508fbf24e3aee77566bea64736f6c63430008020033",
  "immutableReferences": {},
  "source": "// SPDX-License-Identifier: MIT\npragma solidity ^0.8.2;\n\nimport \"./contracts/token/ERC20/ERC20.sol\";\n\ncontract SimpleStorage is ERC20{\n  uint storedData;\n\n  event UpdateValue();\n\n  constructor(string memory name, string memory symbol) ERC20(name, symbol) {\n        // Mint 100 tokens to msg.sender\n        // Similar to how\n        // 1 dollar = 100 cents\n        // 1 token = 1 * (10 ** decimals)\n        _mint(msg.sender, 100 * 10**uint(decimals()));\n    }\n\n  function set(uint x) public {\n    storedData = x;\n    emit UpdateValue();\n  }\n\n  function get() public view returns (uint) {\n    return storedData;\n  }\n}\n",
  "sourcePath": "/Users/shangyihuang/Documents/SocialFi/client/contracts/SimpleStorage.sol",
  "compiler": {
    "name": "solc",
    "version": "0.8.2+commit.661d1103.Emscripten.clang"
  },
  "schemaVersion": "3.4.7",
  "updatedAt": "2022-05-05T11:49:18.121Z",
  "devdoc": {
    "kind": "dev",
    "methods": {
      "allowance(address,address)": {
        "details": "See {IERC20-allowance}."
      },
      "approve(address,uint256)": {
        "details": "See {IERC20-approve}. Requirements: - `spender` cannot be the zero address."
      },
      "balanceOf(address)": {
        "details": "See {IERC20-balanceOf}."
      },
      "decimals()": {
        "details": "Returns the number of decimals used to get its user representation. For example, if `decimals` equals `2`, a balance of `505` tokens should be displayed to a user as `5.05` (`505 / 10 ** 2`). Tokens usually opt for a value of 18, imitating the relationship between Ether and Wei. This is the value {ERC20} uses, unless this function is overridden; NOTE: This information is only used for _display_ purposes: it in no way affects any of the arithmetic of the contract, including {IERC20-balanceOf} and {IERC20-transfer}."
      },
      "decreaseAllowance(address,uint256)": {
        "details": "Atomically decreases the allowance granted to `spender` by the caller. This is an alternative to {approve} that can be used as a mitigation for problems described in {IERC20-approve}. Emits an {Approval} event indicating the updated allowance. Requirements: - `spender` cannot be the zero address. - `spender` must have allowance for the caller of at least `subtractedValue`."
      },
      "increaseAllowance(address,uint256)": {
        "details": "Atomically increases the allowance granted to `spender` by the caller. This is an alternative to {approve} that can be used as a mitigation for problems described in {IERC20-approve}. Emits an {Approval} event indicating the updated allowance. Requirements: - `spender` cannot be the zero address."
      },
      "name()": {
        "details": "Returns the name of the token."
      },
      "symbol()": {
        "details": "Returns the symbol of the token, usually a shorter version of the name."
      },
      "totalSupply()": {
        "details": "See {IERC20-totalSupply}."
      },
      "transfer(address,uint256)": {
        "details": "See {IERC20-transfer}. Requirements: - `recipient` cannot be the zero address. - the caller must have a balance of at least `amount`."
      },
      "transferFrom(address,address,uint256)": {
        "details": "See {IERC20-transferFrom}. Emits an {Approval} event indicating the updated allowance. This is not required by the EIP. See the note at the beginning of {ERC20}. Requirements: - `sender` and `recipient` cannot be the zero address. - `sender` must have a balance of at least `amount`. - the caller must have allowance for ``sender``'s tokens of at least `amount`."
      }
    },
    "version": 1
  },
  "userdoc": {
    "kind": "user",
    "methods": {},
    "version": 1
  }
}