{
  "contractName": "StorageSlotMock",
  "abi": [
    {
      "inputs": [
        {
          "internalType": "bytes32",
          "name": "slot",
          "type": "bytes32"
        },
        {
          "internalType": "bool",
          "name": "value",
          "type": "bool"
        }
      ],
      "name": "setBoolean",
      "outputs": [],
      "stateMutability": "nonpayable",
      "type": "function"
    },
    {
      "inputs": [
        {
          "internalType": "bytes32",
          "name": "slot",
          "type": "bytes32"
        },
        {
          "internalType": "address",
          "name": "value",
          "type": "address"
        }
      ],
      "name": "setAddress",
      "outputs": [],
      "stateMutability": "nonpayable",
      "type": "function"
    },
    {
      "inputs": [
        {
          "internalType": "bytes32",
          "name": "slot",
          "type": "bytes32"
        },
        {
          "internalType": "bytes32",
          "name": "value",
          "type": "bytes32"
        }
      ],
      "name": "setBytes32",
      "outputs": [],
      "stateMutability": "nonpayable",
      "type": "function"
    },
    {
      "inputs": [
        {
          "internalType": "bytes32",
          "name": "slot",
          "type": "bytes32"
        },
        {
          "internalType": "uint256",
          "name": "value",
          "type": "uint256"
        }
      ],
      "name": "setUint256",
      "outputs": [],
      "stateMutability": "nonpayable",
      "type": "function"
    },
    {
      "inputs": [
        {
          "internalType": "bytes32",
          "name": "slot",
          "type": "bytes32"
        }
      ],
      "name": "getBoolean",
      "outputs": [
        {
          "internalType": "bool",
          "name": "",
          "type": "bool"
        }
      ],
      "stateMutability": "view",
      "type": "function"
    },
    {
      "inputs": [
        {
          "internalType": "bytes32",
          "name": "slot",
          "type": "bytes32"
        }
      ],
      "name": "getAddress",
      "outputs": [
        {
          "internalType": "address",
          "name": "",
          "type": "address"
        }
      ],
      "stateMutability": "view",
      "type": "function"
    },
    {
      "inputs": [
        {
          "internalType": "bytes32",
          "name": "slot",
          "type": "bytes32"
        }
      ],
      "name": "getBytes32",
      "outputs": [
        {
          "internalType": "bytes32",
          "name": "",
          "type": "bytes32"
        }
      ],
      "stateMutability": "view",
      "type": "function"
    },
    {
      "inputs": [
        {
          "internalType": "bytes32",
          "name": "slot",
          "type": "bytes32"
        }
      ],
      "name": "getUint256",
      "outputs": [
        {
          "internalType": "uint256",
          "name": "",
          "type": "uint256"
        }
      ],
      "stateMutability": "view",
      "type": "function"
    }
  ],
  "bytecode": "0x608060405234801561001057600080fd5b50610236806100206000396000f3fe608060405234801561001057600080fd5b50600436106100885760003560e01c80634f3029c21161005b5780634f3029c21461010a578063a6ed563e146100c5578063ca446dd91461011e578063f8715b3e1461014957610088565b806321f8a7211461008d57806333598b00146100c55780633848207a146100e55780634e91db081461010a575b600080fd5b6100a861009b366004610165565b546001600160a01b031690565b6040516001600160a01b0390911681526020015b60405180910390f35b6100d76100d3366004610165565b5490565b6040519081526020016100bc565b6100fa6100f3366004610165565b5460ff1690565b60405190151581526020016100bc565b61011c6101183660046101df565b9055565b005b61011c61012c36600461017d565b81546001600160a01b0319166001600160a01b0391909116179055565b61011c6101573660046101b7565b815460ff1916901515179055565b600060208284031215610176578081fd5b5035919050565b6000806040838503121561018f578081fd5b8235915060208301356001600160a01b03811681146101ac578182fd5b809150509250929050565b600080604083850312156101c9578182fd5b82359150602083013580151581146101ac578182fd5b600080604083850312156101f1578182fd5b5050803592602090910135915056fea26469706673582212201421fa5284a28d065a46496caeafab10b50e2563b75f1ad7991ea4ac6a63e72e64736f6c63430008020033",
  "immutableReferences": {},
  "source": "// SPDX-License-Identifier: MIT\n\npragma solidity ^0.8.0;\n\nimport \"../utils/StorageSlot.sol\";\n\ncontract StorageSlotMock {\n    using StorageSlot for bytes32;\n\n    function setBoolean(bytes32 slot, bool value) public {\n        slot.getBooleanSlot().value = value;\n    }\n\n    function setAddress(bytes32 slot, address value) public {\n        slot.getAddressSlot().value = value;\n    }\n\n    function setBytes32(bytes32 slot, bytes32 value) public {\n        slot.getBytes32Slot().value = value;\n    }\n\n    function setUint256(bytes32 slot, uint256 value) public {\n        slot.getUint256Slot().value = value;\n    }\n\n    function getBoolean(bytes32 slot) public view returns (bool) {\n        return slot.getBooleanSlot().value;\n    }\n\n    function getAddress(bytes32 slot) public view returns (address) {\n        return slot.getAddressSlot().value;\n    }\n\n    function getBytes32(bytes32 slot) public view returns (bytes32) {\n        return slot.getBytes32Slot().value;\n    }\n\n    function getUint256(bytes32 slot) public view returns (uint256) {\n        return slot.getUint256Slot().value;\n    }\n}\n",
  "sourcePath": "/Users/shangyihuang/Documents/SocialFi/client/contracts/contracts/mocks/StorageSlotMock.sol",
  "compiler": {
    "name": "solc",
    "version": "0.8.2+commit.661d1103.Emscripten.clang"
  },
  "schemaVersion": "3.4.7",
  "updatedAt": "2022-05-05T11:49:18.636Z",
  "devdoc": {
    "kind": "dev",
    "methods": {},
    "version": 1
  },
  "userdoc": {
    "kind": "user",
    "methods": {},
    "version": 1
  }
}