{
  "contractName": "ECDSAMock",
  "abi": [
    {
      "inputs": [
        {
          "internalType": "bytes32",
          "name": "hash",
          "type": "bytes32"
        },
        {
          "internalType": "bytes",
          "name": "signature",
          "type": "bytes"
        }
      ],
      "name": "recover",
      "outputs": [
        {
          "internalType": "address",
          "name": "",
          "type": "address"
        }
      ],
      "stateMutability": "pure",
      "type": "function"
    },
    {
      "inputs": [
        {
          "internalType": "bytes32",
          "name": "hash",
          "type": "bytes32"
        },
        {
          "internalType": "uint8",
          "name": "v",
          "type": "uint8"
        },
        {
          "internalType": "bytes32",
          "name": "r",
          "type": "bytes32"
        },
        {
          "internalType": "bytes32",
          "name": "s",
          "type": "bytes32"
        }
      ],
      "name": "recover_v_r_s",
      "outputs": [
        {
          "internalType": "address",
          "name": "",
          "type": "address"
        }
      ],
      "stateMutability": "pure",
      "type": "function"
    },
    {
      "inputs": [
        {
          "internalType": "bytes32",
          "name": "hash",
          "type": "bytes32"
        },
        {
          "internalType": "bytes32",
          "name": "r",
          "type": "bytes32"
        },
        {
          "internalType": "bytes32",
          "name": "vs",
          "type": "bytes32"
        }
      ],
      "name": "recover_r_vs",
      "outputs": [
        {
          "internalType": "address",
          "name": "",
          "type": "address"
        }
      ],
      "stateMutability": "pure",
      "type": "function"
    },
    {
      "inputs": [
        {
          "internalType": "bytes32",
          "name": "hash",
          "type": "bytes32"
        }
      ],
      "name": "toEthSignedMessageHash",
      "outputs": [
        {
          "internalType": "bytes32",
          "name": "",
          "type": "bytes32"
        }
      ],
      "stateMutability": "pure",
      "type": "function"
    }
  ],
  "bytecode": "0x608060405234801561001057600080fd5b506106f5806100206000396000f3fe608060405234801561001057600080fd5b506004361061004c5760003560e01c8063126442731461005157806319045a2514610081578063918a15cf14610094578063a005410b146100b5575b600080fd5b61006461005f366004610668565b6100c8565b6040516001600160a01b0390911681526020015b60405180910390f35b61006461008f3660046105b2565b6100df565b6100a76100a236600461056f565b6100f2565b604051908152602001610078565b6100646100c3366004610587565b610151565b60006100d685858585610166565b95945050505050565b60006100eb838361018e565b9392505050565b600061014b826040517f19457468657265756d205369676e6564204d6573736167653a0a3332000000006020820152603c8101829052600090605c01604051602081830303815290604052805190602001209050919050565b92915050565b600061015e8484846101b2565b949350505050565b6000806000610177878787876101d8565b91509150610184816102c5565b5095945050505050565b600080600061019d85856104d0565b915091506101aa816102c5565b509392505050565b60008060006101c2868686610540565b915091506101cf816102c5565b50949350505050565b6000807f7fffffffffffffffffffffffffffffff5d576e7357a4501ddfe92f46681b20a083111561020f57506000905060036102bc565b8460ff16601b1415801561022757508460ff16601c14155b1561023857506000905060046102bc565b6040805160008082526020820180845289905260ff881692820192909252606081018690526080810185905260019060a0016020604051602081039080840390855afa15801561028c573d6000803e3d6000fd5b5050604051601f1901519150506001600160a01b0381166102b5576000600192509250506102bc565b9150600090505b94509492505050565b60008160048111156102e757634e487b7160e01b600052602160045260246000fd5b14156102f2576104cd565b600181600481111561031457634e487b7160e01b600052602160045260246000fd5b14156103675760405162461bcd60e51b815260206004820152601860248201527f45434453413a20696e76616c6964207369676e6174757265000000000000000060448201526064015b60405180910390fd5b600281600481111561038957634e487b7160e01b600052602160045260246000fd5b14156103d75760405162461bcd60e51b815260206004820152601f60248201527f45434453413a20696e76616c6964207369676e6174757265206c656e67746800604482015260640161035e565b60038160048111156103f957634e487b7160e01b600052602160045260246000fd5b14156104525760405162461bcd60e51b815260206004820152602260248201527f45434453413a20696e76616c6964207369676e6174757265202773272076616c604482015261756560f01b606482015260840161035e565b600481600481111561047457634e487b7160e01b600052602160045260246000fd5b14156104cd5760405162461bcd60e51b815260206004820152602260248201527f45434453413a20696e76616c6964207369676e6174757265202776272076616c604482015261756560f01b606482015260840161035e565b50565b6000808251604114156105075760208301516040840151606085015160001a6104fb878285856101d8565b94509450505050610539565b8251604014156105315760208301516040840151610526868383610540565b935093505050610539565b506000905060025b9250929050565b6000806001600160ff1b03831660ff84901c601b01610561878288856101d8565b935093505050935093915050565b600060208284031215610580578081fd5b5035919050565b60008060006060848603121561059b578182fd5b505081359360208301359350604090920135919050565b600080604083850312156105c4578182fd5b82359150602083013567ffffffffffffffff808211156105e2578283fd5b818501915085601f8301126105f5578283fd5b813581811115610607576106076106a9565b604051601f8201601f19908116603f0116810190838211818310171561062f5761062f6106a9565b81604052828152886020848701011115610647578586fd5b82602086016020830137856020848301015280955050505050509250929050565b6000806000806080858703121561067d578081fd5b84359350602085013560ff81168114610694578182fd5b93969395505050506040820135916060013590565b634e487b7160e01b600052604160045260246000fdfea2646970667358221220874cd20a622fd2d82e1ea2834586797e38cde9a48c2f3f0612e90d38c189fc6064736f6c63430008020033",
  "immutableReferences": {},
  "source": "// SPDX-License-Identifier: MIT\n\npragma solidity ^0.8.0;\n\nimport \"../utils/cryptography/ECDSA.sol\";\n\ncontract ECDSAMock {\n    using ECDSA for bytes32;\n\n    function recover(bytes32 hash, bytes memory signature) public pure returns (address) {\n        return hash.recover(signature);\n    }\n\n    // solhint-disable-next-line func-name-mixedcase\n    function recover_v_r_s(\n        bytes32 hash,\n        uint8 v,\n        bytes32 r,\n        bytes32 s\n    ) public pure returns (address) {\n        return hash.recover(v, r, s);\n    }\n\n    // solhint-disable-next-line func-name-mixedcase\n    function recover_r_vs(\n        bytes32 hash,\n        bytes32 r,\n        bytes32 vs\n    ) public pure returns (address) {\n        return hash.recover(r, vs);\n    }\n\n    function toEthSignedMessageHash(bytes32 hash) public pure returns (bytes32) {\n        return hash.toEthSignedMessageHash();\n    }\n}\n",
  "sourcePath": "/Users/shangyihuang/Documents/SocialFi/client/contracts/contracts/mocks/ECDSAMock.sol",
  "compiler": {
    "name": "solc",
    "version": "0.8.2+commit.661d1103.Emscripten.clang"
  },
  "schemaVersion": "3.4.7",
  "updatedAt": "2022-05-05T11:49:18.224Z",
  "devdoc": {
    "kind": "dev",
    "methods": {},
    "version": 1
  },
  "userdoc": {
    "kind": "user",
    "methods": {},
    "version": 1
  }
}