{
  "contractName": "ERC1155PausableMock",
  "abi": [
    {
      "inputs": [
        {
          "internalType": "string",
          "name": "uri",
          "type": "string"
        }
      ],
      "stateMutability": "nonpayable",
      "type": "constructor"
    },
    {
      "anonymous": false,
      "inputs": [
        {
          "indexed": true,
          "internalType": "address",
          "name": "account",
          "type": "address"
        },
        {
          "indexed": true,
          "internalType": "address",
          "name": "operator",
          "type": "address"
        },
        {
          "indexed": false,
          "internalType": "bool",
          "name": "approved",
          "type": "bool"
        }
      ],
      "name": "ApprovalForAll",
      "type": "event"
    },
    {
      "anonymous": false,
      "inputs": [
        {
          "indexed": false,
          "internalType": "address",
          "name": "account",
          "type": "address"
        }
      ],
      "name": "Paused",
      "type": "event"
    },
    {
      "anonymous": false,
      "inputs": [
        {
          "indexed": true,
          "internalType": "address",
          "name": "operator",
          "type": "address"
        },
        {
          "indexed": true,
          "internalType": "address",
          "name": "from",
          "type": "address"
        },
        {
          "indexed": true,
          "internalType": "address",
          "name": "to",
          "type": "address"
        },
        {
          "indexed": false,
          "internalType": "uint256[]",
          "name": "ids",
          "type": "uint256[]"
        },
        {
          "indexed": false,
          "internalType": "uint256[]",
          "name": "values",
          "type": "uint256[]"
        }
      ],
      "name": "TransferBatch",
      "type": "event"
    },
    {
      "anonymous": false,
      "inputs": [
        {
          "indexed": true,
          "internalType": "address",
          "name": "operator",
          "type": "address"
        },
        {
          "indexed": true,
          "internalType": "address",
          "name": "from",
          "type": "address"
        },
        {
          "indexed": true,
          "internalType": "address",
          "name": "to",
          "type": "address"
        },
        {
          "indexed": false,
          "internalType": "uint256",
          "name": "id",
          "type": "uint256"
        },
        {
          "indexed": false,
          "internalType": "uint256",
          "name": "value",
          "type": "uint256"
        }
      ],
      "name": "TransferSingle",
      "type": "event"
    },
    {
      "anonymous": false,
      "inputs": [
        {
          "indexed": false,
          "internalType": "string",
          "name": "value",
          "type": "string"
        },
        {
          "indexed": true,
          "internalType": "uint256",
          "name": "id",
          "type": "uint256"
        }
      ],
      "name": "URI",
      "type": "event"
    },
    {
      "anonymous": false,
      "inputs": [
        {
          "indexed": false,
          "internalType": "address",
          "name": "account",
          "type": "address"
        }
      ],
      "name": "Unpaused",
      "type": "event"
    },
    {
      "inputs": [
        {
          "internalType": "address",
          "name": "account",
          "type": "address"
        },
        {
          "internalType": "uint256",
          "name": "id",
          "type": "uint256"
        }
      ],
      "name": "balanceOf",
      "outputs": [
        {
          "internalType": "uint256",
          "name": "",
          "type": "uint256"
        }
      ],
      "stateMutability": "view",
      "type": "function"
    },
    {
      "inputs": [
        {
          "internalType": "address[]",
          "name": "accounts",
          "type": "address[]"
        },
        {
          "internalType": "uint256[]",
          "name": "ids",
          "type": "uint256[]"
        }
      ],
      "name": "balanceOfBatch",
      "outputs": [
        {
          "internalType": "uint256[]",
          "name": "",
          "type": "uint256[]"
        }
      ],
      "stateMutability": "view",
      "type": "function"
    },
    {
      "inputs": [
        {
          "internalType": "address",
          "name": "owner",
          "type": "address"
        },
        {
          "internalType": "uint256",
          "name": "id",
          "type": "uint256"
        },
        {
          "internalType": "uint256",
          "name": "value",
          "type": "uint256"
        }
      ],
      "name": "burn",
      "outputs": [],
      "stateMutability": "nonpayable",
      "type": "function"
    },
    {
      "inputs": [
        {
          "internalType": "address",
          "name": "owner",
          "type": "address"
        },
        {
          "internalType": "uint256[]",
          "name": "ids",
          "type": "uint256[]"
        },
        {
          "internalType": "uint256[]",
          "name": "values",
          "type": "uint256[]"
        }
      ],
      "name": "burnBatch",
      "outputs": [],
      "stateMutability": "nonpayable",
      "type": "function"
    },
    {
      "inputs": [
        {
          "internalType": "address",
          "name": "account",
          "type": "address"
        },
        {
          "internalType": "address",
          "name": "operator",
          "type": "address"
        }
      ],
      "name": "isApprovedForAll",
      "outputs": [
        {
          "internalType": "bool",
          "name": "",
          "type": "bool"
        }
      ],
      "stateMutability": "view",
      "type": "function"
    },
    {
      "inputs": [
        {
          "internalType": "address",
          "name": "to",
          "type": "address"
        },
        {
          "internalType": "uint256",
          "name": "id",
          "type": "uint256"
        },
        {
          "internalType": "uint256",
          "name": "value",
          "type": "uint256"
        },
        {
          "internalType": "bytes",
          "name": "data",
          "type": "bytes"
        }
      ],
      "name": "mint",
      "outputs": [],
      "stateMutability": "nonpayable",
      "type": "function"
    },
    {
      "inputs": [
        {
          "internalType": "address",
          "name": "to",
          "type": "address"
        },
        {
          "internalType": "uint256[]",
          "name": "ids",
          "type": "uint256[]"
        },
        {
          "internalType": "uint256[]",
          "name": "values",
          "type": "uint256[]"
        },
        {
          "internalType": "bytes",
          "name": "data",
          "type": "bytes"
        }
      ],
      "name": "mintBatch",
      "outputs": [],
      "stateMutability": "nonpayable",
      "type": "function"
    },
    {
      "inputs": [],
      "name": "paused",
      "outputs": [
        {
          "internalType": "bool",
          "name": "",
          "type": "bool"
        }
      ],
      "stateMutability": "view",
      "type": "function"
    },
    {
      "inputs": [
        {
          "internalType": "address",
          "name": "from",
          "type": "address"
        },
        {
          "internalType": "address",
          "name": "to",
          "type": "address"
        },
        {
          "internalType": "uint256[]",
          "name": "ids",
          "type": "uint256[]"
        },
        {
          "internalType": "uint256[]",
          "name": "amounts",
          "type": "uint256[]"
        },
        {
          "internalType": "bytes",
          "name": "data",
          "type": "bytes"
        }
      ],
      "name": "safeBatchTransferFrom",
      "outputs": [],
      "stateMutability": "nonpayable",
      "type": "function"
    },
    {
      "inputs": [
        {
          "internalType": "address",
          "name": "from",
          "type": "address"
        },
        {
          "internalType": "address",
          "name": "to",
          "type": "address"
        },
        {
          "internalType": "uint256",
          "name": "id",
          "type": "uint256"
        },
        {
          "internalType": "uint256",
          "name": "amount",
          "type": "uint256"
        },
        {
          "internalType": "bytes",
          "name": "data",
          "type": "bytes"
        }
      ],
      "name": "safeTransferFrom",
      "outputs": [],
      "stateMutability": "nonpayable",
      "type": "function"
    },
    {
      "inputs": [
        {
          "internalType": "address",
          "name": "operator",
          "type": "address"
        },
        {
          "internalType": "bool",
          "name": "approved",
          "type": "bool"
        }
      ],
      "name": "setApprovalForAll",
      "outputs": [],
      "stateMutability": "nonpayable",
      "type": "function"
    },
    {
      "inputs": [
        {
          "internalType": "string",
          "name": "newuri",
          "type": "string"
        }
      ],
      "name": "setURI",
      "outputs": [],
      "stateMutability": "nonpayable",
      "type": "function"
    },
    {
      "inputs": [
        {
          "internalType": "bytes4",
          "name": "interfaceId",
          "type": "bytes4"
        }
      ],
      "name": "supportsInterface",
      "outputs": [
        {
          "internalType": "bool",
          "name": "",
          "type": "bool"
        }
      ],
      "stateMutability": "view",
      "type": "function"
    },
    {
      "inputs": [
        {
          "internalType": "uint256",
          "name": "",
          "type": "uint256"
        }
      ],
      "name": "uri",
      "outputs": [
        {
          "internalType": "string",
          "name": "",
          "type": "string"
        }
      ],
      "stateMutability": "view",
      "type": "function"
    },
    {
      "inputs": [],
      "name": "pause",
      "outputs": [],
      "stateMutability": "nonpayable",
      "type": "function"
    },
    {
      "inputs": [],
      "name": "unpause",
      "outputs": [],
      "stateMutability": "nonpayable",
      "type": "function"
    }
  ],
  "bytecode": "0x60806040523480156200001157600080fd5b506040516200218d3803806200218d833981016040819052620000349162000113565b8080620000418162000054565b50506003805460ff19169055506200023c565b8051620000699060029060208401906200006d565b5050565b8280546200007b90620001e9565b90600052602060002090601f0160209004810192826200009f5760008555620000ea565b82601f10620000ba57805160ff1916838001178555620000ea565b82800160010185558215620000ea579182015b82811115620000ea578251825591602001919060010190620000cd565b50620000f8929150620000fc565b5090565b5b80821115620000f85760008155600101620000fd565b6000602080838503121562000126578182fd5b82516001600160401b03808211156200013d578384fd5b818501915085601f83011262000151578384fd5b81518181111562000166576200016662000226565b604051601f8201601f19908116603f0116810190838211818310171562000191576200019162000226565b816040528281528886848701011115620001a9578687fd5b8693505b82841015620001cc5784840186015181850187015292850192620001ad565b82841115620001dd57868684830101525b98975050505050505050565b600281046001821680620001fe57607f821691505b602082108114156200022057634e487b7160e01b600052602260045260246000fd5b50919050565b634e487b7160e01b600052604160045260246000fd5b611f41806200024c6000396000f3fe608060405234801561001057600080fd5b50600436106100ff5760003560e01c80635c975abb11610097578063a22cb46511610066578063a22cb46514610206578063e985e9c514610219578063f242432a14610255578063f5298aca14610268576100ff565b80635c975abb146101d05780636b20c454146101d8578063731133e9146101eb5780638456cb59146101fe576100ff565b80631f7fdffa116100d35780631f7fdffa146101825780632eb2c2d6146101955780633f4ba83a146101a85780634e1273f4146101b0576100ff565b8062fdd58e1461010457806301ffc9a71461012a57806302fe53051461014d5780630e89341c14610162575b600080fd5b6101176101123660046117e9565b61027b565b6040519081526020015b60405180910390f35b61013d610138366004611960565b610312565b6040519015158152602001610121565b61016061015b366004611998565b610366565b005b6101756101703660046119e6565b610372565b6040516101219190611b67565b61016061019036600461171a565b610406565b6101606101a33660046115a0565b610418565b6101606104af565b6101c36101be366004611897565b6104b9565b6040516101219190611b26565b61013d61061b565b6101606101e63660046116a9565b610625565b6101606101f9366004611844565b610635565b610160610641565b6101606102143660046117af565b610649565b61013d61022736600461156e565b6001600160a01b03918216600090815260016020908152604080832093909416825291909152205460ff1690565b610160610263366004611646565b61072d565b610160610276366004611812565b6107b4565b60006001600160a01b0383166102ec5760405162461bcd60e51b815260206004820152602b60248201527f455243313135353a2062616c616e636520717565727920666f7220746865207a60448201526a65726f206164647265737360a81b60648201526084015b60405180910390fd5b506000908152602081815260408083206001600160a01b03949094168352929052205490565b60006001600160e01b03198216636cdb3d1360e11b148061034357506001600160e01b031982166303a24d0760e21b145b8061035e57506301ffc9a760e01b6001600160e01b03198316145b90505b919050565b61036f816107bf565b50565b60606002805461038190611d9d565b80601f01602080910402602001604051908101604052809291908181526020018280546103ad90611d9d565b80156103fa5780601f106103cf576101008083540402835291602001916103fa565b820191906000526020600020905b8154815290600101906020018083116103dd57829003601f168201915b50505050509050919050565b610412848484846107d6565b50505050565b6001600160a01b03851633148061043457506104348533610227565b61049b5760405162461bcd60e51b815260206004820152603260248201527f455243313135353a207472616e736665722063616c6c6572206973206e6f74206044820152711bdddb995c881b9bdc88185c1c1c9bdd995960721b60648201526084016102e3565b6104a8858585858561094c565b5050505050565b6104b7610b12565b565b6060815183511461051e5760405162461bcd60e51b815260206004820152602960248201527f455243313135353a206163636f756e747320616e6420696473206c656e677468604482015268040dad2e6dac2e8c6d60bb1b60648201526084016102e3565b6000835167ffffffffffffffff81111561054857634e487b7160e01b600052604160045260246000fd5b604051908082528060200260200182016040528015610571578160200160208202803683370190505b50905060005b8451811015610613576105d88582815181106105a357634e487b7160e01b600052603260045260246000fd5b60200260200101518583815181106105cb57634e487b7160e01b600052603260045260246000fd5b602002602001015161027b565b8282815181106105f857634e487b7160e01b600052603260045260246000fd5b602090810291909101015261060c81611e05565b9050610577565b509392505050565b60035460ff165b90565b610630838383610ba7565b505050565b61041284848484610d51565b6104b7610e27565b336001600160a01b03831614156106b45760405162461bcd60e51b815260206004820152602960248201527f455243313135353a2073657474696e6720617070726f76616c20737461747573604482015268103337b91039b2b63360b91b60648201526084016102e3565b3360008181526001602090815260408083206001600160a01b0387168085529252909120805460ff1916841515179055906001600160a01b03167f17307eab39ab6107e8899845ad3d59bd9653f200f220920489ca2b5937696c3183604051610721911515815260200190565b60405180910390a35050565b6001600160a01b03851633148061074957506107498533610227565b6107a75760405162461bcd60e51b815260206004820152602960248201527f455243313135353a2063616c6c6572206973206e6f74206f776e6572206e6f7260448201526808185c1c1c9bdd995960ba1b60648201526084016102e3565b6104a88585858585610ea4565b610630838383610fc1565b80516107d29060029060208401906113c8565b5050565b6001600160a01b0384166107fc5760405162461bcd60e51b81526004016102e390611d20565b815183511461081d5760405162461bcd60e51b81526004016102e390611cd8565b3361082d816000878787876110c2565b60005b84518110156108e45783818151811061085957634e487b7160e01b600052603260045260246000fd5b602002602001015160008087848151811061088457634e487b7160e01b600052603260045260246000fd5b602002602001015181526020019081526020016000206000886001600160a01b03166001600160a01b0316815260200190815260200160002060008282546108cc9190611d85565b909155508190506108dc81611e05565b915050610830565b50846001600160a01b031660006001600160a01b0316826001600160a01b03167f4a39dc06d4c0dbc64b70af90fd698a233a518aa5d07e595d983b8c0526c8f7fb8787604051610935929190611b39565b60405180910390a46104a8816000878787876110d0565b815183511461096d5760405162461bcd60e51b81526004016102e390611cd8565b6001600160a01b0384166109935760405162461bcd60e51b81526004016102e390611c06565b336109a28187878787876110c2565b60005b8451811015610aa45760008582815181106109d057634e487b7160e01b600052603260045260246000fd5b6020026020010151905060008583815181106109fc57634e487b7160e01b600052603260045260246000fd5b602090810291909101810151600084815280835260408082206001600160a01b038e168352909352919091205490915081811015610a4c5760405162461bcd60e51b81526004016102e390611c8e565b6000838152602081815260408083206001600160a01b038e8116855292528083208585039055908b16825281208054849290610a89908490611d85565b9250508190555050505080610a9d90611e05565b90506109a5565b50846001600160a01b0316866001600160a01b0316826001600160a01b03167f4a39dc06d4c0dbc64b70af90fd698a233a518aa5d07e595d983b8c0526c8f7fb8787604051610af4929190611b39565b60405180910390a4610b0a8187878787876110d0565b505050505050565b610b1a61061b565b610b5d5760405162461bcd60e51b815260206004820152601460248201527314185d5cd8589b194e881b9bdd081c185d5cd95960621b60448201526064016102e3565b6003805460ff191690557f5db9ee0a495bf2e6ff9c91a7834c1ba4fdd244a5e8aa4e537bd38aeae4b073aa335b6040516001600160a01b03909116815260200160405180910390a1565b6001600160a01b038316610bcd5760405162461bcd60e51b81526004016102e390611c4b565b8051825114610bee5760405162461bcd60e51b81526004016102e390611cd8565b6000339050610c11818560008686604051806020016040528060008152506110c2565b60005b8351811015610cf2576000848281518110610c3f57634e487b7160e01b600052603260045260246000fd5b602002602001015190506000848381518110610c6b57634e487b7160e01b600052603260045260246000fd5b602090810291909101810151600084815280835260408082206001600160a01b038c168352909352919091205490915081811015610cbb5760405162461bcd60e51b81526004016102e390611bc2565b6000928352602083815260408085206001600160a01b038b1686529091529092209103905580610cea81611e05565b915050610c14565b5060006001600160a01b0316846001600160a01b0316826001600160a01b03167f4a39dc06d4c0dbc64b70af90fd698a233a518aa5d07e595d983b8c0526c8f7fb8686604051610d43929190611b39565b60405180910390a450505050565b6001600160a01b038416610d775760405162461bcd60e51b81526004016102e390611d20565b33610d9781600087610d888861123b565b610d918861123b565b876110c2565b6000848152602081815260408083206001600160a01b038916845290915281208054859290610dc7908490611d85565b909155505060408051858152602081018590526001600160a01b0380881692600092918516917fc3d58168c5ae7397731d063d5bbf3d657854427343f4c083240f7aacaa2d0f62910160405180910390a46104a881600087878787611294565b610e2f61061b565b15610e6f5760405162461bcd60e51b815260206004820152601060248201526f14185d5cd8589b194e881c185d5cd95960821b60448201526064016102e3565b6003805460ff191660011790557f62e78cea01bee320cd4e420270b5ea74000d11b0c9f74754ebdbfc544b05a258610b8a3390565b6001600160a01b038416610eca5760405162461bcd60e51b81526004016102e390611c06565b33610eda818787610d888861123b565b6000848152602081815260408083206001600160a01b038a16845290915290205483811015610f1b5760405162461bcd60e51b81526004016102e390611c8e565b6000858152602081815260408083206001600160a01b038b8116855292528083208785039055908816825281208054869290610f58908490611d85565b909155505060408051868152602081018690526001600160a01b03808916928a821692918616917fc3d58168c5ae7397731d063d5bbf3d657854427343f4c083240f7aacaa2d0f62910160405180910390a4610fb8828888888888611294565b50505050505050565b6001600160a01b038316610fe75760405162461bcd60e51b81526004016102e390611c4b565b3361101681856000610ff88761123b565b6110018761123b565b604051806020016040528060008152506110c2565b6000838152602081815260408083206001600160a01b0388168452909152902054828110156110575760405162461bcd60e51b81526004016102e390611bc2565b6000848152602081815260408083206001600160a01b03898116808652918452828520888703905582518981529384018890529092908616917fc3d58168c5ae7397731d063d5bbf3d657854427343f4c083240f7aacaa2d0f62910160405180910390a45050505050565b610b0a86868686868661135e565b6001600160a01b0384163b15610b0a5760405163bc197c8160e01b81526001600160a01b0385169063bc197c81906111149089908990889088908890600401611a83565b602060405180830381600087803b15801561112e57600080fd5b505af192505050801561115e575060408051601f3d908101601f1916820190925261115b9181019061197c565b60015b61120b5761116a611e4c565b806308c379a014156111a4575061117f611e63565b8061118a57506111a6565b8060405162461bcd60e51b81526004016102e39190611b67565b505b60405162461bcd60e51b815260206004820152603460248201527f455243313135353a207472616e7366657220746f206e6f6e20455243313135356044820152732932b1b2b4bb32b91034b6b83632b6b2b73a32b960611b60648201526084016102e3565b6001600160e01b0319811663bc197c8160e01b14610fb85760405162461bcd60e51b81526004016102e390611b7a565b6040805160018082528183019092526060916000919060208083019080368337019050509050828160008151811061128357634e487b7160e01b600052603260045260246000fd5b602090810291909101015292915050565b6001600160a01b0384163b15610b0a5760405163f23a6e6160e01b81526001600160a01b0385169063f23a6e61906112d89089908990889088908890600401611ae1565b602060405180830381600087803b1580156112f257600080fd5b505af1925050508015611322575060408051601f3d908101601f1916820190925261131f9181019061197c565b60015b61132e5761116a611e4c565b6001600160e01b0319811663f23a6e6160e01b14610fb85760405162461bcd60e51b81526004016102e390611b7a565b61136661061b565b15610b0a5760405162461bcd60e51b815260206004820152602c60248201527f455243313135355061757361626c653a20746f6b656e207472616e736665722060448201526b1dda1a5b19481c185d5cd95960a21b60648201526084016102e3565b8280546113d490611d9d565b90600052602060002090601f0160209004810192826113f6576000855561143c565b82601f1061140f57805160ff191683800117855561143c565b8280016001018555821561143c579182015b8281111561143c578251825591602001919060010190611421565b5061144892915061144c565b5090565b5b80821115611448576000815560010161144d565b600067ffffffffffffffff83111561147b5761147b611e36565b604051611492601f8501601f191660200182611dd8565b8091508381528484840111156114a757600080fd5b83836020830137600060208583010152509392505050565b80356001600160a01b038116811461036157600080fd5b600082601f8301126114e6578081fd5b813560206114f382611d61565b6040516115008282611dd8565b83815282810191508583018385028701840188101561151d578586fd5b855b8581101561153b5781358452928401929084019060010161151f565b5090979650505050505050565b600082601f830112611558578081fd5b61156783833560208501611461565b9392505050565b60008060408385031215611580578182fd5b611589836114bf565b9150611597602084016114bf565b90509250929050565b600080600080600060a086880312156115b7578081fd5b6115c0866114bf565b94506115ce602087016114bf565b9350604086013567ffffffffffffffff808211156115ea578283fd5b6115f689838a016114d6565b9450606088013591508082111561160b578283fd5b61161789838a016114d6565b9350608088013591508082111561162c578283fd5b5061163988828901611548565b9150509295509295909350565b600080600080600060a0868803121561165d578081fd5b611666866114bf565b9450611674602087016114bf565b93506040860135925060608601359150608086013567ffffffffffffffff81111561169d578182fd5b61163988828901611548565b6000806000606084860312156116bd578283fd5b6116c6846114bf565b9250602084013567ffffffffffffffff808211156116e2578384fd5b6116ee878388016114d6565b93506040860135915080821115611703578283fd5b50611710868287016114d6565b9150509250925092565b6000806000806080858703121561172f578384fd5b611738856114bf565b9350602085013567ffffffffffffffff80821115611754578485fd5b611760888389016114d6565b94506040870135915080821115611775578384fd5b611781888389016114d6565b93506060870135915080821115611796578283fd5b506117a387828801611548565b91505092959194509250565b600080604083850312156117c1578182fd5b6117ca836114bf565b9150602083013580151581146117de578182fd5b809150509250929050565b600080604083850312156117fb578182fd5b611804836114bf565b946020939093013593505050565b600080600060608486031215611826578081fd5b61182f846114bf565b95602085013595506040909401359392505050565b60008060008060808587031215611859578182fd5b611862856114bf565b93506020850135925060408501359150606085013567ffffffffffffffff81111561188b578182fd5b6117a387828801611548565b600080604083850312156118a9578182fd5b823567ffffffffffffffff808211156118c0578384fd5b818501915085601f8301126118d3578384fd5b813560206118e082611d61565b6040516118ed8282611dd8565b8381528281019150858301838502870184018b101561190a578889fd5b8896505b848710156119335761191f816114bf565b83526001969096019591830191830161190e565b5096505086013592505080821115611949578283fd5b50611956858286016114d6565b9150509250929050565b600060208284031215611971578081fd5b813561156781611ef5565b60006020828403121561198d578081fd5b815161156781611ef5565b6000602082840312156119a9578081fd5b813567ffffffffffffffff8111156119bf578182fd5b8201601f810184136119cf578182fd5b6119de84823560208401611461565b949350505050565b6000602082840312156119f7578081fd5b5035919050565b6000815180845260208085019450808401835b83811015611a2d57815187529582019590820190600101611a11565b509495945050505050565b60008151808452815b81811015611a5d57602081850181015186830182015201611a41565b81811115611a6e5782602083870101525b50601f01601f19169290920160200192915050565b6001600160a01b0386811682528516602082015260a060408201819052600090611aaf908301866119fe565b8281036060840152611ac181866119fe565b90508281036080840152611ad58185611a38565b98975050505050505050565b6001600160a01b03868116825285166020820152604081018490526060810183905260a060808201819052600090611b1b90830184611a38565b979650505050505050565b60006020825261156760208301846119fe565b600060408252611b4c60408301856119fe565b8281036020840152611b5e81856119fe565b95945050505050565b6000602082526115676020830184611a38565b60208082526028908201527f455243313135353a204552433131353552656365697665722072656a656374656040820152676420746f6b656e7360c01b606082015260800190565b60208082526024908201527f455243313135353a206275726e20616d6f756e7420657863656564732062616c604082015263616e636560e01b606082015260800190565b60208082526025908201527f455243313135353a207472616e7366657220746f20746865207a65726f206164604082015264647265737360d81b606082015260800190565b60208082526023908201527f455243313135353a206275726e2066726f6d20746865207a65726f206164647260408201526265737360e81b606082015260800190565b6020808252602a908201527f455243313135353a20696e73756666696369656e742062616c616e636520666f60408201526939103a3930b739b332b960b11b606082015260800190565b60208082526028908201527f455243313135353a2069647320616e6420616d6f756e7473206c656e677468206040820152670dad2e6dac2e8c6d60c31b606082015260800190565b60208082526021908201527f455243313135353a206d696e7420746f20746865207a65726f206164647265736040820152607360f81b606082015260800190565b600067ffffffffffffffff821115611d7b57611d7b611e36565b5060209081020190565b60008219821115611d9857611d98611e20565b500190565b600281046001821680611db157607f821691505b60208210811415611dd257634e487b7160e01b600052602260045260246000fd5b50919050565b601f8201601f1916810167ffffffffffffffff81118282101715611dfe57611dfe611e36565b6040525050565b6000600019821415611e1957611e19611e20565b5060010190565b634e487b7160e01b600052601160045260246000fd5b634e487b7160e01b600052604160045260246000fd5b600060033d111561062257600481823e5160e01c90565b600060443d1015611e7357610622565b6040516003193d81016004833e81513d67ffffffffffffffff8160248401118184111715611ea5575050505050610622565b8285019150815181811115611ebf57505050505050610622565b843d8701016020828501011115611edb57505050505050610622565b611eea60208286010187611dd8565b509094505050505090565b6001600160e01b03198116811461036f57600080fdfea2646970667358221220f984b753839999975b037a31c3b7042e2fe2df0260be8fe05248f4f3be7858f564736f6c63430008020033",
  "immutableReferences": {},
  "source": "// SPDX-License-Identifier: MIT\n\npragma solidity ^0.8.0;\n\nimport \"./ERC1155Mock.sol\";\nimport \"../token/ERC1155/extensions/ERC1155Pausable.sol\";\n\ncontract ERC1155PausableMock is ERC1155Mock, ERC1155Pausable {\n    constructor(string memory uri) ERC1155Mock(uri) {}\n\n    function pause() external {\n        _pause();\n    }\n\n    function unpause() external {\n        _unpause();\n    }\n\n    function _beforeTokenTransfer(\n        address operator,\n        address from,\n        address to,\n        uint256[] memory ids,\n        uint256[] memory amounts,\n        bytes memory data\n    ) internal virtual override(ERC1155, ERC1155Pausable) {\n        super._beforeTokenTransfer(operator, from, to, ids, amounts, data);\n    }\n}\n",
  "sourcePath": "/Users/shangyihuang/Documents/SocialFi/client/contracts/contracts/mocks/ERC1155PausableMock.sol",
  "compiler": {
    "name": "solc",
    "version": "0.8.2+commit.661d1103.Emscripten.clang"
  },
  "schemaVersion": "3.4.7",
  "updatedAt": "2022-05-05T11:49:18.247Z",
  "devdoc": {
    "kind": "dev",
    "methods": {
      "balanceOf(address,uint256)": {
        "details": "See {IERC1155-balanceOf}. Requirements: - `account` cannot be the zero address."
      },
      "balanceOfBatch(address[],uint256[])": {
        "details": "See {IERC1155-balanceOfBatch}. Requirements: - `accounts` and `ids` must have the same length."
      },
      "isApprovedForAll(address,address)": {
        "details": "See {IERC1155-isApprovedForAll}."
      },
      "paused()": {
        "details": "Returns true if the contract is paused, and false otherwise."
      },
      "safeBatchTransferFrom(address,address,uint256[],uint256[],bytes)": {
        "details": "See {IERC1155-safeBatchTransferFrom}."
      },
      "safeTransferFrom(address,address,uint256,uint256,bytes)": {
        "details": "See {IERC1155-safeTransferFrom}."
      },
      "setApprovalForAll(address,bool)": {
        "details": "See {IERC1155-setApprovalForAll}."
      },
      "supportsInterface(bytes4)": {
        "details": "See {IERC165-supportsInterface}."
      },
      "uri(uint256)": {
        "details": "See {IERC1155MetadataURI-uri}. This implementation returns the same URI for *all* token types. It relies on the token type ID substitution mechanism https://eips.ethereum.org/EIPS/eip-1155#metadata[defined in the EIP]. Clients calling this function must replace the `\\{id\\}` substring with the actual token type ID."
      }
    },
    "version": 1
  },
  "userdoc": {
    "kind": "user",
    "methods": {},
    "version": 1
  }
}