{
  "contractName": "ERC1155BurnableMock",
  "abi": [
    {
      "inputs": [
        {
          "internalType": "string",
          "name": "uri",
          "type": "string"
        }
      ],
      "stateMutability": "nonpayable",
      "type": "constructor"
    },
    {
      "anonymous": false,
      "inputs": [
        {
          "indexed": true,
          "internalType": "address",
          "name": "account",
          "type": "address"
        },
        {
          "indexed": true,
          "internalType": "address",
          "name": "operator",
          "type": "address"
        },
        {
          "indexed": false,
          "internalType": "bool",
          "name": "approved",
          "type": "bool"
        }
      ],
      "name": "ApprovalForAll",
      "type": "event"
    },
    {
      "anonymous": false,
      "inputs": [
        {
          "indexed": true,
          "internalType": "address",
          "name": "operator",
          "type": "address"
        },
        {
          "indexed": true,
          "internalType": "address",
          "name": "from",
          "type": "address"
        },
        {
          "indexed": true,
          "internalType": "address",
          "name": "to",
          "type": "address"
        },
        {
          "indexed": false,
          "internalType": "uint256[]",
          "name": "ids",
          "type": "uint256[]"
        },
        {
          "indexed": false,
          "internalType": "uint256[]",
          "name": "values",
          "type": "uint256[]"
        }
      ],
      "name": "TransferBatch",
      "type": "event"
    },
    {
      "anonymous": false,
      "inputs": [
        {
          "indexed": true,
          "internalType": "address",
          "name": "operator",
          "type": "address"
        },
        {
          "indexed": true,
          "internalType": "address",
          "name": "from",
          "type": "address"
        },
        {
          "indexed": true,
          "internalType": "address",
          "name": "to",
          "type": "address"
        },
        {
          "indexed": false,
          "internalType": "uint256",
          "name": "id",
          "type": "uint256"
        },
        {
          "indexed": false,
          "internalType": "uint256",
          "name": "value",
          "type": "uint256"
        }
      ],
      "name": "TransferSingle",
      "type": "event"
    },
    {
      "anonymous": false,
      "inputs": [
        {
          "indexed": false,
          "internalType": "string",
          "name": "value",
          "type": "string"
        },
        {
          "indexed": true,
          "internalType": "uint256",
          "name": "id",
          "type": "uint256"
        }
      ],
      "name": "URI",
      "type": "event"
    },
    {
      "inputs": [
        {
          "internalType": "address",
          "name": "account",
          "type": "address"
        },
        {
          "internalType": "uint256",
          "name": "id",
          "type": "uint256"
        }
      ],
      "name": "balanceOf",
      "outputs": [
        {
          "internalType": "uint256",
          "name": "",
          "type": "uint256"
        }
      ],
      "stateMutability": "view",
      "type": "function"
    },
    {
      "inputs": [
        {
          "internalType": "address[]",
          "name": "accounts",
          "type": "address[]"
        },
        {
          "internalType": "uint256[]",
          "name": "ids",
          "type": "uint256[]"
        }
      ],
      "name": "balanceOfBatch",
      "outputs": [
        {
          "internalType": "uint256[]",
          "name": "",
          "type": "uint256[]"
        }
      ],
      "stateMutability": "view",
      "type": "function"
    },
    {
      "inputs": [
        {
          "internalType": "address",
          "name": "account",
          "type": "address"
        },
        {
          "internalType": "uint256",
          "name": "id",
          "type": "uint256"
        },
        {
          "internalType": "uint256",
          "name": "value",
          "type": "uint256"
        }
      ],
      "name": "burn",
      "outputs": [],
      "stateMutability": "nonpayable",
      "type": "function"
    },
    {
      "inputs": [
        {
          "internalType": "address",
          "name": "account",
          "type": "address"
        },
        {
          "internalType": "uint256[]",
          "name": "ids",
          "type": "uint256[]"
        },
        {
          "internalType": "uint256[]",
          "name": "values",
          "type": "uint256[]"
        }
      ],
      "name": "burnBatch",
      "outputs": [],
      "stateMutability": "nonpayable",
      "type": "function"
    },
    {
      "inputs": [
        {
          "internalType": "address",
          "name": "account",
          "type": "address"
        },
        {
          "internalType": "address",
          "name": "operator",
          "type": "address"
        }
      ],
      "name": "isApprovedForAll",
      "outputs": [
        {
          "internalType": "bool",
          "name": "",
          "type": "bool"
        }
      ],
      "stateMutability": "view",
      "type": "function"
    },
    {
      "inputs": [
        {
          "internalType": "address",
          "name": "from",
          "type": "address"
        },
        {
          "internalType": "address",
          "name": "to",
          "type": "address"
        },
        {
          "internalType": "uint256[]",
          "name": "ids",
          "type": "uint256[]"
        },
        {
          "internalType": "uint256[]",
          "name": "amounts",
          "type": "uint256[]"
        },
        {
          "internalType": "bytes",
          "name": "data",
          "type": "bytes"
        }
      ],
      "name": "safeBatchTransferFrom",
      "outputs": [],
      "stateMutability": "nonpayable",
      "type": "function"
    },
    {
      "inputs": [
        {
          "internalType": "address",
          "name": "from",
          "type": "address"
        },
        {
          "internalType": "address",
          "name": "to",
          "type": "address"
        },
        {
          "internalType": "uint256",
          "name": "id",
          "type": "uint256"
        },
        {
          "internalType": "uint256",
          "name": "amount",
          "type": "uint256"
        },
        {
          "internalType": "bytes",
          "name": "data",
          "type": "bytes"
        }
      ],
      "name": "safeTransferFrom",
      "outputs": [],
      "stateMutability": "nonpayable",
      "type": "function"
    },
    {
      "inputs": [
        {
          "internalType": "address",
          "name": "operator",
          "type": "address"
        },
        {
          "internalType": "bool",
          "name": "approved",
          "type": "bool"
        }
      ],
      "name": "setApprovalForAll",
      "outputs": [],
      "stateMutability": "nonpayable",
      "type": "function"
    },
    {
      "inputs": [
        {
          "internalType": "bytes4",
          "name": "interfaceId",
          "type": "bytes4"
        }
      ],
      "name": "supportsInterface",
      "outputs": [
        {
          "internalType": "bool",
          "name": "",
          "type": "bool"
        }
      ],
      "stateMutability": "view",
      "type": "function"
    },
    {
      "inputs": [
        {
          "internalType": "uint256",
          "name": "",
          "type": "uint256"
        }
      ],
      "name": "uri",
      "outputs": [
        {
          "internalType": "string",
          "name": "",
          "type": "string"
        }
      ],
      "stateMutability": "view",
      "type": "function"
    },
    {
      "inputs": [
        {
          "internalType": "address",
          "name": "to",
          "type": "address"
        },
        {
          "internalType": "uint256",
          "name": "id",
          "type": "uint256"
        },
        {
          "internalType": "uint256",
          "name": "value",
          "type": "uint256"
        },
        {
          "internalType": "bytes",
          "name": "data",
          "type": "bytes"
        }
      ],
      "name": "mint",
      "outputs": [],
      "stateMutability": "nonpayable",
      "type": "function"
    }
  ],
  "bytecode": "0x60806040523480156200001157600080fd5b5060405162001d2438038062001d24833981016040819052620000349162000107565b80620000408162000048565b505062000230565b80516200005d90600290602084019062000061565b5050565b8280546200006f90620001dd565b90600052602060002090601f016020900481019282620000935760008555620000de565b82601f10620000ae57805160ff1916838001178555620000de565b82800160010185558215620000de579182015b82811115620000de578251825591602001919060010190620000c1565b50620000ec929150620000f0565b5090565b5b80821115620000ec5760008155600101620000f1565b600060208083850312156200011a578182fd5b82516001600160401b038082111562000131578384fd5b818501915085601f83011262000145578384fd5b8151818111156200015a576200015a6200021a565b604051601f8201601f19908116603f011681019083821181831017156200018557620001856200021a565b8160405282815288868487010111156200019d578687fd5b8693505b82841015620001c05784840186015181850187015292850192620001a1565b82841115620001d157868684830101525b98975050505050505050565b600281046001821680620001f257607f821691505b602082108114156200021457634e487b7160e01b600052602260045260246000fd5b50919050565b634e487b7160e01b600052604160045260246000fd5b611ae480620002406000396000f3fe608060405234801561001057600080fd5b50600436106100a85760003560e01c80636b20c454116100715780636b20c4541461014b578063731133e91461015e578063a22cb46514610171578063e985e9c514610184578063f242432a146101c0578063f5298aca146101d3576100a8565b8062fdd58e146100ad57806301ffc9a7146100d35780630e89341c146100f65780632eb2c2d6146101165780634e1273f41461012b575b600080fd5b6100c06100bb3660046113bc565b6101e6565b6040519081526020015b60405180910390f35b6100e66100e136600461153f565b61027d565b60405190151581526020016100ca565b61010961010436600461157e565b6102d1565b6040516100ca91906116ff565b610129610124366004611208565b610365565b005b61013e610139366004611476565b61040e565b6040516100ca91906116be565b610129610159366004611311565b610570565b61012961016c366004611417565b6105ca565b61012961017f366004611382565b6105dc565b6100e66101923660046111d6565b6001600160a01b03918216600090815260016020908152604080832093909416825291909152205460ff1690565b6101296101ce3660046112ae565b6106f0565b6101296101e13660046113e5565b610747565b60006001600160a01b0383166102575760405162461bcd60e51b815260206004820152602b60248201527f455243313135353a2062616c616e636520717565727920666f7220746865207a60448201526a65726f206164647265737360a81b60648201526084015b60405180910390fd5b506000908152602081815260408083206001600160a01b03949094168352929052205490565b60006001600160e01b03198216636cdb3d1360e11b14806102ae57506001600160e01b031982166303a24d0760e21b145b806102c957506301ffc9a760e01b6001600160e01b03198316145b90505b919050565b6060600280546102e09061193d565b80601f016020809104026020016040519081016040528092919081815260200182805461030c9061193d565b80156103595780601f1061032e57610100808354040283529160200191610359565b820191906000526020600020905b81548152906001019060200180831161033c57829003601f168201915b50505050509050919050565b61036d61079c565b6001600160a01b0316856001600160a01b0316148061039357506103938561019261079c565b6103fa5760405162461bcd60e51b815260206004820152603260248201527f455243313135353a207472616e736665722063616c6c6572206973206e6f74206044820152711bdddb995c881b9bdc88185c1c1c9bdd995960721b606482015260840161024e565b61040785858585856107a1565b5050505050565b606081518351146104735760405162461bcd60e51b815260206004820152602960248201527f455243313135353a206163636f756e747320616e6420696473206c656e677468604482015268040dad2e6dac2e8c6d60bb1b606482015260840161024e565b6000835167ffffffffffffffff81111561049d57634e487b7160e01b600052604160045260246000fd5b6040519080825280602002602001820160405280156104c6578160200160208202803683370190505b50905060005b84518110156105685761052d8582815181106104f857634e487b7160e01b600052603260045260246000fd5b602002602001015185838151811061052057634e487b7160e01b600052603260045260246000fd5b60200260200101516101e6565b82828151811061054d57634e487b7160e01b600052603260045260246000fd5b6020908102919091010152610561816119a5565b90506104cc565b509392505050565b61057861079c565b6001600160a01b0316836001600160a01b0316148061059e575061059e8361019261079c565b6105ba5760405162461bcd60e51b815260040161024e9061179e565b6105c5838383610964565b505050565b6105d684848484610b06565b50505050565b816001600160a01b03166105ee61079c565b6001600160a01b031614156106575760405162461bcd60e51b815260206004820152602960248201527f455243313135353a2073657474696e6720617070726f76616c20737461747573604482015268103337b91039b2b63360b91b606482015260840161024e565b806001600061066461079c565b6001600160a01b03908116825260208083019390935260409182016000908120918716808252919093529120805460ff1916921515929092179091556106a861079c565b6001600160a01b03167f17307eab39ab6107e8899845ad3d59bd9653f200f220920489ca2b5937696c31836040516106e4911515815260200190565b60405180910390a35050565b6106f861079c565b6001600160a01b0316856001600160a01b0316148061071e575061071e8561019261079c565b61073a5760405162461bcd60e51b815260040161024e9061179e565b6104078585858585610c1b565b61074f61079c565b6001600160a01b0316836001600160a01b0316148061077557506107758361019261079c565b6107915760405162461bcd60e51b815260040161024e9061179e565b6105c5838383610d43565b335b90565b81518351146107c25760405162461bcd60e51b815260040161024e906118b9565b6001600160a01b0384166107e85760405162461bcd60e51b815260040161024e906117e7565b60006107f261079c565b905060005b84518110156108f657600085828151811061082257634e487b7160e01b600052603260045260246000fd5b60200260200101519050600085838151811061084e57634e487b7160e01b600052603260045260246000fd5b602090810291909101810151600084815280835260408082206001600160a01b038e16835290935291909120549091508181101561089e5760405162461bcd60e51b815260040161024e9061186f565b6000838152602081815260408083206001600160a01b038e8116855292528083208585039055908b168252812080548492906108db908490611925565b92505081905550505050806108ef906119a5565b90506107f7565b50846001600160a01b0316866001600160a01b0316826001600160a01b03167f4a39dc06d4c0dbc64b70af90fd698a233a518aa5d07e595d983b8c0526c8f7fb87876040516109469291906116d1565b60405180910390a461095c818787878787610e50565b505050505050565b6001600160a01b03831661098a5760405162461bcd60e51b815260040161024e9061182c565b80518251146109ab5760405162461bcd60e51b815260040161024e906118b9565b60006109b561079c565b604080516020810190915260009052905060005b8351811015610aa75760008482815181106109f457634e487b7160e01b600052603260045260246000fd5b602002602001015190506000848381518110610a2057634e487b7160e01b600052603260045260246000fd5b602090810291909101810151600084815280835260408082206001600160a01b038c168352909352919091205490915081811015610a705760405162461bcd60e51b815260040161024e9061175a565b6000928352602083815260408085206001600160a01b038b1686529091529092209103905580610a9f816119a5565b9150506109c9565b5060006001600160a01b0316846001600160a01b0316826001600160a01b03167f4a39dc06d4c0dbc64b70af90fd698a233a518aa5d07e595d983b8c0526c8f7fb8686604051610af89291906116d1565b60405180910390a450505050565b6001600160a01b038416610b665760405162461bcd60e51b815260206004820152602160248201527f455243313135353a206d696e7420746f20746865207a65726f206164647265736044820152607360f81b606482015260840161024e565b6000610b7061079c565b9050610b8b81600087610b8288610fbb565b61040788610fbb565b6000848152602081815260408083206001600160a01b038916845290915281208054859290610bbb908490611925565b909155505060408051858152602081018590526001600160a01b0380881692600092918516917fc3d58168c5ae7397731d063d5bbf3d657854427343f4c083240f7aacaa2d0f62910160405180910390a461040781600087878787611014565b6001600160a01b038416610c415760405162461bcd60e51b815260040161024e906117e7565b6000610c4b61079c565b9050610c5c818787610b8288610fbb565b6000848152602081815260408083206001600160a01b038a16845290915290205483811015610c9d5760405162461bcd60e51b815260040161024e9061186f565b6000858152602081815260408083206001600160a01b038b8116855292528083208785039055908816825281208054869290610cda908490611925565b909155505060408051868152602081018690526001600160a01b03808916928a821692918616917fc3d58168c5ae7397731d063d5bbf3d657854427343f4c083240f7aacaa2d0f62910160405180910390a4610d3a828888888888611014565b50505050505050565b6001600160a01b038316610d695760405162461bcd60e51b815260040161024e9061182c565b6000610d7361079c565b9050610da481856000610d8587610fbb565b610d8e87610fbb565b5050604080516020810190915260009052505050565b6000838152602081815260408083206001600160a01b038816845290915290205482811015610de55760405162461bcd60e51b815260040161024e9061175a565b6000848152602081815260408083206001600160a01b03898116808652918452828520888703905582518981529384018890529092908616917fc3d58168c5ae7397731d063d5bbf3d657854427343f4c083240f7aacaa2d0f62910160405180910390a45050505050565b6001600160a01b0384163b1561095c5760405163bc197c8160e01b81526001600160a01b0385169063bc197c8190610e94908990899088908890889060040161161b565b602060405180830381600087803b158015610eae57600080fd5b505af1925050508015610ede575060408051601f3d908101601f19168201909252610edb91810190611562565b60015b610f8b57610eea6119ec565b806308c379a01415610f245750610eff611a03565b80610f0a5750610f26565b8060405162461bcd60e51b815260040161024e91906116ff565b505b60405162461bcd60e51b815260206004820152603460248201527f455243313135353a207472616e7366657220746f206e6f6e20455243313135356044820152732932b1b2b4bb32b91034b6b83632b6b2b73a32b960611b606482015260840161024e565b6001600160e01b0319811663bc197c8160e01b14610d3a5760405162461bcd60e51b815260040161024e90611712565b6040805160018082528183019092526060916000919060208083019080368337019050509050828160008151811061100357634e487b7160e01b600052603260045260246000fd5b602090810291909101015292915050565b6001600160a01b0384163b1561095c5760405163f23a6e6160e01b81526001600160a01b0385169063f23a6e61906110589089908990889088908890600401611679565b602060405180830381600087803b15801561107257600080fd5b505af19250505080156110a2575060408051601f3d908101601f1916820190925261109f91810190611562565b60015b6110ae57610eea6119ec565b6001600160e01b0319811663f23a6e6160e01b14610d3a5760405162461bcd60e51b815260040161024e90611712565b80356001600160a01b03811681146102cc57600080fd5b600082601f830112611105578081fd5b8135602061111282611901565b60405161111f8282611978565b83815282810191508583018385028701840188101561113c578586fd5b855b8581101561115a5781358452928401929084019060010161113e565b5090979650505050505050565b600082601f830112611177578081fd5b813567ffffffffffffffff811115611191576111916119d6565b6040516111a8601f8301601f191660200182611978565b8181528460208386010111156111bc578283fd5b816020850160208301379081016020019190915292915050565b600080604083850312156111e8578182fd5b6111f1836110de565b91506111ff602084016110de565b90509250929050565b600080600080600060a0868803121561121f578081fd5b611228866110de565b9450611236602087016110de565b9350604086013567ffffffffffffffff80821115611252578283fd5b61125e89838a016110f5565b94506060880135915080821115611273578283fd5b61127f89838a016110f5565b93506080880135915080821115611294578283fd5b506112a188828901611167565b9150509295509295909350565b600080600080600060a086880312156112c5578081fd5b6112ce866110de565b94506112dc602087016110de565b93506040860135925060608601359150608086013567ffffffffffffffff811115611305578182fd5b6112a188828901611167565b600080600060608486031215611325578283fd5b61132e846110de565b9250602084013567ffffffffffffffff8082111561134a578384fd5b611356878388016110f5565b9350604086013591508082111561136b578283fd5b50611378868287016110f5565b9150509250925092565b60008060408385031215611394578182fd5b61139d836110de565b9150602083013580151581146113b1578182fd5b809150509250929050565b600080604083850312156113ce578182fd5b6113d7836110de565b946020939093013593505050565b6000806000606084860312156113f9578283fd5b611402846110de565b95602085013595506040909401359392505050565b6000806000806080858703121561142c578384fd5b611435856110de565b93506020850135925060408501359150606085013567ffffffffffffffff81111561145e578182fd5b61146a87828801611167565b91505092959194509250565b60008060408385031215611488578182fd5b823567ffffffffffffffff8082111561149f578384fd5b818501915085601f8301126114b2578384fd5b813560206114bf82611901565b6040516114cc8282611978565b8381528281019150858301838502870184018b10156114e9578889fd5b8896505b84871015611512576114fe816110de565b8352600196909601959183019183016114ed565b5096505086013592505080821115611528578283fd5b50611535858286016110f5565b9150509250929050565b600060208284031215611550578081fd5b813561155b81611a95565b9392505050565b600060208284031215611573578081fd5b815161155b81611a95565b60006020828403121561158f578081fd5b5035919050565b6000815180845260208085019450808401835b838110156115c5578151875295820195908201906001016115a9565b509495945050505050565b60008151808452815b818110156115f5576020818501810151868301820152016115d9565b818111156116065782602083870101525b50601f01601f19169290920160200192915050565b6001600160a01b0386811682528516602082015260a06040820181905260009061164790830186611596565b82810360608401526116598186611596565b9050828103608084015261166d81856115d0565b98975050505050505050565b6001600160a01b03868116825285166020820152604081018490526060810183905260a0608082018190526000906116b3908301846115d0565b979650505050505050565b60006020825261155b6020830184611596565b6000604082526116e46040830185611596565b82810360208401526116f68185611596565b95945050505050565b60006020825261155b60208301846115d0565b60208082526028908201527f455243313135353a204552433131353552656365697665722072656a656374656040820152676420746f6b656e7360c01b606082015260800190565b60208082526024908201527f455243313135353a206275726e20616d6f756e7420657863656564732062616c604082015263616e636560e01b606082015260800190565b60208082526029908201527f455243313135353a2063616c6c6572206973206e6f74206f776e6572206e6f7260408201526808185c1c1c9bdd995960ba1b606082015260800190565b60208082526025908201527f455243313135353a207472616e7366657220746f20746865207a65726f206164604082015264647265737360d81b606082015260800190565b60208082526023908201527f455243313135353a206275726e2066726f6d20746865207a65726f206164647260408201526265737360e81b606082015260800190565b6020808252602a908201527f455243313135353a20696e73756666696369656e742062616c616e636520666f60408201526939103a3930b739b332b960b11b606082015260800190565b60208082526028908201527f455243313135353a2069647320616e6420616d6f756e7473206c656e677468206040820152670dad2e6dac2e8c6d60c31b606082015260800190565b600067ffffffffffffffff82111561191b5761191b6119d6565b5060209081020190565b60008219821115611938576119386119c0565b500190565b60028104600182168061195157607f821691505b6020821081141561197257634e487b7160e01b600052602260045260246000fd5b50919050565b601f8201601f1916810167ffffffffffffffff8111828210171561199e5761199e6119d6565b6040525050565b60006000198214156119b9576119b96119c0565b5060010190565b634e487b7160e01b600052601160045260246000fd5b634e487b7160e01b600052604160045260246000fd5b600060033d111561079e57600481823e5160e01c90565b600060443d1015611a135761079e565b6040516003193d81016004833e81513d67ffffffffffffffff8160248401118184111715611a4557505050505061079e565b8285019150815181811115611a5f5750505050505061079e565b843d8701016020828501011115611a7b5750505050505061079e565b611a8a60208286010187611978565b509094505050505090565b6001600160e01b031981168114611aab57600080fd5b5056fea2646970667358221220584015f28a9bdec286861254f4f37504db284dff149d24e134769296f9e9dab364736f6c63430008020033",
  "immutableReferences": {},
  "source": "// SPDX-License-Identifier: MIT\n\npragma solidity ^0.8.0;\n\nimport \"../token/ERC1155/extensions/ERC1155Burnable.sol\";\n\ncontract ERC1155BurnableMock is ERC1155Burnable {\n    constructor(string memory uri) ERC1155(uri) {}\n\n    function mint(\n        address to,\n        uint256 id,\n        uint256 value,\n        bytes memory data\n    ) public {\n        _mint(to, id, value, data);\n    }\n}\n",
  "sourcePath": "/Users/shangyihuang/Documents/SocialFi/client/contracts/contracts/mocks/ERC1155BurnableMock.sol",
  "compiler": {
    "name": "solc",
    "version": "0.8.2+commit.661d1103.Emscripten.clang"
  },
  "schemaVersion": "3.4.7",
  "updatedAt": "2022-05-05T11:49:18.232Z",
  "devdoc": {
    "kind": "dev",
    "methods": {
      "balanceOf(address,uint256)": {
        "details": "See {IERC1155-balanceOf}. Requirements: - `account` cannot be the zero address."
      },
      "balanceOfBatch(address[],uint256[])": {
        "details": "See {IERC1155-balanceOfBatch}. Requirements: - `accounts` and `ids` must have the same length."
      },
      "isApprovedForAll(address,address)": {
        "details": "See {IERC1155-isApprovedForAll}."
      },
      "safeBatchTransferFrom(address,address,uint256[],uint256[],bytes)": {
        "details": "See {IERC1155-safeBatchTransferFrom}."
      },
      "safeTransferFrom(address,address,uint256,uint256,bytes)": {
        "details": "See {IERC1155-safeTransferFrom}."
      },
      "setApprovalForAll(address,bool)": {
        "details": "See {IERC1155-setApprovalForAll}."
      },
      "supportsInterface(bytes4)": {
        "details": "See {IERC165-supportsInterface}."
      },
      "uri(uint256)": {
        "details": "See {IERC1155MetadataURI-uri}. This implementation returns the same URI for *all* token types. It relies on the token type ID substitution mechanism https://eips.ethereum.org/EIPS/eip-1155#metadata[defined in the EIP]. Clients calling this function must replace the `\\{id\\}` substring with the actual token type ID."
      }
    },
    "version": 1
  },
  "userdoc": {
    "kind": "user",
    "methods": {},
    "version": 1
  }
}