{
  "contractName": "ERC20SnapshotMock",
  "abi": [
    {
      "inputs": [
        {
          "internalType": "string",
          "name": "name",
          "type": "string"
        },
        {
          "internalType": "string",
          "name": "symbol",
          "type": "string"
        },
        {
          "internalType": "address",
          "name": "initialAccount",
          "type": "address"
        },
        {
          "internalType": "uint256",
          "name": "initialBalance",
          "type": "uint256"
        }
      ],
      "stateMutability": "nonpayable",
      "type": "constructor"
    },
    {
      "anonymous": false,
      "inputs": [
        {
          "indexed": true,
          "internalType": "address",
          "name": "owner",
          "type": "address"
        },
        {
          "indexed": true,
          "internalType": "address",
          "name": "spender",
          "type": "address"
        },
        {
          "indexed": false,
          "internalType": "uint256",
          "name": "value",
          "type": "uint256"
        }
      ],
      "name": "Approval",
      "type": "event"
    },
    {
      "anonymous": false,
      "inputs": [
        {
          "indexed": false,
          "internalType": "uint256",
          "name": "id",
          "type": "uint256"
        }
      ],
      "name": "Snapshot",
      "type": "event"
    },
    {
      "anonymous": false,
      "inputs": [
        {
          "indexed": true,
          "internalType": "address",
          "name": "from",
          "type": "address"
        },
        {
          "indexed": true,
          "internalType": "address",
          "name": "to",
          "type": "address"
        },
        {
          "indexed": false,
          "internalType": "uint256",
          "name": "value",
          "type": "uint256"
        }
      ],
      "name": "Transfer",
      "type": "event"
    },
    {
      "inputs": [
        {
          "internalType": "address",
          "name": "owner",
          "type": "address"
        },
        {
          "internalType": "address",
          "name": "spender",
          "type": "address"
        }
      ],
      "name": "allowance",
      "outputs": [
        {
          "internalType": "uint256",
          "name": "",
          "type": "uint256"
        }
      ],
      "stateMutability": "view",
      "type": "function"
    },
    {
      "inputs": [
        {
          "internalType": "address",
          "name": "spender",
          "type": "address"
        },
        {
          "internalType": "uint256",
          "name": "amount",
          "type": "uint256"
        }
      ],
      "name": "approve",
      "outputs": [
        {
          "internalType": "bool",
          "name": "",
          "type": "bool"
        }
      ],
      "stateMutability": "nonpayable",
      "type": "function"
    },
    {
      "inputs": [
        {
          "internalType": "address",
          "name": "account",
          "type": "address"
        }
      ],
      "name": "balanceOf",
      "outputs": [
        {
          "internalType": "uint256",
          "name": "",
          "type": "uint256"
        }
      ],
      "stateMutability": "view",
      "type": "function"
    },
    {
      "inputs": [
        {
          "internalType": "address",
          "name": "account",
          "type": "address"
        },
        {
          "internalType": "uint256",
          "name": "snapshotId",
          "type": "uint256"
        }
      ],
      "name": "balanceOfAt",
      "outputs": [
        {
          "internalType": "uint256",
          "name": "",
          "type": "uint256"
        }
      ],
      "stateMutability": "view",
      "type": "function"
    },
    {
      "inputs": [],
      "name": "decimals",
      "outputs": [
        {
          "internalType": "uint8",
          "name": "",
          "type": "uint8"
        }
      ],
      "stateMutability": "view",
      "type": "function"
    },
    {
      "inputs": [
        {
          "internalType": "address",
          "name": "spender",
          "type": "address"
        },
        {
          "internalType": "uint256",
          "name": "subtractedValue",
          "type": "uint256"
        }
      ],
      "name": "decreaseAllowance",
      "outputs": [
        {
          "internalType": "bool",
          "name": "",
          "type": "bool"
        }
      ],
      "stateMutability": "nonpayable",
      "type": "function"
    },
    {
      "inputs": [
        {
          "internalType": "address",
          "name": "spender",
          "type": "address"
        },
        {
          "internalType": "uint256",
          "name": "addedValue",
          "type": "uint256"
        }
      ],
      "name": "increaseAllowance",
      "outputs": [
        {
          "internalType": "bool",
          "name": "",
          "type": "bool"
        }
      ],
      "stateMutability": "nonpayable",
      "type": "function"
    },
    {
      "inputs": [],
      "name": "name",
      "outputs": [
        {
          "internalType": "string",
          "name": "",
          "type": "string"
        }
      ],
      "stateMutability": "view",
      "type": "function"
    },
    {
      "inputs": [],
      "name": "symbol",
      "outputs": [
        {
          "internalType": "string",
          "name": "",
          "type": "string"
        }
      ],
      "stateMutability": "view",
      "type": "function"
    },
    {
      "inputs": [],
      "name": "totalSupply",
      "outputs": [
        {
          "internalType": "uint256",
          "name": "",
          "type": "uint256"
        }
      ],
      "stateMutability": "view",
      "type": "function"
    },
    {
      "inputs": [
        {
          "internalType": "uint256",
          "name": "snapshotId",
          "type": "uint256"
        }
      ],
      "name": "totalSupplyAt",
      "outputs": [
        {
          "internalType": "uint256",
          "name": "",
          "type": "uint256"
        }
      ],
      "stateMutability": "view",
      "type": "function"
    },
    {
      "inputs": [
        {
          "internalType": "address",
          "name": "recipient",
          "type": "address"
        },
        {
          "internalType": "uint256",
          "name": "amount",
          "type": "uint256"
        }
      ],
      "name": "transfer",
      "outputs": [
        {
          "internalType": "bool",
          "name": "",
          "type": "bool"
        }
      ],
      "stateMutability": "nonpayable",
      "type": "function"
    },
    {
      "inputs": [
        {
          "internalType": "address",
          "name": "sender",
          "type": "address"
        },
        {
          "internalType": "address",
          "name": "recipient",
          "type": "address"
        },
        {
          "internalType": "uint256",
          "name": "amount",
          "type": "uint256"
        }
      ],
      "name": "transferFrom",
      "outputs": [
        {
          "internalType": "bool",
          "name": "",
          "type": "bool"
        }
      ],
      "stateMutability": "nonpayable",
      "type": "function"
    },
    {
      "inputs": [],
      "name": "snapshot",
      "outputs": [],
      "stateMutability": "nonpayable",
      "type": "function"
    },
    {
      "inputs": [
        {
          "internalType": "address",
          "name": "account",
          "type": "address"
        },
        {
          "internalType": "uint256",
          "name": "amount",
          "type": "uint256"
        }
      ],
      "name": "mint",
      "outputs": [],
      "stateMutability": "nonpayable",
      "type": "function"
    },
    {
      "inputs": [
        {
          "internalType": "address",
          "name": "account",
          "type": "address"
        },
        {
          "internalType": "uint256",
          "name": "amount",
          "type": "uint256"
        }
      ],
      "name": "burn",
      "outputs": [],
      "stateMutability": "nonpayable",
      "type": "function"
    }
  ],
  "bytecode": "0x60806040523480156200001157600080fd5b50604051620015f2380380620015f2833981016040819052620000349162000472565b8351849084906200004d90600390602085019062000319565b5080516200006390600490602084019062000319565b5050506200007882826200008260201b60201c565b505050506200059f565b6001600160a01b038216620000dd5760405162461bcd60e51b815260206004820152601f60248201527f45524332303a206d696e7420746f20746865207a65726f206164647265737300604482015260640160405180910390fd5b620000eb6000838362000178565b8060026000828254620000ff919062000501565b90915550506001600160a01b038216600090815260208190526040812080548392906200012e90849062000501565b90915550506040518181526001600160a01b038316906000907fddf252ad1be2c89b69c2b068fc378daa952ba7f163c4a11628f55a4df523b3ef9060200160405180910390a35050565b62000190838383620001ea60201b6200055c1760201c565b6001600160a01b038316620001ba57620001aa82620001ef565b620001b462000220565b620001ea565b6001600160a01b038216620001d457620001aa83620001ef565b620001df83620001ef565b620001ea82620001ef565b505050565b6001600160a01b03811660009081526005602052604090206200021d90620002178362000232565b62000251565b50565b6200023060066200021760025490565b565b6001600160a01b0381166000908152602081905260409020545b919050565b60006200025d620002a0565b9050806200026b84620002be565b1015620001ea578254600180820185556000858152602080822090930193909355938401805494850181558252902090910155565b6000620002b960086200031560201b620005611760201c565b905090565b8054600090620002d1575060006200024c565b81548290620002e3906001906200051c565b815481106200030257634e487b7160e01b600052603260045260246000fd5b906000526020600020015490506200024c565b5490565b828054620003279062000536565b90600052602060002090601f0160209004810192826200034b576000855562000396565b82601f106200036657805160ff191683800117855562000396565b8280016001018555821562000396579182015b828111156200039657825182559160200191906001019062000379565b50620003a4929150620003a8565b5090565b5b80821115620003a45760008155600101620003a9565b600082601f830112620003d0578081fd5b81516001600160401b0380821115620003ed57620003ed62000589565b604051601f8301601f19908116603f0116810190828211818310171562000418576200041862000589565b8160405283815260209250868385880101111562000434578485fd5b8491505b8382101562000457578582018301518183018401529082019062000438565b838211156200046857848385830101525b9695505050505050565b6000806000806080858703121562000488578384fd5b84516001600160401b03808211156200049f578586fd5b620004ad88838901620003bf565b95506020870151915080821115620004c3578485fd5b50620004d287828801620003bf565b604087015190945090506001600160a01b0381168114620004f1578283fd5b6060959095015193969295505050565b6000821982111562000517576200051762000573565b500190565b60008282101562000531576200053162000573565b500390565b6002810460018216806200054b57607f821691505b602082108114156200056d57634e487b7160e01b600052602260045260246000fd5b50919050565b634e487b7160e01b600052601160045260246000fd5b634e487b7160e01b600052604160045260246000fd5b61104380620005af6000396000f3fe608060405234801561001057600080fd5b50600436106101005760003560e01c806370a08231116100975780639dc29fac116100665780639dc29fac146101eb578063a457c2d7146101fe578063a9059cbb14610211578063dd62ed3e1461022457610100565b806370a08231146101b557806395d89b41146101c85780639711715a146101d0578063981b24d0146101d857610100565b8063313ce567116100d3578063313ce5671461016b578063395093511461017a57806340c10f191461018d5780634ee2cd7e146101a257610100565b806306fdde0314610105578063095ea7b31461012357806318160ddd1461014657806323b872dd14610158575b600080fd5b61010d61025d565b60405161011a9190610f1a565b60405180910390f35b610136610131366004610ed9565b6102ef565b604051901515815260200161011a565b6002545b60405190815260200161011a565b610136610166366004610e9e565b610306565b6040516012815260200161011a565b610136610188366004610ed9565b6103b5565b6101a061019b366004610ed9565b6103f1565b005b61014a6101b0366004610ed9565b6103ff565b61014a6101c3366004610e52565b610448565b61010d610467565b6101a0610476565b61014a6101e6366004610f02565b610481565b6101a06101f9366004610ed9565b6104ac565b61013661020c366004610ed9565b6104b6565b61013661021f366004610ed9565b61054f565b61014a610232366004610e6c565b6001600160a01b03918216600090815260016020908152604080832093909416825291909152205490565b60606003805461026c90610fbc565b80601f016020809104026020016040519081016040528092919081815260200182805461029890610fbc565b80156102e55780601f106102ba576101008083540402835291602001916102e5565b820191906000526020600020905b8154815290600101906020018083116102c857829003601f168201915b5050505050905090565b60006102fc338484610565565b5060015b92915050565b6000610313848484610689565b6001600160a01b03841660009081526001602090815260408083203384529091529020548281101561039d5760405162461bcd60e51b815260206004820152602860248201527f45524332303a207472616e7366657220616d6f756e74206578636565647320616044820152676c6c6f77616e636560c01b60648201526084015b60405180910390fd5b6103aa8533858403610565565b506001949350505050565b3360008181526001602090815260408083206001600160a01b038716845290915281205490916102fc9185906103ec908690610f6d565b610565565b6103fb8282610863565b5050565b6001600160a01b03821660009081526005602052604081208190819061042690859061094f565b915091508161043d5761043885610448565b61043f565b805b95945050505050565b6001600160a01b0381166000908152602081905260409020545b919050565b60606004805461026c90610fbc565b61047e610a54565b50565b600080600061049184600661094f565b91509150816104a2576002546104a4565b805b949350505050565b6103fb8282610aae565b3360009081526001602090815260408083206001600160a01b0386168452909152812054828110156105385760405162461bcd60e51b815260206004820152602560248201527f45524332303a2064656372656173656420616c6c6f77616e63652062656c6f77604482015264207a65726f60d81b6064820152608401610394565b6105453385858403610565565b5060019392505050565b60006102fc338484610689565b505050565b5490565b6001600160a01b0383166105c75760405162461bcd60e51b8152602060048201526024808201527f45524332303a20617070726f76652066726f6d20746865207a65726f206164646044820152637265737360e01b6064820152608401610394565b6001600160a01b0382166106285760405162461bcd60e51b815260206004820152602260248201527f45524332303a20617070726f766520746f20746865207a65726f206164647265604482015261737360f01b6064820152608401610394565b6001600160a01b0383811660008181526001602090815260408083209487168084529482529182902085905590518481527f8c5be1e5ebec7d5bd14f71427d1e84f3dd0314c0f7b2291e5b200ac8c7c3b925910160405180910390a3505050565b6001600160a01b0383166106ed5760405162461bcd60e51b815260206004820152602560248201527f45524332303a207472616e736665722066726f6d20746865207a65726f206164604482015264647265737360d81b6064820152608401610394565b6001600160a01b03821661074f5760405162461bcd60e51b815260206004820152602360248201527f45524332303a207472616e7366657220746f20746865207a65726f206164647260448201526265737360e81b6064820152608401610394565b61075a838383610c08565b6001600160a01b038316600090815260208190526040902054818110156107d25760405162461bcd60e51b815260206004820152602660248201527f45524332303a207472616e7366657220616d6f756e7420657863656564732062604482015265616c616e636560d01b6064820152608401610394565b6001600160a01b03808516600090815260208190526040808220858503905591851681529081208054849290610809908490610f6d565b92505081905550826001600160a01b0316846001600160a01b03167fddf252ad1be2c89b69c2b068fc378daa952ba7f163c4a11628f55a4df523b3ef8460405161085591815260200190565b60405180910390a350505050565b6001600160a01b0382166108b95760405162461bcd60e51b815260206004820152601f60248201527f45524332303a206d696e7420746f20746865207a65726f2061646472657373006044820152606401610394565b6108c560008383610c08565b80600260008282546108d79190610f6d565b90915550506001600160a01b03821660009081526020819052604081208054839290610904908490610f6d565b90915550506040518181526001600160a01b038316906000907fddf252ad1be2c89b69c2b068fc378daa952ba7f163c4a11628f55a4df523b3ef9060200160405180910390a36103fb565b6000806000841161099b5760405162461bcd60e51b815260206004820152601660248201527504552433230536e617073686f743a20696420697320360541b6044820152606401610394565b6109a3610c55565b8411156109f25760405162461bcd60e51b815260206004820152601d60248201527f4552433230536e617073686f743a206e6f6e6578697374656e742069640000006044820152606401610394565b60006109fe8486610c65565b8454909150811415610a17576000809250925050610a4d565b6001846001018281548110610a3c57634e487b7160e01b600052603260045260246000fd5b906000526020600020015492509250505b9250929050565b6000610a64600880546001019055565b6000610a6e610c55565b90507f8030e83b04d87bef53480e26263266d6ca66863aa8506aca6f2559d18aa1cb6781604051610aa191815260200190565b60405180910390a1905090565b6001600160a01b038216610b0e5760405162461bcd60e51b815260206004820152602160248201527f45524332303a206275726e2066726f6d20746865207a65726f206164647265736044820152607360f81b6064820152608401610394565b610b1a82600083610c08565b6001600160a01b03821660009081526020819052604090205481811015610b8e5760405162461bcd60e51b815260206004820152602260248201527f45524332303a206275726e20616d6f756e7420657863656564732062616c616e604482015261636560f01b6064820152608401610394565b6001600160a01b0383166000908152602081905260408120838303905560028054849290610bbd908490610fa5565b90915550506040518281526000906001600160a01b038516907fddf252ad1be2c89b69c2b068fc378daa952ba7f163c4a11628f55a4df523b3ef9060200160405180910390a361055c565b6001600160a01b038316610c2c57610c1f82610d44565b610c27610d6e565b61055c565b6001600160a01b038216610c4357610c1f83610d44565b610c4c83610d44565b61055c82610d44565b6000610c6060085490565b905090565b8154600090610c7657506000610300565b82546000905b80821015610ce0576000610c908383610d7e565b905084868281548110610cb357634e487b7160e01b600052603260045260246000fd5b90600052602060002001541115610ccc57809150610cda565b610cd7816001610f6d565b92505b50610c7c565b600082118015610d2357508385610cf8600185610fa5565b81548110610d1657634e487b7160e01b600052603260045260246000fd5b9060005260206000200154145b15610d3c57610d33600183610fa5565b92505050610300565b509050610300565b6001600160a01b038116600090815260056020526040902061047e90610d6983610448565b610da0565b610d7c6006610d6960025490565b565b6000610d8d6002848418610f85565b610d9990848416610f6d565b9392505050565b6000610daa610c55565b905080610db684610dea565b101561055c578254600180820185556000858152602080822090930193909355938401805494850181558252902090910155565b8054600090610dfb57506000610462565b81548290610e0b90600190610fa5565b81548110610e2957634e487b7160e01b600052603260045260246000fd5b90600052602060002001549050610462565b80356001600160a01b038116811461046257600080fd5b600060208284031215610e63578081fd5b610d9982610e3b565b60008060408385031215610e7e578081fd5b610e8783610e3b565b9150610e9560208401610e3b565b90509250929050565b600080600060608486031215610eb2578081fd5b610ebb84610e3b565b9250610ec960208501610e3b565b9150604084013590509250925092565b60008060408385031215610eeb578182fd5b610ef483610e3b565b946020939093013593505050565b600060208284031215610f13578081fd5b5035919050565b6000602080835283518082850152825b81811015610f4657858101830151858201604001528201610f2a565b81811115610f575783604083870101525b50601f01601f1916929092016040019392505050565b60008219821115610f8057610f80610ff7565b500190565b600082610fa057634e487b7160e01b81526012600452602481fd5b500490565b600082821015610fb757610fb7610ff7565b500390565b600281046001821680610fd057607f821691505b60208210811415610ff157634e487b7160e01b600052602260045260246000fd5b50919050565b634e487b7160e01b600052601160045260246000fdfea2646970667358221220d249eb24a91a78501e40cda88da957a726a93a8d1a4fcb78bd26c9dd77e197d064736f6c63430008020033",
  "immutableReferences": {},
  "source": "// SPDX-License-Identifier: MIT\n\npragma solidity ^0.8.0;\n\nimport \"../token/ERC20/extensions/ERC20Snapshot.sol\";\n\ncontract ERC20SnapshotMock is ERC20Snapshot {\n    constructor(\n        string memory name,\n        string memory symbol,\n        address initialAccount,\n        uint256 initialBalance\n    ) ERC20(name, symbol) {\n        _mint(initialAccount, initialBalance);\n    }\n\n    function snapshot() public {\n        _snapshot();\n    }\n\n    function mint(address account, uint256 amount) public {\n        _mint(account, amount);\n    }\n\n    function burn(address account, uint256 amount) public {\n        _burn(account, amount);\n    }\n}\n",
  "sourcePath": "/Users/shangyihuang/Documents/SocialFi/client/contracts/contracts/mocks/ERC20SnapshotMock.sol",
  "compiler": {
    "name": "solc",
    "version": "0.8.2+commit.661d1103.Emscripten.clang"
  },
  "schemaVersion": "3.4.7",
  "updatedAt": "2022-05-05T11:49:18.460Z",
  "devdoc": {
    "kind": "dev",
    "methods": {
      "allowance(address,address)": {
        "details": "See {IERC20-allowance}."
      },
      "approve(address,uint256)": {
        "details": "See {IERC20-approve}. Requirements: - `spender` cannot be the zero address."
      },
      "balanceOf(address)": {
        "details": "See {IERC20-balanceOf}."
      },
      "balanceOfAt(address,uint256)": {
        "details": "Retrieves the balance of `account` at the time `snapshotId` was created."
      },
      "decimals()": {
        "details": "Returns the number of decimals used to get its user representation. For example, if `decimals` equals `2`, a balance of `505` tokens should be displayed to a user as `5.05` (`505 / 10 ** 2`). Tokens usually opt for a value of 18, imitating the relationship between Ether and Wei. This is the value {ERC20} uses, unless this function is overridden; NOTE: This information is only used for _display_ purposes: it in no way affects any of the arithmetic of the contract, including {IERC20-balanceOf} and {IERC20-transfer}."
      },
      "decreaseAllowance(address,uint256)": {
        "details": "Atomically decreases the allowance granted to `spender` by the caller. This is an alternative to {approve} that can be used as a mitigation for problems described in {IERC20-approve}. Emits an {Approval} event indicating the updated allowance. Requirements: - `spender` cannot be the zero address. - `spender` must have allowance for the caller of at least `subtractedValue`."
      },
      "increaseAllowance(address,uint256)": {
        "details": "Atomically increases the allowance granted to `spender` by the caller. This is an alternative to {approve} that can be used as a mitigation for problems described in {IERC20-approve}. Emits an {Approval} event indicating the updated allowance. Requirements: - `spender` cannot be the zero address."
      },
      "name()": {
        "details": "Returns the name of the token."
      },
      "symbol()": {
        "details": "Returns the symbol of the token, usually a shorter version of the name."
      },
      "totalSupply()": {
        "details": "See {IERC20-totalSupply}."
      },
      "totalSupplyAt(uint256)": {
        "details": "Retrieves the total supply at the time `snapshotId` was created."
      },
      "transfer(address,uint256)": {
        "details": "See {IERC20-transfer}. Requirements: - `recipient` cannot be the zero address. - the caller must have a balance of at least `amount`."
      },
      "transferFrom(address,address,uint256)": {
        "details": "See {IERC20-transferFrom}. Emits an {Approval} event indicating the updated allowance. This is not required by the EIP. See the note at the beginning of {ERC20}. Requirements: - `sender` and `recipient` cannot be the zero address. - `sender` must have a balance of at least `amount`. - the caller must have allowance for ``sender``'s tokens of at least `amount`."
      }
    },
    "version": 1
  },
  "userdoc": {
    "kind": "user",
    "methods": {},
    "version": 1
  }
}