{
  "contractName": "GovernorCompMock",
  "abi": [
    {
      "inputs": [
        {
          "internalType": "string",
          "name": "name_",
          "type": "string"
        },
        {
          "internalType": "contract ERC20VotesComp",
          "name": "token_",
          "type": "address"
        },
        {
          "internalType": "uint256",
          "name": "votingDelay_",
          "type": "uint256"
        },
        {
          "internalType": "uint256",
          "name": "votingPeriod_",
          "type": "uint256"
        }
      ],
      "stateMutability": "nonpayable",
      "type": "constructor"
    },
    {
      "anonymous": false,
      "inputs": [
        {
          "indexed": false,
          "internalType": "uint256",
          "name": "proposalId",
          "type": "uint256"
        }
      ],
      "name": "ProposalCanceled",
      "type": "event"
    },
    {
      "anonymous": false,
      "inputs": [
        {
          "indexed": false,
          "internalType": "uint256",
          "name": "proposalId",
          "type": "uint256"
        },
        {
          "indexed": false,
          "internalType": "address",
          "name": "proposer",
          "type": "address"
        },
        {
          "indexed": false,
          "internalType": "address[]",
          "name": "targets",
          "type": "address[]"
        },
        {
          "indexed": false,
          "internalType": "uint256[]",
          "name": "values",
          "type": "uint256[]"
        },
        {
          "indexed": false,
          "internalType": "string[]",
          "name": "signatures",
          "type": "string[]"
        },
        {
          "indexed": false,
          "internalType": "bytes[]",
          "name": "calldatas",
          "type": "bytes[]"
        },
        {
          "indexed": false,
          "internalType": "uint256",
          "name": "startBlock",
          "type": "uint256"
        },
        {
          "indexed": false,
          "internalType": "uint256",
          "name": "endBlock",
          "type": "uint256"
        },
        {
          "indexed": false,
          "internalType": "string",
          "name": "description",
          "type": "string"
        }
      ],
      "name": "ProposalCreated",
      "type": "event"
    },
    {
      "anonymous": false,
      "inputs": [
        {
          "indexed": false,
          "internalType": "uint256",
          "name": "proposalId",
          "type": "uint256"
        }
      ],
      "name": "ProposalExecuted",
      "type": "event"
    },
    {
      "anonymous": false,
      "inputs": [
        {
          "indexed": true,
          "internalType": "address",
          "name": "voter",
          "type": "address"
        },
        {
          "indexed": false,
          "internalType": "uint256",
          "name": "proposalId",
          "type": "uint256"
        },
        {
          "indexed": false,
          "internalType": "uint8",
          "name": "support",
          "type": "uint8"
        },
        {
          "indexed": false,
          "internalType": "uint256",
          "name": "weight",
          "type": "uint256"
        },
        {
          "indexed": false,
          "internalType": "string",
          "name": "reason",
          "type": "string"
        }
      ],
      "name": "VoteCast",
      "type": "event"
    },
    {
      "inputs": [],
      "name": "BALLOT_TYPEHASH",
      "outputs": [
        {
          "internalType": "bytes32",
          "name": "",
          "type": "bytes32"
        }
      ],
      "stateMutability": "view",
      "type": "function"
    },
    {
      "inputs": [],
      "name": "COUNTING_MODE",
      "outputs": [
        {
          "internalType": "string",
          "name": "",
          "type": "string"
        }
      ],
      "stateMutability": "pure",
      "type": "function"
    },
    {
      "inputs": [
        {
          "internalType": "uint256",
          "name": "proposalId",
          "type": "uint256"
        },
        {
          "internalType": "uint8",
          "name": "support",
          "type": "uint8"
        }
      ],
      "name": "castVote",
      "outputs": [
        {
          "internalType": "uint256",
          "name": "",
          "type": "uint256"
        }
      ],
      "stateMutability": "nonpayable",
      "type": "function"
    },
    {
      "inputs": [
        {
          "internalType": "uint256",
          "name": "proposalId",
          "type": "uint256"
        },
        {
          "internalType": "uint8",
          "name": "support",
          "type": "uint8"
        },
        {
          "internalType": "uint8",
          "name": "v",
          "type": "uint8"
        },
        {
          "internalType": "bytes32",
          "name": "r",
          "type": "bytes32"
        },
        {
          "internalType": "bytes32",
          "name": "s",
          "type": "bytes32"
        }
      ],
      "name": "castVoteBySig",
      "outputs": [
        {
          "internalType": "uint256",
          "name": "",
          "type": "uint256"
        }
      ],
      "stateMutability": "nonpayable",
      "type": "function"
    },
    {
      "inputs": [
        {
          "internalType": "uint256",
          "name": "proposalId",
          "type": "uint256"
        },
        {
          "internalType": "uint8",
          "name": "support",
          "type": "uint8"
        },
        {
          "internalType": "string",
          "name": "reason",
          "type": "string"
        }
      ],
      "name": "castVoteWithReason",
      "outputs": [
        {
          "internalType": "uint256",
          "name": "",
          "type": "uint256"
        }
      ],
      "stateMutability": "nonpayable",
      "type": "function"
    },
    {
      "inputs": [
        {
          "internalType": "address[]",
          "name": "targets",
          "type": "address[]"
        },
        {
          "internalType": "uint256[]",
          "name": "values",
          "type": "uint256[]"
        },
        {
          "internalType": "bytes[]",
          "name": "calldatas",
          "type": "bytes[]"
        },
        {
          "internalType": "bytes32",
          "name": "descriptionHash",
          "type": "bytes32"
        }
      ],
      "name": "execute",
      "outputs": [
        {
          "internalType": "uint256",
          "name": "",
          "type": "uint256"
        }
      ],
      "stateMutability": "payable",
      "type": "function"
    },
    {
      "inputs": [
        {
          "internalType": "uint256",
          "name": "proposalId",
          "type": "uint256"
        },
        {
          "internalType": "address",
          "name": "account",
          "type": "address"
        }
      ],
      "name": "hasVoted",
      "outputs": [
        {
          "internalType": "bool",
          "name": "",
          "type": "bool"
        }
      ],
      "stateMutability": "view",
      "type": "function"
    },
    {
      "inputs": [
        {
          "internalType": "address[]",
          "name": "targets",
          "type": "address[]"
        },
        {
          "internalType": "uint256[]",
          "name": "values",
          "type": "uint256[]"
        },
        {
          "internalType": "bytes[]",
          "name": "calldatas",
          "type": "bytes[]"
        },
        {
          "internalType": "bytes32",
          "name": "descriptionHash",
          "type": "bytes32"
        }
      ],
      "name": "hashProposal",
      "outputs": [
        {
          "internalType": "uint256",
          "name": "",
          "type": "uint256"
        }
      ],
      "stateMutability": "pure",
      "type": "function"
    },
    {
      "inputs": [],
      "name": "name",
      "outputs": [
        {
          "internalType": "string",
          "name": "",
          "type": "string"
        }
      ],
      "stateMutability": "view",
      "type": "function"
    },
    {
      "inputs": [
        {
          "internalType": "uint256",
          "name": "proposalId",
          "type": "uint256"
        }
      ],
      "name": "proposalDeadline",
      "outputs": [
        {
          "internalType": "uint256",
          "name": "",
          "type": "uint256"
        }
      ],
      "stateMutability": "view",
      "type": "function"
    },
    {
      "inputs": [
        {
          "internalType": "uint256",
          "name": "proposalId",
          "type": "uint256"
        }
      ],
      "name": "proposalSnapshot",
      "outputs": [
        {
          "internalType": "uint256",
          "name": "",
          "type": "uint256"
        }
      ],
      "stateMutability": "view",
      "type": "function"
    },
    {
      "inputs": [
        {
          "internalType": "uint256",
          "name": "proposalId",
          "type": "uint256"
        }
      ],
      "name": "proposalVotes",
      "outputs": [
        {
          "internalType": "uint256",
          "name": "againstVotes",
          "type": "uint256"
        },
        {
          "internalType": "uint256",
          "name": "forVotes",
          "type": "uint256"
        },
        {
          "internalType": "uint256",
          "name": "abstainVotes",
          "type": "uint256"
        }
      ],
      "stateMutability": "view",
      "type": "function"
    },
    {
      "inputs": [
        {
          "internalType": "address[]",
          "name": "targets",
          "type": "address[]"
        },
        {
          "internalType": "uint256[]",
          "name": "values",
          "type": "uint256[]"
        },
        {
          "internalType": "bytes[]",
          "name": "calldatas",
          "type": "bytes[]"
        },
        {
          "internalType": "string",
          "name": "description",
          "type": "string"
        }
      ],
      "name": "propose",
      "outputs": [
        {
          "internalType": "uint256",
          "name": "",
          "type": "uint256"
        }
      ],
      "stateMutability": "nonpayable",
      "type": "function"
    },
    {
      "inputs": [
        {
          "internalType": "uint256",
          "name": "proposalId",
          "type": "uint256"
        }
      ],
      "name": "state",
      "outputs": [
        {
          "internalType": "enum IGovernor.ProposalState",
          "name": "",
          "type": "uint8"
        }
      ],
      "stateMutability": "view",
      "type": "function"
    },
    {
      "inputs": [
        {
          "internalType": "bytes4",
          "name": "interfaceId",
          "type": "bytes4"
        }
      ],
      "name": "supportsInterface",
      "outputs": [
        {
          "internalType": "bool",
          "name": "",
          "type": "bool"
        }
      ],
      "stateMutability": "view",
      "type": "function"
    },
    {
      "inputs": [],
      "name": "token",
      "outputs": [
        {
          "internalType": "contract ERC20VotesComp",
          "name": "",
          "type": "address"
        }
      ],
      "stateMutability": "view",
      "type": "function"
    },
    {
      "inputs": [],
      "name": "version",
      "outputs": [
        {
          "internalType": "string",
          "name": "",
          "type": "string"
        }
      ],
      "stateMutability": "view",
      "type": "function"
    },
    {
      "stateMutability": "payable",
      "type": "receive"
    },
    {
      "inputs": [],
      "name": "votingDelay",
      "outputs": [
        {
          "internalType": "uint256",
          "name": "",
          "type": "uint256"
        }
      ],
      "stateMutability": "view",
      "type": "function"
    },
    {
      "inputs": [],
      "name": "votingPeriod",
      "outputs": [
        {
          "internalType": "uint256",
          "name": "",
          "type": "uint256"
        }
      ],
      "stateMutability": "view",
      "type": "function"
    },
    {
      "inputs": [
        {
          "internalType": "uint256",
          "name": "",
          "type": "uint256"
        }
      ],
      "name": "quorum",
      "outputs": [
        {
          "internalType": "uint256",
          "name": "",
          "type": "uint256"
        }
      ],
      "stateMutability": "pure",
      "type": "function"
    },
    {
      "inputs": [
        {
          "internalType": "address[]",
          "name": "targets",
          "type": "address[]"
        },
        {
          "internalType": "uint256[]",
          "name": "values",
          "type": "uint256[]"
        },
        {
          "internalType": "bytes[]",
          "name": "calldatas",
          "type": "bytes[]"
        },
        {
          "internalType": "bytes32",
          "name": "salt",
          "type": "bytes32"
        }
      ],
      "name": "cancel",
      "outputs": [
        {
          "internalType": "uint256",
          "name": "proposalId",
          "type": "uint256"
        }
      ],
      "stateMutability": "nonpayable",
      "type": "function"
    },
    {
      "inputs": [
        {
          "internalType": "address",
          "name": "account",
          "type": "address"
        },
        {
          "internalType": "uint256",
          "name": "blockNumber",
          "type": "uint256"
        }
      ],
      "name": "getVotes",
      "outputs": [
        {
          "internalType": "uint256",
          "name": "",
          "type": "uint256"
        }
      ],
      "stateMutability": "view",
      "type": "function"
    }
  ],
  "bytecode": "0x6101806040523480156200001257600080fd5b506040516200250b3803806200250b8339810160408190526200003591620001db565b828480620000576040805180820190915260018152603160f81b602082015290565b815160209283012081519183019190912060c082815260e08290524660a0818152604080517f8b73c3c69bb8fe3d512ecc4cf759cc79239f7b179b0ffacaa9a75d522b39400f818901819052818301979097526060810195909552608080860193909352308583015280518086039092018252939092019092528051908401209052610100528151620000f1916000919084019062000118565b505060601b6001600160601b03191661012052610140919091526101605250620003299050565b8280546200012690620002d6565b90600052602060002090601f0160209004810192826200014a576000855562000195565b82601f106200016557805160ff191683800117855562000195565b8280016001018555821562000195579182015b828111156200019557825182559160200191906001019062000178565b50620001a3929150620001a7565b5090565b5b80821115620001a35760008155600101620001a8565b80516001600160a01b0381168114620001d657600080fd5b919050565b60008060008060808587031215620001f1578384fd5b84516001600160401b038082111562000208578586fd5b818701915087601f8301126200021c578586fd5b81518181111562000231576200023162000313565b604051601f8201601f19908116603f011681019083821181831017156200025c576200025c62000313565b81604052828152602093508a8484870101111562000278578889fd5b8891505b828210156200029b57848201840151818301850152908301906200027c565b82821115620002ac57888484830101525b9750620002be915050878201620001be565b60408801516060909801519699909850945050505050565b600281046001821680620002eb57607f821691505b602082108114156200030d57634e487b7160e01b600052602260045260246000fd5b50919050565b634e487b7160e01b600052604160045260246000fd5b60805160a05160c05160e051610100516101205160601c6101405161016051612164620003a7600039600081816101a50152610b740152600081816102370152610b3301526000818161050301526111f80152600061131a0152600061136901526000611344015260006112c6015260006112ef01526121646000f3fe6080604052600436106101395760003560e01c806354fd4d50116100ab578063c59057e41161006f578063c59057e414610416578063dd4e2ba514610436578063deaaa7cc1461047c578063eb9019d4146104b0578063f8ce560a146104d0578063fc0c546a146104f15761015c565b806354fd4d501461036c57806356781388146103965780637b3c71d3146103b65780637d5e81e2146103d6578063c01f9e37146103f65761015c565b80633932abb1116100fd5780633932abb1146102285780633bccf4fd1461025b5780633e4f49e61461027b57806343859632146102a8578063452115d6146102f2578063544ffc9c146103125761015c565b806301ffc9a71461016157806302a251a31461019657806306fdde03146101d35780632656227d146101f55780632d63f693146102085761015c565b3661015c573061014761053d565b6001600160a01b03161461015a57600080fd5b005b600080fd5b34801561016d57600080fd5b5061018161017c366004611b56565b610542565b60405190151581526020015b60405180910390f35b3480156101a257600080fd5b507f00000000000000000000000000000000000000000000000000000000000000005b60405190815260200161018d565b3480156101df57600080fd5b506101e861057b565b60405161018d9190611e5d565b6101c5610203366004611a11565b61060d565b34801561021457600080fd5b506101c5610223366004611b7e565b61073b565b34801561023457600080fd5b507f00000000000000000000000000000000000000000000000000000000000000006101c5565b34801561026757600080fd5b506101c5610276366004611c64565b610772565b34801561028757600080fd5b5061029b610296366004611b7e565b610806565b60405161018d9190611e35565b3480156102b457600080fd5b506101816102c3366004611b96565b60008281526002602090815260408083206001600160a01b038516845260030190915290205460ff1692915050565b3480156102fe57600080fd5b506101c561030d366004611a11565b61096f565b34801561031e57600080fd5b5061035161032d366004611b7e565b60008181526002602081905260409091208054600182015491909201549193909250565b6040805193845260208401929092529082015260600161018d565b34801561037857600080fd5b506040805180820190915260018152603160f81b60208201526101e8565b3480156103a257600080fd5b506101c56103b1366004611bc1565b610986565b3480156103c257600080fd5b506101c56103d1366004611be3565b6109af565b3480156103e257600080fd5b506101c56103f1366004611a9c565b610a01565b34801561040257600080fd5b506101c5610411366004611b7e565b610c8a565b34801561042257600080fd5b506101c5610431366004611a11565b610cb9565b34801561044257600080fd5b506040805180820190915260208082527f737570706f72743d627261766f2671756f72756d3d666f722c6162737461696e908201526101e8565b34801561048857600080fd5b506101c57f150214d74d59b7d1e90c73fc22ef3d991dd0a76b046543d4d80ab92d2a50328f81565b3480156104bc57600080fd5b506101c56104cb3660046119e8565b610cf3565b3480156104dc57600080fd5b506101c56104eb366004611b7e565b50600090565b3480156104fd57600080fd5b506105257f000000000000000000000000000000000000000000000000000000000000000081565b6040516001600160a01b03909116815260200161018d565b305b90565b60006001600160e01b0319821663bf26d89760e01b148061057357506301ffc9a760e01b6001600160e01b03198316145b90505b919050565b60606000805461058a9061208b565b80601f01602080910402602001604051908101604052809291908181526020018280546105b69061208b565b80156106035780601f106105d857610100808354040283529160200191610603565b820191906000526020600020905b8154815290600101906020018083116105e657829003601f168201915b5050505050905090565b60008061061c86868686610cb9565b9050600061062982610806565b9050600481600781111561064d57634e487b7160e01b600052602160045260246000fd5b14806106785750600581600781111561067657634e487b7160e01b600052602160045260246000fd5b145b6106d35760405162461bcd60e51b815260206004820152602160248201527f476f7665726e6f723a2070726f706f73616c206e6f74207375636365737366756044820152601b60fa1b60648201526084015b60405180910390fd5b600082815260016020818152604092839020600201805460ff191690921790915590518381527f712ae1383f79ac853f8d882153778e0260ef8f03b504e2866e0593e04d2b291f910160405180910390a16107318288888888610d06565b5095945050505050565b60008181526001602090815260408083208151928301909152546001600160401b0316908190525b6001600160401b031692915050565b604080517f150214d74d59b7d1e90c73fc22ef3d991dd0a76b046543d4d80ab92d2a50328f602082015290810186905260ff8516606082015260009081906107de906107d69060800160405160208183030381529060405280519060200120610e2f565b868686610e7d565b90506107fb87828860405180602001604052806000815250610e9b565b979650505050505050565b6000818152600160208181526040808420815160a08101835281546001600160401b0390811660808301908152825283518086018552958301541685529283019390935260029092015460ff8082161580159484019490945261010090910416151560608201529061087c576007915050610576565b806060015115610890576002915050610576565b805151436001600160401b0390911611156108af576000915050610576565b602081015151436001600160401b0390911611156108d1576001915050610576565b6108de8160200151610fb4565b15610921576108ec83610fe3565b801561090b575060008381526002602052604090208054600190910154115b610916576003610919565b60045b915050610576565b60405162461bcd60e51b815260206004820152601d60248201527f476f7665726e6f723a20756e6b6e6f776e2070726f706f73616c20696400000060448201526064016106ca565b50919050565b600061097d8585858561101b565b95945050505050565b6000803390506109a784828560405180602001604052806000815250610e9b565b949350505050565b6000803390506109f786828787878080601f016020809104026020016040519081016040528093929190818152602001838380828437600092019190915250610e9b92505050565b9695505050505050565b600080610a178686868680519060200120610cb9565b90508451865114610a3a5760405162461bcd60e51b81526004016106ca90611e70565b8351865114610a5b5760405162461bcd60e51b81526004016106ca90611e70565b6000865111610aac5760405162461bcd60e51b815260206004820152601860248201527f476f7665726e6f723a20656d7074792070726f706f73616c000000000000000060448201526064016106ca565b600081815260016020908152604091829020825191820190925281546001600160401b03169081905215610b2c5760405162461bcd60e51b815260206004820152602160248201527f476f7665726e6f723a2070726f706f73616c20616c72656164792065786973746044820152607360f81b60648201526084016106ca565b6000610b587f00000000000000000000000000000000000000000000000000000000000000005b611163565b610b6143611163565b610b6b9190612030565b90506000610b987f0000000000000000000000000000000000000000000000000000000000000000610b53565b610ba29083612030565b835467ffffffffffffffff19166001600160401b038416178455905060018301805467ffffffffffffffff19166001600160401b0383161790557f7d84a6263ae0d98d3329bd7b46bb4e8d6f98cd35a7adb45c274c8b7fd5ebd5e084338b8b8d516001600160401b03811115610c2857634e487b7160e01b600052604160045260246000fd5b604051908082528060200260200182016040528015610c5b57816020015b6060815260200190600190039081610c465790505b508c88888e604051610c7599989796959493929190611eb1565b60405180910390a15091979650505050505050565b60008181526001602081815260408084208151928301909152909101546001600160401b031690819052610763565b600084848484604051602001610cd29493929190611dea565b60408051601f19818403018152919052805160209091012095945050505050565b6000610cff83836111cf565b9392505050565b600060405180606001604052806027815260200161210860279139905060005b8551811015610e2657600080878381518110610d5257634e487b7160e01b600052603260045260246000fd5b60200260200101516001600160a01b0316878481518110610d8357634e487b7160e01b600052603260045260246000fd5b6020026020010151878581518110610dab57634e487b7160e01b600052603260045260246000fd5b6020026020010151604051610dc09190611dce565b60006040518083038185875af1925050503d8060008114610dfd576040519150601f19603f3d011682016040523d82523d6000602084013e610e02565b606091505b5091509150610e12828286611289565b50505080610e1f906120c0565b9050610d26565b50505050505050565b6000610573610e3c6112c2565b8360405161190160f01b6020820152602281018390526042810182905260009060620160405160208183030381529060405280519060200120905092915050565b6000806000610e8e878787876113b9565b91509150610731816114a6565b6000848152600160208190526040822090610eb587610806565b6007811115610ed457634e487b7160e01b600052602160045260246000fd5b14610f2d5760405162461bcd60e51b815260206004820152602360248201527f476f7665726e6f723a20766f7465206e6f742063757272656e746c792061637460448201526269766560e81b60648201526084016106ca565b604080516020810190915281546001600160401b031690819052600090610f55908790610cf3565b9050610f63878787846116ac565b856001600160a01b03167fb8e138887d0aa13bab447e82de9d5c1777041ecd21ca36ba824ff1e6c07ddda488878488604051610fa29493929190611f9d565b60405180910390a29695505050505050565b6000610fc982516001600160401b0316151590565b801561057357505051436001600160401b03909116111590565b600081815260026020819052604082209081015460018201546110069190612018565b6110126104eb8561073b565b11159392505050565b60008061102a86868686610cb9565b9050600061103782610806565b9050600281600781111561105b57634e487b7160e01b600052602160045260246000fd5b141580156110895750600681600781111561108657634e487b7160e01b600052602160045260246000fd5b14155b80156110b5575060078160078111156110b257634e487b7160e01b600052602160045260246000fd5b14155b6111015760405162461bcd60e51b815260206004820152601d60248201527f476f7665726e6f723a2070726f706f73616c206e6f742061637469766500000060448201526064016106ca565b60008281526001602052604090819020600201805461ff001916610100179055517f789cf55be980739dad1d0699b93b58e806b51c9d96619bfa8fe0a28abaa7b30c906111519084815260200190565b60405180910390a15095945050505050565b60006001600160401b038211156111cb5760405162461bcd60e51b815260206004820152602660248201527f53616665436173743a2076616c756520646f65736e27742066697420696e203660448201526534206269747360d01b60648201526084016106ca565b5090565b60405163782d6fe160e01b81526001600160a01b038381166004830152602482018390526000917f00000000000000000000000000000000000000000000000000000000000000009091169063782d6fe19060440160206040518083038186803b15801561123c57600080fd5b505afa158015611250573d6000803e3d6000fd5b505050506040513d601f19601f820116820180604052508101906112749190611cb1565b6bffffffffffffffffffffffff169392505050565b60608315611298575081610cff565b8251156112a85782518084602001fd5b8160405162461bcd60e51b81526004016106ca9190611e5d565b60007f000000000000000000000000000000000000000000000000000000000000000046141561131357507f000000000000000000000000000000000000000000000000000000000000000061053f565b50604080517f00000000000000000000000000000000000000000000000000000000000000006020808301919091527f0000000000000000000000000000000000000000000000000000000000000000828401527f000000000000000000000000000000000000000000000000000000000000000060608301524660808301523060a0808401919091528351808403909101815260c0909201909252805191012061053f565b6000807f7fffffffffffffffffffffffffffffff5d576e7357a4501ddfe92f46681b20a08311156113f0575060009050600361149d565b8460ff16601b1415801561140857508460ff16601c14155b15611419575060009050600461149d565b6040805160008082526020820180845289905260ff881692820192909252606081018690526080810185905260019060a0016020604051602081039080840390855afa15801561146d573d6000803e3d6000fd5b5050604051601f1901519150506001600160a01b0381166114965760006001925092505061149d565b9150600090505b94509492505050565b60008160048111156114c857634e487b7160e01b600052602160045260246000fd5b14156114d3576116a9565b60018160048111156114f557634e487b7160e01b600052602160045260246000fd5b14156115435760405162461bcd60e51b815260206004820152601860248201527f45434453413a20696e76616c6964207369676e6174757265000000000000000060448201526064016106ca565b600281600481111561156557634e487b7160e01b600052602160045260246000fd5b14156115b35760405162461bcd60e51b815260206004820152601f60248201527f45434453413a20696e76616c6964207369676e6174757265206c656e6774680060448201526064016106ca565b60038160048111156115d557634e487b7160e01b600052602160045260246000fd5b141561162e5760405162461bcd60e51b815260206004820152602260248201527f45434453413a20696e76616c6964207369676e6174757265202773272076616c604482015261756560f01b60648201526084016106ca565b600481600481111561165057634e487b7160e01b600052602160045260246000fd5b14156116a95760405162461bcd60e51b815260206004820152602260248201527f45434453413a20696e76616c6964207369676e6174757265202776272076616c604482015261756560f01b60648201526084016106ca565b50565b60008481526002602090815260408083206001600160a01b0387168452600381019092529091205460ff16156117345760405162461bcd60e51b815260206004820152602760248201527f476f7665726e6f72566f74696e6753696d706c653a20766f746520616c726561604482015266191e4818d85cdd60ca1b60648201526084016106ca565b6001600160a01b03841660009081526003820160205260408120805460ff1916600117905560ff168360ff161415611785578181600001600082825461177a9190612018565b9091555061182b9050565b60ff8316600114156117a5578181600101600082825461177a9190612018565b60ff8316600214156117c5578181600201600082825461177a9190612018565b60405162461bcd60e51b815260206004820152603560248201527f476f7665726e6f72566f74696e6753696d706c653a20696e76616c69642076616044820152746c756520666f7220656e756d20566f74655479706560581b60648201526084016106ca565b5050505050565b60006001600160401b0383111561184b5761184b6120f1565b61185e601f8401601f1916602001611fc5565b905082815283838301111561187257600080fd5b828260208301376000602084830101529392505050565b80356001600160a01b038116811461057657600080fd5b600082601f8301126118b0578081fd5b813560206118c56118c083611ff5565b611fc5565b82815281810190858301838502870184018810156118e1578586fd5b855b85811015611906576118f482611889565b845292840192908401906001016118e3565b5090979650505050505050565b600082601f830112611923578081fd5b813560206119336118c083611ff5565b82815281810190858301855b85811015611906578135880189603f820112611959578788fd5b61196a8a8783013560408401611832565b855250928401929084019060010161193f565b600082601f83011261198d578081fd5b8135602061199d6118c083611ff5565b82815281810190858301838502870184018810156119b9578586fd5b855b85811015611906578135845292840192908401906001016119bb565b803560ff8116811461057657600080fd5b600080604083850312156119fa578182fd5b611a0383611889565b946020939093013593505050565b60008060008060808587031215611a26578182fd5b84356001600160401b0380821115611a3c578384fd5b611a48888389016118a0565b95506020870135915080821115611a5d578384fd5b611a698883890161197d565b94506040870135915080821115611a7e578384fd5b50611a8b87828801611913565b949793965093946060013593505050565b60008060008060808587031215611ab1578384fd5b84356001600160401b0380821115611ac7578586fd5b611ad3888389016118a0565b95506020870135915080821115611ae8578485fd5b611af48883890161197d565b94506040870135915080821115611b09578384fd5b611b1588838901611913565b93506060870135915080821115611b2a578283fd5b508501601f81018713611b3b578182fd5b611b4a87823560208401611832565b91505092959194509250565b600060208284031215611b67578081fd5b81356001600160e01b031981168114610cff578182fd5b600060208284031215611b8f578081fd5b5035919050565b60008060408385031215611ba8578182fd5b82359150611bb860208401611889565b90509250929050565b60008060408385031215611bd3578182fd5b82359150611bb8602084016119d7565b60008060008060608587031215611bf8578182fd5b84359350611c08602086016119d7565b925060408501356001600160401b0380821115611c23578384fd5b818701915087601f830112611c36578384fd5b813581811115611c44578485fd5b886020828501011115611c55578485fd5b95989497505060200194505050565b600080600080600060a08688031215611c7b578283fd5b85359450611c8b602087016119d7565b9350611c99604087016119d7565b94979396509394606081013594506080013592915050565b600060208284031215611cc2578081fd5b81516bffffffffffffffffffffffff81168114610cff578182fd5b6000815180845260208085019450808401835b83811015611d155781516001600160a01b031687529582019590820190600101611cf0565b509495945050505050565b6000815180845260208085018081965082840281019150828601855b85811015611d66578284038952611d54848351611da2565b98850198935090840190600101611d3c565b5091979650505050505050565b6000815180845260208085019450808401835b83811015611d1557815187529582019590820190600101611d86565b60008151808452611dba81602086016020860161205b565b601f01601f19169290920160200192915050565b60008251611de081846020870161205b565b9190910192915050565b600060808252611dfd6080830187611cdd565b8281036020840152611e0f8187611d73565b90508281036040840152611e238186611d20565b91505082606083015295945050505050565b6020810160088310611e5757634e487b7160e01b600052602160045260246000fd5b91905290565b600060208252610cff6020830184611da2565b60208082526021908201527f476f7665726e6f723a20696e76616c69642070726f706f73616c206c656e67746040820152600d60fb1b606082015260800190565b60006101208b8352602060018060a01b038c1681850152816040850152611eda8285018c611cdd565b91508382036060850152611eee828b611d73565b848103608086015289518082529092508183019082810284018301838c01865b83811015611f3c57601f19878403018552611f2a838351611da2565b94860194925090850190600101611f0e565b505086810360a0880152611f50818c611d20565b945050505050611f6b60c08401876001600160401b03169052565b6001600160401b03851660e0840152828103610100840152611f8d8185611da2565b9c9b505050505050505050505050565b600085825260ff85166020830152836040830152608060608301526109f76080830184611da2565b604051601f8201601f191681016001600160401b0381118282101715611fed57611fed6120f1565b604052919050565b60006001600160401b0382111561200e5761200e6120f1565b5060209081020190565b6000821982111561202b5761202b6120db565b500190565b60006001600160401b03808316818516808303821115612052576120526120db565b01949350505050565b60005b8381101561207657818101518382015260200161205e565b83811115612085576000848401525b50505050565b60028104600182168061209f57607f821691505b6020821081141561096957634e487b7160e01b600052602260045260246000fd5b60006000198214156120d4576120d46120db565b5060010190565b634e487b7160e01b600052601160045260246000fd5b634e487b7160e01b600052604160045260246000fdfe476f7665726e6f723a2063616c6c20726576657274656420776974686f7574206d657373616765a264697066735822122052d1e9f47cb9d834fdd4c09febab2deeefdd599c1080e1fdfde6b49be990e4f564736f6c63430008020033",
  "immutableReferences": {
    "5599": [
      {
        "length": 32,
        "start": 1283
      },
      {
        "length": 32,
        "start": 4600
      }
    ],
    "10268": [
      {
        "length": 32,
        "start": 567
      },
      {
        "length": 32,
        "start": 2867
      }
    ],
    "10270": [
      {
        "length": 32,
        "start": 421
      },
      {
        "length": 32,
        "start": 2932
      }
    ],
    "24808": [
      {
        "length": 32,
        "start": 4847
      }
    ],
    "24810": [
      {
        "length": 32,
        "start": 4806
      }
    ],
    "24812": [
      {
        "length": 32,
        "start": 4932
      }
    ],
    "24814": [
      {
        "length": 32,
        "start": 4969
      }
    ],
    "24816": [
      {
        "length": 32,
        "start": 4890
      }
    ]
  },
  "source": "// SPDX-License-Identifier: MIT\n\npragma solidity ^0.8.0;\n\nimport \"../governance/Governor.sol\";\nimport \"../governance/extensions/GovernorCountingSimple.sol\";\nimport \"../governance/extensions/GovernorVotesComp.sol\";\n\ncontract GovernorCompMock is Governor, GovernorVotesComp, GovernorCountingSimple {\n    uint256 immutable _votingDelay;\n    uint256 immutable _votingPeriod;\n\n    constructor(\n        string memory name_,\n        ERC20VotesComp token_,\n        uint256 votingDelay_,\n        uint256 votingPeriod_\n    ) Governor(name_) GovernorVotesComp(token_) {\n        _votingDelay = votingDelay_;\n        _votingPeriod = votingPeriod_;\n    }\n\n    function votingDelay() public view override returns (uint256) {\n        return _votingDelay;\n    }\n\n    function votingPeriod() public view override returns (uint256) {\n        return _votingPeriod;\n    }\n\n    function quorum(uint256) public pure override returns (uint256) {\n        return 0;\n    }\n\n    function cancel(\n        address[] memory targets,\n        uint256[] memory values,\n        bytes[] memory calldatas,\n        bytes32 salt\n    ) public returns (uint256 proposalId) {\n        return _cancel(targets, values, calldatas, salt);\n    }\n\n    function getVotes(address account, uint256 blockNumber)\n        public\n        view\n        virtual\n        override(IGovernor, GovernorVotesComp)\n        returns (uint256)\n    {\n        return super.getVotes(account, blockNumber);\n    }\n}\n",
  "sourcePath": "/Users/shangyihuang/Documents/SocialFi/client/contracts/contracts/mocks/GovernorCompMock.sol",
  "compiler": {
    "name": "solc",
    "version": "0.8.2+commit.661d1103.Emscripten.clang"
  },
  "schemaVersion": "3.4.7",
  "updatedAt": "2022-05-05T11:49:18.559Z",
  "devdoc": {
    "kind": "dev",
    "methods": {
      "COUNTING_MODE()": {
        "details": "See {IGovernor-COUNTING_MODE}."
      },
      "castVote(uint256,uint8)": {
        "details": "See {IGovernor-castVote}."
      },
      "castVoteBySig(uint256,uint8,uint8,bytes32,bytes32)": {
        "details": "See {IGovernor-castVoteBySig}."
      },
      "castVoteWithReason(uint256,uint8,string)": {
        "details": "See {IGovernor-castVoteWithReason}."
      },
      "execute(address[],uint256[],bytes[],bytes32)": {
        "details": "See {IGovernor-execute}."
      },
      "hasVoted(uint256,address)": {
        "details": "See {IGovernor-hasVoted}."
      },
      "hashProposal(address[],uint256[],bytes[],bytes32)": {
        "details": "See {IGovernor-hashProposal}. The proposal id is produced by hashing the RLC encoded `targets` array, the `values` array, the `calldatas` array and the descriptionHash (bytes32 which itself is the keccak256 hash of the description string). This proposal id can be produced from the proposal data which is part of the {ProposalCreated} event. It can even be computed in advance, before the proposal is submitted. Note that the chainId and the governor address are not part of the proposal id computation. Consequently, the same proposal (with same operation and same description) will have the same id if submitted on multiple governors accross multiple networks. This also means that in order to execute the same operation twice (on the same governor) the proposer will have to change the description in order to avoid proposal id conflicts."
      },
      "name()": {
        "details": "See {IGovernor-name}."
      },
      "proposalDeadline(uint256)": {
        "details": "See {IGovernor-proposalDeadline}."
      },
      "proposalSnapshot(uint256)": {
        "details": "See {IGovernor-proposalSnapshot}."
      },
      "proposalVotes(uint256)": {
        "details": "Accessor to the internal vote counts."
      },
      "propose(address[],uint256[],bytes[],string)": {
        "details": "See {IGovernor-propose}."
      },
      "state(uint256)": {
        "details": "See {IGovernor-state}."
      },
      "supportsInterface(bytes4)": {
        "details": "See {IERC165-supportsInterface}."
      },
      "version()": {
        "details": "See {IGovernor-version}."
      },
      "votingDelay()": {
        "details": "delay, in number of block, between the proposal is created and the vote starts. This can be increassed to leave time for users to buy voting power, of delegate it, before the voting of a proposal starts."
      },
      "votingPeriod()": {
        "details": "delay, in number of blocks, between the vote start and vote ends. Note: the {votingDelay} can delay the start of the vote. This must be considered when setting the voting duration compared to the voting delay."
      }
    },
    "version": 1
  },
  "userdoc": {
    "kind": "user",
    "methods": {
      "votingDelay()": {
        "notice": "module:user-config"
      },
      "votingPeriod()": {
        "notice": "module:user-config"
      }
    },
    "version": 1
  }
}