{
  "contractName": "GovernorCompatibilityBravoMock",
  "abi": [
    {
      "inputs": [
        {
          "internalType": "string",
          "name": "name_",
          "type": "string"
        },
        {
          "internalType": "contract ERC20VotesComp",
          "name": "token_",
          "type": "address"
        },
        {
          "internalType": "uint256",
          "name": "votingDelay_",
          "type": "uint256"
        },
        {
          "internalType": "uint256",
          "name": "votingPeriod_",
          "type": "uint256"
        },
        {
          "internalType": "uint256",
          "name": "proposalThreshold_",
          "type": "uint256"
        },
        {
          "internalType": "contract ICompoundTimelock",
          "name": "timelock_",
          "type": "address"
        }
      ],
      "stateMutability": "nonpayable",
      "type": "constructor"
    },
    {
      "anonymous": false,
      "inputs": [
        {
          "indexed": false,
          "internalType": "uint256",
          "name": "proposalId",
          "type": "uint256"
        }
      ],
      "name": "ProposalCanceled",
      "type": "event"
    },
    {
      "anonymous": false,
      "inputs": [
        {
          "indexed": false,
          "internalType": "uint256",
          "name": "proposalId",
          "type": "uint256"
        },
        {
          "indexed": false,
          "internalType": "address",
          "name": "proposer",
          "type": "address"
        },
        {
          "indexed": false,
          "internalType": "address[]",
          "name": "targets",
          "type": "address[]"
        },
        {
          "indexed": false,
          "internalType": "uint256[]",
          "name": "values",
          "type": "uint256[]"
        },
        {
          "indexed": false,
          "internalType": "string[]",
          "name": "signatures",
          "type": "string[]"
        },
        {
          "indexed": false,
          "internalType": "bytes[]",
          "name": "calldatas",
          "type": "bytes[]"
        },
        {
          "indexed": false,
          "internalType": "uint256",
          "name": "startBlock",
          "type": "uint256"
        },
        {
          "indexed": false,
          "internalType": "uint256",
          "name": "endBlock",
          "type": "uint256"
        },
        {
          "indexed": false,
          "internalType": "string",
          "name": "description",
          "type": "string"
        }
      ],
      "name": "ProposalCreated",
      "type": "event"
    },
    {
      "anonymous": false,
      "inputs": [
        {
          "indexed": false,
          "internalType": "uint256",
          "name": "proposalId",
          "type": "uint256"
        }
      ],
      "name": "ProposalExecuted",
      "type": "event"
    },
    {
      "anonymous": false,
      "inputs": [
        {
          "indexed": false,
          "internalType": "uint256",
          "name": "proposalId",
          "type": "uint256"
        },
        {
          "indexed": false,
          "internalType": "uint256",
          "name": "eta",
          "type": "uint256"
        }
      ],
      "name": "ProposalQueued",
      "type": "event"
    },
    {
      "anonymous": false,
      "inputs": [
        {
          "indexed": false,
          "internalType": "address",
          "name": "oldTimelock",
          "type": "address"
        },
        {
          "indexed": false,
          "internalType": "address",
          "name": "newTimelock",
          "type": "address"
        }
      ],
      "name": "TimelockChange",
      "type": "event"
    },
    {
      "anonymous": false,
      "inputs": [
        {
          "indexed": true,
          "internalType": "address",
          "name": "voter",
          "type": "address"
        },
        {
          "indexed": false,
          "internalType": "uint256",
          "name": "proposalId",
          "type": "uint256"
        },
        {
          "indexed": false,
          "internalType": "uint8",
          "name": "support",
          "type": "uint8"
        },
        {
          "indexed": false,
          "internalType": "uint256",
          "name": "weight",
          "type": "uint256"
        },
        {
          "indexed": false,
          "internalType": "string",
          "name": "reason",
          "type": "string"
        }
      ],
      "name": "VoteCast",
      "type": "event"
    },
    {
      "inputs": [],
      "name": "BALLOT_TYPEHASH",
      "outputs": [
        {
          "internalType": "bytes32",
          "name": "",
          "type": "bytes32"
        }
      ],
      "stateMutability": "view",
      "type": "function"
    },
    {
      "inputs": [],
      "name": "COUNTING_MODE",
      "outputs": [
        {
          "internalType": "string",
          "name": "",
          "type": "string"
        }
      ],
      "stateMutability": "pure",
      "type": "function"
    },
    {
      "inputs": [],
      "name": "__acceptAdmin",
      "outputs": [],
      "stateMutability": "nonpayable",
      "type": "function"
    },
    {
      "inputs": [
        {
          "internalType": "uint256",
          "name": "proposalId",
          "type": "uint256"
        },
        {
          "internalType": "uint8",
          "name": "support",
          "type": "uint8"
        }
      ],
      "name": "castVote",
      "outputs": [
        {
          "internalType": "uint256",
          "name": "",
          "type": "uint256"
        }
      ],
      "stateMutability": "nonpayable",
      "type": "function"
    },
    {
      "inputs": [
        {
          "internalType": "uint256",
          "name": "proposalId",
          "type": "uint256"
        },
        {
          "internalType": "uint8",
          "name": "support",
          "type": "uint8"
        },
        {
          "internalType": "uint8",
          "name": "v",
          "type": "uint8"
        },
        {
          "internalType": "bytes32",
          "name": "r",
          "type": "bytes32"
        },
        {
          "internalType": "bytes32",
          "name": "s",
          "type": "bytes32"
        }
      ],
      "name": "castVoteBySig",
      "outputs": [
        {
          "internalType": "uint256",
          "name": "",
          "type": "uint256"
        }
      ],
      "stateMutability": "nonpayable",
      "type": "function"
    },
    {
      "inputs": [
        {
          "internalType": "uint256",
          "name": "proposalId",
          "type": "uint256"
        },
        {
          "internalType": "uint8",
          "name": "support",
          "type": "uint8"
        },
        {
          "internalType": "string",
          "name": "reason",
          "type": "string"
        }
      ],
      "name": "castVoteWithReason",
      "outputs": [
        {
          "internalType": "uint256",
          "name": "",
          "type": "uint256"
        }
      ],
      "stateMutability": "nonpayable",
      "type": "function"
    },
    {
      "inputs": [
        {
          "internalType": "uint256",
          "name": "proposalId",
          "type": "uint256"
        }
      ],
      "name": "getActions",
      "outputs": [
        {
          "internalType": "address[]",
          "name": "targets",
          "type": "address[]"
        },
        {
          "internalType": "uint256[]",
          "name": "values",
          "type": "uint256[]"
        },
        {
          "internalType": "string[]",
          "name": "signatures",
          "type": "string[]"
        },
        {
          "internalType": "bytes[]",
          "name": "calldatas",
          "type": "bytes[]"
        }
      ],
      "stateMutability": "view",
      "type": "function"
    },
    {
      "inputs": [
        {
          "internalType": "uint256",
          "name": "proposalId",
          "type": "uint256"
        },
        {
          "internalType": "address",
          "name": "voter",
          "type": "address"
        }
      ],
      "name": "getReceipt",
      "outputs": [
        {
          "components": [
            {
              "internalType": "bool",
              "name": "hasVoted",
              "type": "bool"
            },
            {
              "internalType": "uint8",
              "name": "support",
              "type": "uint8"
            },
            {
              "internalType": "uint96",
              "name": "votes",
              "type": "uint96"
            }
          ],
          "internalType": "struct IGovernorCompatibilityBravo.Receipt",
          "name": "",
          "type": "tuple"
        }
      ],
      "stateMutability": "view",
      "type": "function"
    },
    {
      "inputs": [
        {
          "internalType": "uint256",
          "name": "proposalId",
          "type": "uint256"
        },
        {
          "internalType": "address",
          "name": "account",
          "type": "address"
        }
      ],
      "name": "hasVoted",
      "outputs": [
        {
          "internalType": "bool",
          "name": "",
          "type": "bool"
        }
      ],
      "stateMutability": "view",
      "type": "function"
    },
    {
      "inputs": [
        {
          "internalType": "address[]",
          "name": "targets",
          "type": "address[]"
        },
        {
          "internalType": "uint256[]",
          "name": "values",
          "type": "uint256[]"
        },
        {
          "internalType": "bytes[]",
          "name": "calldatas",
          "type": "bytes[]"
        },
        {
          "internalType": "bytes32",
          "name": "descriptionHash",
          "type": "bytes32"
        }
      ],
      "name": "hashProposal",
      "outputs": [
        {
          "internalType": "uint256",
          "name": "",
          "type": "uint256"
        }
      ],
      "stateMutability": "pure",
      "type": "function"
    },
    {
      "inputs": [],
      "name": "name",
      "outputs": [
        {
          "internalType": "string",
          "name": "",
          "type": "string"
        }
      ],
      "stateMutability": "view",
      "type": "function"
    },
    {
      "inputs": [
        {
          "internalType": "uint256",
          "name": "proposalId",
          "type": "uint256"
        }
      ],
      "name": "proposalDeadline",
      "outputs": [
        {
          "internalType": "uint256",
          "name": "",
          "type": "uint256"
        }
      ],
      "stateMutability": "view",
      "type": "function"
    },
    {
      "inputs": [
        {
          "internalType": "uint256",
          "name": "proposalId",
          "type": "uint256"
        }
      ],
      "name": "proposalSnapshot",
      "outputs": [
        {
          "internalType": "uint256",
          "name": "",
          "type": "uint256"
        }
      ],
      "stateMutability": "view",
      "type": "function"
    },
    {
      "inputs": [
        {
          "internalType": "uint256",
          "name": "proposalId",
          "type": "uint256"
        }
      ],
      "name": "proposals",
      "outputs": [
        {
          "internalType": "uint256",
          "name": "id",
          "type": "uint256"
        },
        {
          "internalType": "address",
          "name": "proposer",
          "type": "address"
        },
        {
          "internalType": "uint256",
          "name": "eta",
          "type": "uint256"
        },
        {
          "internalType": "uint256",
          "name": "startBlock",
          "type": "uint256"
        },
        {
          "internalType": "uint256",
          "name": "endBlock",
          "type": "uint256"
        },
        {
          "internalType": "uint256",
          "name": "forVotes",
          "type": "uint256"
        },
        {
          "internalType": "uint256",
          "name": "againstVotes",
          "type": "uint256"
        },
        {
          "internalType": "uint256",
          "name": "abstainVotes",
          "type": "uint256"
        },
        {
          "internalType": "bool",
          "name": "canceled",
          "type": "bool"
        },
        {
          "internalType": "bool",
          "name": "executed",
          "type": "bool"
        }
      ],
      "stateMutability": "view",
      "type": "function"
    },
    {
      "inputs": [],
      "name": "quorumVotes",
      "outputs": [
        {
          "internalType": "uint256",
          "name": "",
          "type": "uint256"
        }
      ],
      "stateMutability": "view",
      "type": "function"
    },
    {
      "inputs": [],
      "name": "timelock",
      "outputs": [
        {
          "internalType": "address",
          "name": "",
          "type": "address"
        }
      ],
      "stateMutability": "view",
      "type": "function"
    },
    {
      "inputs": [],
      "name": "token",
      "outputs": [
        {
          "internalType": "contract ERC20VotesComp",
          "name": "",
          "type": "address"
        }
      ],
      "stateMutability": "view",
      "type": "function"
    },
    {
      "inputs": [
        {
          "internalType": "contract ICompoundTimelock",
          "name": "newTimelock",
          "type": "address"
        }
      ],
      "name": "updateTimelock",
      "outputs": [],
      "stateMutability": "nonpayable",
      "type": "function"
    },
    {
      "inputs": [],
      "name": "version",
      "outputs": [
        {
          "internalType": "string",
          "name": "",
          "type": "string"
        }
      ],
      "stateMutability": "view",
      "type": "function"
    },
    {
      "stateMutability": "payable",
      "type": "receive"
    },
    {
      "inputs": [
        {
          "internalType": "bytes4",
          "name": "interfaceId",
          "type": "bytes4"
        }
      ],
      "name": "supportsInterface",
      "outputs": [
        {
          "internalType": "bool",
          "name": "",
          "type": "bool"
        }
      ],
      "stateMutability": "view",
      "type": "function"
    },
    {
      "inputs": [],
      "name": "votingDelay",
      "outputs": [
        {
          "internalType": "uint256",
          "name": "",
          "type": "uint256"
        }
      ],
      "stateMutability": "view",
      "type": "function"
    },
    {
      "inputs": [],
      "name": "votingPeriod",
      "outputs": [
        {
          "internalType": "uint256",
          "name": "",
          "type": "uint256"
        }
      ],
      "stateMutability": "view",
      "type": "function"
    },
    {
      "inputs": [],
      "name": "proposalThreshold",
      "outputs": [
        {
          "internalType": "uint256",
          "name": "",
          "type": "uint256"
        }
      ],
      "stateMutability": "view",
      "type": "function"
    },
    {
      "inputs": [
        {
          "internalType": "uint256",
          "name": "",
          "type": "uint256"
        }
      ],
      "name": "quorum",
      "outputs": [
        {
          "internalType": "uint256",
          "name": "",
          "type": "uint256"
        }
      ],
      "stateMutability": "pure",
      "type": "function"
    },
    {
      "inputs": [
        {
          "internalType": "uint256",
          "name": "proposalId",
          "type": "uint256"
        }
      ],
      "name": "state",
      "outputs": [
        {
          "internalType": "enum IGovernor.ProposalState",
          "name": "",
          "type": "uint8"
        }
      ],
      "stateMutability": "view",
      "type": "function"
    },
    {
      "inputs": [
        {
          "internalType": "uint256",
          "name": "proposalId",
          "type": "uint256"
        }
      ],
      "name": "proposalEta",
      "outputs": [
        {
          "internalType": "uint256",
          "name": "",
          "type": "uint256"
        }
      ],
      "stateMutability": "view",
      "type": "function"
    },
    {
      "inputs": [
        {
          "internalType": "address[]",
          "name": "targets",
          "type": "address[]"
        },
        {
          "internalType": "uint256[]",
          "name": "values",
          "type": "uint256[]"
        },
        {
          "internalType": "bytes[]",
          "name": "calldatas",
          "type": "bytes[]"
        },
        {
          "internalType": "string",
          "name": "description",
          "type": "string"
        }
      ],
      "name": "propose",
      "outputs": [
        {
          "internalType": "uint256",
          "name": "",
          "type": "uint256"
        }
      ],
      "stateMutability": "nonpayable",
      "type": "function"
    },
    {
      "inputs": [
        {
          "internalType": "address[]",
          "name": "targets",
          "type": "address[]"
        },
        {
          "internalType": "uint256[]",
          "name": "values",
          "type": "uint256[]"
        },
        {
          "internalType": "string[]",
          "name": "signatures",
          "type": "string[]"
        },
        {
          "internalType": "bytes[]",
          "name": "calldatas",
          "type": "bytes[]"
        },
        {
          "internalType": "string",
          "name": "description",
          "type": "string"
        }
      ],
      "name": "propose",
      "outputs": [
        {
          "internalType": "uint256",
          "name": "",
          "type": "uint256"
        }
      ],
      "stateMutability": "nonpayable",
      "type": "function"
    },
    {
      "inputs": [
        {
          "internalType": "address[]",
          "name": "targets",
          "type": "address[]"
        },
        {
          "internalType": "uint256[]",
          "name": "values",
          "type": "uint256[]"
        },
        {
          "internalType": "bytes[]",
          "name": "calldatas",
          "type": "bytes[]"
        },
        {
          "internalType": "bytes32",
          "name": "salt",
          "type": "bytes32"
        }
      ],
      "name": "queue",
      "outputs": [
        {
          "internalType": "uint256",
          "name": "",
          "type": "uint256"
        }
      ],
      "stateMutability": "nonpayable",
      "type": "function"
    },
    {
      "inputs": [
        {
          "internalType": "uint256",
          "name": "proposalId",
          "type": "uint256"
        }
      ],
      "name": "queue",
      "outputs": [],
      "stateMutability": "nonpayable",
      "type": "function"
    },
    {
      "inputs": [
        {
          "internalType": "address[]",
          "name": "targets",
          "type": "address[]"
        },
        {
          "internalType": "uint256[]",
          "name": "values",
          "type": "uint256[]"
        },
        {
          "internalType": "bytes[]",
          "name": "calldatas",
          "type": "bytes[]"
        },
        {
          "internalType": "bytes32",
          "name": "salt",
          "type": "bytes32"
        }
      ],
      "name": "execute",
      "outputs": [
        {
          "internalType": "uint256",
          "name": "",
          "type": "uint256"
        }
      ],
      "stateMutability": "payable",
      "type": "function"
    },
    {
      "inputs": [
        {
          "internalType": "uint256",
          "name": "proposalId",
          "type": "uint256"
        }
      ],
      "name": "execute",
      "outputs": [],
      "stateMutability": "payable",
      "type": "function"
    },
    {
      "inputs": [
        {
          "internalType": "uint256",
          "name": "proposalId",
          "type": "uint256"
        }
      ],
      "name": "cancel",
      "outputs": [],
      "stateMutability": "nonpayable",
      "type": "function"
    },
    {
      "inputs": [
        {
          "internalType": "address[]",
          "name": "targets",
          "type": "address[]"
        },
        {
          "internalType": "uint256[]",
          "name": "values",
          "type": "uint256[]"
        },
        {
          "internalType": "bytes[]",
          "name": "calldatas",
          "type": "bytes[]"
        },
        {
          "internalType": "bytes32",
          "name": "salt",
          "type": "bytes32"
        }
      ],
      "name": "cancel",
      "outputs": [
        {
          "internalType": "uint256",
          "name": "proposalId",
          "type": "uint256"
        }
      ],
      "stateMutability": "nonpayable",
      "type": "function"
    },
    {
      "inputs": [
        {
          "internalType": "address",
          "name": "account",
          "type": "address"
        },
        {
          "internalType": "uint256",
          "name": "blockNumber",
          "type": "uint256"
        }
      ],
      "name": "getVotes",
      "outputs": [
        {
          "internalType": "uint256",
          "name": "",
          "type": "uint256"
        }
      ],
      "stateMutability": "view",
      "type": "function"
    }
  ],
  "bytecode": "0x6101a06040523480156200001257600080fd5b50604051620046db380380620046db833981016040819052620000359162000257565b84818780620000586040805180820190915260018152603160f81b602082015290565b815160209283012081519183019190912060c082815260e08290524660a0818152604080517f8b73c3c69bb8fe3d512ecc4cf759cc79239f7b179b0ffacaa9a75d522b39400f818901819052818301979097526060810195909552608080860193909352308583015280518086039092018252939092019092528051908401209052610100528151620000f2916000919084019062000194565b50620001009050816200012b565b5060601b6001600160601b031916610120525061014092909252610160526101805250620003c39050565b600354604080516001600160a01b03928316815291831660208301527f08f74ea46ef7894f65eabfb5e6e695de773a000b47c529ab559178069b226401910160405180910390a1600380546001600160a01b0319166001600160a01b0392909216919091179055565b828054620001a29062000370565b90600052602060002090601f016020900481019282620001c6576000855562000211565b82601f10620001e157805160ff191683800117855562000211565b8280016001018555821562000211579182015b8281111562000211578251825591602001919060010190620001f4565b506200021f92915062000223565b5090565b5b808211156200021f576000815560010162000224565b80516001600160a01b03811681146200025257600080fd5b919050565b60008060008060008060c0878903121562000270578182fd5b86516001600160401b038082111562000287578384fd5b818901915089601f8301126200029b578384fd5b815181811115620002b057620002b0620003ad565b604051601f8201601f19908116603f01168101908382118183101715620002db57620002db620003ad565b81604052828152602093508c84848701011115620002f7578687fd5b8691505b828210156200031a5784820184015181830185015290830190620002fb565b828211156200032b57868484830101525b99506200033d9150508982016200023a565b965050506040870151935060608701519250608087015191506200036460a088016200023a565b90509295509295509295565b6002810460018216806200038557607f821691505b60208210811415620003a757634e487b7160e01b600052602260045260246000fd5b50919050565b634e487b7160e01b600052604160045260246000fd5b60805160a05160c05160e051610100516101205160601c6101405161016051610180516142816200045a600039600081816105b501528181610db80152612cba0152600081816102ea01526132930152600081816103e101526132520152600081816108370152612316015260006124cd0152600061251c015260006124f701526000612479015260006124a201526142816000f3fe6080604052600436106102085760003560e01c80637b3c71d311610118578063da95691a116100a0578063e23a9a521161006f578063e23a9a521461071a578063eb9019d4146107e4578063f8ce560a14610804578063fc0c546a14610825578063fe0d94c1146108595761022b565b8063da95691a14610660578063dd4e2ba514610680578063ddf0b009146106c6578063deaaa7cc146106e65761022b565b8063b58131b0116100e7578063b58131b0146105a6578063b9a61961146105d9578063c01f9e37146105ee578063c59057e41461060e578063d33219b41461062e5761022b565b80637b3c71d3146105265780637d5e81e214610546578063a890c91014610566578063ab58fb8e146105865761022b565b8063328dd9821161019b57806340e58ee51161016a57806340e58ee5146104525780634385963214610472578063452115d6146104bc57806354fd4d50146104dc57806356781388146105065761022b565b8063328dd982146103a25780633932abb1146103d25780633bccf4fd146104055780633e4f49e6146104255761022b565b8063160cbed7116101d7578063160cbed71461033a57806324bc1a641461035a5780632656227d1461036f5780632d63f693146103825761022b565b8063013cf08b1461023057806301ffc9a7146102ab57806302a251a3146102db57806306fdde03146103185761022b565b3661022b573061021661086c565b6001600160a01b03161461022957600080fd5b005b600080fd5b34801561023c57600080fd5b5061025061024b366004613bf1565b610886565b604080519a8b526001600160a01b0390991660208b0152978901969096526060880194909452608087019290925260a086015260c085015260e084015215156101008301521515610120820152610140015b60405180910390f35b3480156102b757600080fd5b506102cb6102c6366004613b44565b61094b565b60405190151581526020016102a2565b3480156102e757600080fd5b507f00000000000000000000000000000000000000000000000000000000000000005b6040519081526020016102a2565b34801561032457600080fd5b5061032d61095e565b6040516102a29190613f32565b34801561034657600080fd5b5061030a61035536600461390f565b6109f0565b34801561036657600080fd5b5061030a610a07565b61030a61037d36600461390f565b610a17565b34801561038e57600080fd5b5061030a61039d366004613bf1565b610a25565b3480156103ae57600080fd5b506103c26103bd366004613bf1565b610a5c565b6040516102a29493929190613ee5565b3480156103de57600080fd5b507f000000000000000000000000000000000000000000000000000000000000000061030a565b34801561041157600080fd5b5061030a610420366004613ce4565b610ced565b34801561043157600080fd5b50610445610440366004613bf1565b610d81565b6040516102a29190613f45565b34801561045e57600080fd5b5061022961046d366004613bf1565b610d8c565b34801561047e57600080fd5b506102cb61048d366004613c09565b60008281526002602090815260408083206001600160a01b038516845260080190915290205460ff1692915050565b3480156104c857600080fd5b5061030a6104d736600461390f565b6110c2565b3480156104e857600080fd5b506040805180820190915260018152603160f81b602082015261032d565b34801561051257600080fd5b5061030a610521366004613c38565b6110d0565b34801561053257600080fd5b5061030a610541366004613c63565b6110f9565b34801561055257600080fd5b5061030a61056136600461399a565b61114b565b34801561057257600080fd5b50610229610581366004613bd5565b611159565b34801561059257600080fd5b5061030a6105a1366004613bf1565b6111cd565b3480156105b257600080fd5b507f000000000000000000000000000000000000000000000000000000000000000061030a565b3480156105e557600080fd5b506102296111d8565b3480156105fa57600080fd5b5061030a610609366004613bf1565b611242565b34801561061a57600080fd5b5061030a61062936600461390f565b611271565b34801561063a57600080fd5b506003546001600160a01b03165b6040516001600160a01b0390911681526020016102a2565b34801561066c57600080fd5b5061030a61067b366004613a41565b6112ab565b34801561068c57600080fd5b5060408051808201909152601a81527f737570706f72743d627261766f2671756f72756d3d627261766f000000000000602082015261032d565b3480156106d257600080fd5b506102296106e1366004613bf1565b6112d0565b3480156106f257600080fd5b5061030a7f150214d74d59b7d1e90c73fc22ef3d991dd0a76b046543d4d80ab92d2a50328f81565b34801561072657600080fd5b506107b4610735366004613c09565b60408051606081018252600080825260208201819052918101919091525060009182526002602090815260408084206001600160a01b0393909316845260089092018152918190208151606081018352905460ff8082161515835261010082041693820193909352620100009092046001600160601b03169082015290565b6040805182511515815260208084015160ff1690820152918101516001600160601b0316908201526060016102a2565b3480156107f057600080fd5b5061030a6107ff3660046138e4565b61153e565b34801561081057600080fd5b5061030a61081f366004613bf1565b50600090565b34801561083157600080fd5b506106487f000000000000000000000000000000000000000000000000000000000000000081565b610229610867366004613bf1565b611551565b60006108806003546001600160a01b031690565b90505b90565b806000808080808080808061089a8a6111cd565b97506108a58b610a25565b96506108b08b611242565b60008c815260026020526040812080546005820154600683015460078401546001600160a01b039093169e50949a5098509296509194506108f08d610d81565b9050600281600781111561091457634e487b7160e01b600052602160045260246000fd5b149350600781600781111561093957634e487b7160e01b600052602160045260246000fd5b14925050509193959799509193959799565b6000610956826117bf565b90505b919050565b60606000805461096d906141ba565b80601f0160208091040260200160405190810160405280929190818152602001828054610999906141ba565b80156109e65780601f106109bb576101008083540402835291602001916109e6565b820191906000526020600020905b8154815290600101906020018083116109c957829003601f168201915b5050505050905090565b60006109fe858585856117e4565b95945050505050565b600061088061081f600143614177565b60006109fe85858585611bed565b60008181526001602090815260408083208151928301909152546001600160401b0316908190525b6001600160401b031692915050565b60608060608060006002600087815260200190815260200160002090508060010181600201826003018360040183805480602002602001604051908101604052809291908181526020018280548015610ade57602002820191906000526020600020905b81546001600160a01b03168152600190910190602001808311610ac0575b5050505050935082805480602002602001604051908101604052809291908181526020018280548015610b3057602002820191906000526020600020905b815481526020019060010190808311610b1c575b5050505050925081805480602002602001604051908101604052809291908181526020016000905b82821015610c04578382906000526020600020018054610b77906141ba565b80601f0160208091040260200160405190810160405280929190818152602001828054610ba3906141ba565b8015610bf05780601f10610bc557610100808354040283529160200191610bf0565b820191906000526020600020905b815481529060010190602001808311610bd357829003601f168201915b505050505081526020019060010190610b58565b50505050915080805480602002602001604051908101604052809291908181526020016000905b82821015610cd7578382906000526020600020018054610c4a906141ba565b80601f0160208091040260200160405190810160405280929190818152602001828054610c76906141ba565b8015610cc35780601f10610c9857610100808354040283529160200191610cc3565b820191906000526020600020905b815481529060010190602001808311610ca657829003601f168201915b505050505081526020019060010190610c2b565b5050505090509450945094509450509193509193565b604080517f150214d74d59b7d1e90c73fc22ef3d991dd0a76b046543d4d80ab92d2a50328f602082015290810186905260ff851660608201526000908190610d5990610d519060800160405160208183030381529060405280519060200120611cdc565b868686611d2a565b9050610d7687828860405180602001604052806000815250611d48565b979650505050505050565b600061095682611e61565b600081815260026020526040902080546001600160a01b0316336001600160a01b03161480610df357507f00000000000000000000000000000000000000000000000000000000000000008154610df1906001600160a01b03166107ff600143614177565b105b610e545760405162461bcd60e51b815260206004820152602760248201527f476f7665726e6f72427261766f3a2070726f706f7365722061626f76652074686044820152661c995cda1bdb1960ca1b60648201526084015b60405180910390fd5b6110bd81600101805480602002602001604051908101604052809291908181526020018280548015610eaf57602002820191906000526020600020905b81546001600160a01b03168152600190910190602001808311610e91575b505050505082600201805480602002602001604051908101604052809291908181526020018280548015610f0257602002820191906000526020600020905b815481526020019060010190808311610eee575b50505050506110b384600301805480602002602001604051908101604052809291908181526020016000905b82821015610fda578382906000526020600020018054610f4d906141ba565b80601f0160208091040260200160405190810160405280929190818152602001828054610f79906141ba565b8015610fc65780601f10610f9b57610100808354040283529160200191610fc6565b820191906000526020600020905b815481529060010190602001808311610fa957829003601f168201915b505050505081526020019060010190610f2e565b50505060048701805460408051602080840282018101909252828152935060009084015b828210156110aa57838290600052602060002001805461101d906141ba565b80601f0160208091040260200160405190810160405280929190818152602001828054611049906141ba565b80156110965780601f1061106b57610100808354040283529160200191611096565b820191906000526020600020905b81548152906001019060200180831161107957829003601f168201915b505050505081526020019060010190610ffe565b50505050611f63565b8460090154612117565b505050565b60006109fe85858585612117565b6000803390506110f184828560405180602001604052806000815250611d48565b949350505050565b60008033905061114186828787878080601f016020809104026020016040519081016040528093929190818152602001838380828437600092019190915250611d4892505050565b9695505050505050565b60006109fe85858585612125565b61116161086c565b6001600160a01b0316336001600160a01b0316146111c15760405162461bcd60e51b815260206004820152601860248201527f476f7665726e6f723a206f6e6c79476f7665726e616e636500000000000000006044820152606401610e4b565b6111ca8161219b565b50565b600061095682612204565b600360009054906101000a90046001600160a01b03166001600160a01b0316630e18b6816040518163ffffffff1660e01b8152600401600060405180830381600087803b15801561122857600080fd5b505af115801561123c573d6000803e3d6000fd5b50505050565b60008181526001602081815260408084208151928301909152909101546001600160401b031690819052610a4d565b60008484848460405160200161128a9493929190613e9a565b60408051601f19818403018152919052805160209091012095945050505050565b60006112bb338787878787612230565b61114186866112ca8787611f63565b8561114b565b60008181526002602090815260409182902060018101805484518185028101850190955280855291936110bd9390929083018282801561133957602002820191906000526020600020905b81546001600160a01b0316815260019091019060200180831161131b575b50505050508260020180548060200260200160405190810160405280929190818152602001828054801561138c57602002820191906000526020600020905b815481526020019060010190808311611378575b505050505061153484600301805480602002602001604051908101604052809291908181526020016000905b828210156114645783829060005260206000200180546113d7906141ba565b80601f0160208091040260200160405190810160405280929190818152602001828054611403906141ba565b80156114505780601f1061142557610100808354040283529160200191611450565b820191906000526020600020905b81548152906001019060200180831161143357829003601f168201915b5050505050815260200190600101906113b8565b50505060048701805460408051602080840282018101909252828152935060009084015b828210156110aa5783829060005260206000200180546114a7906141ba565b80601f01602080910402602001604051908101604052809291908181526020018280546114d3906141ba565b80156115205780601f106114f557610100808354040283529160200191611520565b820191906000526020600020905b81548152906001019060200180831161150357829003601f168201915b505050505081526020019060010190611488565b84600901546109f0565b600061154a83836122ed565b9392505050565b60008181526002602090815260409182902060018101805484518185028101850190955280855291936110bd939092908301828280156115ba57602002820191906000526020600020905b81546001600160a01b0316815260019091019060200180831161159c575b50505050508260020180548060200260200160405190810160405280929190818152602001828054801561160d57602002820191906000526020600020905b8154815260200190600101908083116115f9575b50505050506117b584600301805480602002602001604051908101604052809291908181526020016000905b828210156116e5578382906000526020600020018054611658906141ba565b80601f0160208091040260200160405190810160405280929190818152602001828054611684906141ba565b80156116d15780601f106116a6576101008083540402835291602001916116d1565b820191906000526020600020905b8154815290600101906020018083116116b457829003601f168201915b505050505081526020019060010190611639565b50505060048701805460408051602080840282018101909252828152935060009084015b828210156110aa578382906000526020600020018054611728906141ba565b80601f0160208091040260200160405190810160405280929190818152602001828054611754906141ba565b80156117a15780601f10611776576101008083540402835291602001916117a1565b820191906000526020600020905b81548152906001019060200180831161178457829003601f168201915b505050505081526020019060010190611709565b8460090154610a17565b60006001600160e01b03198216636e665ced60e01b14806109565750610956826123a2565b6000806117f386868686611271565b9050600461180082610d81565b600781111561181f57634e487b7160e01b600052602160045260246000fd5b1461183c5760405162461bcd60e51b8152600401610e4b90613fae565b60035460408051630d48571f60e31b815290516000926001600160a01b031691636a42b8f8916004808301926020929190829003018186803b15801561188157600080fd5b505afa158015611895573d6000803e3d6000fd5b505050506040513d601f19601f820116820180604052508101906118b99190613b2c565b6118c39042614134565b90506118e56118d1826123d7565b600084815260046020526040902090612443565b60005b8751811015611ba85760035488516001600160a01b039091169063f2b06537908a908490811061192857634e487b7160e01b600052603260045260246000fd5b602002602001015189848151811061195057634e487b7160e01b600052603260045260246000fd5b602002602001015189858151811061197857634e487b7160e01b600052603260045260246000fd5b6020026020010151866040516020016119949493929190613e55565b604051602081830303815290604052805190602001206040518263ffffffff1660e01b81526004016119c891815260200190565b60206040518083038186803b1580156119e057600080fd5b505afa1580156119f4573d6000803e3d6000fd5b505050506040513d601f19601f82011682018060405250810190611a189190613b0c565b15611a965760405162461bcd60e51b815260206004820152604260248201527f476f7665726e6f7254696d656c6f636b436f6d706f756e643a206964656e746960448201527f63616c2070726f706f73616c20616374696f6e20616c72656164792071756575606482015261195960f21b608482015260a401610e4b565b60035488516001600160a01b0390911690633a66f901908a9084908110611acd57634e487b7160e01b600052603260045260246000fd5b6020026020010151898481518110611af557634e487b7160e01b600052603260045260246000fd5b6020026020010151898581518110611b1d57634e487b7160e01b600052603260045260246000fd5b6020026020010151866040518563ffffffff1660e01b8152600401611b459493929190613e55565b602060405180830381600087803b158015611b5f57600080fd5b505af1158015611b73573d6000803e3d6000fd5b505050506040513d601f19601f82011682018060405250810190611b979190613b2c565b50611ba1816141ef565b90506118e8565b5060408051838152602081018390527f9a2e42fd6722813d69113e7d0079d3d940171428df7373df9c7f7617cfda289291015b60405180910390a15095945050505050565b600080611bfc86868686611271565b90506000611c0982610d81565b90506004816007811115611c2d57634e487b7160e01b600052602160045260246000fd5b1480611c5857506005816007811115611c5657634e487b7160e01b600052602160045260246000fd5b145b611c745760405162461bcd60e51b8152600401610e4b90613fae565b600082815260016020818152604092839020600201805460ff191690921790915590518381527f712ae1383f79ac853f8d882153778e0260ef8f03b504e2866e0593e04d2b291f910160405180910390a1611cd28288888888612461565b5095945050505050565b6000610956611ce9612475565b8360405161190160f01b6020820152602281018390526042810182905260009060620160405160208183030381529060405280519060200120905092915050565b6000806000611d3b8787878761256c565b91509150611cd281612659565b6000848152600160208190526040822090611d6287610d81565b6007811115611d8157634e487b7160e01b600052602160045260246000fd5b14611dda5760405162461bcd60e51b815260206004820152602360248201527f476f7665726e6f723a20766f7465206e6f742063757272656e746c792061637460448201526269766560e81b6064820152608401610e4b565b604080516020810190915281546001600160401b031690819052600090611e0290879061153e565b9050611e108787878461285c565b856001600160a01b03167fb8e138887d0aa13bab447e82de9d5c1777041ecd21ca36ba824ff1e6c07ddda488878488604051611e4f9493929190614092565b60405180910390a29695505050505050565b600080611e6d83612a05565b90506004816007811115611e9157634e487b7160e01b600052602160045260246000fd5b14611e9d579050610959565b6000611ea8846111cd565b905080611eb757509050610959565b600360009054906101000a90046001600160a01b03166001600160a01b031663c1a287e26040518163ffffffff1660e01b815260040160206040518083038186803b158015611f0557600080fd5b505afa158015611f19573d6000803e3d6000fd5b505050506040513d601f19601f82011682018060405250810190611f3d9190613b2c565b611f479082614134565b4210611f5857600692505050610959565b600592505050610959565b6060600082516001600160401b03811115611f8e57634e487b7160e01b600052604160045260246000fd5b604051908082528060200260200182016040528015611fc157816020015b6060815260200190600190039081611fac5790505b50905060005b845181101561210f57848181518110611ff057634e487b7160e01b600052603260045260246000fd5b6020026020010151516000146120aa5784818151811061202057634e487b7160e01b600052603260045260246000fd5b602002602001015184828151811061204857634e487b7160e01b600052603260045260246000fd5b60200260200101516040516024016120609190613f32565b60408051601f19818403018152908290529161207b91613e39565b6040519081900390206020820180516001600160e01b03166001600160e01b03199092169190911790526120d3565b8381815181106120ca57634e487b7160e01b600052603260045260246000fd5b60200260200101515b8282815181106120f357634e487b7160e01b600052603260045260246000fd5b602002602001018190525080612108906141ef565b9050611fc7565b509392505050565b60006109fe85858585612b71565b600061218f33868686516001600160401b0381111561215457634e487b7160e01b600052604160045260246000fd5b60405190808252806020026020018201604052801561218757816020015b60608152602001906001900390816121725790505b508787612230565b6109fe85858585612cb6565b600354604080516001600160a01b03928316815291831660208301527f08f74ea46ef7894f65eabfb5e6e695de773a000b47c529ab559178069b226401910160405180910390a1600380546001600160a01b0319166001600160a01b0392909216919091179055565b60008181526004602090815260408083208151928301909152546001600160401b031690819052610a4d565b80516020820120600061224e87876122488888611f63565b85611271565b60008181526002602052604090206009810154919250906122e25780546001600160a01b0319166001600160a01b038a16178155875161229790600183019060208b01906134a1565b5086516122ad90600283019060208a0190613502565b5085516122c3906003830190602089019061353d565b5084516122d99060048301906020880190613596565b50600981018390555b505050505050505050565b60405163782d6fe160e01b81526001600160a01b038381166004830152602482018390526000917f00000000000000000000000000000000000000000000000000000000000000009091169063782d6fe19060440160206040518083038186803b15801561235a57600080fd5b505afa15801561236e573d6000803e3d6000fd5b505050506040513d601f19601f820116820180604052508101906123929190613d31565b6001600160601b03169392505050565b60006001600160e01b0319821663bf26d89760e01b148061095657506301ffc9a760e01b6001600160e01b0319831614610956565b60006001600160401b0382111561243f5760405162461bcd60e51b815260206004820152602660248201527f53616665436173743a2076616c756520646f65736e27742066697420696e203660448201526534206269747360d01b6064820152608401610e4b565b5090565b815467ffffffffffffffff19166001600160401b0391909116179055565b61246e8585858585612d74565b5050505050565b60007f00000000000000000000000000000000000000000000000000000000000000004614156124c657507f0000000000000000000000000000000000000000000000000000000000000000610883565b50604080517f00000000000000000000000000000000000000000000000000000000000000006020808301919091527f0000000000000000000000000000000000000000000000000000000000000000828401527f000000000000000000000000000000000000000000000000000000000000000060608301524660808301523060a0808401919091528351808403909101815260c09092019092528051910120610883565b6000807f7fffffffffffffffffffffffffffffff5d576e7357a4501ddfe92f46681b20a08311156125a35750600090506003612650565b8460ff16601b141580156125bb57508460ff16601c14155b156125cc5750600090506004612650565b6040805160008082526020820180845289905260ff881692820192909252606081018690526080810185905260019060a0016020604051602081039080840390855afa158015612620573d6000803e3d6000fd5b5050604051601f1901519150506001600160a01b03811661264957600060019250925050612650565b9150600090505b94509492505050565b600081600481111561267b57634e487b7160e01b600052602160045260246000fd5b1415612686576111ca565b60018160048111156126a857634e487b7160e01b600052602160045260246000fd5b14156126f65760405162461bcd60e51b815260206004820152601860248201527f45434453413a20696e76616c6964207369676e617475726500000000000000006044820152606401610e4b565b600281600481111561271857634e487b7160e01b600052602160045260246000fd5b14156127665760405162461bcd60e51b815260206004820152601f60248201527f45434453413a20696e76616c6964207369676e6174757265206c656e677468006044820152606401610e4b565b600381600481111561278857634e487b7160e01b600052602160045260246000fd5b14156127e15760405162461bcd60e51b815260206004820152602260248201527f45434453413a20696e76616c6964207369676e6174757265202773272076616c604482015261756560f01b6064820152608401610e4b565b600481600481111561280357634e487b7160e01b600052602160045260246000fd5b14156111ca5760405162461bcd60e51b815260206004820152602260248201527f45434453413a20696e76616c6964207369676e6174757265202776272076616c604482015261756560f01b6064820152608401610e4b565b60008481526002602090815260408083206001600160a01b038716845260088101909252909120805460ff16156128eb5760405162461bcd60e51b815260206004820152602d60248201527f476f7665726e6f72436f6d7061746962696c697479427261766f3a20766f746560448201526c08185b1c9958591e4818d85cdd609a1b6064820152608401610e4b565b8054600160ff199091161761ff00191661010060ff86160217815561290f83612f2c565b81546001600160601b039190911662010000026dffffffffffffffffffffffff00001990911617815560ff841661295f57828260060160008282546129549190614134565b909155506129fd9050565b60ff84166001141561297f57828260050160008282546129549190614134565b60ff84166002141561299f57828260070160008282546129549190614134565b60405162461bcd60e51b815260206004820152602d60248201527f476f7665726e6f72436f6d7061746962696c697479427261766f3a20696e766160448201526c6c696420766f7465207479706560981b6064820152608401610e4b565b505050505050565b6000818152600160208181526040808420815160a08101835281546001600160401b0390811660808301908152825283518086018552958301541685529283019390935260029092015460ff80821615801594840194909452610100909104161515606082015290612a7b576007915050610959565b806060015115612a8f576002915050610959565b805151436001600160401b039091161115612aae576000915050610959565b602081015151436001600160401b039091161115612ad0576001915050610959565b612add8160200151612f94565b15612b2357612aeb83612fc3565b8015612b0d575060008381526002602052604090206006810154600590910154115b612b18576003612b1b565b60045b915050610959565b60405162461bcd60e51b815260206004820152601d60248201527f476f7665726e6f723a20756e6b6e6f776e2070726f706f73616c2069640000006044820152606401610e4b565b50919050565b600080612b8086868686612fea565b90506000612b8d826111cd565b90508015611cd25760005b8751811015612c935760035488516001600160a01b039091169063591fcdfe908a9084908110612bd857634e487b7160e01b600052603260045260246000fd5b6020026020010151898481518110612c0057634e487b7160e01b600052603260045260246000fd5b6020026020010151898581518110612c2857634e487b7160e01b600052603260045260246000fd5b6020026020010151866040518563ffffffff1660e01b8152600401612c509493929190613e55565b600060405180830381600087803b158015612c6a57600080fd5b505af1158015612c7e573d6000803e3d6000fd5b5050505080612c8c906141ef565b9050612b98565b506000828152600460205260409020805467ffffffffffffffff19169055611cd2565b60007f0000000000000000000000000000000000000000000000000000000000000000612ce8336107ff600143614177565b1015612d685760405162461bcd60e51b815260206004820152604360248201527f476f7665726e6f72436f6d7061746962696c697479427261766f3a2070726f7060448201527f6f73657220766f7465732062656c6f772070726f706f73616c207468726573686064820152621bdb1960ea1b608482015260a401610e4b565b6109fe85858585613120565b6000612d7f866111cd565b905060008111612deb5760405162461bcd60e51b815260206004820152603160248201527f476f7665726e6f7254696d656c6f636b436f6d706f756e643a2070726f706f73604482015270185b081b9bdd081e595d081c5d595d5959607a1b6064820152608401610e4b565b600354612e01906001600160a01b031634613388565b60005b8551811015612f235760035486516001600160a01b0390911690630825f38f90889084908110612e4457634e487b7160e01b600052603260045260246000fd5b6020026020010151878481518110612e6c57634e487b7160e01b600052603260045260246000fd5b6020026020010151878581518110612e9457634e487b7160e01b600052603260045260246000fd5b6020026020010151866040518563ffffffff1660e01b8152600401612ebc9493929190613e55565b600060405180830381600087803b158015612ed657600080fd5b505af1158015612eea573d6000803e3d6000fd5b505050506040513d6000823e601f3d908101601f19168201604052612f129190810190613b6c565b50612f1c816141ef565b9050612e04565b50505050505050565b60006001600160601b0382111561243f5760405162461bcd60e51b815260206004820152602660248201527f53616665436173743a2076616c756520646f65736e27742066697420696e203960448201526536206269747360d01b6064820152608401610e4b565b6000612fa982516001600160401b0316151590565b801561095657505051436001600160401b03909116111590565b60008181526002602052604081206005810154612fe261081f85610a25565b109392505050565b600080612ff986868686611271565b9050600061300682610d81565b9050600281600781111561302a57634e487b7160e01b600052602160045260246000fd5b141580156130585750600681600781111561305557634e487b7160e01b600052602160045260246000fd5b14155b80156130845750600781600781111561308157634e487b7160e01b600052602160045260246000fd5b14155b6130d05760405162461bcd60e51b815260206004820152601d60248201527f476f7665726e6f723a2070726f706f73616c206e6f74206163746976650000006044820152606401610e4b565b60008281526001602052604090819020600201805461ff001916610100179055517f789cf55be980739dad1d0699b93b58e806b51c9d96619bfa8fe0a28abaa7b30c90611bdb9084815260200190565b6000806131368686868680519060200120611271565b905084518651146131595760405162461bcd60e51b8152600401610e4b90613f6d565b835186511461317a5760405162461bcd60e51b8152600401610e4b90613f6d565b60008651116131cb5760405162461bcd60e51b815260206004820152601860248201527f476f7665726e6f723a20656d7074792070726f706f73616c00000000000000006044820152606401610e4b565b600081815260016020908152604091829020825191820190925281546001600160401b0316908190521561324b5760405162461bcd60e51b815260206004820152602160248201527f476f7665726e6f723a2070726f706f73616c20616c72656164792065786973746044820152607360f81b6064820152608401610e4b565b60006132777f00000000000000000000000000000000000000000000000000000000000000005b6123d7565b613280436123d7565b61328a919061414c565b905060006132b77f0000000000000000000000000000000000000000000000000000000000000000613272565b6132c1908361414c565b90506132cd8383612443565b6132da6001840182612443565b7f7d84a6263ae0d98d3329bd7b46bb4e8d6f98cd35a7adb45c274c8b7fd5ebd5e084338b8b8d516001600160401b0381111561332657634e487b7160e01b600052604160045260246000fd5b60405190808252806020026020018201604052801561335957816020015b60608152602001906001900390816133445790505b508c88888e60405161337399989796959493929190613fef565b60405180910390a15091979650505050505050565b804710156133d85760405162461bcd60e51b815260206004820152601d60248201527f416464726573733a20696e73756666696369656e742062616c616e63650000006044820152606401610e4b565b6000826001600160a01b03168260405160006040518083038185875af1925050503d8060008114613425576040519150601f19603f3d011682016040523d82523d6000602084013e61342a565b606091505b50509050806110bd5760405162461bcd60e51b815260206004820152603a60248201527f416464726573733a20756e61626c6520746f2073656e642076616c75652c207260448201527f6563697069656e74206d617920686176652072657665727465640000000000006064820152608401610e4b565b8280548282559060005260206000209081019282156134f6579160200282015b828111156134f657825182546001600160a01b0319166001600160a01b039091161782556020909201916001909101906134c1565b5061243f9291506135ef565b8280548282559060005260206000209081019282156134f6579160200282015b828111156134f6578251825591602001919060010190613522565b82805482825590600052602060002090810192821561358a579160200282015b8281111561358a578251805161357a918491602090910190613604565b509160200191906001019061355d565b5061243f929150613677565b8280548282559060005260206000209081019282156135e3579160200282015b828111156135e357825180516135d3918491602090910190613604565b50916020019190600101906135b6565b5061243f929150613694565b5b8082111561243f57600081556001016135f0565b828054613610906141ba565b90600052602060002090601f01602090048101928261363257600085556134f6565b82601f1061364b57805160ff19168380011785556134f6565b828001600101855582156134f657918201828111156134f6578251825591602001919060010190613522565b8082111561243f57600061368b82826136b1565b50600101613677565b8082111561243f5760006136a882826136b1565b50600101613694565b5080546136bd906141ba565b6000825580601f106136cf57506111ca565b601f0160209004906000526020600020908101906111ca91906135ef565b60006137006136fb8461410d565b6140ba565b905082815283838301111561371457600080fd5b828260208301376000602084830101529392505050565b600082601f83011261373b578081fd5b8135602061374b6136fb836140ea565b8281528181019085830183850287018401881015613767578586fd5b855b8581101561378e57813561377c81614236565b84529284019290840190600101613769565b5090979650505050505050565b600082601f8301126137ab578081fd5b813560206137bb6136fb836140ea565b82815281810190858301855b8581101561378e578135880189603f8201126137e1578788fd5b6137f28a87830135604084016136ed565b85525092840192908401906001016137c7565b600082601f830112613815578081fd5b813560206138256136fb836140ea565b82815281810190858301855b8581101561378e57613848898684358b01016138b4565b84529284019290840190600101613831565b600082601f83011261386a578081fd5b8135602061387a6136fb836140ea565b8281528181019085830183850287018401881015613896578586fd5b855b8581101561378e57813584529284019290840190600101613898565b600082601f8301126138c4578081fd5b61154a838335602085016136ed565b803560ff8116811461095957600080fd5b600080604083850312156138f6578182fd5b823561390181614236565b946020939093013593505050565b60008060008060808587031215613924578182fd5b84356001600160401b038082111561393a578384fd5b6139468883890161372b565b9550602087013591508082111561395b578384fd5b6139678883890161385a565b9450604087013591508082111561397c578384fd5b506139898782880161379b565b949793965093946060013593505050565b600080600080608085870312156139af578182fd5b84356001600160401b03808211156139c5578384fd5b6139d18883890161372b565b955060208701359150808211156139e6578384fd5b6139f28883890161385a565b94506040870135915080821115613a07578384fd5b613a138883890161379b565b93506060870135915080821115613a28578283fd5b50613a35878288016138b4565b91505092959194509250565b600080600080600060a08688031215613a58578283fd5b85356001600160401b0380821115613a6e578485fd5b613a7a89838a0161372b565b96506020880135915080821115613a8f578485fd5b613a9b89838a0161385a565b95506040880135915080821115613ab0578485fd5b613abc89838a01613805565b94506060880135915080821115613ad1578283fd5b613add89838a0161379b565b93506080880135915080821115613af2578283fd5b50613aff888289016138b4565b9150509295509295909350565b600060208284031215613b1d578081fd5b8151801515811461154a578182fd5b600060208284031215613b3d578081fd5b5051919050565b600060208284031215613b55578081fd5b81356001600160e01b03198116811461154a578182fd5b600060208284031215613b7d578081fd5b81516001600160401b03811115613b92578182fd5b8201601f81018413613ba2578182fd5b8051613bb06136fb8261410d565b818152856020838501011115613bc4578384fd5b6109fe82602083016020860161418e565b600060208284031215613be6578081fd5b813561154a81614236565b600060208284031215613c02578081fd5b5035919050565b60008060408385031215613c1b578182fd5b823591506020830135613c2d81614236565b809150509250929050565b60008060408385031215613c4a578182fd5b82359150613c5a602084016138d3565b90509250929050565b60008060008060608587031215613c78578182fd5b84359350613c88602086016138d3565b925060408501356001600160401b0380821115613ca3578384fd5b818701915087601f830112613cb6578384fd5b813581811115613cc4578485fd5b886020828501011115613cd5578485fd5b95989497505060200194505050565b600080600080600060a08688031215613cfb578283fd5b85359450613d0b602087016138d3565b9350613d19604087016138d3565b94979396509394606081013594506080013592915050565b600060208284031215613d42578081fd5b81516001600160601b038116811461154a578182fd5b6000815180845260208085019450808401835b83811015613d905781516001600160a01b031687529582019590820190600101613d6b565b509495945050505050565b6000815180845260208085019450848183028601828601855b8581101561378e578383038952613dcc838351613e0d565b98850198925090840190600101613db4565b6000815180845260208085019450808401835b83811015613d9057815187529582019590820190600101613df1565b60008151808452613e2581602086016020860161418e565b601f01601f19169290920160200192915050565b60008251613e4b81846020870161418e565b9190910192915050565b600060018060a01b038616825284602083015260a060408301528060a083015260c06060830152613e8960c0830185613e0d565b905082608083015295945050505050565b600060808252613ead6080830187613d58565b8281036020840152613ebf8187613dde565b90508281036040840152613ed38186613d9b565b91505082606083015295945050505050565b600060808252613ef86080830187613d58565b8281036020840152613f0a8187613dde565b90508281036040840152613f1e8186613d9b565b90508281036060840152610d768185613d9b565b60006020825261154a6020830184613e0d565b6020810160088310613f6757634e487b7160e01b600052602160045260246000fd5b91905290565b60208082526021908201527f476f7665726e6f723a20696e76616c69642070726f706f73616c206c656e67746040820152600d60fb1b606082015260800190565b60208082526021908201527f476f7665726e6f723a2070726f706f73616c206e6f74207375636365737366756040820152601b60fa1b606082015260800190565b8981526001600160a01b03891660208201526101206040820181905260009061401a8382018b613d58565b9050828103606084015261402e818a613dde565b905082810360808401526140428189613d9b565b905082810360a08401526140568188613d9b565b6001600160401b0387811660c0860152861660e085015283810361010085015290506140828185613e0d565b9c9b505050505050505050505050565b600085825260ff85166020830152836040830152608060608301526111416080830184613e0d565b604051601f8201601f191681016001600160401b03811182821017156140e2576140e2614220565b604052919050565b60006001600160401b0382111561410357614103614220565b5060209081020190565b60006001600160401b0382111561412657614126614220565b50601f01601f191660200190565b600082198211156141475761414761420a565b500190565b60006001600160401b0380831681851680830382111561416e5761416e61420a565b01949350505050565b6000828210156141895761418961420a565b500390565b60005b838110156141a9578181015183820152602001614191565b8381111561123c5750506000910152565b6002810460018216806141ce57607f821691505b60208210811415612b6b57634e487b7160e01b600052602260045260246000fd5b60006000198214156142035761420361420a565b5060010190565b634e487b7160e01b600052601160045260246000fd5b634e487b7160e01b600052604160045260246000fd5b6001600160a01b03811681146111ca57600080fdfea2646970667358221220d2f97bf546a7686cd75ae78f49e51e5f9bdf27a539fad70772c9b0ab40ee6a6964736f6c63430008020033",
  "immutableReferences": {
    "5599": [
      {
        "length": 32,
        "start": 2103
      },
      {
        "length": 32,
        "start": 8982
      }
    ],
    "10383": [
      {
        "length": 32,
        "start": 993
      },
      {
        "length": 32,
        "start": 12882
      }
    ],
    "10385": [
      {
        "length": 32,
        "start": 746
      },
      {
        "length": 32,
        "start": 12947
      }
    ],
    "10387": [
      {
        "length": 32,
        "start": 1461
      },
      {
        "length": 32,
        "start": 3512
      },
      {
        "length": 32,
        "start": 11450
      }
    ],
    "24808": [
      {
        "length": 32,
        "start": 9378
      }
    ],
    "24810": [
      {
        "length": 32,
        "start": 9337
      }
    ],
    "24812": [
      {
        "length": 32,
        "start": 9463
      }
    ],
    "24814": [
      {
        "length": 32,
        "start": 9500
      }
    ],
    "24816": [
      {
        "length": 32,
        "start": 9421
      }
    ]
  },
  "source": "// SPDX-License-Identifier: MIT\n\npragma solidity ^0.8.0;\n\nimport \"../governance/compatibility/GovernorCompatibilityBravo.sol\";\nimport \"../governance/extensions/GovernorVotesComp.sol\";\nimport \"../governance/extensions/GovernorTimelockCompound.sol\";\n\ncontract GovernorCompatibilityBravoMock is GovernorCompatibilityBravo, GovernorTimelockCompound, GovernorVotesComp {\n    uint256 immutable _votingDelay;\n    uint256 immutable _votingPeriod;\n    uint256 immutable _proposalThreshold;\n\n    constructor(\n        string memory name_,\n        ERC20VotesComp token_,\n        uint256 votingDelay_,\n        uint256 votingPeriod_,\n        uint256 proposalThreshold_,\n        ICompoundTimelock timelock_\n    ) Governor(name_) GovernorVotesComp(token_) GovernorTimelockCompound(timelock_) {\n        _votingDelay = votingDelay_;\n        _votingPeriod = votingPeriod_;\n        _proposalThreshold = proposalThreshold_;\n    }\n\n    function supportsInterface(bytes4 interfaceId)\n        public\n        view\n        virtual\n        override(IERC165, Governor, GovernorTimelockCompound)\n        returns (bool)\n    {\n        return super.supportsInterface(interfaceId);\n    }\n\n    function votingDelay() public view override returns (uint256) {\n        return _votingDelay;\n    }\n\n    function votingPeriod() public view override returns (uint256) {\n        return _votingPeriod;\n    }\n\n    function proposalThreshold() public view virtual override returns (uint256) {\n        return _proposalThreshold;\n    }\n\n    function quorum(uint256) public pure override returns (uint256) {\n        return 0;\n    }\n\n    function state(uint256 proposalId)\n        public\n        view\n        virtual\n        override(IGovernor, Governor, GovernorTimelockCompound)\n        returns (ProposalState)\n    {\n        return super.state(proposalId);\n    }\n\n    function proposalEta(uint256 proposalId)\n        public\n        view\n        virtual\n        override(IGovernorTimelock, GovernorTimelockCompound)\n        returns (uint256)\n    {\n        return super.proposalEta(proposalId);\n    }\n\n    function propose(\n        address[] memory targets,\n        uint256[] memory values,\n        bytes[] memory calldatas,\n        string memory description\n    ) public virtual override(IGovernor, Governor, GovernorCompatibilityBravo) returns (uint256) {\n        return super.propose(targets, values, calldatas, description);\n    }\n\n    function queue(\n        address[] memory targets,\n        uint256[] memory values,\n        bytes[] memory calldatas,\n        bytes32 salt\n    ) public virtual override(IGovernorTimelock, GovernorTimelockCompound) returns (uint256) {\n        return super.queue(targets, values, calldatas, salt);\n    }\n\n    function execute(\n        address[] memory targets,\n        uint256[] memory values,\n        bytes[] memory calldatas,\n        bytes32 salt\n    ) public payable virtual override(IGovernor, Governor) returns (uint256) {\n        return super.execute(targets, values, calldatas, salt);\n    }\n\n    function _execute(\n        uint256 proposalId,\n        address[] memory targets,\n        uint256[] memory values,\n        bytes[] memory calldatas,\n        bytes32 descriptionHash\n    ) internal virtual override(Governor, GovernorTimelockCompound) {\n        super._execute(proposalId, targets, values, calldatas, descriptionHash);\n    }\n\n    /**\n     * @notice WARNING: this is for mock purposes only. Ability to the _cancel function should be restricted for live\n     * deployments.\n     */\n    function cancel(\n        address[] memory targets,\n        uint256[] memory values,\n        bytes[] memory calldatas,\n        bytes32 salt\n    ) public returns (uint256 proposalId) {\n        return _cancel(targets, values, calldatas, salt);\n    }\n\n    function _cancel(\n        address[] memory targets,\n        uint256[] memory values,\n        bytes[] memory calldatas,\n        bytes32 salt\n    ) internal virtual override(Governor, GovernorTimelockCompound) returns (uint256 proposalId) {\n        return super._cancel(targets, values, calldatas, salt);\n    }\n\n    function getVotes(address account, uint256 blockNumber)\n        public\n        view\n        virtual\n        override(IGovernor, GovernorVotesComp)\n        returns (uint256)\n    {\n        return super.getVotes(account, blockNumber);\n    }\n\n    function _executor() internal view virtual override(Governor, GovernorTimelockCompound) returns (address) {\n        return super._executor();\n    }\n}\n",
  "sourcePath": "/Users/shangyihuang/Documents/SocialFi/client/contracts/contracts/mocks/GovernorCompatibilityBravoMock.sol",
  "compiler": {
    "name": "solc",
    "version": "0.8.2+commit.661d1103.Emscripten.clang"
  },
  "schemaVersion": "3.4.7",
  "updatedAt": "2022-05-05T11:49:18.565Z",
  "devdoc": {
    "kind": "dev",
    "methods": {
      "COUNTING_MODE()": {
        "details": "A description of the possible `support` values for {castVote} and the way these votes are counted, meant to be consumed by UIs to show correct vote options and interpret the results. The string is a URL-encoded sequence of key-value pairs that each describe one aspect, for example `support=bravo&quorum=for,abstain`. There are 2 standard keys: `support` and `quorum`. - `support=bravo` refers to the vote options 0 = For, 1 = Against, 2 = Abstain, as in `GovernorBravo`. - `quorum=bravo` means that only For votes are counted towards quorum. - `quorum=for,abstain` means that both For and Abstain votes are counted towards quorum. NOTE: The string can be decoded by the standard https://developer.mozilla.org/en-US/docs/Web/API/URLSearchParams[`URLSearchParams`] JavaScript class."
      },
      "__acceptAdmin()": {
        "details": "Accept admin right over the timelock."
      },
      "cancel(uint256)": {
        "details": "Cancels a proposal only if sender is the proposer, or proposer delegates dropped below proposal threshold."
      },
      "castVote(uint256,uint8)": {
        "details": "See {IGovernor-castVote}."
      },
      "castVoteBySig(uint256,uint8,uint8,bytes32,bytes32)": {
        "details": "See {IGovernor-castVoteBySig}."
      },
      "castVoteWithReason(uint256,uint8,string)": {
        "details": "See {IGovernor-castVoteWithReason}."
      },
      "execute(uint256)": {
        "details": "See {IGovernorCompatibilityBravo-execute}."
      },
      "getActions(uint256)": {
        "details": "See {IGovernorCompatibilityBravo-getActions}."
      },
      "getReceipt(uint256,address)": {
        "details": "See {IGovernorCompatibilityBravo-getReceipt}."
      },
      "hasVoted(uint256,address)": {
        "details": "See {IGovernor-hasVoted}."
      },
      "hashProposal(address[],uint256[],bytes[],bytes32)": {
        "details": "See {IGovernor-hashProposal}. The proposal id is produced by hashing the RLC encoded `targets` array, the `values` array, the `calldatas` array and the descriptionHash (bytes32 which itself is the keccak256 hash of the description string). This proposal id can be produced from the proposal data which is part of the {ProposalCreated} event. It can even be computed in advance, before the proposal is submitted. Note that the chainId and the governor address are not part of the proposal id computation. Consequently, the same proposal (with same operation and same description) will have the same id if submitted on multiple governors accross multiple networks. This also means that in order to execute the same operation twice (on the same governor) the proposer will have to change the description in order to avoid proposal id conflicts."
      },
      "name()": {
        "details": "See {IGovernor-name}."
      },
      "proposalDeadline(uint256)": {
        "details": "See {IGovernor-proposalDeadline}."
      },
      "proposalSnapshot(uint256)": {
        "details": "See {IGovernor-proposalSnapshot}."
      },
      "proposalThreshold()": {
        "details": "Part of the Governor Bravo's interface: _\"The number of votes required in order for a voter to become a proposer\"_."
      },
      "proposals(uint256)": {
        "details": "See {IGovernorCompatibilityBravo-proposals}."
      },
      "propose(address[],uint256[],string[],bytes[],string)": {
        "details": "See {IGovernorCompatibilityBravo-propose}."
      },
      "queue(uint256)": {
        "details": "See {IGovernorCompatibilityBravo-queue}."
      },
      "quorumVotes()": {
        "details": "See {IGovernorCompatibilityBravo-quorumVotes}."
      },
      "timelock()": {
        "details": "Public accessor to check the address of the timelock"
      },
      "updateTimelock(address)": {
        "details": "Public endpoint to update the underlying timelock instance. Restricted to the timelock itself, so updates must be proposed, scheduled and executed using the {Governor} workflow. For security reason, the timelock must be handed over to another admin before setting up a new one. The two operations (hand over the timelock) and do the update can be batched in a single proposal. Note that if the timelock admin has been handed over in a previous operation, we refuse updates made through the timelock if admin of the timelock has already been accepted and the operation is executed outside the scope of governance."
      },
      "version()": {
        "details": "See {IGovernor-version}."
      },
      "votingDelay()": {
        "details": "delay, in number of block, between the proposal is created and the vote starts. This can be increassed to leave time for users to buy voting power, of delegate it, before the voting of a proposal starts."
      },
      "votingPeriod()": {
        "details": "delay, in number of blocks, between the vote start and vote ends. Note: the {votingDelay} can delay the start of the vote. This must be considered when setting the voting duration compared to the voting delay."
      }
    },
    "version": 1
  },
  "userdoc": {
    "kind": "user",
    "methods": {
      "COUNTING_MODE()": {
        "notice": "module:voting"
      },
      "cancel(address[],uint256[],bytes[],bytes32)": {
        "notice": "WARNING: this is for mock purposes only. Ability to the _cancel function should be restricted for live deployments."
      },
      "votingDelay()": {
        "notice": "module:user-config"
      },
      "votingPeriod()": {
        "notice": "module:user-config"
      }
    },
    "version": 1
  }
}