{
  "contractName": "GroupBet",
  "abi": [
    {
      "inputs": [
        {
          "internalType": "string",
          "name": "name",
          "type": "string"
        },
        {
          "internalType": "string",
          "name": "symbol",
          "type": "string"
        }
      ],
      "stateMutability": "nonpayable",
      "type": "constructor"
    },
    {
      "anonymous": false,
      "inputs": [
        {
          "indexed": false,
          "internalType": "uint256",
          "name": "amount",
          "type": "uint256"
        },
        {
          "indexed": false,
          "internalType": "uint256",
          "name": "contractBalance",
          "type": "uint256"
        }
      ],
      "name": "BetReceived",
      "type": "event"
    },
    {
      "inputs": [],
      "name": "getInitiator",
      "outputs": [
        {
          "internalType": "address",
          "name": "",
          "type": "address"
        }
      ],
      "stateMutability": "view",
      "type": "function",
      "constant": true
    },
    {
      "inputs": [],
      "name": "setAsInitiator",
      "outputs": [],
      "stateMutability": "nonpayable",
      "type": "function"
    },
    {
      "inputs": [
        {
          "internalType": "address",
          "name": "_initiator",
          "type": "address"
        }
      ],
      "name": "setInitiator",
      "outputs": [],
      "stateMutability": "nonpayable",
      "type": "function"
    },
    {
      "inputs": [
        {
          "internalType": "uint256",
          "name": "x",
          "type": "uint256"
        }
      ],
      "name": "bet",
      "outputs": [],
      "stateMutability": "payable",
      "type": "function",
      "payable": true
    },
    {
      "inputs": [
        {
          "internalType": "uint256",
          "name": "winner",
          "type": "uint256"
        }
      ],
      "name": "draw",
      "outputs": [],
      "stateMutability": "payable",
      "type": "function",
      "payable": true
    },
    {
      "inputs": [],
      "name": "getAllPlayers",
      "outputs": [
        {
          "internalType": "address[]",
          "name": "",
          "type": "address[]"
        }
      ],
      "stateMutability": "view",
      "type": "function",
      "constant": true
    },
    {
      "inputs": [
        {
          "internalType": "address",
          "name": "player",
          "type": "address"
        }
      ],
      "name": "getBetOfPlayer",
      "outputs": [
        {
          "components": [
            {
              "internalType": "uint256",
              "name": "target",
              "type": "uint256"
            },
            {
              "internalType": "uint256",
              "name": "amount",
              "type": "uint256"
            }
          ],
          "internalType": "struct GroupBet.Bet",
          "name": "",
          "type": "tuple"
        }
      ],
      "stateMutability": "view",
      "type": "function",
      "constant": true
    },
    {
      "inputs": [],
      "name": "getBalance",
      "outputs": [
        {
          "internalType": "uint256",
          "name": "",
          "type": "uint256"
        }
      ],
      "stateMutability": "view",
      "type": "function",
      "constant": true
    }
  ],
  "bytecode": "0x608060405234801561001057600080fd5b506040516108af3803806108af83398101604081905261002f916100de565b5050610154565b600082601f830112610046578081fd5b81516001600160401b03808211156100605761006061013e565b604051601f8301601f19908116603f011681019082821181831017156100885761008861013e565b816040528381526020925086838588010111156100a3578485fd5b8491505b838210156100c457858201830151818301840152908201906100a7565b838211156100d457848385830101525b9695505050505050565b600080604083850312156100f0578182fd5b82516001600160401b0380821115610106578384fd5b61011286838701610036565b93506020850151915080821115610127578283fd5b5061013485828601610036565b9150509250929050565b634e487b7160e01b600052604160045260246000fd5b61074c806101636000396000f3fe60806040526004361061007b5760003560e01c806384de1ea51161004e57806384de1ea5146100ec578063d59dfd6114610114578063efa1c48214610151578063effbac1e146101735761007b565b806312065fe01461008057806312548536146100a05780633b304147146100c65780637365870b146100d9575b600080fd5b34801561008c57600080fd5b506040514781526020015b60405180910390f35b3480156100ac57600080fd5b506100c4600280546001600160a01b03191633179055565b005b6100c46100d4366004610629565b6101f0565b6100c46100e7366004610629565b6104e7565b3480156100f857600080fd5b506002546040516001600160a01b039091168152602001610097565b34801561012057600080fd5b506100c461012f3660046105fb565b600280546001600160a01b0319166001600160a01b0392909216919091179055565b34801561015d57600080fd5b50610166610599565b6040516100979190610641565b34801561017f57600080fd5b506101d561018e3660046105fb565b6040805180820190915260008082526020820152506001600160a01b0316600090815260036020908152604091829020825180840190935280548352600101549082015290565b60408051825181526020928301519281019290925201610097565b6040805160028082526060820183526000928392919060208301908036833701905050905060005b600281101561026057600082828151811061024357634e487b7160e01b600052603260045260246000fd5b602090810291909101015280610258816106e5565b915050610218565b5060005b600154811015610334576000600360006001848154811061029557634e487b7160e01b600052603260045260246000fd5b60009182526020808320909101546001600160a01b0316835282810193909352604091820190208151808301909252805482526001015491810182905291506102de908561068e565b935080602001518382600001518151811061030957634e487b7160e01b600052603260045260246000fd5b6020026020010181815161031d919061068e565b90525081905061032c816106e5565b915050610264565b50600081848151811061035757634e487b7160e01b600052603260045260246000fd5b6020026020010151905060005b6001548110156104e0576000600360006001848154811061039557634e487b7160e01b600052603260045260246000fd5b60009182526020808320909101546001600160a01b03168352828101939093526040918201902081518083019092528054808352600191909101549282019290925291508614156104cd576000838683602001516103f391906106c6565b6103fd91906106a6565b90506000806001858154811061042357634e487b7160e01b600052603260045260246000fd5b60009182526020822001546040516001600160a01b039091169185919081818185875af1925050503d8060008114610477576040519150601f19603f3d011682016040523d82523d6000602084013e61047c565b606091505b5091509150816104c95760405162461bcd60e51b81526020600482015260146024820152732330b4b632b2103a379039b2b7321022ba3432b960611b604482015260640160405180910390fd5b5050505b50806104d8816106e5565b915050610364565b5050505050565b6040805180820182528281523460208083019182523360008181526003909252848220935184559151600193840190815583548085019094557fb10e2d527612073b26eecdfd717e6a320cf44b4afac2b0732d9fcbe2b7fa0cf690930180546001600160a01b03191683179055525490517f2b805cd1a1c43f9aa4b42bf58a232e2bccc67ee7ec9cb84213bd73a3a8b44ea99161058e914790918252602082015260400190565b60405180910390a150565b606060018054806020026020016040519081016040528092919081815260200182805480156105f157602002820191906000526020600020905b81546001600160a01b031681526001909101906020018083116105d3575b5050505050905090565b60006020828403121561060c578081fd5b81356001600160a01b0381168114610622578182fd5b9392505050565b60006020828403121561063a578081fd5b5035919050565b6020808252825182820181905260009190848201906040850190845b818110156106825783516001600160a01b03168352928401929184019160010161065d565b50909695505050505050565b600082198211156106a1576106a1610700565b500190565b6000826106c157634e487b7160e01b81526012600452602481fd5b500490565b60008160001904831182151516156106e0576106e0610700565b500290565b60006000198214156106f9576106f9610700565b5060010190565b634e487b7160e01b600052601160045260246000fdfea26469706673582212205272244bcd53b1227b76ca173d111650035ad477e49b4965c374ebbf7d00819664736f6c63430008020033",
  "immutableReferences": {},
  "source": "// SPDX-License-Identifier: MIT\npragma solidity ^0.8.2; \n \ncontract GroupBet{\n\n    struct Bet {\n        uint target;\n        uint amount;\n    }\n    uint constant NUM_TARGET = 2;\n    uint storedData;\n    //mapping(address => Bet) private _bet;\n    address[] players;                   //mapping doesn't support looping over\n    address initiator;\n    mapping(address => Bet) _bet;\n    event BetReceived(uint amount, uint256 contractBalance);   //bet amount, current contract balance\n\n    constructor(string memory name, string memory symbol) {\n        // Mint 100 tokens to msg.sender\n        // Similar to how\n        // 1 dollar = 100 cents\n        // 1 token = 1 * (10 ** decimals)\n\n    }\n\n    function getInitiator() public view returns(address){\n        return initiator;\n    }\n\n    function setAsInitiator() public {\n        initiator = msg.sender;\n    }\n\n    function setInitiator(address _initiator) public {\n        initiator = _initiator;\n    }\n\n    function bet(uint x) public payable{\n        _bet[msg.sender] = Bet({target: x, amount:msg.value});\n        players.push(msg.sender);\n        emit BetReceived(_bet[msg.sender].amount, address(this).balance);\n    }\n\n    function draw(uint winner) public payable{\n        uint    sum=0;\n        uint[] memory targetSum = new uint[](NUM_TARGET); \n        //?how to init arary to 0\n        for (uint i=0; i<NUM_TARGET; i++) {\n            targetSum[i] = 0;\n        }\n        for (uint i=0; i<players.length; i++) {\n            Bet memory playerBet = _bet[players[i]];\n            sum += playerBet.amount;\n            targetSum[playerBet.target] += playerBet.amount;\n        }\n        uint winSum = targetSum[winner];\n\n        for(uint i=0;i<players.length; i++){\n            Bet memory playerBet = _bet[players[i]];\n            if(playerBet.target == winner){\n                uint val = playerBet.amount * sum / winSum;\n                //transfer tp winner\n\n                (bool sent, bytes memory data) = players[i].call{value: val}(\"\");\n                require(sent, \"Failed to send Ether\");\n            }\n        }\n    }\n \n    function getAllPlayers() public view returns (address[] memory) {\n        return players;\n    }\n\n    function getBetOfPlayer(address player) public view returns (Bet memory) {\n        return _bet[player];\n    }\n\n    /*function getDrawTime() public view returns (Bet memory) {\n        return _bet[player];\n    }*/\n\n    function getBalance() public view returns (uint256 ) {\n        return address(this).balance;\n    }\n}",
  "sourcePath": "/Users/shangyihuang/Documents/SocialFi/client/contracts/GroupBet.sol",
  "compiler": {
    "name": "solc",
    "version": "0.8.2+commit.661d1103.Emscripten.clang"
  },
  "schemaVersion": "3.4.7",
  "updatedAt": "2022-05-05T12:50:40.642Z",
  "networkType": "ethereum",
  "devdoc": {
    "kind": "dev",
    "methods": {},
    "version": 1
  },
  "userdoc": {
    "kind": "user",
    "methods": {},
    "version": 1
  }
}