{
  "contractName": "MathMock",
  "abi": [
    {
      "inputs": [
        {
          "internalType": "uint256",
          "name": "a",
          "type": "uint256"
        },
        {
          "internalType": "uint256",
          "name": "b",
          "type": "uint256"
        }
      ],
      "name": "max",
      "outputs": [
        {
          "internalType": "uint256",
          "name": "",
          "type": "uint256"
        }
      ],
      "stateMutability": "pure",
      "type": "function"
    },
    {
      "inputs": [
        {
          "internalType": "uint256",
          "name": "a",
          "type": "uint256"
        },
        {
          "internalType": "uint256",
          "name": "b",
          "type": "uint256"
        }
      ],
      "name": "min",
      "outputs": [
        {
          "internalType": "uint256",
          "name": "",
          "type": "uint256"
        }
      ],
      "stateMutability": "pure",
      "type": "function"
    },
    {
      "inputs": [
        {
          "internalType": "uint256",
          "name": "a",
          "type": "uint256"
        },
        {
          "internalType": "uint256",
          "name": "b",
          "type": "uint256"
        }
      ],
      "name": "average",
      "outputs": [
        {
          "internalType": "uint256",
          "name": "",
          "type": "uint256"
        }
      ],
      "stateMutability": "pure",
      "type": "function"
    },
    {
      "inputs": [
        {
          "internalType": "uint256",
          "name": "a",
          "type": "uint256"
        },
        {
          "internalType": "uint256",
          "name": "b",
          "type": "uint256"
        }
      ],
      "name": "ceilDiv",
      "outputs": [
        {
          "internalType": "uint256",
          "name": "",
          "type": "uint256"
        }
      ],
      "stateMutability": "pure",
      "type": "function"
    }
  ],
  "bytecode": "0x608060405234801561001057600080fd5b50610212806100206000396000f3fe608060405234801561001057600080fd5b506004361061004c5760003560e01c80632b7423ab146100515780636d5433e6146100765780637ae2b5c7146100895780639cb353271461009c575b600080fd5b61006461005f366004610159565b6100af565b60405190815260200160405180910390f35b610064610084366004610159565b6100c2565b610064610097366004610159565b6100ce565b6100646100aa366004610159565b6100da565b60006100bb83836100e6565b9392505050565b60006100bb8383610101565b60006100bb8383610118565b60006100bb8383610127565b60006100f5600284841861019e565b6100bb9084841661017a565b60008183101561011157816100bb565b5090919050565b600081831061011157816100bb565b600061013382846101b2565b1561013f576001610142565b60005b60ff1661014f838561019e565b6100bb919061017a565b6000806040838503121561016b578182fd5b50508035926020909101359150565b6000821982111561019957634e487b7160e01b81526011600452602481fd5b500190565b6000826101ad576101ad6101c6565b500490565b6000826101c1576101c16101c6565b500690565b634e487b7160e01b600052601260045260246000fdfea26469706673582212200fea285623f922a2a6a835b79e4352426c21d847fb939f820133d491f5b6568e64736f6c63430008020033",
  "immutableReferences": {},
  "source": "// SPDX-License-Identifier: MIT\n\npragma solidity ^0.8.0;\n\nimport \"../utils/math/Math.sol\";\n\ncontract MathMock {\n    function max(uint256 a, uint256 b) public pure returns (uint256) {\n        return Math.max(a, b);\n    }\n\n    function min(uint256 a, uint256 b) public pure returns (uint256) {\n        return Math.min(a, b);\n    }\n\n    function average(uint256 a, uint256 b) public pure returns (uint256) {\n        return Math.average(a, b);\n    }\n\n    function ceilDiv(uint256 a, uint256 b) public pure returns (uint256) {\n        return Math.ceilDiv(a, b);\n    }\n}\n",
  "sourcePath": "/Users/shangyihuang/Documents/SocialFi/client/contracts/contracts/mocks/MathMock.sol",
  "compiler": {
    "name": "solc",
    "version": "0.8.2+commit.661d1103.Emscripten.clang"
  },
  "schemaVersion": "3.4.7",
  "updatedAt": "2022-05-05T11:49:18.595Z",
  "devdoc": {
    "kind": "dev",
    "methods": {},
    "version": 1
  },
  "userdoc": {
    "kind": "user",
    "methods": {},
    "version": 1
  }
}