{
  "contractName": "MultiERC20",
  "abi": [
    {
      "inputs": [
        {
          "internalType": "string",
          "name": "name_",
          "type": "string"
        },
        {
          "internalType": "string",
          "name": "symbol_",
          "type": "string"
        }
      ],
      "stateMutability": "nonpayable",
      "type": "constructor"
    },
    {
      "anonymous": false,
      "inputs": [
        {
          "indexed": false,
          "internalType": "address",
          "name": "issuer",
          "type": "address"
        },
        {
          "indexed": true,
          "internalType": "address",
          "name": "owner",
          "type": "address"
        },
        {
          "indexed": true,
          "internalType": "address",
          "name": "spender",
          "type": "address"
        },
        {
          "indexed": false,
          "internalType": "uint256",
          "name": "value",
          "type": "uint256"
        }
      ],
      "name": "Approval",
      "type": "event"
    },
    {
      "anonymous": false,
      "inputs": [
        {
          "indexed": false,
          "internalType": "address",
          "name": "issuer",
          "type": "address"
        },
        {
          "indexed": true,
          "internalType": "address",
          "name": "from",
          "type": "address"
        },
        {
          "indexed": true,
          "internalType": "address",
          "name": "to",
          "type": "address"
        },
        {
          "indexed": false,
          "internalType": "uint256",
          "name": "value",
          "type": "uint256"
        }
      ],
      "name": "Transfer",
      "type": "event"
    },
    {
      "inputs": [
        {
          "internalType": "address",
          "name": "issuer",
          "type": "address"
        }
      ],
      "name": "name",
      "outputs": [
        {
          "internalType": "string",
          "name": "",
          "type": "string"
        }
      ],
      "stateMutability": "view",
      "type": "function",
      "constant": true
    },
    {
      "inputs": [
        {
          "internalType": "address",
          "name": "issuer",
          "type": "address"
        }
      ],
      "name": "symbol",
      "outputs": [
        {
          "internalType": "string",
          "name": "",
          "type": "string"
        }
      ],
      "stateMutability": "view",
      "type": "function",
      "constant": true
    },
    {
      "inputs": [],
      "name": "decimals",
      "outputs": [
        {
          "internalType": "uint8",
          "name": "",
          "type": "uint8"
        }
      ],
      "stateMutability": "view",
      "type": "function",
      "constant": true
    },
    {
      "inputs": [
        {
          "internalType": "address",
          "name": "issuer",
          "type": "address"
        },
        {
          "internalType": "string",
          "name": "name_",
          "type": "string"
        },
        {
          "internalType": "string",
          "name": "symbol_",
          "type": "string"
        },
        {
          "internalType": "uint256",
          "name": "totalSupply_",
          "type": "uint256"
        }
      ],
      "name": "issue",
      "outputs": [],
      "stateMutability": "nonpayable",
      "type": "function"
    },
    {
      "inputs": [
        {
          "internalType": "address",
          "name": "issuer",
          "type": "address"
        },
        {
          "internalType": "address",
          "name": "account",
          "type": "address"
        },
        {
          "internalType": "uint256",
          "name": "amount",
          "type": "uint256"
        }
      ],
      "name": "mint",
      "outputs": [],
      "stateMutability": "nonpayable",
      "type": "function"
    },
    {
      "inputs": [
        {
          "internalType": "address",
          "name": "issuer",
          "type": "address"
        }
      ],
      "name": "totalSupply",
      "outputs": [
        {
          "internalType": "uint256",
          "name": "",
          "type": "uint256"
        }
      ],
      "stateMutability": "view",
      "type": "function",
      "constant": true
    },
    {
      "inputs": [
        {
          "internalType": "address",
          "name": "issuer",
          "type": "address"
        },
        {
          "internalType": "address",
          "name": "account",
          "type": "address"
        }
      ],
      "name": "balanceOf",
      "outputs": [
        {
          "internalType": "uint256",
          "name": "",
          "type": "uint256"
        }
      ],
      "stateMutability": "view",
      "type": "function",
      "constant": true
    },
    {
      "inputs": [
        {
          "internalType": "address",
          "name": "issuer",
          "type": "address"
        },
        {
          "internalType": "address",
          "name": "recipient",
          "type": "address"
        },
        {
          "internalType": "uint256",
          "name": "amount",
          "type": "uint256"
        }
      ],
      "name": "transfer",
      "outputs": [
        {
          "internalType": "bool",
          "name": "",
          "type": "bool"
        }
      ],
      "stateMutability": "nonpayable",
      "type": "function"
    },
    {
      "inputs": [
        {
          "internalType": "address",
          "name": "issuer",
          "type": "address"
        },
        {
          "internalType": "address",
          "name": "owner",
          "type": "address"
        },
        {
          "internalType": "address",
          "name": "spender",
          "type": "address"
        }
      ],
      "name": "allowance",
      "outputs": [
        {
          "internalType": "uint256",
          "name": "",
          "type": "uint256"
        }
      ],
      "stateMutability": "view",
      "type": "function",
      "constant": true
    },
    {
      "inputs": [
        {
          "internalType": "address",
          "name": "issuer",
          "type": "address"
        },
        {
          "internalType": "address",
          "name": "spender",
          "type": "address"
        },
        {
          "internalType": "uint256",
          "name": "amount",
          "type": "uint256"
        }
      ],
      "name": "approve",
      "outputs": [
        {
          "internalType": "bool",
          "name": "",
          "type": "bool"
        }
      ],
      "stateMutability": "nonpayable",
      "type": "function"
    },
    {
      "inputs": [
        {
          "internalType": "address",
          "name": "issuer",
          "type": "address"
        },
        {
          "internalType": "address",
          "name": "sender",
          "type": "address"
        },
        {
          "internalType": "address",
          "name": "recipient",
          "type": "address"
        },
        {
          "internalType": "uint256",
          "name": "amount",
          "type": "uint256"
        }
      ],
      "name": "transferFrom",
      "outputs": [
        {
          "internalType": "bool",
          "name": "",
          "type": "bool"
        }
      ],
      "stateMutability": "nonpayable",
      "type": "function"
    },
    {
      "inputs": [
        {
          "internalType": "address",
          "name": "issuer",
          "type": "address"
        },
        {
          "internalType": "address",
          "name": "spender",
          "type": "address"
        },
        {
          "internalType": "uint256",
          "name": "addedValue",
          "type": "uint256"
        }
      ],
      "name": "increaseAllowance",
      "outputs": [
        {
          "internalType": "bool",
          "name": "",
          "type": "bool"
        }
      ],
      "stateMutability": "nonpayable",
      "type": "function"
    },
    {
      "inputs": [
        {
          "internalType": "address",
          "name": "issuer",
          "type": "address"
        },
        {
          "internalType": "address",
          "name": "spender",
          "type": "address"
        },
        {
          "internalType": "uint256",
          "name": "subtractedValue",
          "type": "uint256"
        }
      ],
      "name": "decreaseAllowance",
      "outputs": [
        {
          "internalType": "bool",
          "name": "",
          "type": "bool"
        }
      ],
      "stateMutability": "nonpayable",
      "type": "function"
    }
  ],
  "bytecode": "0x60806040523480156200001157600080fd5b506040516200102f3803806200102f8339810160408190526200003491620001c1565b81516200004990600190602085019062000068565b5080516200005f90600290602084019062000068565b5050506200027b565b828054620000769062000228565b90600052602060002090601f0160209004810192826200009a5760008555620000e5565b82601f10620000b557805160ff1916838001178555620000e5565b82800160010185558215620000e5579182015b82811115620000e5578251825591602001919060010190620000c8565b50620000f3929150620000f7565b5090565b5b80821115620000f35760008155600101620000f8565b600082601f8301126200011f578081fd5b81516001600160401b03808211156200013c576200013c62000265565b604051601f8301601f19908116603f0116810190828211818310171562000167576200016762000265565b8160405283815260209250868385880101111562000183578485fd5b8491505b83821015620001a6578582018301518183018401529082019062000187565b83821115620001b757848385830101525b9695505050505050565b60008060408385031215620001d4578182fd5b82516001600160401b0380821115620001eb578384fd5b620001f9868387016200010e565b935060208501519150808211156200020f578283fd5b506200021e858286016200010e565b9150509250929050565b6002810460018216806200023d57607f821691505b602082108114156200025f57634e487b7160e01b600052602260045260246000fd5b50919050565b634e487b7160e01b600052604160045260246000fd5b610da4806200028b6000396000f3fe608060405234801561001057600080fd5b50600436106100cf5760003560e01c8063a86e35761161008c578063d73b1dc911610066578063d73b1dc9146101e3578063e1f21c67146101f6578063e4dc2aa414610209578063f7888aec14610235576100cf565b8063a86e3576146101aa578063beabacc8146101bd578063c6c3bbe6146101d0576100cf565b806301984892146100d457806315dacbea146100fd578063313ce567146101205780636023bc391461012f5780636c43a2ca14610144578063927da10514610157575b600080fd5b6100e76100e2366004610b13565b61026c565b6040516100f49190610ca6565b60405180910390f35b61011061010b366004610ba8565b61031c565b60405190151581526020016100f4565b604051601281526020016100f4565b61014261013d366004610c2d565b6103da565b005b610110610152366004610bf2565b61045a565b61019c610165366004610b66565b6001600160a01b03928316600090815260208181526040808320948616835260019094018152838220929094168152925290205490565b6040519081526020016100f4565b6100e76101b8366004610b13565b6104b3565b6101106101cb366004610bf2565b6104dd565b6101426101de366004610bf2565b6104eb565b6101106101f1366004610bf2565b6104fb565b610110610204366004610bf2565b6105a3565b61019c610217366004610b13565b6001600160a01b031660009081526020819052604090206002015490565b61019c610243366004610b34565b6001600160a01b0391821660009081526020818152604080832093909416825291909152205490565b6001600160a01b038116600090815260208190526040902060030180546060919061029690610d1d565b80601f01602080910402602001604051908101604052809291908181526020018280546102c290610d1d565b801561030f5780601f106102e45761010080835404028352916020019161030f565b820191906000526020600020905b8154815290600101906020018083116102f257829003601f168201915b505050505090505b919050565b600061032a858585856105b1565b6001600160a01b0385811660009081526020818152604080832093881683526001909301815282822033835290522054828110156103c05760405162461bcd60e51b815260206004820152602860248201527f45524332303a207472616e7366657220616d6f756e74206578636565647320616044820152676c6c6f77616e636560c01b60648201526084015b60405180910390fd5b6103ce868633868503610793565b50600195945050505050565b6001600160a01b0384166000908152602081815260409091208451610407926003909201918601906109dc565b506001600160a01b0384166000908152602081815260409091208351610435926004909201918501906109dc565b506001600160a01b039093166000908152602081905260409020600201929092555050565b6001600160a01b03808416600090815260208181526040808320338085526001909101835281842094871684529390915281205490916104a99186919086906104a4908790610cf9565b610793565b5060019392505050565b6001600160a01b038116600090815260208190526040902060040180546060919061029690610d1d565b60006104a9843385856105b1565b6104f68383836108ce565b505050565b6001600160a01b0383811660009081526020818152604080832033845260010182528083209386168352929052908120548281101561058a5760405162461bcd60e51b815260206004820152602560248201527f45524332303a2064656372656173656420616c6c6f77616e63652062656c6f77604482015264207a65726f60d81b60648201526084016103b7565b610598853386868503610793565b506001949350505050565b60006104a984338585610793565b6001600160a01b0383166106155760405162461bcd60e51b815260206004820152602560248201527f45524332303a207472616e736665722066726f6d20746865207a65726f206164604482015264647265737360d81b60648201526084016103b7565b6001600160a01b0382166106775760405162461bcd60e51b815260206004820152602360248201527f45524332303a207472616e7366657220746f20746865207a65726f206164647260448201526265737360e81b60648201526084016103b7565b6001600160a01b0380851660009081526020818152604080832093871683529290522054818110156106fa5760405162461bcd60e51b815260206004820152602660248201527f45524332303a207472616e7366657220616d6f756e7420657863656564732062604482015265616c616e636560d01b60648201526084016103b7565b6001600160a01b03858116600090815260208181526040808320888516845290915280822085850390559185168152908120805484929061073c908490610cf9565b9091555050604080516001600160a01b0387811682526020820185905280861692908716917fd1398bee19313d6bf672ccb116e51f4a1a947e91c757907f51fbb5b5e56c698f910160405180910390a35050505050565b6001600160a01b0383166107f55760405162461bcd60e51b8152602060048201526024808201527f45524332303a20617070726f76652066726f6d20746865207a65726f206164646044820152637265737360e01b60648201526084016103b7565b6001600160a01b0382166108565760405162461bcd60e51b815260206004820152602260248201527f45524332303a20617070726f766520746f20746865207a65726f206164647265604482015261737360f01b60648201526084016103b7565b6001600160a01b038481166000818152602081815260408083208886168085526001909101835281842095881680855295835292819020869055805193845290830185905290917fa0175360a15bca328baf7ea85c7b784d58b222a50d0ce760b10dba336d226a61910160405180910390a350505050565b6001600160a01b0382166109245760405162461bcd60e51b815260206004820152601f60248201527f45524332303a206d696e7420746f20746865207a65726f20616464726573730060448201526064016103b7565b6001600160a01b0383166000908152602081905260408120600201805483929061094f908490610cf9565b90915550506001600160a01b0380841660009081526020818152604080832093861683529290529081208054839290610989908490610cf9565b9091555050604080516001600160a01b038581168252602082018490528416916000917fd1398bee19313d6bf672ccb116e51f4a1a947e91c757907f51fbb5b5e56c698f910160405180910390a36104f6565b8280546109e890610d1d565b90600052602060002090601f016020900481019282610a0a5760008555610a50565b82601f10610a2357805160ff1916838001178555610a50565b82800160010185558215610a50579182015b82811115610a50578251825591602001919060010190610a35565b50610a5c929150610a60565b5090565b5b80821115610a5c5760008155600101610a61565b80356001600160a01b038116811461031757600080fd5b600082601f830112610a9c578081fd5b813567ffffffffffffffff80821115610ab757610ab7610d58565b604051601f8301601f19908116603f01168101908282118183101715610adf57610adf610d58565b81604052838152866020858801011115610af7578485fd5b8360208701602083013792830160200193909352509392505050565b600060208284031215610b24578081fd5b610b2d82610a75565b9392505050565b60008060408385031215610b46578081fd5b610b4f83610a75565b9150610b5d60208401610a75565b90509250929050565b600080600060608486031215610b7a578081fd5b610b8384610a75565b9250610b9160208501610a75565b9150610b9f60408501610a75565b90509250925092565b60008060008060808587031215610bbd578081fd5b610bc685610a75565b9350610bd460208601610a75565b9250610be260408601610a75565b9396929550929360600135925050565b600080600060608486031215610c06578283fd5b610c0f84610a75565b9250610c1d60208501610a75565b9150604084013590509250925092565b60008060008060808587031215610c42578384fd5b610c4b85610a75565b9350602085013567ffffffffffffffff80821115610c67578485fd5b610c7388838901610a8c565b94506040870135915080821115610c88578384fd5b50610c9587828801610a8c565b949793965093946060013593505050565b6000602080835283518082850152825b81811015610cd257858101830151858201604001528201610cb6565b81811115610ce35783604083870101525b50601f01601f1916929092016040019392505050565b60008219821115610d1857634e487b7160e01b81526011600452602481fd5b500190565b600281046001821680610d3157607f821691505b60208210811415610d5257634e487b7160e01b600052602260045260246000fd5b50919050565b634e487b7160e01b600052604160045260246000fdfea2646970667358221220bf4a9968a7c52445a11fdceea91456da4b945ff0059151a2ecfc463ae77be4fb64736f6c63430008020033",
  "immutableReferences": {},
  "source": "// SPDX-License-Identifier: MIT\n\npragma solidity ^0.8.0;\n\nimport \"./contracts/utils/Context.sol\";\n//import \"hardhat/console.sol\";\n\ncontract MultiERC20 is Context{\n\n    struct ERC20Data{\n        mapping(address => uint256)  _balances;\n\n        mapping(address => mapping(address => uint256)) _allowances;\n\n        uint256 _totalSupply;\n\n        string  _name;\n        string  _symbol;\n    }\n    mapping(address => ERC20Data)   PersonalCoins;\n\n    string private _name;\n    string private _symbol;\n\n\n    /**\n     * @dev Emitted when `value` tokens are moved from one account (`from`) to\n     * another (`to`).\n     *\n     * Note that `value` may be zero.\n     */\n    event Transfer(address issuer, address indexed from, address indexed to, uint256 value);\n\n    /**\n     * @dev Emitted when the allowance of a `spender` for an `owner` is set by\n     * a call to {approve}. `value` is the new allowance.\n     */\n    event Approval(address issuer, address indexed owner, address indexed spender, uint256 value);\n\n\n    constructor(string memory name_, string memory symbol_) {\n        _name = name_;\n        _symbol = symbol_;\n    }\n\n\n    /**\n     * @dev Returns the name of the token.\n     */\n    function name(address issuer) public view virtual returns (string memory) {\n        return PersonalCoins[issuer]._name;\n    }\n\n    /**\n     * @dev Returns the symbol of the token, usually a shorter version of the\n     * name.\n     */\n    function symbol(address issuer) public view virtual returns (string memory) {\n        return PersonalCoins[issuer]._symbol;\n    }\n\n    function decimals() public view virtual returns (uint8) {\n        return 18;\n    }\n\n    function issue(address issuer, string memory name_, string memory symbol_, uint256 totalSupply_) public {\n        PersonalCoins[issuer]._name = name_;\n        PersonalCoins[issuer]._symbol = symbol_;\n        PersonalCoins[issuer]._totalSupply = totalSupply_;\n        //console.log(\"issuer:\" , issuer);\n        //console.log(\"supply:\" , PersonalCoins[issuer]._totalSupply);\n    }\n\n    function mint(address issuer, address account, uint256 amount) public{\n        _mint(issuer, account, amount);\n    }\n    /**\n     * @dev See {IERC20-totalSupply}.\n     */\n    function totalSupply(address issuer) public view virtual returns (uint256) {\n        return PersonalCoins[issuer]._totalSupply;\n    }\n\n\n    function balanceOf(address issuer, address account) public view virtual returns (uint256) {\n        return PersonalCoins[issuer]._balances[account];\n    }\n\n    function transfer(address issuer, address recipient, uint256 amount) public virtual returns (bool) {\n        _transfer(issuer, _msgSender(), recipient, amount);\n        return true;\n    }\n\n    function allowance(address issuer, address owner, address spender) public view virtual returns (uint256) {\n        return PersonalCoins[issuer]._allowances[owner][spender];\n    }\n\n\n    function approve(address issuer, address spender, uint256 amount) public virtual returns (bool) {\n        _approve(issuer, _msgSender(), spender, amount);\n        return true;\n    }\n\n    function transferFrom(\n        address issuer, \n        address sender,\n        address recipient,\n        uint256 amount\n    ) public virtual returns (bool) {\n        _transfer(issuer, sender, recipient, amount);\n\n        uint256 currentAllowance = PersonalCoins[issuer]._allowances[sender][_msgSender()];\n        require(currentAllowance >= amount, \"ERC20: transfer amount exceeds allowance\");\n        unchecked {\n            _approve(issuer, sender, _msgSender(), currentAllowance - amount);\n        }\n\n        return true;\n    }\n\n\n    function increaseAllowance(address issuer, address spender, uint256 addedValue) public virtual returns (bool) {\n        _approve(issuer, _msgSender(), spender, PersonalCoins[issuer]._allowances[_msgSender()][spender] + addedValue);\n        return true;\n    }\n\n    function decreaseAllowance(address issuer, address spender, uint256 subtractedValue) public virtual returns (bool) {\n        uint256 currentAllowance = PersonalCoins[issuer]._allowances[_msgSender()][spender];\n        require(currentAllowance >= subtractedValue, \"ERC20: decreased allowance below zero\");\n        unchecked {\n            _approve(issuer, _msgSender(), spender, currentAllowance - subtractedValue);\n        }\n\n        return true;\n    }\n\n\n    function _transfer(\n        address issuer,\n        address sender,\n        address recipient,\n        uint256 amount\n    ) internal virtual {\n        require(sender != address(0), \"ERC20: transfer from the zero address\");\n        require(recipient != address(0), \"ERC20: transfer to the zero address\");\n\n        _beforeTokenTransfer(sender, recipient, amount);\n\n        uint256 senderBalance = PersonalCoins[issuer]._balances[sender];\n        require(senderBalance >= amount, \"ERC20: transfer amount exceeds balance\");\n        unchecked {\n            PersonalCoins[issuer]._balances[sender] = senderBalance - amount;\n        }\n        PersonalCoins[issuer]._balances[recipient] += amount;\n\n        emit Transfer(issuer, sender, recipient, amount);\n\n        _afterTokenTransfer(sender, recipient, amount);\n    }\n\n\n    function _mint(address issuer, address account, uint256 amount) internal virtual {\n        require(account != address(0), \"ERC20: mint to the zero address\");\n\n        _beforeTokenTransfer(address(0), account, amount);\n\n        PersonalCoins[issuer]._totalSupply += amount;\n        PersonalCoins[issuer]._balances[account] += amount;\n        emit Transfer(issuer, address(0), account, amount);\n\n        _afterTokenTransfer(address(0), account, amount);\n    }\n\n\n    function _burn(address issuer, address account, uint256 amount) internal virtual {\n        require(account != address(0), \"ERC20: burn from the zero address\");\n\n        _beforeTokenTransfer(account, address(0), amount);\n\n        uint256 accountBalance = PersonalCoins[issuer]._balances[account];\n        require(accountBalance >= amount, \"ERC20: burn amount exceeds balance\");\n        unchecked {\n            PersonalCoins[issuer]._balances[account] = accountBalance - amount;\n        }\n        PersonalCoins[issuer]._totalSupply -= amount;\n\n        emit Transfer(issuer, account, address(0), amount);\n\n        _afterTokenTransfer(account, address(0), amount);\n    }\n\n    function _approve(\n        address issuer,\n        address owner,\n        address spender,\n        uint256 amount\n    ) internal virtual {\n        require(owner != address(0), \"ERC20: approve from the zero address\");\n        require(spender != address(0), \"ERC20: approve to the zero address\");\n\n        PersonalCoins[issuer]._allowances[owner][spender] = amount;\n        emit Approval(issuer, owner, spender, amount);\n    }\n\n    function _beforeTokenTransfer(\n        address from,\n        address to,\n        uint256 amount\n    ) internal virtual {}\n\n    function _afterTokenTransfer(\n        address from,\n        address to,\n        uint256 amount\n    ) internal virtual {}\n}",
  "sourcePath": "/Users/shangyihuang/Documents/SocialFi/client/contracts/MultiERC20.sol",
  "compiler": {
    "name": "solc",
    "version": "0.8.2+commit.661d1103.Emscripten.clang"
  },
  "schemaVersion": "3.4.7",
  "updatedAt": "2022-05-11T13:01:08.010Z",
  "networkType": "ethereum",
  "devdoc": {
    "events": {
      "Approval(address,address,address,uint256)": {
        "details": "Emitted when the allowance of a `spender` for an `owner` is set by a call to {approve}. `value` is the new allowance."
      },
      "Transfer(address,address,address,uint256)": {
        "details": "Emitted when `value` tokens are moved from one account (`from`) to another (`to`). Note that `value` may be zero."
      }
    },
    "kind": "dev",
    "methods": {
      "name(address)": {
        "details": "Returns the name of the token."
      },
      "symbol(address)": {
        "details": "Returns the symbol of the token, usually a shorter version of the name."
      },
      "totalSupply(address)": {
        "details": "See {IERC20-totalSupply}."
      }
    },
    "version": 1
  },
  "userdoc": {
    "kind": "user",
    "methods": {},
    "version": 1
  }
}