{
  "contractName": "QAReward",
  "abi": [
    {
      "inputs": [
        {
          "internalType": "string",
          "name": "name_",
          "type": "string"
        },
        {
          "internalType": "string",
          "name": "symbol_",
          "type": "string"
        }
      ],
      "stateMutability": "nonpayable",
      "type": "constructor"
    },
    {
      "anonymous": false,
      "inputs": [
        {
          "indexed": true,
          "internalType": "address",
          "name": "receiver",
          "type": "address"
        },
        {
          "indexed": true,
          "internalType": "address",
          "name": "sender",
          "type": "address"
        },
        {
          "indexed": false,
          "internalType": "uint256",
          "name": "amount",
          "type": "uint256"
        }
      ],
      "name": "AwardSent",
      "type": "event"
    },
    {
      "inputs": [],
      "name": "owner",
      "outputs": [
        {
          "internalType": "address payable",
          "name": "",
          "type": "address"
        }
      ],
      "stateMutability": "view",
      "type": "function",
      "constant": true
    },
    {
      "inputs": [],
      "name": "name",
      "outputs": [
        {
          "internalType": "string",
          "name": "",
          "type": "string"
        }
      ],
      "stateMutability": "view",
      "type": "function",
      "constant": true
    },
    {
      "inputs": [],
      "name": "symbol",
      "outputs": [
        {
          "internalType": "string",
          "name": "",
          "type": "string"
        }
      ],
      "stateMutability": "view",
      "type": "function",
      "constant": true
    },
    {
      "inputs": [],
      "name": "decimals",
      "outputs": [
        {
          "internalType": "uint8",
          "name": "",
          "type": "uint8"
        }
      ],
      "stateMutability": "view",
      "type": "function",
      "constant": true
    },
    {
      "inputs": [
        {
          "internalType": "string",
          "name": "question",
          "type": "string"
        },
        {
          "internalType": "uint256",
          "name": "timeoutDate",
          "type": "uint256"
        }
      ],
      "name": "proposeAward",
      "outputs": [],
      "stateMutability": "payable",
      "type": "function",
      "payable": true
    },
    {
      "inputs": [
        {
          "internalType": "string",
          "name": "question",
          "type": "string"
        }
      ],
      "name": "getProposeAward",
      "outputs": [
        {
          "internalType": "uint256",
          "name": "",
          "type": "uint256"
        }
      ],
      "stateMutability": "view",
      "type": "function",
      "constant": true
    },
    {
      "inputs": [
        {
          "internalType": "string",
          "name": "question",
          "type": "string"
        },
        {
          "internalType": "uint256",
          "name": "index",
          "type": "uint256"
        },
        {
          "internalType": "address payable",
          "name": "answerer",
          "type": "address"
        },
        {
          "internalType": "string",
          "name": "answerId",
          "type": "string"
        }
      ],
      "name": "updateAnswerRanking",
      "outputs": [],
      "stateMutability": "nonpayable",
      "type": "function"
    },
    {
      "inputs": [
        {
          "internalType": "string",
          "name": "question",
          "type": "string"
        },
        {
          "internalType": "uint256",
          "name": "index",
          "type": "uint256"
        }
      ],
      "name": "getAnswerRanking",
      "outputs": [
        {
          "internalType": "string",
          "name": "",
          "type": "string"
        }
      ],
      "stateMutability": "view",
      "type": "function",
      "constant": true
    },
    {
      "inputs": [
        {
          "internalType": "string",
          "name": "question",
          "type": "string"
        }
      ],
      "name": "award",
      "outputs": [],
      "stateMutability": "payable",
      "type": "function",
      "payable": true
    }
  ],
  "bytecode": "0x60e060405260076080908152600260a052600160c0526200002490600390816200009b565b503480156200003257600080fd5b50604051620013263803806200132683398101604081905262000055916200022a565b81516200006a906000906020850190620000e3565b50805162000080906001906020840190620000e3565b5050600280546001600160a01b0319163317905550620002e4565b8260038101928215620000d1579160200282015b82811115620000d1578251829060ff16905591602001919060010190620000af565b50620000df92915062000160565b5090565b828054620000f19062000291565b90600052602060002090601f016020900481019282620001155760008555620000d1565b82601f106200013057805160ff1916838001178555620000d1565b82800160010185558215620000d1579182015b82811115620000d157825182559160200191906001019062000143565b5b80821115620000df576000815560010162000161565b600082601f83011262000188578081fd5b81516001600160401b0380821115620001a557620001a5620002ce565b604051601f8301601f19908116603f01168101908282118183101715620001d057620001d0620002ce565b81604052838152602092508683858801011115620001ec578485fd5b8491505b838210156200020f5785820183015181830184015290820190620001f0565b838211156200022057848385830101525b9695505050505050565b600080604083850312156200023d578182fd5b82516001600160401b038082111562000254578384fd5b620002628683870162000177565b9350602085015191508082111562000278578283fd5b50620002878582860162000177565b9150509250929050565b600281046001821680620002a657607f821691505b60208210811415620002c857634e487b7160e01b600052602260045260246000fd5b50919050565b634e487b7160e01b600052604160045260246000fd5b61103280620002f46000396000f3fe6080604052600436106100865760003560e01c8063700423e511610059578063700423e5146101155780638da5cb5b1461013557806395d89b411461016d5780639ddf76c714610182578063eb83de3c146101a257610086565b806306fdde031461008b578063252c1b65146100b6578063313ce567146100e457806341c3b8a514610100575b600080fd5b34801561009757600080fd5b506100a06101b5565b6040516100ad9190610e77565b60405180910390f35b3480156100c257600080fd5b506100d66100d1366004610d27565b610247565b6040519081526020016100ad565b3480156100f057600080fd5b50604051601281526020016100ad565b61011361010e366004610d27565b610275565b005b34801561012157600080fd5b50610113610130366004610da5565b610532565b34801561014157600080fd5b50600254610155906001600160a01b031681565b6040516001600160a01b0390911681526020016100ad565b34801561017957600080fd5b506100a0610751565b34801561018e57600080fd5b506100a061019d366004610d62565b610760565b6101136101b0366004610d62565b610915565b6060600080546101c490610f7a565b80601f01602080910402602001604051908101604052809291908181526020018280546101f090610f7a565b801561023d5780601f106102125761010080835404028352916020019161023d565b820191906000526020600020905b81548152906001019060200180831161022057829003601f168201915b5050505050905090565b60008060078360405161025a9190610e5b565b90815260405190819003602001902060010154915050919050565b60006007826040516102879190610e5b565b90815260408051918290036020908101832060808401835280546001600160a01b0316845260018101549184019190915260028101805491928401916102cc90610f7a565b80601f01602080910402602001604051908101604052809291908181526020018280546102f890610f7a565b80156103455780601f1061031a57610100808354040283529160200191610345565b820191906000526020600020905b81548152906001019060200180831161032857829003601f168201915b5050505050815260200160038201548152505090506000600682604001516040516103709190610e5b565b9081526020016040518091039020905060008260200151905060005b600381101561052b57600081815260208481526040808320815180830190925280546001600160a01b0316825260018101805492939192918401916103d090610f7a565b80601f01602080910402602001604051908101604052809291908181526020018280546103fc90610f7a565b80156104495780601f1061041e57610100808354040283529160200191610449565b820191906000526020600020905b81548152906001019060200180831161042c57829003601f168201915b50505091909252505081519192506000905060038481811061047b57634e487b7160e01b600052603260045260246000fd5b0154905060008161048d600a88610f0b565b6104979190610f2b565b6040519091506001600160a01b0384169082156108fc029083906000818181858888f193505050501580156104d0573d6000803e3d6000fd5b5087516040518281526001600160a01b038086169216907f4be903b38083126bb342413afadf273092d7928af17d040531d3159bbb45f9009060200160405180910390a350505050808061052390610fb5565b91505061038c565b5050505050565b6105716040518060400160405280601e81526020017f757064617465416e7377657252616e6b696e672c207175657374696f6e3a000081525085610b17565b60006007856040516105839190610e5b565b90815260408051918290036020908101832060808401835280546001600160a01b0316845260018101549184019190915260028101805491928401916105c890610f7a565b80601f01602080910402602001604051908101604052809291908181526020018280546105f490610f7a565b80156106415780601f1061061657610100808354040283529160200191610641565b820191906000526020600020905b81548152906001019060200180831161062457829003601f168201915b5050505050815260200160038201548152505090506106996040518060400160405280602081526020017f757064617465416e7377657252616e6b696e672c207175657374696f6e49643a8152508260400151610b17565b6000600682604001516040516106af9190610e5b565b908152602001604051809103902090506106fe6040518060400160405280601e81526020017f757064617465416e7377657252616e6b696e672c20616e7377657249643a000081525084610b17565b600085815260208281526040909120845161072192600190920191860190610c07565b5060009485526020525050604090912080546001600160a01b0319166001600160a01b0390921691909117905550565b6060600180546101c490610f7a565b606060006007846040516107749190610e5b565b90815260408051918290036020908101832060808401835280546001600160a01b0316845260018101549184019190915260028101805491928401916107b990610f7a565b80601f01602080910402602001604051908101604052809291908181526020018280546107e590610f7a565b80156108325780601f1061080757610100808354040283529160200191610832565b820191906000526020600020905b81548152906001019060200180831161081557829003601f168201915b50505050508152602001600382015481525050905060006006826040015160405161085d9190610e5b565b90815260200160405180910390209050806000858152602001908152602001600020600101805461088d90610f7a565b80601f01602080910402602001604051908101604052809291908181526020018280546108b990610f7a565b80156109065780601f106108db57610100808354040283529160200191610906565b820191906000526020600020905b8154815290600101906020018083116108e957829003601f168201915b50505050509250505092915050565b6109446040518060400160405280600d81526020016c3732bb9038bab2b9ba34b7b71d60991b81525083610b17565b6109706040518060400160405280600a81526020016910101039b2b73232b91d60b11b81525033610b60565b61099b6040518060400160405280600981526020016810101030bbb0b9321d60b91b81525034610ba5565b6040518060800160405280336001600160a01b03168152602001348152602001838152602001828152506007836040516109d59190610e5b565b9081526040805160209281900383019020835181546001600160a01b0319166001600160a01b039091161781558383015160018201559083015180519192610a2592600285019290910190610c07565b50606082015181600301559050506000600783604051610a459190610e5b565b90815260200160405180910390209050610b126040518060400160405280600f81526020016e33b2ba1038bab2b9ba34b7b724b21d60891b815250826002018054610a8f90610f7a565b80601f0160208091040260200160405190810160405280929190818152602001828054610abb90610f7a565b8015610b085780601f10610add57610100808354040283529160200191610b08565b820191906000526020600020905b815481529060010190602001808311610aeb57829003601f168201915b5050505050610b17565b505050565b610b5c8282604051602401610b2d929190610ebb565b60408051601f198184030181529190526020810180516001600160e01b0316634b5c427760e01b179052610be6565b5050565b610b5c8282604051602401610b76929190610e91565b60408051601f198184030181529190526020810180516001600160e01b031663319af33360e01b179052610be6565b610b5c8282604051602401610bbb929190610ee9565b60408051601f198184030181529190526020810180516001600160e01b03166309710a9d60e41b1790525b80516a636f6e736f6c652e6c6f67602083016000808483855afa5050505050565b828054610c1390610f7a565b90600052602060002090601f016020900481019282610c355760008555610c7b565b82601f10610c4e57805160ff1916838001178555610c7b565b82800160010185558215610c7b579182015b82811115610c7b578251825591602001919060010190610c60565b50610c87929150610c8b565b5090565b5b80821115610c875760008155600101610c8c565b600082601f830112610cb0578081fd5b813567ffffffffffffffff80821115610ccb57610ccb610fe6565b604051601f8301601f19908116603f01168101908282118183101715610cf357610cf3610fe6565b81604052838152866020858801011115610d0b578485fd5b8360208701602083013792830160200193909352509392505050565b600060208284031215610d38578081fd5b813567ffffffffffffffff811115610d4e578182fd5b610d5a84828501610ca0565b949350505050565b60008060408385031215610d74578081fd5b823567ffffffffffffffff811115610d8a578182fd5b610d9685828601610ca0565b95602094909401359450505050565b60008060008060808587031215610dba578182fd5b843567ffffffffffffffff80821115610dd1578384fd5b610ddd88838901610ca0565b955060208701359450604087013591506001600160a01b0382168214610e01578384fd5b90925060608601359080821115610e16578283fd5b50610e2387828801610ca0565b91505092959194509250565b60008151808452610e47816020860160208601610f4a565b601f01601f19169290920160200192915050565b60008251610e6d818460208701610f4a565b9190910192915050565b600060208252610e8a6020830184610e2f565b9392505050565b600060408252610ea46040830185610e2f565b905060018060a01b03831660208301529392505050565b600060408252610ece6040830185610e2f565b8281036020840152610ee08185610e2f565b95945050505050565b600060408252610efc6040830185610e2f565b90508260208301529392505050565b600082610f2657634e487b7160e01b81526012600452602481fd5b500490565b6000816000190483118215151615610f4557610f45610fd0565b500290565b60005b83811015610f65578181015183820152602001610f4d565b83811115610f74576000848401525b50505050565b600281046001821680610f8e57607f821691505b60208210811415610faf57634e487b7160e01b600052602260045260246000fd5b50919050565b6000600019821415610fc957610fc9610fd0565b5060010190565b634e487b7160e01b600052601160045260246000fd5b634e487b7160e01b600052604160045260246000fdfea2646970667358221220c4f10ca4c5dbd786deabc06fc97112b74d3812502250f98627b2dd75603737e064736f6c63430008020033",
  "immutableReferences": {},
  "source": "// SPDX-License-Identifier: MIT\n\npragma solidity ^0.8.0;\n\nimport \"hardhat/console.sol\";\n\ncontract QAReward {\n\n    string private _name;\n    string private _symbol;\n    address payable public owner;\n\n    uint[3] awardRatio = [7,2,1];   // (/10)\n\n    struct QuestionData{\n        address provider;\n        uint256 award;\n        string questionId;\n        uint rewardDate;\n        //mapping( => string) _answers;     //answerId => answerer\n    }\n\n    struct AnswerData{    \n        address payable answerer;\n        string answerId;\n        //mapping( => string) _answers;     //answerId => answerer\n    }\n    mapping(string => mapping(uint=>AnswerData))  answerData;     //questionId => ()\n\n    mapping(string => QuestionData)   questionData;    //question => awardData\n\n\n    event AwardSent(address indexed receiver, address indexed sender, uint256 amount);\n\n    constructor(string memory name_, string memory symbol_) {\n        _name = name_;\n        _symbol = symbol_;\n        owner = payable(msg.sender);\n    }\n\n    int a;\n    int b;\n\n    /**\n     * @dev Returns the name of the token.\n     */\n    function name() public view virtual returns (string memory) {\n        return _name;\n    }\n\n    /**\n     * @dev Returns the symbol of the token, usually a shorter version of the\n     * name.\n     */\n    function symbol() public view virtual returns (string memory) {\n        return _symbol;\n    }\n\n    function decimals() public view virtual returns (uint8) {\n        return 18;\n    }\n\n    //called when a new question is added\n    function proposeAward(string memory question, uint timeoutDate) public payable{\n        console.log(\"new question:\" , question);\n        console.log(\"   sender:\" , msg.sender);\n        console.log(\"   award:\" , msg.value);\n        questionData[question] = QuestionData({\n            provider : msg.sender, \n            award : msg.value,\n            questionId:question, \n            rewardDate: timeoutDate});\n\n        QuestionData storage _question = questionData[question];\n        console.log(\"get questionId:\" , _question.questionId);\n    }\n\n    function getProposeAward(string memory question) public view returns(uint256){\n        QuestionData storage _question = questionData[question];\n\n        return _question.award;\n    }\n\n    //pdate top 3 answer\n    function updateAnswerRanking(string memory question, uint index, address payable answerer, string memory answerId) public {\n        console.log(\"updateAnswerRanking, question:\" , question);\n        \n        QuestionData memory _question = questionData[question];\n        console.log(\"updateAnswerRanking, questionId:\" , _question.questionId);\n        mapping(uint=>AnswerData) storage answers = answerData[_question.questionId];\n        console.log(\"updateAnswerRanking, answerId:\" , answerId);\n        answers[index].answerId = answerId;\n        answers[index].answerer = answerer;\n    }\n\n\n    function getAnswerRanking(string memory question, uint index) view public returns (string memory) {\n        QuestionData memory _question = questionData[question];\n        mapping(uint=>AnswerData) storage answers = answerData[_question.questionId];\n\n        return answers[index].answerId;\n    }\n\n    //transfer award to top 3 answerer based on rewardRatio\n    function award(string memory question)public payable{\n        QuestionData memory _question = questionData[question];\n        mapping(uint=>AnswerData) storage answers = answerData[_question.questionId];\n        uint256 awardValue = _question.award;   //wei\n\n\n        uint i;\n        for(i=0; i<3; i++){\n            AnswerData memory answer = answers[i];\n            address payable answerer = answer.answerer;\n            uint256 ratio = awardRatio[i];\n            uint256 _award = awardValue / 10 * ratio;\n            answerer.transfer(_award);\n\n            emit AwardSent(_question.provider, answerer, _award);\n        }\n    }\n}",
  "sourcePath": "/Users/shangyihuang/Documents/SocialFi/client/contracts/Qareward.sol",
  "compiler": {
    "name": "solc",
    "version": "0.8.2+commit.661d1103.Emscripten.clang"
  },
  "schemaVersion": "3.4.7",
  "updatedAt": "2022-07-25T02:07:24.652Z",
  "networkType": "ethereum",
  "devdoc": {
    "kind": "dev",
    "methods": {
      "name()": {
        "details": "Returns the name of the token."
      },
      "symbol()": {
        "details": "Returns the symbol of the token, usually a shorter version of the name."
      }
    },
    "version": 1
  },
  "userdoc": {
    "kind": "user",
    "methods": {},
    "version": 1
  }
}