{
  "contractName": "SampleHuman",
  "abi": [
    {
      "inputs": [],
      "name": "isHuman",
      "outputs": [
        {
          "internalType": "bool",
          "name": "",
          "type": "bool"
        }
      ],
      "stateMutability": "view",
      "type": "function"
    },
    {
      "inputs": [],
      "name": "initialize",
      "outputs": [],
      "stateMutability": "nonpayable",
      "type": "function"
    }
  ],
  "bytecode": "0x608060405234801561001057600080fd5b50610173806100206000396000f3fe608060405234801561001057600080fd5b50600436106100365760003560e01c80634a6c9db61461003b5780638129fc1c14610062575b600080fd5b60005461004e9062010000900460ff1681565b604051901515815260200160405180910390f35b61006a61006c565b005b600054610100900460ff1680610085575060005460ff16155b6100ec5760405162461bcd60e51b815260206004820152602e60248201527f496e697469616c697a61626c653a20636f6e747261637420697320616c72656160448201526d191e481a5b9a5d1a585b1a5e995960921b606482015260840160405180910390fd5b600054610100900460ff16158015610117576000805460ff1961ff0019909116610100171660011790555b6000805462ff0000191662010000179055801561013a576000805461ff00191690555b5056fea2646970667358221220282e71a2448f29df2d229e505bfc9fba69a52f3916f19913dd0ca968164882ff64736f6c63430008020033",
  "immutableReferences": {},
  "source": "// SPDX-License-Identifier: MIT\n\npragma solidity ^0.8.0;\n\nimport \"../proxy/utils/Initializable.sol\";\n\n// Sample contracts showing upgradeability with multiple inheritance.\n// Child contract inherits from Father and Mother contracts, and Father extends from Gramps.\n//\n//         Human\n//       /       \\\n//      |       Gramps\n//      |         |\n//    Mother    Father\n//      |         |\n//      -- Child --\n\n/**\n * Sample base intializable contract that is a human\n */\ncontract SampleHuman is Initializable {\n    bool public isHuman;\n\n    function initialize() public initializer {\n        isHuman = true;\n    }\n}\n\n/**\n * Sample base intializable contract that defines a field mother\n */\ncontract SampleMother is Initializable, SampleHuman {\n    uint256 public mother;\n\n    function initialize(uint256 value) public virtual initializer {\n        SampleHuman.initialize();\n        mother = value;\n    }\n}\n\n/**\n * Sample base intializable contract that defines a field gramps\n */\ncontract SampleGramps is Initializable, SampleHuman {\n    string public gramps;\n\n    function initialize(string memory value) public virtual initializer {\n        SampleHuman.initialize();\n        gramps = value;\n    }\n}\n\n/**\n * Sample base intializable contract that defines a field father and extends from gramps\n */\ncontract SampleFather is Initializable, SampleGramps {\n    uint256 public father;\n\n    function initialize(string memory _gramps, uint256 _father) public initializer {\n        SampleGramps.initialize(_gramps);\n        father = _father;\n    }\n}\n\n/**\n * Child extends from mother, father (gramps)\n */\ncontract SampleChild is Initializable, SampleMother, SampleFather {\n    uint256 public child;\n\n    function initialize(\n        uint256 _mother,\n        string memory _gramps,\n        uint256 _father,\n        uint256 _child\n    ) public initializer {\n        SampleMother.initialize(_mother);\n        SampleFather.initialize(_gramps, _father);\n        child = _child;\n    }\n}\n",
  "sourcePath": "/Users/shangyihuang/Documents/SocialFi/client/contracts/contracts/mocks/MultipleInheritanceInitializableMocks.sol",
  "compiler": {
    "name": "solc",
    "version": "0.8.2+commit.661d1103.Emscripten.clang"
  },
  "schemaVersion": "3.4.7",
  "updatedAt": "2022-05-05T11:49:18.605Z",
  "devdoc": {
    "kind": "dev",
    "methods": {},
    "version": 1
  },
  "userdoc": {
    "kind": "user",
    "methods": {},
    "notice": "Sample base intializable contract that is a human",
    "version": 1
  }
}