{
  "contractName": "SignatureCheckerMock",
  "abi": [
    {
      "inputs": [
        {
          "internalType": "address",
          "name": "signer",
          "type": "address"
        },
        {
          "internalType": "bytes32",
          "name": "hash",
          "type": "bytes32"
        },
        {
          "internalType": "bytes",
          "name": "signature",
          "type": "bytes"
        }
      ],
      "name": "isValidSignatureNow",
      "outputs": [
        {
          "internalType": "bool",
          "name": "",
          "type": "bool"
        }
      ],
      "stateMutability": "view",
      "type": "function"
    }
  ],
  "bytecode": "0x608060405234801561001057600080fd5b5061052a806100206000396000f3fe608060405234801561001057600080fd5b506004361061002b5760003560e01c80636ccea65214610030575b600080fd5b61004361003e36600461035d565b610057565b604051901515815260200160405180910390f35b600061006d6001600160a01b0385168484610077565b90505b9392505050565b600080600061008685856101d1565b909250905060008160048111156100ad57634e487b7160e01b600052602160045260246000fd5b1480156100cb5750856001600160a01b0316826001600160a01b0316145b156100db57600192505050610070565b600080876001600160a01b0316631626ba7e60e01b8888604051602401610103929190610474565b60408051601f198184030181529181526020820180516001600160e01b03166001600160e01b03199094169390931790925290516101419190610458565b600060405180830381855afa9150503d806000811461017c576040519150601f19603f3d011682016040523d82523d6000602084013e610181565b606091505b5091509150818015610194575080516020145b80156101c557508051630b135d3f60e11b906101b99083016020908101908401610430565b6001600160e01b031916145b98975050505050505050565b6000808251604114156102085760208301516040840151606085015160001a6101fc87828585610241565b9450945050505061023a565b825160401415610232576020830151604084015161022786838361032e565b93509350505061023a565b506000905060025b9250929050565b6000807f7fffffffffffffffffffffffffffffff5d576e7357a4501ddfe92f46681b20a08311156102785750600090506003610325565b8460ff16601b1415801561029057508460ff16601c14155b156102a15750600090506004610325565b6040805160008082526020820180845289905260ff881692820192909252606081018690526080810185905260019060a0016020604051602081039080840390855afa1580156102f5573d6000803e3d6000fd5b5050604051601f1901519150506001600160a01b03811661031e57600060019250925050610325565b9150600090505b94509492505050565b6000806001600160ff1b03831660ff84901c601b0161034f87828885610241565b935093505050935093915050565b600080600060608486031215610371578283fd5b83356001600160a01b0381168114610387578384fd5b925060208401359150604084013567ffffffffffffffff808211156103aa578283fd5b818601915086601f8301126103bd578283fd5b8135818111156103cf576103cf6104de565b604051601f8201601f19908116603f011681019083821181831017156103f7576103f76104de565b8160405282815289602084870101111561040f578586fd5b82602086016020830137856020848301015280955050505050509250925092565b600060208284031215610441578081fd5b81516001600160e01b031981168114610070578182fd5b6000825161046a8184602087016104ae565b9190910192915050565b60008382526040602083015282518060408401526104998160608501602087016104ae565b601f01601f1916919091016060019392505050565b60005b838110156104c95781810151838201526020016104b1565b838111156104d8576000848401525b50505050565b634e487b7160e01b600052604160045260246000fdfea26469706673582212208f7095614d9993f9fd66a13363bc2d836b05cf9c72055298e2b5a4076373958464736f6c63430008020033",
  "immutableReferences": {},
  "source": "// SPDX-License-Identifier: MIT\n\npragma solidity ^0.8.0;\n\nimport \"../utils/cryptography/SignatureChecker.sol\";\n\ncontract SignatureCheckerMock {\n    using SignatureChecker for address;\n\n    function isValidSignatureNow(\n        address signer,\n        bytes32 hash,\n        bytes memory signature\n    ) public view returns (bool) {\n        return signer.isValidSignatureNow(hash, signature);\n    }\n}\n",
  "sourcePath": "/Users/shangyihuang/Documents/SocialFi/client/contracts/contracts/mocks/SignatureCheckerMock.sol",
  "compiler": {
    "name": "solc",
    "version": "0.8.2+commit.661d1103.Emscripten.clang"
  },
  "schemaVersion": "3.4.7",
  "updatedAt": "2022-05-05T11:49:18.632Z",
  "devdoc": {
    "kind": "dev",
    "methods": {},
    "version": 1
  },
  "userdoc": {
    "kind": "user",
    "methods": {},
    "version": 1
  }
}