{
  "contractName": "SignedSafeMathMock",
  "abi": [
    {
      "inputs": [
        {
          "internalType": "int256",
          "name": "a",
          "type": "int256"
        },
        {
          "internalType": "int256",
          "name": "b",
          "type": "int256"
        }
      ],
      "name": "mul",
      "outputs": [
        {
          "internalType": "int256",
          "name": "",
          "type": "int256"
        }
      ],
      "stateMutability": "pure",
      "type": "function"
    },
    {
      "inputs": [
        {
          "internalType": "int256",
          "name": "a",
          "type": "int256"
        },
        {
          "internalType": "int256",
          "name": "b",
          "type": "int256"
        }
      ],
      "name": "div",
      "outputs": [
        {
          "internalType": "int256",
          "name": "",
          "type": "int256"
        }
      ],
      "stateMutability": "pure",
      "type": "function"
    },
    {
      "inputs": [
        {
          "internalType": "int256",
          "name": "a",
          "type": "int256"
        },
        {
          "internalType": "int256",
          "name": "b",
          "type": "int256"
        }
      ],
      "name": "sub",
      "outputs": [
        {
          "internalType": "int256",
          "name": "",
          "type": "int256"
        }
      ],
      "stateMutability": "pure",
      "type": "function"
    },
    {
      "inputs": [
        {
          "internalType": "int256",
          "name": "a",
          "type": "int256"
        },
        {
          "internalType": "int256",
          "name": "b",
          "type": "int256"
        }
      ],
      "name": "add",
      "outputs": [
        {
          "internalType": "int256",
          "name": "",
          "type": "int256"
        }
      ],
      "stateMutability": "pure",
      "type": "function"
    }
  ],
  "bytecode": "0x608060405234801561001057600080fd5b506102c0806100206000396000f3fe608060405234801561001057600080fd5b506004361061004c5760003560e01c80634350913814610051578063a5f3c23b14610076578063adefc37b14610089578063bbe93d911461009c575b600080fd5b61006461005f366004610116565b6100af565b60405190815260200160405180910390f35b610064610084366004610116565b6100c2565b610064610097366004610116565b6100ce565b6100646100aa366004610116565b6100da565b60006100bb83836100e6565b9392505050565b60006100bb83836100f2565b60006100bb83836100fe565b60006100bb838361010a565b60006100bb8284610178565b60006100bb8284610137565b60006100bb8284610235565b60006100bb82846101b2565b60008060408385031215610128578182fd5b50508035926020909101359150565b600080821280156001600160ff1b038490038513161561015957610159610274565b600160ff1b839003841281161561017257610172610274565b50500190565b60008261019357634e487b7160e01b81526012600452602481fd5b600160ff1b8214600019841416156101ad576101ad610274565b500590565b60006001600160ff1b03818413828413808216868404861116156101d8576101d8610274565b600160ff1b848712828116878305891216156101f6576101f6610274565b85871292508782058712848416161561021157610211610274565b8785058712818416161561022757610227610274565b505050929093029392505050565b60008083128015600160ff1b85018412161561025357610253610274565b6001600160ff1b038401831381161561026e5761026e610274565b50500390565b634e487b7160e01b600052601160045260246000fdfea264697066735822122023ce6dc46a986675afa699fe1c6f70c1b448531aca658371a3671d15f387703464736f6c63430008020033",
  "immutableReferences": {},
  "source": "// SPDX-License-Identifier: MIT\n\npragma solidity ^0.8.0;\n\nimport \"../utils/math/SignedSafeMath.sol\";\n\ncontract SignedSafeMathMock {\n    function mul(int256 a, int256 b) public pure returns (int256) {\n        return SignedSafeMath.mul(a, b);\n    }\n\n    function div(int256 a, int256 b) public pure returns (int256) {\n        return SignedSafeMath.div(a, b);\n    }\n\n    function sub(int256 a, int256 b) public pure returns (int256) {\n        return SignedSafeMath.sub(a, b);\n    }\n\n    function add(int256 a, int256 b) public pure returns (int256) {\n        return SignedSafeMath.add(a, b);\n    }\n}\n",
  "sourcePath": "/Users/shangyihuang/Documents/SocialFi/client/contracts/contracts/mocks/SignedSafeMathMock.sol",
  "compiler": {
    "name": "solc",
    "version": "0.8.2+commit.661d1103.Emscripten.clang"
  },
  "schemaVersion": "3.4.7",
  "updatedAt": "2022-05-05T11:49:18.633Z",
  "devdoc": {
    "kind": "dev",
    "methods": {},
    "version": 1
  },
  "userdoc": {
    "kind": "user",
    "methods": {},
    "version": 1
  }
}