{
  "contractName": "TimersTimestampImpl",
  "abi": [
    {
      "inputs": [],
      "name": "getDeadline",
      "outputs": [
        {
          "internalType": "uint64",
          "name": "",
          "type": "uint64"
        }
      ],
      "stateMutability": "view",
      "type": "function"
    },
    {
      "inputs": [
        {
          "internalType": "uint64",
          "name": "timestamp",
          "type": "uint64"
        }
      ],
      "name": "setDeadline",
      "outputs": [],
      "stateMutability": "nonpayable",
      "type": "function"
    },
    {
      "inputs": [],
      "name": "reset",
      "outputs": [],
      "stateMutability": "nonpayable",
      "type": "function"
    },
    {
      "inputs": [],
      "name": "isUnset",
      "outputs": [
        {
          "internalType": "bool",
          "name": "",
          "type": "bool"
        }
      ],
      "stateMutability": "view",
      "type": "function"
    },
    {
      "inputs": [],
      "name": "isStarted",
      "outputs": [
        {
          "internalType": "bool",
          "name": "",
          "type": "bool"
        }
      ],
      "stateMutability": "view",
      "type": "function"
    },
    {
      "inputs": [],
      "name": "isPending",
      "outputs": [
        {
          "internalType": "bool",
          "name": "",
          "type": "bool"
        }
      ],
      "stateMutability": "view",
      "type": "function"
    },
    {
      "inputs": [],
      "name": "isExpired",
      "outputs": [
        {
          "internalType": "bool",
          "name": "",
          "type": "bool"
        }
      ],
      "stateMutability": "view",
      "type": "function"
    }
  ],
  "bytecode": "0x608060405234801561001057600080fd5b5061027a806100206000396000f3fe608060405234801561001057600080fd5b506004361061007d5760003560e01c80635f8d96de1161005b5780635f8d96de146100af5780639c30ad7e146100d0578063aebc0483146100d8578063d826f88f146101085761007d565b80632260fe3a146100825780632f13b60c1461009f578063544736e6146100a7575b600080fd5b61008a610110565b60405190151581526020015b60405180910390f35b61008a610135565b61008a61015a565b6100b761017f565b60405167ffffffffffffffff9091168152602001610096565b61008a6101a2565b6101066100e6366004610215565b6000805467ffffffffffffffff191667ffffffffffffffff831617905550565b005b6101066101c7565b60408051602081019091526000805467ffffffffffffffff169182905290155b905090565b60408051602081019091526000805467ffffffffffffffff16825290610130906101df565b60408051602081019091526000805467ffffffffffffffff1691829052901515610130565b60408051602081019091526000805467ffffffffffffffff169182905290610130565b60408051602081019091526000805467ffffffffffffffff1691829052904210610130565b6101dd6000805467ffffffffffffffff19169055565b565b60006101f5825167ffffffffffffffff16151590565b801561020f575042826000015167ffffffffffffffff1611155b92915050565b600060208284031215610226578081fd5b813567ffffffffffffffff8116811461023d578182fd5b939250505056fea26469706673582212200935953a7448fd3ec8ba87e2777ca4c8e3c4813916a61e206236761e841d744464736f6c63430008020033",
  "immutableReferences": {},
  "source": "// SPDX-License-Identifier: MIT\n\npragma solidity ^0.8.0;\n\nimport \"../utils/Timers.sol\";\n\ncontract TimersTimestampImpl {\n    using Timers for Timers.Timestamp;\n\n    Timers.Timestamp private _timer;\n\n    function getDeadline() public view returns (uint64) {\n        return _timer.getDeadline();\n    }\n\n    function setDeadline(uint64 timestamp) public {\n        _timer.setDeadline(timestamp);\n    }\n\n    function reset() public {\n        _timer.reset();\n    }\n\n    function isUnset() public view returns (bool) {\n        return _timer.isUnset();\n    }\n\n    function isStarted() public view returns (bool) {\n        return _timer.isStarted();\n    }\n\n    function isPending() public view returns (bool) {\n        return _timer.isPending();\n    }\n\n    function isExpired() public view returns (bool) {\n        return _timer.isExpired();\n    }\n}\n",
  "sourcePath": "/Users/shangyihuang/Documents/SocialFi/client/contracts/contracts/mocks/TimersTimestampImpl.sol",
  "compiler": {
    "name": "solc",
    "version": "0.8.2+commit.661d1103.Emscripten.clang"
  },
  "schemaVersion": "3.4.7",
  "updatedAt": "2022-05-05T11:49:18.639Z",
  "devdoc": {
    "kind": "dev",
    "methods": {},
    "version": 1
  },
  "userdoc": {
    "kind": "user",
    "methods": {},
    "version": 1
  }
}