{
  "contractName": "UUPSUpgradeableUnsafeMock",
  "abi": [
    {
      "anonymous": false,
      "inputs": [
        {
          "indexed": false,
          "internalType": "address",
          "name": "previousAdmin",
          "type": "address"
        },
        {
          "indexed": false,
          "internalType": "address",
          "name": "newAdmin",
          "type": "address"
        }
      ],
      "name": "AdminChanged",
      "type": "event"
    },
    {
      "anonymous": false,
      "inputs": [
        {
          "indexed": true,
          "internalType": "address",
          "name": "beacon",
          "type": "address"
        }
      ],
      "name": "BeaconUpgraded",
      "type": "event"
    },
    {
      "anonymous": false,
      "inputs": [
        {
          "indexed": true,
          "internalType": "address",
          "name": "implementation",
          "type": "address"
        }
      ],
      "name": "Upgraded",
      "type": "event"
    },
    {
      "inputs": [],
      "name": "current",
      "outputs": [
        {
          "internalType": "uint256",
          "name": "",
          "type": "uint256"
        }
      ],
      "stateMutability": "view",
      "type": "function"
    },
    {
      "inputs": [],
      "name": "decrement",
      "outputs": [],
      "stateMutability": "nonpayable",
      "type": "function"
    },
    {
      "inputs": [],
      "name": "increment",
      "outputs": [],
      "stateMutability": "nonpayable",
      "type": "function"
    },
    {
      "inputs": [],
      "name": "reset",
      "outputs": [],
      "stateMutability": "nonpayable",
      "type": "function"
    },
    {
      "inputs": [
        {
          "internalType": "address",
          "name": "newImplementation",
          "type": "address"
        }
      ],
      "name": "upgradeTo",
      "outputs": [],
      "stateMutability": "nonpayable",
      "type": "function"
    },
    {
      "inputs": [
        {
          "internalType": "address",
          "name": "newImplementation",
          "type": "address"
        },
        {
          "internalType": "bytes",
          "name": "data",
          "type": "bytes"
        }
      ],
      "name": "upgradeToAndCall",
      "outputs": [],
      "stateMutability": "payable",
      "type": "function"
    }
  ],
  "bytecode": "0x60a06040523060601b60805234801561001757600080fd5b5060805160601c6105e1610033600039600050506105e16000f3fe6080604052600436106100555760003560e01c80632baeceb71461005a5780633659cfe6146100715780634f1ef286146100915780639fa6a6e3146100a4578063d09de08a146100cb578063d826f88f146100e0575b600080fd5b34801561006657600080fd5b5061006f6100f5565b005b34801561007d57600080fd5b5061006f61008c36600461041c565b610101565b61006f61009f366004610436565b61011f565b3480156100b057600080fd5b506100b961012f565b60405190815260200160405180910390f35b3480156100d757600080fd5b5061006f610140565b3480156100ec57600080fd5b5061006f61014e565b6100ff6000610157565b565b61011c816040518060200160405280600081525060006101b3565b50565b61012b828260006101b3565b5050565b600061013b60006101df565b905090565b6100ff600080546001019055565b6100ff60008055565b8054806101ab5760405162461bcd60e51b815260206004820152601b60248201527f436f756e7465723a2064656372656d656e74206f766572666c6f77000000000060448201526064015b60405180910390fd5b600019019055565b6101bc836101e7565b6000825111806101c95750805b156101da576101d88383610227565b505b505050565b80545b919050565b6101f081610253565b6040516001600160a01b038216907fbc7cd75a20ee27fd9adebab32041f755214dbc6bffa90cc0225b39da2e5c2d3b90600090a250565b606061024c8383604051806060016040528060278152602001610585602791396102f8565b9392505050565b803b6102b75760405162461bcd60e51b815260206004820152602d60248201527f455243313936373a206e657720696d706c656d656e746174696f6e206973206e60448201526c1bdd08184818dbdb9d1c9858dd609a1b60648201526084016101a2565b7f360894a13ba1a3210667c828492db98dca3e2076cc3735a920a3ca505d382bbc80546001600160a01b0319166001600160a01b0392909216919091179055565b6060833b6103575760405162461bcd60e51b815260206004820152602660248201527f416464726573733a2064656c65676174652063616c6c20746f206e6f6e2d636f6044820152651b9d1c9858dd60d21b60648201526084016101a2565b600080856001600160a01b03168560405161037291906104f3565b600060405180830381855af49150503d80600081146103ad576040519150601f19603f3d011682016040523d82523d6000602084013e6103b2565b606091505b50915091506103c28282866103cc565b9695505050505050565b606083156103db57508161024c565b8251156103eb5782518084602001fd5b8160405162461bcd60e51b81526004016101a2919061050f565b80356001600160a01b03811681146101e257600080fd5b60006020828403121561042d578081fd5b61024c82610405565b60008060408385031215610448578081fd5b61045183610405565b9150602083013567ffffffffffffffff8082111561046d578283fd5b818501915085601f830112610480578283fd5b8135818111156104925761049261056e565b604051601f8201601f19908116603f011681019083821181831017156104ba576104ba61056e565b816040528281528860208487010111156104d2578586fd5b82602086016020830137856020848301015280955050505050509250929050565b60008251610505818460208701610542565b9190910192915050565b600060208252825180602084015261052e816040850160208701610542565b601f01601f19169190910160400192915050565b60005b8381101561055d578181015183820152602001610545565b838111156101d85750506000910152565b634e487b7160e01b600052604160045260246000fdfe416464726573733a206c6f772d6c6576656c2064656c65676174652063616c6c206661696c6564a2646970667358221220c696940f378c408bfebe26b8a2571cb63f33ee5aab26b1f11989bb23aeaa459864736f6c63430008020033",
  "immutableReferences": {},
  "source": "// SPDX-License-Identifier: MIT\n\npragma solidity ^0.8.0;\n\nimport \"../CountersImpl.sol\";\nimport \"../../proxy/utils/UUPSUpgradeable.sol\";\n\ncontract UUPSUpgradeableMock is CountersImpl, UUPSUpgradeable {\n    // Not having any checks in this function is dangerous! Do not do this outside tests!\n    function _authorizeUpgrade(address) internal virtual override {}\n}\n\ncontract UUPSUpgradeableUnsafeMock is UUPSUpgradeableMock {\n    function upgradeTo(address newImplementation) external virtual override {\n        ERC1967Upgrade._upgradeToAndCall(newImplementation, bytes(\"\"), false);\n    }\n\n    function upgradeToAndCall(address newImplementation, bytes memory data) external payable virtual override {\n        ERC1967Upgrade._upgradeToAndCall(newImplementation, data, false);\n    }\n}\n\ncontract UUPSUpgradeableBrokenMock is UUPSUpgradeableMock {\n    function upgradeTo(address) external virtual override {\n        // pass\n    }\n\n    function upgradeToAndCall(address, bytes memory) external payable virtual override {\n        // pass\n    }\n}\n",
  "sourcePath": "/Users/shangyihuang/Documents/SocialFi/client/contracts/contracts/mocks/UUPS/TestInProd.sol",
  "compiler": {
    "name": "solc",
    "version": "0.8.2+commit.661d1103.Emscripten.clang"
  },
  "schemaVersion": "3.4.7",
  "updatedAt": "2022-05-05T11:49:18.646Z",
  "devdoc": {
    "kind": "dev",
    "methods": {
      "upgradeTo(address)": {
        "details": "Upgrade the implementation of the proxy to `newImplementation`. Calls {_authorizeUpgrade}. Emits an {Upgraded} event."
      },
      "upgradeToAndCall(address,bytes)": {
        "details": "Upgrade the implementation of the proxy to `newImplementation`, and subsequently execute the function call encoded in `data`. Calls {_authorizeUpgrade}. Emits an {Upgraded} event."
      }
    },
    "version": 1
  },
  "userdoc": {
    "kind": "user",
    "methods": {},
    "version": 1
  }
}